{
  "_format": "hh-sol-artifact-1",
  "contractName": "TronPaymentSplitter",
  "sourceName": "contracts/tron/TronPaymentSplitter.sol",
  "abi": [
    {
      "inputs": [
        {
          "internalType": "address",
          "name": "_owner",
          "type": "address"
        },
        {
          "internalType": "address[]",
          "name": "_supportedTokens",
          "type": "address[]"
        }
      ],
      "stateMutability": "nonpayable",
      "type": "constructor"
    },
    {
      "inputs": [],
      "name": "AlreadyPaused",
      "type": "error"
    },
    {
      "inputs": [],
      "name": "AlreadyUnpaused",
      "type": "error"
    },
    {
      "inputs": [
        {
          "internalType": "uint256",
          "name": "amount",
          "type": "uint256"
        },
        {
          "internalType": "uint256",
          "name": "minimum",
          "type": "uint256"
        }
      ],
      "name": "AmountBelowMinimum",
      "type": "error"
    },
    {
      "inputs": [],
      "name": "BeneficiaryNotFound",
      "type": "error"
    },
    {
      "inputs": [
        {
          "internalType": "uint256",
          "name": "required",
          "type": "uint256"
        },
        {
          "internalType": "uint256",
          "name": "available",
          "type": "uint256"
        }
      ],
      "name": "InsufficientAllowance",
      "type": "error"
    },
    {
      "inputs": [
        {
          "internalType": "uint256",
          "name": "required",
          "type": "uint256"
        },
        {
          "internalType": "uint256",
          "name": "available",
          "type": "uint256"
        }
      ],
      "name": "InsufficientBalance",
      "type": "error"
    },
    {
      "inputs": [],
      "name": "InvalidAddress",
      "type": "error"
    },
    {
      "inputs": [],
      "name": "InvalidAmount",
      "type": "error"
    },
    {
      "inputs": [],
      "name": "InvalidFixedAmount",
      "type": "error"
    },
    {
      "inputs": [],
      "name": "InvalidPercentage",
      "type": "error"
    },
    {
      "inputs": [],
      "name": "InvalidSplitId",
      "type": "error"
    },
    {
      "inputs": [],
      "name": "InvalidSplitMode",
      "type": "error"
    },
    {
      "inputs": [],
      "name": "OwnerOnly",
      "type": "error"
    },
    {
      "inputs": [],
      "name": "PercentageOverflow",
      "type": "error"
    },
    {
      "inputs": [],
      "name": "RecipientExpected",
      "type": "error"
    },
    {
      "inputs": [
        {
          "internalType": "address",
          "name": "token",
          "type": "address"
        }
      ],
      "name": "SafeERC20FailedOperation",
      "type": "error"
    },
    {
      "inputs": [],
      "name": "SplitNotFound",
      "type": "error"
    },
    {
      "anonymous": false,
      "inputs": [
        {
          "indexed": true,
          "internalType": "uint256",
          "name": "splitId",
          "type": "uint256"
        },
        {
          "indexed": true,
          "internalType": "address",
          "name": "beneficiary",
          "type": "address"
        },
        {
          "indexed": false,
          "internalType": "uint256",
          "name": "percentage",
          "type": "uint256"
        },
        {
          "indexed": false,
          "internalType": "uint256",
          "name": "fixedAmount",
          "type": "uint256"
        }
      ],
      "name": "BeneficiaryAdded",
      "type": "event"
    },
    {
      "anonymous": false,
      "inputs": [
        {
          "indexed": true,
          "internalType": "uint256",
          "name": "splitId",
          "type": "uint256"
        },
        {
          "indexed": true,
          "internalType": "address",
          "name": "beneficiary",
          "type": "address"
        }
      ],
      "name": "BeneficiaryRemoved",
      "type": "event"
    },
    {
      "anonymous": false,
      "inputs": [
        {
          "indexed": true,
          "internalType": "uint256",
          "name": "splitId",
          "type": "uint256"
        },
        {
          "indexed": true,
          "internalType": "address",
          "name": "beneficiary",
          "type": "address"
        },
        {
          "indexed": false,
          "internalType": "uint256",
          "name": "newPercentage",
          "type": "uint256"
        },
        {
          "indexed": false,
          "internalType": "uint256",
          "name": "newFixedAmount",
          "type": "uint256"
        }
      ],
      "name": "BeneficiaryUpdated",
      "type": "event"
    },
    {
      "anonymous": false,
      "inputs": [
        {
          "indexed": true,
          "internalType": "address",
          "name": "beneficiary",
          "type": "address"
        },
        {
          "indexed": true,
          "internalType": "address",
          "name": "token",
          "type": "address"
        },
        {
          "indexed": false,
          "internalType": "uint256",
          "name": "amount",
          "type": "uint256"
        }
      ],
      "name": "Claimed",
      "type": "event"
    },
    {
      "anonymous": false,
      "inputs": [
        {
          "indexed": true,
          "internalType": "uint256",
          "name": "splitId",
          "type": "uint256"
        },
        {
          "indexed": false,
          "internalType": "uint256",
          "name": "oldMinAmount",
          "type": "uint256"
        },
        {
          "indexed": false,
          "internalType": "uint256",
          "name": "newMinAmount",
          "type": "uint256"
        }
      ],
      "name": "MinAmountUpdated",
      "type": "event"
    },
    {
      "anonymous": false,
      "inputs": [
        {
          "indexed": true,
          "internalType": "uint256",
          "name": "splitId",
          "type": "uint256"
        },
        {
          "indexed": true,
          "internalType": "address",
          "name": "token",
          "type": "address"
        },
        {
          "indexed": false,
          "internalType": "enum TronPaymentSplitter.SplitMode",
          "name": "mode",
          "type": "uint8"
        },
        {
          "indexed": false,
          "internalType": "uint256",
          "name": "createdAt",
          "type": "uint256"
        }
      ],
      "name": "SplitCreated",
      "type": "event"
    },
    {
      "anonymous": false,
      "inputs": [
        {
          "indexed": true,
          "internalType": "uint256",
          "name": "splitId",
          "type": "uint256"
        },
        {
          "indexed": true,
          "internalType": "address",
          "name": "token",
          "type": "address"
        },
        {
          "indexed": false,
          "internalType": "uint256",
          "name": "totalAmount",
          "type": "uint256"
        },
        {
          "indexed": false,
          "internalType": "uint256",
          "name": "beneficiaryCount",
          "type": "uint256"
        },
        {
          "indexed": false,
          "internalType": "uint256",
          "name": "timestamp",
          "type": "uint256"
        }
      ],
      "name": "SplitExecuted",
      "type": "event"
    },
    {
      "anonymous": false,
      "inputs": [
        {
          "indexed": true,
          "internalType": "uint256",
          "name": "splitId",
          "type": "uint256"
        },
        {
          "indexed": false,
          "internalType": "enum TronPaymentSplitter.SplitMode",
          "name": "oldMode",
          "type": "uint8"
        },
        {
          "indexed": false,
          "internalType": "enum TronPaymentSplitter.SplitMode",
          "name": "newMode",
          "type": "uint8"
        }
      ],
      "name": "SplitModeUpdated",
      "type": "event"
    },
    {
      "anonymous": false,
      "inputs": [
        {
          "indexed": true,
          "internalType": "uint256",
          "name": "splitId",
          "type": "uint256"
        }
      ],
      "name": "SplitPaused",
      "type": "event"
    },
    {
      "anonymous": false,
      "inputs": [
        {
          "indexed": true,
          "internalType": "uint256",
          "name": "splitId",
          "type": "uint256"
        }
      ],
      "name": "SplitUnpaused",
      "type": "event"
    },
    {
      "anonymous": false,
      "inputs": [
        {
          "indexed": true,
          "internalType": "address",
          "name": "token",
          "type": "address"
        },
        {
          "indexed": true,
          "internalType": "address",
          "name": "to",
          "type": "address"
        },
        {
          "indexed": false,
          "internalType": "uint256",
          "name": "amount",
          "type": "uint256"
        }
      ],
      "name": "TokenWithdrawn",
      "type": "event"
    },
    {
      "inputs": [
        {
          "internalType": "uint256",
          "name": "splitId",
          "type": "uint256"
        },
        {
          "components": [
            {
              "internalType": "address",
              "name": "account",
              "type": "address"
            },
            {
              "internalType": "uint256",
              "name": "percentage",
              "type": "uint256"
            },
            {
              "internalType": "uint256",
              "name": "fixedAmount",
              "type": "uint256"
            },
            {
              "internalType": "uint256",
              "name": "tier",
              "type": "uint256"
            }
          ],
          "internalType": "struct TronPaymentSplitter.Beneficiary",
          "name": "beneficiary",
          "type": "tuple"
        }
      ],
      "name": "addBeneficiary",
      "outputs": [],
      "stateMutability": "nonpayable",
      "type": "function"
    },
    {
      "inputs": [
        {
          "internalType": "address",
          "name": "token",
          "type": "address"
        }
      ],
      "name": "addSupportedToken",
      "outputs": [],
      "stateMutability": "nonpayable",
      "type": "function"
    },
    {
      "inputs": [
        {
          "internalType": "uint256",
          "name": "",
          "type": "uint256"
        },
        {
          "internalType": "address",
          "name": "",
          "type": "address"
        }
      ],
      "name": "beneficiaryBalances",
      "outputs": [
        {
          "internalType": "uint256",
          "name": "",
          "type": "uint256"
        }
      ],
      "stateMutability": "view",
      "type": "function"
    },
    {
      "inputs": [
        {
          "internalType": "uint256",
          "name": "splitId",
          "type": "uint256"
        },
        {
          "internalType": "uint256",
          "name": "amount",
          "type": "uint256"
        }
      ],
      "name": "calculateDistribution",
      "outputs": [
        {
          "internalType": "uint256[]",
          "name": "shares",
          "type": "uint256[]"
        }
      ],
      "stateMutability": "view",
      "type": "function"
    },
    {
      "inputs": [
        {
          "internalType": "address",
          "name": "token",
          "type": "address"
        },
        {
          "internalType": "enum TronPaymentSplitter.SplitMode",
          "name": "mode",
          "type": "uint8"
        },
        {
          "internalType": "uint256",
          "name": "minAmount",
          "type": "uint256"
        },
        {
          "components": [
            {
              "internalType": "address",
              "name": "account",
              "type": "address"
            },
            {
              "internalType": "uint256",
              "name": "percentage",
              "type": "uint256"
            },
            {
              "internalType": "uint256",
              "name": "fixedAmount",
              "type": "uint256"
            },
            {
              "internalType": "uint256",
              "name": "tier",
              "type": "uint256"
            }
          ],
          "internalType": "struct TronPaymentSplitter.Beneficiary[]",
          "name": "beneficiaries",
          "type": "tuple[]"
        }
      ],
      "name": "createSplit",
      "outputs": [
        {
          "internalType": "uint256",
          "name": "splitId",
          "type": "uint256"
        }
      ],
      "stateMutability": "nonpayable",
      "type": "function"
    },
    {
      "inputs": [
        {
          "internalType": "uint256",
          "name": "splitId",
          "type": "uint256"
        },
        {
          "internalType": "uint256",
          "name": "amount",
          "type": "uint256"
        }
      ],
      "name": "executeSplit",
      "outputs": [],
      "stateMutability": "nonpayable",
      "type": "function"
    },
    {
      "inputs": [
        {
          "internalType": "uint256",
          "name": "splitId",
          "type": "uint256"
        }
      ],
      "name": "getBeneficiaries",
      "outputs": [
        {
          "internalType": "address[]",
          "name": "accounts",
          "type": "address[]"
        },
        {
          "internalType": "uint256[]",
          "name": "percentages",
          "type": "uint256[]"
        },
        {
          "internalType": "uint256[]",
          "name": "fixedAmounts",
          "type": "uint256[]"
        },
        {
          "internalType": "uint256[]",
          "name": "tiers",
          "type": "uint256[]"
        }
      ],
      "stateMutability": "view",
      "type": "function"
    },
    {
      "inputs": [
        {
          "internalType": "uint256",
          "name": "splitId",
          "type": "uint256"
        }
      ],
      "name": "getSplit",
      "outputs": [
        {
          "internalType": "address",
          "name": "token",
          "type": "address"
        },
        {
          "internalType": "enum TronPaymentSplitter.SplitMode",
          "name": "mode",
          "type": "uint8"
        },
        {
          "internalType": "uint256",
          "name": "minAmount",
          "type": "uint256"
        },
        {
          "internalType": "bool",
          "name": "paused",
          "type": "bool"
        },
        {
          "internalType": "uint256",
          "name": "beneficiaryCount",
          "type": "uint256"
        },
        {
          "internalType": "uint256",
          "name": "createdAt",
          "type": "uint256"
        },
        {
          "internalType": "uint256",
          "name": "lastExecuted",
          "type": "uint256"
        },
        {
          "internalType": "uint256",
          "name": "totalReceived",
          "type": "uint256"
        },
        {
          "internalType": "uint256",
          "name": "totalDistributed",
          "type": "uint256"
        }
      ],
      "stateMutability": "view",
      "type": "function"
    },
    {
      "inputs": [
        {
          "internalType": "address",
          "name": "token",
          "type": "address"
        }
      ],
      "name": "getTokenBalance",
      "outputs": [
        {
          "internalType": "uint256",
          "name": "balance",
          "type": "uint256"
        }
      ],
      "stateMutability": "view",
      "type": "function"
    },
    {
      "inputs": [
        {
          "internalType": "address",
          "name": "token",
          "type": "address"
        }
      ],
      "name": "isTokenSupported",
      "outputs": [
        {
          "internalType": "bool",
          "name": "supported",
          "type": "bool"
        }
      ],
      "stateMutability": "view",
      "type": "function"
    },
    {
      "inputs": [],
      "name": "nextSplitId",
      "outputs": [
        {
          "internalType": "uint256",
          "name": "",
          "type": "uint256"
        }
      ],
      "stateMutability": "view",
      "type": "function"
    },
    {
      "inputs": [],
      "name": "owner",
      "outputs": [
        {
          "internalType": "address",
          "name": "",
          "type": "address"
        }
      ],
      "stateMutability": "view",
      "type": "function"
    },
    {
      "inputs": [
        {
          "internalType": "uint256",
          "name": "splitId",
          "type": "uint256"
        }
      ],
      "name": "pauseSplit",
      "outputs": [],
      "stateMutability": "nonpayable",
      "type": "function"
    },
    {
      "inputs": [
        {
          "internalType": "uint256",
          "name": "splitId",
          "type": "uint256"
        },
        {
          "internalType": "address",
          "name": "beneficiaryAddress",
          "type": "address"
        }
      ],
      "name": "removeBeneficiary",
      "outputs": [],
      "stateMutability": "nonpayable",
      "type": "function"
    },
    {
      "inputs": [
        {
          "internalType": "address",
          "name": "token",
          "type": "address"
        }
      ],
      "name": "removeSupportedToken",
      "outputs": [],
      "stateMutability": "nonpayable",
      "type": "function"
    },
    {
      "inputs": [
        {
          "internalType": "uint256",
          "name": "",
          "type": "uint256"
        }
      ],
      "name": "splits",
      "outputs": [
        {
          "internalType": "address",
          "name": "token",
          "type": "address"
        },
        {
          "internalType": "enum TronPaymentSplitter.SplitMode",
          "name": "mode",
          "type": "uint8"
        },
        {
          "internalType": "uint256",
          "name": "minAmount",
          "type": "uint256"
        },
        {
          "internalType": "bool",
          "name": "paused",
          "type": "bool"
        },
        {
          "internalType": "uint256",
          "name": "createdAt",
          "type": "uint256"
        },
        {
          "internalType": "uint256",
          "name": "lastExecuted",
          "type": "uint256"
        },
        {
          "internalType": "uint256",
          "name": "totalReceived",
          "type": "uint256"
        },
        {
          "internalType": "uint256",
          "name": "totalDistributed",
          "type": "uint256"
        }
      ],
      "stateMutability": "view",
      "type": "function"
    },
    {
      "inputs": [
        {
          "internalType": "address",
          "name": "",
          "type": "address"
        }
      ],
      "name": "supportedTokens",
      "outputs": [
        {
          "internalType": "bool",
          "name": "",
          "type": "bool"
        }
      ],
      "stateMutability": "view",
      "type": "function"
    },
    {
      "inputs": [
        {
          "internalType": "uint256",
          "name": "",
          "type": "uint256"
        },
        {
          "internalType": "address",
          "name": "",
          "type": "address"
        },
        {
          "internalType": "address",
          "name": "",
          "type": "address"
        }
      ],
      "name": "tokenBalances",
      "outputs": [
        {
          "internalType": "uint256",
          "name": "",
          "type": "uint256"
        }
      ],
      "stateMutability": "view",
      "type": "function"
    },
    {
      "inputs": [
        {
          "internalType": "uint256",
          "name": "splitId",
          "type": "uint256"
        }
      ],
      "name": "unpauseSplit",
      "outputs": [],
      "stateMutability": "nonpayable",
      "type": "function"
    },
    {
      "inputs": [
        {
          "internalType": "uint256",
          "name": "splitId",
          "type": "uint256"
        },
        {
          "internalType": "address",
          "name": "beneficiaryAddress",
          "type": "address"
        },
        {
          "internalType": "uint256",
          "name": "newPercentage",
          "type": "uint256"
        },
        {
          "internalType": "uint256",
          "name": "newFixedAmount",
          "type": "uint256"
        }
      ],
      "name": "updateBeneficiary",
      "outputs": [],
      "stateMutability": "nonpayable",
      "type": "function"
    },
    {
      "inputs": [
        {
          "internalType": "uint256",
          "name": "splitId",
          "type": "uint256"
        },
        {
          "internalType": "uint256",
          "name": "newMinAmount",
          "type": "uint256"
        }
      ],
      "name": "updateMinAmount",
      "outputs": [],
      "stateMutability": "nonpayable",
      "type": "function"
    },
    {
      "inputs": [
        {
          "internalType": "address",
          "name": "newOwner",
          "type": "address"
        }
      ],
      "name": "updateOwner",
      "outputs": [],
      "stateMutability": "nonpayable",
      "type": "function"
    },
    {
      "inputs": [
        {
          "internalType": "uint256",
          "name": "splitId",
          "type": "uint256"
        },
        {
          "internalType": "enum TronPaymentSplitter.SplitMode",
          "name": "newMode",
          "type": "uint8"
        }
      ],
      "name": "updateSplitMode",
      "outputs": [],
      "stateMutability": "nonpayable",
      "type": "function"
    },
    {
      "inputs": [
        {
          "internalType": "address",
          "name": "token",
          "type": "address"
        },
        {
          "internalType": "address",
          "name": "to",
          "type": "address"
        },
        {
          "internalType": "uint256",
          "name": "amount",
          "type": "uint256"
        }
      ],
      "name": "withdrawToken",
      "outputs": [],
      "stateMutability": "nonpayable",
      "type": "function"
    }
  ],
  "bytecode": "0x60806040523480156200001157600080fd5b5060405162002a1a38038062002a1a833981016040819052620000349162000150565b6001600160a01b0382166200005c5760405163e6c4247b60e01b815260040160405180910390fd5b600280546001600160a01b0319166001600160a01b0384161790556001805560005b8151811015620001145760008282815181106200009f576200009f62000239565b6020026020010151905060006001600160a01b0316816001600160a01b031603620000dd5760405163e6c4247b60e01b815260040160405180910390fd5b6001600160a01b03166000908152600360205260409020805460ff19166001179055806200010b816200024f565b9150506200007e565b50505062000277565b80516001600160a01b03811681146200013557600080fd5b919050565b634e487b7160e01b600052604160045260246000fd5b600080604083850312156200016457600080fd5b6200016f836200011d565b602084810151919350906001600160401b03808211156200018f57600080fd5b818601915086601f830112620001a457600080fd5b815181811115620001b957620001b96200013a565b8060051b604051601f19603f83011681018181108582111715620001e157620001e16200013a565b6040529182528482019250838101850191898311156200020057600080fd5b938501935b82851015620002295762000219856200011d565b8452938501939285019262000205565b8096505050505050509250929050565b634e487b7160e01b600052603260045260246000fd5b6000600182016200027057634e487b7160e01b600052601160045260246000fd5b5060010190565b61279380620002876000396000f3fe608060405234801561001057600080fd5b50600436106101585760003560e01c806374265dd4116100c3578063884c30061161007c578063884c30061461034b5780638da5cb5b146103bc578063a326707c146103e7578063d5c6f21e14610418578063df04abab1461042b578063e44dea6d1461043457600080fd5b806374265dd4146102b057806375151b63146102c3578063752033db146102ef5780637631919014610302578063783804d914610315578063880cdc311461033857600080fd5b80633aecd0e3116101155780633aecd0e3146101e45780633d2d07e2146101f7578063466252df14610222578063514a68101461024257806368c4ac261461026a5780636d69fcaf1461029d57600080fd5b806301e336671461015d57806304e5cba714610172578063211876901461018557806323de4fcd146101985780632b015aa0146101be5780632f8428a4146101d1575b600080fd5b61017061016b36600461215f565b610447565b005b6101706101803660046121aa565b6105be565b6101706101933660046121d6565b61068d565b6101ab6101a63660046122a1565b610755565b6040519081526020015b60405180910390f35b6101706101cc36600461237e565b61098a565b6101706101df3660046123a0565b610a27565b6101ab6101f23660046123db565b610baf565b6101ab6102053660046123fd565b600460209081526000928352604080842090915290825290205481565b61023561023036600461237e565b610c20565b6040516101b5919061245b565b6102556102503660046121d6565b610f5d565b6040516101b5999897969594939291906124a6565b61028d6102783660046123db565b60036020526000908152604090205460ff1681565b60405190151581526020016101b5565b6101706102ab3660046123db565b610ff2565b6101706102be36600461237e565b611068565b61028d6102d13660046123db565b6001600160a01b031660009081526003602052604090205460ff1690565b6101706102fd3660046121d6565b611295565b6101706103103660046123db565b611359565b6103286103233660046121d6565b6113a5565b6040516101b594939291906124fb565b6101706103463660046123db565b6116a1565b6103a86103593660046121d6565b60006020819052908152604090208054600282015460038301546004840154600585015460068601546007909601546001600160a01b03861696600160a01b90960460ff908116969416939088565b6040516101b5989796959493929190612585565b6002546103cf906001600160a01b031681565b6040516001600160a01b0390911681526020016101b5565b6101ab6103f53660046125d4565b600560209081526000938452604080852082529284528284209052825290205481565b6101706104263660046123fd565b611715565b6101ab60015481565b610170610442366004612610565b611917565b6002546001600160a01b0316331461047257604051630b2db9b760e31b815260040160405180910390fd5b6001600160a01b0382166104995760405163e6c4247b60e01b815260040160405180910390fd5b806000036104ba5760405163162908e360e11b815260040160405180910390fd5b6040516370a0823160e01b81523060048201526000906001600160a01b038516906370a0823190602401602060405180830381865afa158015610501573d6000803e3d6000fd5b505050506040513d601f19601f820116820180604052508101906105259190612634565b9050818110156105575760405163cf47918160e01b815260048101839052602481018290526044015b60405180910390fd5b61056b6001600160a01b03851684846119cd565b826001600160a01b0316846001600160a01b03167f8210728e7c071f615b840ee026032693858fbcd5e5359e67e438c890f59e5620846040516105b091815260200190565b60405180910390a350505050565b6002546001600160a01b031633146105e957604051630b2db9b760e31b815260040160405180910390fd5b81600154811061060c57604051630b3b6f4f60e01b815260040160405180910390fd5b60008381526020819052604090208054600160a01b80820460ff16928592909160ff60a01b19909116908360028111156106485761064861246e565b0217905550837f04f9d6f9be02ea7c8c92791d0bd1f70428c83a18ab2d35a7cacbf74cba9d2a16828560405161067f92919061264d565b60405180910390a250505050565b6002546001600160a01b031633146106b857604051630b2db9b760e31b815260040160405180910390fd5b8060015481106106db57604051630b3b6f4f60e01b815260040160405180910390fd5b60008281526020819052604090206003015460ff161561070e57604051631785c68160e01b815260040160405180910390fd5b600082815260208190526040808220600301805460ff191660011790555183917f28a605a7190db2f6842cc4046796099f13684a2b4a96b5da3cff3a5394641b8091a25050565b6002546000906001600160a01b0316331461078357604051630b2db9b760e31b815260040160405180910390fd5b6001600160a01b0385166107aa5760405163e6c4247b60e01b815260040160405180910390fd5b6001600160a01b03851660009081526003602052604090205460ff166107e35760405163937b509960e01b815260040160405180910390fd5b600180549060006107f38361267e565b90915550600081815260208190526040902080546001600160a01b0388166001600160a01b031982168117835592935086926001600160a81b031990911617600160a01b8360028111156108495761084961246e565b021790555060008181526020819052604081206002810185905560038101805460ff19169055426004909101555b82518110156108b5576108a38284838151811061089657610896612697565b6020026020010151611a31565b806108ad8161267e565b915050610877565b5060008460028111156108ca576108ca61246e565b0361093e576000805b8351811015610919578381815181106108ee576108ee612697565b6020026020010151602001518261090591906126ad565b9150806109118161267e565b9150506108d3565b50806127101461093c57604051637be654fd60e01b815260040160405180910390fd5b505b846001600160a01b0316817f0a95cdb8c5f0da807c95b158f15b9eccb52743192b17aa50c1a4380dffdce738864260405161097a9291906126c0565b60405180910390a3949350505050565b6002546001600160a01b031633146109b557604051630b2db9b760e31b815260040160405180910390fd5b8160015481106109d857604051630b3b6f4f60e01b815260040160405180910390fd5b6000838152602081815260409182902060020180549085905582518181529182018590529185917fec2fd73281b40a065a579fc0c74fbfb83380c2ba36c8f8a1d2a78913dd106c92910161067f565b6002546001600160a01b03163314610a5257604051630b2db9b760e31b815260040160405180910390fd5b836001548110610a7557604051630b3b6f4f60e01b815260040160405180910390fd5b600085815260208190526040812090805b6001830154811015610b4157866001600160a01b0316836001018281548110610ab157610ab1612697565b60009182526020909120600490910201546001600160a01b031603610b2f5785836001018281548110610ae657610ae6612697565b90600052602060002090600402016001018190555084836001018281548110610b1157610b11612697565b90600052602060002090600402016002018190555060019150610b41565b80610b398161267e565b915050610a86565b5080610b605760405163694f351f60e01b815260040160405180910390fd5b60408051868152602081018690526001600160a01b0388169189917fc320a614a2c14cc75f355094325e38d0069093b2d0707c0a5a3ac36f48940c6f910160405180910390a350505050505050565b6040516370a0823160e01b81523060048201526000906001600160a01b038316906370a0823190602401602060405180830381865afa158015610bf6573d6000803e3d6000fd5b505050506040513d601f19601f82011682018060405250810190610c1a9190612634565b92915050565b6060826001548110610c4557604051630b3b6f4f60e01b815260040160405180910390fd5b600084815260208190526040902060018101548067ffffffffffffffff811115610c7157610c716121ef565b604051908082528060200260200182016040528015610c9a578160200160208202803683370190505b50935060008254600160a01b900460ff166002811115610cbc57610cbc61246e565b03610d405760005b81811015610d3a57612710836001018281548110610ce457610ce4612697565b90600052602060002090600402016001015487610d0191906126db565b610d0b91906126f2565b858281518110610d1d57610d1d612697565b602090810291909101015280610d328161267e565b915050610cc4565b50610f54565b60018254600160a01b900460ff166002811115610d5f57610d5f61246e565b03610e7f576000805b82811015610db657836001018181548110610d8557610d85612697565b90600052602060002090600402016002015482610da291906126ad565b915080610dae8161267e565b915050610d68565b50858111610d3a5760005b82811015610e1f57836001018181548110610dde57610dde612697565b906000526020600020906004020160020154868281518110610e0257610e02612697565b602090810291909101015280610e178161267e565b915050610dc1565b506000610e2c8288612714565b9050600081118015610e3e5750600083115b15610e78578086610e50600186612714565b81518110610e6057610e60612697565b60200260200101818151610e7491906126ad565b9052505b5050610f54565b6000805b82811015610ed157836001018181548110610ea057610ea0612697565b90600052602060002090600402016003015482610ebd91906126ad565b915080610ec98161267e565b915050610e83565b5060005b82811015610f51578115610f3f5781846001018281548110610ef957610ef9612697565b90600052602060002090600402016003015488610f1691906126db565b610f2091906126f2565b868281518110610f3257610f32612697565b6020026020010181815250505b80610f498161267e565b915050610ed5565b50505b50505092915050565b6000806000806000806000806000896001548110610f8e57604051630b3b6f4f60e01b815260040160405180910390fd5b505050600097885250505060208590525050604090922080546002820154600383015460018401546004850154600586015460068701546007909701546001600160a01b0387169a60ff600160a01b90980488169a50959850959093169591949093565b6002546001600160a01b0316331461101d57604051630b2db9b760e31b815260040160405180910390fd5b6001600160a01b0381166110445760405163e6c4247b60e01b815260040160405180910390fd5b6001600160a01b03166000908152600360205260409020805460ff19166001179055565b81600154811061108b57604051630b3b6f4f60e01b815260040160405180910390fd5b6000838152602081905260409020600381015460ff16156110bf57604051631785c68160e01b815260040160405180910390fd5b80600201548310156110f457600281015460405163180cb56f60e11b815261054e918591600401918252602082015260400190565b80546040516370a0823160e01b81523360048201526001600160a01b039091169060009082906370a0823190602401602060405180830381865afa158015611140573d6000803e3d6000fd5b505050506040513d601f19601f820116820180604052508101906111649190612634565b9050848110156111915760405163cf47918160e01b8152600481018690526024810182905260440161054e565b604051636eb1769f60e11b81523360048201523060248201526000906001600160a01b0384169063dd62ed3e90604401602060405180830381865afa1580156111de573d6000803e3d6000fd5b505050506040513d601f19601f820116820180604052508101906112029190612634565b90508581101561122f5760405163054365bb60e31b8152600481018790526024810182905260440161054e565b6112446001600160a01b038416333089611b43565b61124f878588611b82565b4284600501819055508584600601600082825461126c91906126ad565b925050819055508584600701600082825461128791906126ad565b909155505050505050505050565b6002546001600160a01b031633146112c057604051630b2db9b760e31b815260040160405180910390fd5b8060015481106112e357604051630b3b6f4f60e01b815260040160405180910390fd5b60008281526020819052604090206003015460ff16611315576040516398b904cd60e01b815260040160405180910390fd5b600082815260208190526040808220600301805460ff191690555183917f1964894ad0f9dafae106660d89eb02a2672a727a43f55d1fb5c368b196f8c5a691a25050565b6002546001600160a01b0316331461138457604051630b2db9b760e31b815260040160405180910390fd5b6001600160a01b03166000908152600360205260409020805460ff19169055565b6060806060808460015481106113ce57604051630b3b6f4f60e01b815260040160405180910390fd5b60008681526020818152604080832060010180548251818502810185019093528083529192909190849084015b82821015611458576000848152602090819020604080516080810182526004860290920180546001600160a01b031683526001808201548486015260028201549284019290925260030154606083015290835290920191016113fb565b505082519293508291505067ffffffffffffffff81111561147b5761147b6121ef565b6040519080825280602002602001820160405280156114a4578160200160208202803683370190505b5096508067ffffffffffffffff8111156114c0576114c06121ef565b6040519080825280602002602001820160405280156114e9578160200160208202803683370190505b5095508067ffffffffffffffff811115611505576115056121ef565b60405190808252806020026020018201604052801561152e578160200160208202803683370190505b5094508067ffffffffffffffff81111561154a5761154a6121ef565b604051908082528060200260200182016040528015611573578160200160208202803683370190505b50935060005b818110156116965782818151811061159357611593612697565b6020026020010151600001518882815181106115b1576115b1612697565b60200260200101906001600160a01b031690816001600160a01b0316815250508281815181106115e3576115e3612697565b60200260200101516020015187828151811061160157611601612697565b60200260200101818152505082818151811061161f5761161f612697565b60200260200101516040015186828151811061163d5761163d612697565b60200260200101818152505082818151811061165b5761165b612697565b60200260200101516060015185828151811061167957611679612697565b60209081029190910101528061168e8161267e565b915050611579565b505050509193509193565b6002546001600160a01b031633146116cc57604051630b2db9b760e31b815260040160405180910390fd5b6001600160a01b0381166116f35760405163e6c4247b60e01b815260040160405180910390fd5b600280546001600160a01b0319166001600160a01b0392909216919091179055565b6002546001600160a01b0316331461174057604051630b2db9b760e31b815260040160405180910390fd5b81600154811061176357604051630b3b6f4f60e01b815260040160405180910390fd5b600083815260208190526040812090805b60018301548110156118bb57846001600160a01b031683600101828154811061179f5761179f612697565b60009182526020909120600490910201546001600160a01b0316036118a9576001808401805490916117d091612714565b815481106117e0576117e0612697565b906000526020600020906004020183600101828154811061180357611803612697565b60009182526020909120825460049092020180546001600160a01b0319166001600160a01b0390921691909117815560018083015481830155600280840154908301556003928301549290910191909155830180548061186557611865612727565b60008281526020812060046000199093019283020180546001600160a01b0319168155600181810183905560028201839055600390910191909155915591506118bb565b806118b38161267e565b915050611774565b50806118da5760405163694f351f60e01b815260040160405180910390fd5b6040516001600160a01b0385169086907f5762beedde4a2e20565516ecad294b3f516382c2ec8d5660bd218cc9012f533890600090a35050505050565b6002546001600160a01b0316331461194257604051630b2db9b760e31b815260040160405180910390fd5b81600154811061196557604051630b3b6f4f60e01b815260040160405180910390fd5b61196f8383611a31565b81600001516001600160a01b0316837f73db93c2a2d5a9c15e4b2dee46e8b6503419145cad0bdbce8b16e58c8ed137b7846020015185604001516040516119c0929190918252602082015260400190565b60405180910390a3505050565b6040516001600160a01b03838116602483015260448201839052611a2c91859182169063a9059cbb906064015b604051602081830303815290604052915060e01b6020820180516001600160e01b0383818316178352505050506120d2565b505050565b80516001600160a01b0316611a595760405163e6c4247b60e01b815260040160405180910390fd5b6000828152602081905260408120905b6001820154811015611ae25782600001516001600160a01b0316826001018281548110611a9857611a98612697565b60009182526020909120600490910201546001600160a01b031603611ad05760405163694f351f60e01b815260040160405180910390fd5b80611ada8161267e565b915050611a69565b506001908101805480830182556000918252602091829020845160049092020180546001600160a01b0319166001600160a01b0390921691909117815590830151918101919091556040820151600282015560609091015160039091015550565b6040516001600160a01b038481166024830152838116604483015260648201839052611b7c9186918216906323b872dd906084016119fa565b50505050565b600182015460008354600160a01b900460ff166002811115611ba657611ba661246e565b03611ca45760005b81811015611c9e576000846001018281548110611bcd57611bcd612697565b6000918252602080832060408051608081018252600490940290910180546001600160a01b03168452600181015492840183905260028101549184019190915260030154606083015290925061271090611c2790876126db565b611c3191906126f2565b90508015611c895781518654611c53916001600160a01b0390911690836119cd565b855482516040518381526001600160a01b03928316929091169060008051602061273e8339815191529060200160405180910390a35b50508080611c969061267e565b915050611bae565b50612082565b60018354600160a01b900460ff166002811115611cc357611cc361246e565b03611f2a57600082815b83811015611d5a576000866001018281548110611cec57611cec612697565b600091825260209182902060408051608081018252600490930290910180546001600160a01b03168352600181015493830193909352600283015490820181905260039092015460608201529150611d4490856126ad565b9350508080611d529061267e565b915050611ccd565b5083821115611d865760405163cf47918160e01b8152600481018390526024810185905260440161054e565b60005b83811015611e8a576000866001018281548110611da857611da8612697565b600091825260209182902060408051608081018252600490930290910180546001600160a01b0316835260018101549383019390935260028301549082018190526003909201546060820152915015801590611e08575082816040015111155b15611e7757805160408201518854611e2b926001600160a01b03909116916119cd565b6040810151611e3a9084612714565b8754825160408085015190519081529295506001600160a01b039182169291169060008051602061273e8339815191529060200160405180910390a35b5080611e828161267e565b915050611d89565b50600081118015611e9b5750600083115b15611f2357600085600101600185611eb39190612714565b81548110611ec357611ec3612697565b600091825260209091206004909102015486546001600160a01b039182169250611eef911682846119cd565b85546040518381526001600160a01b039182169183169060008051602061273e8339815191529060200160405180910390a3505b5050612082565b6000805b82811015611f7c57846001018181548110611f4b57611f4b612697565b90600052602060002090600402016003015482611f6891906126ad565b915080611f748161267e565b915050611f2e565b5060005b8281101561207f576000856001018281548110611f9f57611f9f612697565b6000918252602080832060408051608081018252600490940290910180546001600160a01b031684526001810154928401929092526002820154908301526003015460608201529150839003611ff5575061207f565b60008382606001518761200891906126db565b61201291906126f2565b9050801561206a5781518754612034916001600160a01b0390911690836119cd565b865482516040518381526001600160a01b03928316929091169060008051602061273e8339815191529060200160405180910390a35b505080806120779061267e565b915050611f80565b50505b8254604080518481526020810184905242918101919091526001600160a01b039091169085907ffb4c08e7084c15346c40a683d976a6ae205f4e06146d9122619cccdc75c3481d906060016105b0565b600080602060008451602086016000885af1806120f5576040513d6000823e3d81fd5b50506000513d9150811561210d57806001141561211a565b6001600160a01b0384163b155b15611b7c57604051635274afe760e01b81526001600160a01b038516600482015260240161054e565b80356001600160a01b038116811461215a57600080fd5b919050565b60008060006060848603121561217457600080fd5b61217d84612143565b925061218b60208501612143565b9150604084013590509250925092565b80356003811061215a57600080fd5b600080604083850312156121bd57600080fd5b823591506121cd6020840161219b565b90509250929050565b6000602082840312156121e857600080fd5b5035919050565b634e487b7160e01b600052604160045260246000fd5b604051601f8201601f1916810167ffffffffffffffff8111828210171561222e5761222e6121ef565b604052919050565b60006080828403121561224857600080fd5b6040516080810181811067ffffffffffffffff8211171561226b5761226b6121ef565b60405290508061227a83612143565b81526020830135602082015260408301356040820152606083013560608201525092915050565b60008060008060808086880312156122b857600080fd5b6122c186612143565b945060206122d081880161219b565b945060408701359350606087013567ffffffffffffffff808211156122f457600080fd5b818901915089601f83011261230857600080fd5b81358181111561231a5761231a6121ef565b612328848260051b01612205565b818152848101925060079190911b83018401908b82111561234857600080fd5b928401925b8184101561236e5761235f8c85612236565b8352928501929184019161234d565b989b979a50959850505050505050565b6000806040838503121561239157600080fd5b50508035926020909101359150565b600080600080608085870312156123b657600080fd5b843593506123c660208601612143565b93969395505050506040820135916060013590565b6000602082840312156123ed57600080fd5b6123f682612143565b9392505050565b6000806040838503121561241057600080fd5b823591506121cd60208401612143565b600081518084526020808501945080840160005b8381101561245057815187529582019590820190600101612434565b509495945050505050565b6020815260006123f66020830184612420565b634e487b7160e01b600052602160045260246000fd5b600381106124a257634e487b7160e01b600052602160045260246000fd5b9052565b6001600160a01b038a16815261012081016124c4602083018b612484565b60408201989098529515156060870152608086019490945260a085019290925260c084015260e08301526101009091015292915050565b6080808252855190820181905260009060209060a0840190828901845b8281101561253d5781516001600160a01b031684529284019290840190600101612518565b505050838103828501526125518188612420565b91505082810360408401526125668186612420565b9050828103606084015261257a8185612420565b979650505050505050565b6001600160a01b038916815261010081016125a3602083018a612484565b60408201979097529415156060860152608085019390935260a084019190915260c083015260e09091015292915050565b6000806000606084860312156125e957600080fd5b833592506125f960208501612143565b915061260760408501612143565b90509250925092565b60008060a0838503121561262357600080fd5b823591506121cd8460208501612236565b60006020828403121561264657600080fd5b5051919050565b6040810161265b8285612484565b6123f66020830184612484565b634e487b7160e01b600052601160045260246000fd5b60006001820161269057612690612668565b5060010190565b634e487b7160e01b600052603260045260246000fd5b80820180821115610c1a57610c1a612668565b604081016126ce8285612484565b8260208301529392505050565b8082028115828204841417610c1a57610c1a612668565b60008261270f57634e487b7160e01b600052601260045260246000fd5b500490565b81810381811115610c1a57610c1a612668565b634e487b7160e01b600052603160045260246000fdfef7a40077ff7a04c7e61f6f26fb13774259ddf1b6bce9ecf26a8276cdd3992683a2646970667358221220fb517ca3a92a8c39293517a8336fd3f2b1d3dd68d33bd4accb96ca0aab89830c64736f6c63430008140033",
  "linkReferences": {},
  "deployedLinkReferences": {}
}