{
  "_format": "hh-sol-artifact-1",
  "contractName": "ProtocolBankTreasury",
  "sourceName": "contracts/ProtocolBankTreasury.sol",
  "abi": [
    {
      "inputs": [
        {
          "internalType": "address",
          "name": "_usdc",
          "type": "address"
        },
        {
          "internalType": "address",
          "name": "admin",
          "type": "address"
        },
        {
          "internalType": "address",
          "name": "relayer",
          "type": "address"
        },
        {
          "internalType": "address",
          "name": "guardian",
          "type": "address"
        },
        {
          "internalType": "uint256",
          "name": "_dailyReleaseCap",
          "type": "uint256"
        },
        {
          "internalType": "uint256",
          "name": "_emergencyDelay",
          "type": "uint256"
        }
      ],
      "stateMutability": "nonpayable",
      "type": "constructor"
    },
    {
      "inputs": [],
      "name": "AccessControlBadConfirmation",
      "type": "error"
    },
    {
      "inputs": [
        {
          "internalType": "address",
          "name": "account",
          "type": "address"
        },
        {
          "internalType": "bytes32",
          "name": "neededRole",
          "type": "bytes32"
        }
      ],
      "name": "AccessControlUnauthorizedAccount",
      "type": "error"
    },
    {
      "inputs": [
        {
          "internalType": "bytes32",
          "name": "burnTxHash",
          "type": "bytes32"
        }
      ],
      "name": "BurnTxAlreadyProcessed",
      "type": "error"
    },
    {
      "inputs": [
        {
          "internalType": "uint256",
          "name": "requested",
          "type": "uint256"
        },
        {
          "internalType": "uint256",
          "name": "remaining",
          "type": "uint256"
        }
      ],
      "name": "DailyReleaseCapExceeded",
      "type": "error"
    },
    {
      "inputs": [
        {
          "internalType": "bytes32",
          "name": "requestHash",
          "type": "bytes32"
        }
      ],
      "name": "EmergencyAlreadyRequested",
      "type": "error"
    },
    {
      "inputs": [
        {
          "internalType": "bytes32",
          "name": "requestHash",
          "type": "bytes32"
        },
        {
          "internalType": "uint256",
          "name": "unlockTime",
          "type": "uint256"
        }
      ],
      "name": "EmergencyNotReady",
      "type": "error"
    },
    {
      "inputs": [
        {
          "internalType": "bytes32",
          "name": "requestHash",
          "type": "bytes32"
        }
      ],
      "name": "EmergencyRequestNotFound",
      "type": "error"
    },
    {
      "inputs": [],
      "name": "EnforcedPause",
      "type": "error"
    },
    {
      "inputs": [],
      "name": "ExpectedPause",
      "type": "error"
    },
    {
      "inputs": [
        {
          "internalType": "uint256",
          "name": "requested",
          "type": "uint256"
        },
        {
          "internalType": "uint256",
          "name": "available",
          "type": "uint256"
        }
      ],
      "name": "InsufficientVaultBalance",
      "type": "error"
    },
    {
      "inputs": [],
      "name": "InvalidAmount",
      "type": "error"
    },
    {
      "inputs": [],
      "name": "InvalidRecipient",
      "type": "error"
    },
    {
      "inputs": [],
      "name": "ReentrancyGuardReentrantCall",
      "type": "error"
    },
    {
      "inputs": [
        {
          "internalType": "address",
          "name": "token",
          "type": "address"
        }
      ],
      "name": "SafeERC20FailedOperation",
      "type": "error"
    },
    {
      "anonymous": false,
      "inputs": [
        {
          "indexed": false,
          "internalType": "uint256",
          "name": "oldCap",
          "type": "uint256"
        },
        {
          "indexed": false,
          "internalType": "uint256",
          "name": "newCap",
          "type": "uint256"
        }
      ],
      "name": "DailyReleaseCapUpdated",
      "type": "event"
    },
    {
      "anonymous": false,
      "inputs": [
        {
          "indexed": true,
          "internalType": "address",
          "name": "depositor",
          "type": "address"
        },
        {
          "indexed": false,
          "internalType": "uint256",
          "name": "amount",
          "type": "uint256"
        },
        {
          "indexed": true,
          "internalType": "address",
          "name": "hashKeyRecipient",
          "type": "address"
        },
        {
          "indexed": false,
          "internalType": "uint256",
          "name": "timestamp",
          "type": "uint256"
        }
      ],
      "name": "DepositForMint",
      "type": "event"
    },
    {
      "anonymous": false,
      "inputs": [
        {
          "indexed": false,
          "internalType": "uint256",
          "name": "oldDelay",
          "type": "uint256"
        },
        {
          "indexed": false,
          "internalType": "uint256",
          "name": "newDelay",
          "type": "uint256"
        }
      ],
      "name": "EmergencyDelayUpdated",
      "type": "event"
    },
    {
      "anonymous": false,
      "inputs": [
        {
          "indexed": false,
          "internalType": "bytes32",
          "name": "requestHash",
          "type": "bytes32"
        }
      ],
      "name": "EmergencyWithdrawCanceled",
      "type": "event"
    },
    {
      "anonymous": false,
      "inputs": [
        {
          "indexed": true,
          "internalType": "address",
          "name": "executor",
          "type": "address"
        },
        {
          "indexed": true,
          "internalType": "address",
          "name": "to",
          "type": "address"
        },
        {
          "indexed": false,
          "internalType": "uint256",
          "name": "amount",
          "type": "uint256"
        },
        {
          "indexed": false,
          "internalType": "bytes32",
          "name": "requestHash",
          "type": "bytes32"
        }
      ],
      "name": "EmergencyWithdrawExecuted",
      "type": "event"
    },
    {
      "anonymous": false,
      "inputs": [
        {
          "indexed": true,
          "internalType": "address",
          "name": "requester",
          "type": "address"
        },
        {
          "indexed": true,
          "internalType": "address",
          "name": "to",
          "type": "address"
        },
        {
          "indexed": false,
          "internalType": "uint256",
          "name": "amount",
          "type": "uint256"
        },
        {
          "indexed": false,
          "internalType": "bytes32",
          "name": "requestHash",
          "type": "bytes32"
        },
        {
          "indexed": false,
          "internalType": "uint256",
          "name": "unlockTime",
          "type": "uint256"
        }
      ],
      "name": "EmergencyWithdrawRequested",
      "type": "event"
    },
    {
      "anonymous": false,
      "inputs": [
        {
          "indexed": false,
          "internalType": "address",
          "name": "account",
          "type": "address"
        }
      ],
      "name": "Paused",
      "type": "event"
    },
    {
      "anonymous": false,
      "inputs": [
        {
          "indexed": false,
          "internalType": "uint256",
          "name": "day",
          "type": "uint256"
        },
        {
          "indexed": false,
          "internalType": "uint256",
          "name": "previousDayTotal",
          "type": "uint256"
        }
      ],
      "name": "ReleaseCapReset",
      "type": "event"
    },
    {
      "anonymous": false,
      "inputs": [
        {
          "indexed": true,
          "internalType": "address",
          "name": "recipient",
          "type": "address"
        },
        {
          "indexed": false,
          "internalType": "uint256",
          "name": "amount",
          "type": "uint256"
        },
        {
          "indexed": true,
          "internalType": "bytes32",
          "name": "burnTxHash",
          "type": "bytes32"
        },
        {
          "indexed": true,
          "internalType": "address",
          "name": "relayer",
          "type": "address"
        },
        {
          "indexed": false,
          "internalType": "uint256",
          "name": "timestamp",
          "type": "uint256"
        }
      ],
      "name": "ReleasedFromBurn",
      "type": "event"
    },
    {
      "anonymous": false,
      "inputs": [
        {
          "indexed": true,
          "internalType": "bytes32",
          "name": "role",
          "type": "bytes32"
        },
        {
          "indexed": true,
          "internalType": "bytes32",
          "name": "previousAdminRole",
          "type": "bytes32"
        },
        {
          "indexed": true,
          "internalType": "bytes32",
          "name": "newAdminRole",
          "type": "bytes32"
        }
      ],
      "name": "RoleAdminChanged",
      "type": "event"
    },
    {
      "anonymous": false,
      "inputs": [
        {
          "indexed": true,
          "internalType": "bytes32",
          "name": "role",
          "type": "bytes32"
        },
        {
          "indexed": true,
          "internalType": "address",
          "name": "account",
          "type": "address"
        },
        {
          "indexed": true,
          "internalType": "address",
          "name": "sender",
          "type": "address"
        }
      ],
      "name": "RoleGranted",
      "type": "event"
    },
    {
      "anonymous": false,
      "inputs": [
        {
          "indexed": true,
          "internalType": "bytes32",
          "name": "role",
          "type": "bytes32"
        },
        {
          "indexed": true,
          "internalType": "address",
          "name": "account",
          "type": "address"
        },
        {
          "indexed": true,
          "internalType": "address",
          "name": "sender",
          "type": "address"
        }
      ],
      "name": "RoleRevoked",
      "type": "event"
    },
    {
      "anonymous": false,
      "inputs": [
        {
          "indexed": false,
          "internalType": "address",
          "name": "account",
          "type": "address"
        }
      ],
      "name": "Unpaused",
      "type": "event"
    },
    {
      "inputs": [],
      "name": "DEFAULT_ADMIN_ROLE",
      "outputs": [
        {
          "internalType": "bytes32",
          "name": "",
          "type": "bytes32"
        }
      ],
      "stateMutability": "view",
      "type": "function"
    },
    {
      "inputs": [],
      "name": "GUARDIAN_ROLE",
      "outputs": [
        {
          "internalType": "bytes32",
          "name": "",
          "type": "bytes32"
        }
      ],
      "stateMutability": "view",
      "type": "function"
    },
    {
      "inputs": [],
      "name": "RELAYER_ROLE",
      "outputs": [
        {
          "internalType": "bytes32",
          "name": "",
          "type": "bytes32"
        }
      ],
      "stateMutability": "view",
      "type": "function"
    },
    {
      "inputs": [
        {
          "internalType": "bytes32",
          "name": "requestHash",
          "type": "bytes32"
        }
      ],
      "name": "cancelEmergencyWithdraw",
      "outputs": [],
      "stateMutability": "nonpayable",
      "type": "function"
    },
    {
      "inputs": [],
      "name": "currentDayReleased",
      "outputs": [
        {
          "internalType": "uint256",
          "name": "",
          "type": "uint256"
        }
      ],
      "stateMutability": "view",
      "type": "function"
    },
    {
      "inputs": [],
      "name": "dailyReleaseCap",
      "outputs": [
        {
          "internalType": "uint256",
          "name": "",
          "type": "uint256"
        }
      ],
      "stateMutability": "view",
      "type": "function"
    },
    {
      "inputs": [
        {
          "internalType": "uint256",
          "name": "amount",
          "type": "uint256"
        },
        {
          "internalType": "address",
          "name": "hashKeyRecipient",
          "type": "address"
        }
      ],
      "name": "depositToHashKey",
      "outputs": [],
      "stateMutability": "nonpayable",
      "type": "function"
    },
    {
      "inputs": [
        {
          "internalType": "bytes32",
          "name": "",
          "type": "bytes32"
        }
      ],
      "name": "emergencyRequests",
      "outputs": [
        {
          "internalType": "uint256",
          "name": "",
          "type": "uint256"
        }
      ],
      "stateMutability": "view",
      "type": "function"
    },
    {
      "inputs": [],
      "name": "emergencyWithdrawalDelay",
      "outputs": [
        {
          "internalType": "uint256",
          "name": "",
          "type": "uint256"
        }
      ],
      "stateMutability": "view",
      "type": "function"
    },
    {
      "inputs": [
        {
          "internalType": "address",
          "name": "to",
          "type": "address"
        },
        {
          "internalType": "uint256",
          "name": "amount",
          "type": "uint256"
        },
        {
          "internalType": "bytes32",
          "name": "requestHash",
          "type": "bytes32"
        }
      ],
      "name": "executeEmergencyWithdraw",
      "outputs": [],
      "stateMutability": "nonpayable",
      "type": "function"
    },
    {
      "inputs": [
        {
          "internalType": "bytes32",
          "name": "role",
          "type": "bytes32"
        }
      ],
      "name": "getRoleAdmin",
      "outputs": [
        {
          "internalType": "bytes32",
          "name": "",
          "type": "bytes32"
        }
      ],
      "stateMutability": "view",
      "type": "function"
    },
    {
      "inputs": [
        {
          "internalType": "bytes32",
          "name": "role",
          "type": "bytes32"
        },
        {
          "internalType": "address",
          "name": "account",
          "type": "address"
        }
      ],
      "name": "grantRole",
      "outputs": [],
      "stateMutability": "nonpayable",
      "type": "function"
    },
    {
      "inputs": [
        {
          "internalType": "bytes32",
          "name": "role",
          "type": "bytes32"
        },
        {
          "internalType": "address",
          "name": "account",
          "type": "address"
        }
      ],
      "name": "hasRole",
      "outputs": [
        {
          "internalType": "bool",
          "name": "",
          "type": "bool"
        }
      ],
      "stateMutability": "view",
      "type": "function"
    },
    {
      "inputs": [
        {
          "internalType": "bytes32",
          "name": "burnTxHash",
          "type": "bytes32"
        }
      ],
      "name": "isBurnProcessed",
      "outputs": [
        {
          "internalType": "bool",
          "name": "",
          "type": "bool"
        }
      ],
      "stateMutability": "view",
      "type": "function"
    },
    {
      "inputs": [],
      "name": "lastReleaseResetDay",
      "outputs": [
        {
          "internalType": "uint256",
          "name": "",
          "type": "uint256"
        }
      ],
      "stateMutability": "view",
      "type": "function"
    },
    {
      "inputs": [],
      "name": "netDeposited",
      "outputs": [
        {
          "internalType": "uint256",
          "name": "",
          "type": "uint256"
        }
      ],
      "stateMutability": "view",
      "type": "function"
    },
    {
      "inputs": [],
      "name": "pause",
      "outputs": [],
      "stateMutability": "nonpayable",
      "type": "function"
    },
    {
      "inputs": [],
      "name": "paused",
      "outputs": [
        {
          "internalType": "bool",
          "name": "",
          "type": "bool"
        }
      ],
      "stateMutability": "view",
      "type": "function"
    },
    {
      "inputs": [
        {
          "internalType": "bytes32",
          "name": "",
          "type": "bytes32"
        }
      ],
      "name": "processedBurnTxs",
      "outputs": [
        {
          "internalType": "bool",
          "name": "",
          "type": "bool"
        }
      ],
      "stateMutability": "view",
      "type": "function"
    },
    {
      "inputs": [
        {
          "internalType": "address",
          "name": "recipient",
          "type": "address"
        },
        {
          "internalType": "uint256",
          "name": "amount",
          "type": "uint256"
        },
        {
          "internalType": "bytes32",
          "name": "burnTxHash",
          "type": "bytes32"
        }
      ],
      "name": "releaseFromBurn",
      "outputs": [],
      "stateMutability": "nonpayable",
      "type": "function"
    },
    {
      "inputs": [],
      "name": "remainingDailyRelease",
      "outputs": [
        {
          "internalType": "uint256",
          "name": "",
          "type": "uint256"
        }
      ],
      "stateMutability": "view",
      "type": "function"
    },
    {
      "inputs": [
        {
          "internalType": "bytes32",
          "name": "role",
          "type": "bytes32"
        },
        {
          "internalType": "address",
          "name": "callerConfirmation",
          "type": "address"
        }
      ],
      "name": "renounceRole",
      "outputs": [],
      "stateMutability": "nonpayable",
      "type": "function"
    },
    {
      "inputs": [
        {
          "internalType": "address",
          "name": "to",
          "type": "address"
        },
        {
          "internalType": "uint256",
          "name": "amount",
          "type": "uint256"
        }
      ],
      "name": "requestEmergencyWithdraw",
      "outputs": [],
      "stateMutability": "nonpayable",
      "type": "function"
    },
    {
      "inputs": [
        {
          "internalType": "bytes32",
          "name": "role",
          "type": "bytes32"
        },
        {
          "internalType": "address",
          "name": "account",
          "type": "address"
        }
      ],
      "name": "revokeRole",
      "outputs": [],
      "stateMutability": "nonpayable",
      "type": "function"
    },
    {
      "inputs": [
        {
          "internalType": "uint256",
          "name": "newCap",
          "type": "uint256"
        }
      ],
      "name": "setDailyReleaseCap",
      "outputs": [],
      "stateMutability": "nonpayable",
      "type": "function"
    },
    {
      "inputs": [
        {
          "internalType": "uint256",
          "name": "newDelay",
          "type": "uint256"
        }
      ],
      "name": "setEmergencyDelay",
      "outputs": [],
      "stateMutability": "nonpayable",
      "type": "function"
    },
    {
      "inputs": [
        {
          "internalType": "bytes4",
          "name": "interfaceId",
          "type": "bytes4"
        }
      ],
      "name": "supportsInterface",
      "outputs": [
        {
          "internalType": "bool",
          "name": "",
          "type": "bool"
        }
      ],
      "stateMutability": "view",
      "type": "function"
    },
    {
      "inputs": [],
      "name": "totalDeposited",
      "outputs": [
        {
          "internalType": "uint256",
          "name": "",
          "type": "uint256"
        }
      ],
      "stateMutability": "view",
      "type": "function"
    },
    {
      "inputs": [],
      "name": "totalReleased",
      "outputs": [
        {
          "internalType": "uint256",
          "name": "",
          "type": "uint256"
        }
      ],
      "stateMutability": "view",
      "type": "function"
    },
    {
      "inputs": [],
      "name": "unpause",
      "outputs": [],
      "stateMutability": "nonpayable",
      "type": "function"
    },
    {
      "inputs": [],
      "name": "usdc",
      "outputs": [
        {
          "internalType": "contract IERC20",
          "name": "",
          "type": "address"
        }
      ],
      "stateMutability": "view",
      "type": "function"
    },
    {
      "inputs": [],
      "name": "vaultBalance",
      "outputs": [
        {
          "internalType": "uint256",
          "name": "",
          "type": "uint256"
        }
      ],
      "stateMutability": "view",
      "type": "function"
    }
  ],
  "bytecode": "0x60a06040523480156200001157600080fd5b5060405162001673380380620016738339810160408190526200003491620001b4565b60016002556001600160a01b03861660805262000053600086620000d2565b50620000807fe2b7fb3b832174769106daebcfd6d1970523240dda11281102db9363b83b0dc485620000d2565b50620000ad7f55435dd261a4b9b3364963f7738a7a662ad9c84396d64be3365284bb7f0a504184620000d2565b5060068290556009819055620000c262000181565b6008555062000246945050505050565b6000828152602081815260408083206001600160a01b038516845290915281205460ff1662000177576000838152602081815260408083206001600160a01b03861684529091529020805460ff191660011790556200012e3390565b6001600160a01b0316826001600160a01b0316847f2f8788117e7eff1d82e926ec794901d17c78024a50270940304540a733656f0d60405160405180910390a45060016200017b565b5060005b92915050565b600062000192620151804262000223565b905090565b80516001600160a01b0381168114620001af57600080fd5b919050565b60008060008060008060c08789031215620001ce57600080fd5b620001d98762000197565b9550620001e96020880162000197565b9450620001f96040880162000197565b9350620002096060880162000197565b92506080870151915060a087015190509295509295509295565b6000826200024157634e487b7160e01b600052601260045260246000fd5b500490565b6080516113e76200028c600039600081816102f5015281816104c2015281816106f9015281816107cf0152818161090e01528181610ab60152610bad01526113e76000f3fe608060405234801561001057600080fd5b50600436106101f05760003560e01c8063533f044d1161010f578063a217fddf116100a2578063e33b7de311610071578063e33b7de31461042b578063f4cc094714610434578063fbe1a43f14610457578063ff50abdc1461046a57600080fd5b8063a217fddf146103ff578063b4f7403114610407578063c286061014610410578063d547741f1461041857600080fd5b80637c7f4ce5116100de5780637c7f4ce5146103aa5780638456cb59146103bd57806391d14854146103c5578063926d7d7f146103d857600080fd5b8063533f044d146103705780635c975abb1461038357806375cbbb061461038e57806377bc47181461039757600080fd5b80632f2ff15d116101875780633f4ba83a116101565780633f4ba83a1461032f57806344496e8f1461033757806348b0fca71461034a57806348ddc5fe1461035d57600080fd5b80632f2ff15d146102c057806336568abe146102d55780633bfb2532146102e85780633e413bee146102f057600080fd5b80632165f8de116101c35780632165f8de1461025c578063248a9ca31461027f57806324ea54f4146102a25780632d8fb8d7146102b757600080fd5b806301ffc9a7146101f55780630557ac411461021d5780630bf6cc081461024b578063198b1f7814610253575b600080fd5b61020861020336600461122b565b610473565b60405190151581526020015b60405180910390f35b61023d61022b36600461125c565b600a6020526000908152604090205481565b604051908152602001610214565b61023d6104aa565b61023d60075481565b61020861026a36600461125c565b60009081526005602052604090205460ff1690565b61023d61028d36600461125c565b60009081526020819052604090206001015490565b61023d60008051602061139283398151915281565b61023d60085481565b6102d36102ce366004611291565b61053a565b005b6102d36102e3366004611291565b610565565b61023d61059d565b6103177f000000000000000000000000000000000000000000000000000000000000000081565b6040516001600160a01b039091168152602001610214565b6102d36105f6565b6102d361034536600461125c565b61060c565b6102d36103583660046112bd565b61065e565b6102d361036b36600461125c565b610848565b6102d361037e366004611291565b610891565b60015460ff16610208565b61023d60065481565b6102d36103a53660046112bd565b610989565b6102d36103b83660046112f0565b610c26565b6102d3610d6e565b6102086103d3366004611291565b610d8e565b61023d7fe2b7fb3b832174769106daebcfd6d1970523240dda11281102db9363b83b0dc481565b61023d600081565b61023d60095481565b61023d610db7565b6102d3610426366004611291565b610dc9565b61023d60045481565b61020861044236600461125c565b60056020526000908152604090205460ff1681565b6102d361046536600461125c565b610dee565b61023d60035481565b60006001600160e01b03198216637965db0b60e01b14806104a457506301ffc9a760e01b6001600160e01b03198316145b92915050565b6040516370a0823160e01b81523060048201526000907f00000000000000000000000000000000000000000000000000000000000000006001600160a01b0316906370a0823190602401602060405180830381865afa158015610511573d6000803e3d6000fd5b505050506040513d601f19601f82011682018060405250810190610535919061131a565b905090565b60008281526020819052604090206001015461055581610e79565b61055f8383610e83565b50505050565b6001600160a01b038116331461058e5760405163334bd91960e11b815260040160405180910390fd5b6105988282610f15565b505050565b60006006546000036105b0575060001990565b60006105ba610f80565b905060085481146105cd57505060065490565b600654600754106105e057600091505090565b6007546006546105f09190611349565b91505090565b600061060181610e79565b610609610f8f565b50565b600061061781610e79565b600680549083905560408051828152602081018590527f363d38ab783194cbf0326b38b49928c9d8956bd5d933e938d96587b231f9609e91015b60405180910390a1505050565b60008051602061139283398151915261067681610e79565b61067e610fe1565b6000828152600a6020526040812054908190036106b65760405163d6d86ab760e01b8152600481018490526024015b60405180910390fd5b804210156106e15760405163d1c65abf60e01b815260048101849052602481018290526044016106ad565b6040516370a0823160e01b81523060048201526000907f00000000000000000000000000000000000000000000000000000000000000006001600160a01b0316906370a0823190602401602060405180830381865afa158015610748573d6000803e3d6000fd5b505050506040513d601f19601f8201168201806040525081019061076c919061131a565b9050848110156107995760405163bce5067160e01b815260048101869052602481018290526044016106ad565b6000848152600a60205260408120819055600480548792906107bc90849061135c565b909155506107f690506001600160a01b037f0000000000000000000000000000000000000000000000000000000000000000168787611009565b60408051868152602081018690526001600160a01b0388169133917f12d3f6f1cbdef5980f4b1b83a9a32ac6367cff06b19245c52af3c3c2b03aa658910160405180910390a3505061055f6001600255565b600061085381610e79565b600980549083905560408051828152602081018590527fb2741c14983a8e4e8cc2c5cfd90ef2f2ce72166c7df3f2e5754940d7e2f05c0f9101610651565b610899611068565b6108a1610fe1565b816000036108c25760405163162908e360e11b815260040160405180910390fd5b6001600160a01b0381166108e957604051634e46966960e11b815260040160405180910390fd5b81600360008282546108fb919061135c565b9091555061093690506001600160a01b037f00000000000000000000000000000000000000000000000000000000000000001633308561108e565b604080518381524260208201526001600160a01b0383169133917f5e9700131f38c3544ffe3de1d8ad6558692f4a8c14ae59adb66975aca27401f8910160405180910390a36109856001600255565b5050565b7fe2b7fb3b832174769106daebcfd6d1970523240dda11281102db9363b83b0dc46109b381610e79565b6109bb611068565b6109c3610fe1565b826000036109e45760405163162908e360e11b815260040160405180910390fd5b6001600160a01b038416610a0b57604051634e46966960e11b815260040160405180910390fd5b60008281526005602052604090205460ff1615610a3e57604051633a6e8a0f60e21b8152600481018390526024016106ad565b610a466110c7565b6000600654118015610a66575060065483600754610a64919061135c565b115b15610a9e5782600754600654610a7c9190611349565b60405163223ac84b60e21b8152600481019290925260248201526044016106ad565b6040516370a0823160e01b81523060048201526000907f00000000000000000000000000000000000000000000000000000000000000006001600160a01b0316906370a0823190602401602060405180830381865afa158015610b05573d6000803e3d6000fd5b505050506040513d601f19601f82011682018060405250810190610b29919061131a565b905083811015610b565760405163bce5067160e01b815260048101859052602481018290526044016106ad565b6000838152600560205260408120805460ff1916600117905560078054869290610b8190849061135c565b925050819055508360046000828254610b9a919061135c565b90915550610bd490506001600160a01b037f0000000000000000000000000000000000000000000000000000000000000000168686611009565b60408051858152426020820152339185916001600160a01b038916917fd106e0d2db691596900c14587dfef8626639f56445861d2992e6ae1d12a5f0ac910160405180910390a45061055f6001600255565b600080516020611392833981519152610c3e81610e79565b6001600160a01b038316610c6557604051634e46966960e11b815260040160405180910390fd5b81600003610c865760405163162908e360e11b815260040160405180910390fd5b604080516001600160a01b038516602082015290810183905242606082015260009060800160408051601f1981840301815291815281516020928301206000818152600a90935291205490915015610cf45760405163e5515eed60e01b8152600481018290526024016106ad565b600060095442610d04919061135c565b6000838152600a602090815260409182902083905581518781529081018590529081018290529091506001600160a01b0386169033907f6e333d9fb66eebad41c1aac0a14edb3815ec75b083ba134075ad7270f6269bd29060600160405180910390a35050505050565b600080516020611392833981519152610d8681610e79565b610609611123565b6000918252602082815260408084206001600160a01b0393909316845291905290205460ff1690565b60006004546003546105359190611349565b600082815260208190526040902060010154610de481610e79565b61055f8383610f15565b6000610df981610e79565b6000828152600a60205260408120549003610e2a5760405163d6d86ab760e01b8152600481018390526024016106ad565b6000828152600a602052604080822091909155517fbaf2782704023771168e0702a4ae295bcbfb779c78e3a3f61970ba9a508f6f9890610e6d9084815260200190565b60405180910390a15050565b610609813361115e565b6000610e8f8383610d8e565b610f0d576000838152602081815260408083206001600160a01b03861684529091529020805460ff19166001179055610ec53390565b6001600160a01b0316826001600160a01b0316847f2f8788117e7eff1d82e926ec794901d17c78024a50270940304540a733656f0d60405160405180910390a45060016104a4565b5060006104a4565b6000610f218383610d8e565b15610f0d576000838152602081815260408083206001600160a01b0386168085529252808320805460ff1916905551339286917ff6391f5c32d9c69d2a47ea670b442974b53935d1edc7fd64eb21e047a839171b9190a45060016104a4565b6000610535620151804261136f565b610f97611197565b6001805460ff191690557f5db9ee0a495bf2e6ff9c91a7834c1ba4fdd244a5e8aa4e537bd38aeae4b073aa335b6040516001600160a01b03909116815260200160405180910390a1565b600280540361100357604051633ee5aeb560e01b815260040160405180910390fd5b60028055565b6040516001600160a01b0383811660248301526044820183905261059891859182169063a9059cbb906064015b604051602081830303815290604052915060e01b6020820180516001600160e01b0383818316178352505050506111ba565b60015460ff161561108c5760405163d93c066560e01b815260040160405180910390fd5b565b6040516001600160a01b03848116602483015283811660448301526064820183905261055f9186918216906323b872dd90608401611036565b60006110d1610f80565b90506008548114610609576007546040805183815260208101929092527fe638076bbca2b2c411278920e16eae04c5336607869e572b0f850c042327748e910160405180910390a16000600755600855565b61112b611068565b6001805460ff1916811790557f62e78cea01bee320cd4e420270b5ea74000d11b0c9f74754ebdbfc544b05a25833610fc4565b6111688282610d8e565b6109855760405163e2517d3f60e01b81526001600160a01b0382166004820152602481018390526044016106ad565b60015460ff1661108c57604051638dfc202b60e01b815260040160405180910390fd5b600080602060008451602086016000885af1806111dd576040513d6000823e3d81fd5b50506000513d915081156111f5578060011415611202565b6001600160a01b0384163b155b1561055f57604051635274afe760e01b81526001600160a01b03851660048201526024016106ad565b60006020828403121561123d57600080fd5b81356001600160e01b03198116811461125557600080fd5b9392505050565b60006020828403121561126e57600080fd5b5035919050565b80356001600160a01b038116811461128c57600080fd5b919050565b600080604083850312156112a457600080fd5b823591506112b460208401611275565b90509250929050565b6000806000606084860312156112d257600080fd5b6112db84611275565b95602085013595506040909401359392505050565b6000806040838503121561130357600080fd5b61130c83611275565b946020939093013593505050565b60006020828403121561132c57600080fd5b5051919050565b634e487b7160e01b600052601160045260246000fd5b818103818111156104a4576104a4611333565b808201808211156104a4576104a4611333565b60008261138c57634e487b7160e01b600052601260045260246000fd5b50049056fe55435dd261a4b9b3364963f7738a7a662ad9c84396d64be3365284bb7f0a5041a2646970667358221220314851dc0c50d022506b190716d98a103e19013bc4de3fb02e80d317b10e06b864736f6c63430008140033",
  "linkReferences": {},
  "deployedLinkReferences": {}
}