{
  "_format": "hh-sol-artifact-1",
  "contractName": "ProtocolBankTreasury",
  "sourceName": "contracts/ProtocolBankTreasury.sol",
  "abi": [
    {
      "inputs": [
        {
          "internalType": "address",
          "name": "_usdc",
          "type": "address"
        },
        {
          "internalType": "address",
          "name": "_admin",
          "type": "address"
        }
      ],
      "stateMutability": "nonpayable",
      "type": "constructor"
    },
    {
      "inputs": [],
      "name": "AccessControlBadConfirmation",
      "type": "error"
    },
    {
      "inputs": [
        {
          "internalType": "address",
          "name": "account",
          "type": "address"
        },
        {
          "internalType": "bytes32",
          "name": "neededRole",
          "type": "bytes32"
        }
      ],
      "name": "AccessControlUnauthorizedAccount",
      "type": "error"
    },
    {
      "inputs": [],
      "name": "ReentrancyGuardReentrantCall",
      "type": "error"
    },
    {
      "inputs": [
        {
          "internalType": "address",
          "name": "token",
          "type": "address"
        }
      ],
      "name": "SafeERC20FailedOperation",
      "type": "error"
    },
    {
      "anonymous": false,
      "inputs": [
        {
          "indexed": true,
          "internalType": "address",
          "name": "depositor",
          "type": "address"
        },
        {
          "indexed": false,
          "internalType": "uint256",
          "name": "amount",
          "type": "uint256"
        },
        {
          "indexed": true,
          "internalType": "address",
          "name": "hashKeyRecipient",
          "type": "address"
        },
        {
          "indexed": false,
          "internalType": "uint256",
          "name": "timestamp",
          "type": "uint256"
        }
      ],
      "name": "DepositedToHashKey",
      "type": "event"
    },
    {
      "anonymous": false,
      "inputs": [
        {
          "indexed": true,
          "internalType": "address",
          "name": "recipient",
          "type": "address"
        },
        {
          "indexed": false,
          "internalType": "uint256",
          "name": "amount",
          "type": "uint256"
        },
        {
          "indexed": true,
          "internalType": "bytes32",
          "name": "burnTxHash",
          "type": "bytes32"
        },
        {
          "indexed": false,
          "internalType": "uint256",
          "name": "timestamp",
          "type": "uint256"
        }
      ],
      "name": "ReleasedFromBurn",
      "type": "event"
    },
    {
      "anonymous": false,
      "inputs": [
        {
          "indexed": true,
          "internalType": "bytes32",
          "name": "role",
          "type": "bytes32"
        },
        {
          "indexed": true,
          "internalType": "bytes32",
          "name": "previousAdminRole",
          "type": "bytes32"
        },
        {
          "indexed": true,
          "internalType": "bytes32",
          "name": "newAdminRole",
          "type": "bytes32"
        }
      ],
      "name": "RoleAdminChanged",
      "type": "event"
    },
    {
      "anonymous": false,
      "inputs": [
        {
          "indexed": true,
          "internalType": "bytes32",
          "name": "role",
          "type": "bytes32"
        },
        {
          "indexed": true,
          "internalType": "address",
          "name": "account",
          "type": "address"
        },
        {
          "indexed": true,
          "internalType": "address",
          "name": "sender",
          "type": "address"
        }
      ],
      "name": "RoleGranted",
      "type": "event"
    },
    {
      "anonymous": false,
      "inputs": [
        {
          "indexed": true,
          "internalType": "bytes32",
          "name": "role",
          "type": "bytes32"
        },
        {
          "indexed": true,
          "internalType": "address",
          "name": "account",
          "type": "address"
        },
        {
          "indexed": true,
          "internalType": "address",
          "name": "sender",
          "type": "address"
        }
      ],
      "name": "RoleRevoked",
      "type": "event"
    },
    {
      "inputs": [],
      "name": "DEFAULT_ADMIN_ROLE",
      "outputs": [
        {
          "internalType": "bytes32",
          "name": "",
          "type": "bytes32"
        }
      ],
      "stateMutability": "view",
      "type": "function"
    },
    {
      "inputs": [],
      "name": "RELAYER_ROLE",
      "outputs": [
        {
          "internalType": "bytes32",
          "name": "",
          "type": "bytes32"
        }
      ],
      "stateMutability": "view",
      "type": "function"
    },
    {
      "inputs": [
        {
          "internalType": "uint256",
          "name": "amount",
          "type": "uint256"
        },
        {
          "internalType": "address",
          "name": "hashKeyRecipient",
          "type": "address"
        }
      ],
      "name": "depositToHashKey",
      "outputs": [],
      "stateMutability": "nonpayable",
      "type": "function"
    },
    {
      "inputs": [
        {
          "internalType": "address",
          "name": "token",
          "type": "address"
        },
        {
          "internalType": "uint256",
          "name": "amount",
          "type": "uint256"
        }
      ],
      "name": "emergencyWithdraw",
      "outputs": [],
      "stateMutability": "nonpayable",
      "type": "function"
    },
    {
      "inputs": [
        {
          "internalType": "bytes32",
          "name": "role",
          "type": "bytes32"
        }
      ],
      "name": "getRoleAdmin",
      "outputs": [
        {
          "internalType": "bytes32",
          "name": "",
          "type": "bytes32"
        }
      ],
      "stateMutability": "view",
      "type": "function"
    },
    {
      "inputs": [
        {
          "internalType": "bytes32",
          "name": "role",
          "type": "bytes32"
        },
        {
          "internalType": "address",
          "name": "account",
          "type": "address"
        }
      ],
      "name": "grantRole",
      "outputs": [],
      "stateMutability": "nonpayable",
      "type": "function"
    },
    {
      "inputs": [
        {
          "internalType": "bytes32",
          "name": "role",
          "type": "bytes32"
        },
        {
          "internalType": "address",
          "name": "account",
          "type": "address"
        }
      ],
      "name": "hasRole",
      "outputs": [
        {
          "internalType": "bool",
          "name": "",
          "type": "bool"
        }
      ],
      "stateMutability": "view",
      "type": "function"
    },
    {
      "inputs": [
        {
          "internalType": "bytes32",
          "name": "",
          "type": "bytes32"
        }
      ],
      "name": "processedBurnTx",
      "outputs": [
        {
          "internalType": "bool",
          "name": "",
          "type": "bool"
        }
      ],
      "stateMutability": "view",
      "type": "function"
    },
    {
      "inputs": [
        {
          "internalType": "address",
          "name": "recipient",
          "type": "address"
        },
        {
          "internalType": "uint256",
          "name": "amount",
          "type": "uint256"
        },
        {
          "internalType": "bytes32",
          "name": "burnTxHash",
          "type": "bytes32"
        }
      ],
      "name": "releaseFromBurn",
      "outputs": [],
      "stateMutability": "nonpayable",
      "type": "function"
    },
    {
      "inputs": [
        {
          "internalType": "bytes32",
          "name": "role",
          "type": "bytes32"
        },
        {
          "internalType": "address",
          "name": "callerConfirmation",
          "type": "address"
        }
      ],
      "name": "renounceRole",
      "outputs": [],
      "stateMutability": "nonpayable",
      "type": "function"
    },
    {
      "inputs": [
        {
          "internalType": "bytes32",
          "name": "role",
          "type": "bytes32"
        },
        {
          "internalType": "address",
          "name": "account",
          "type": "address"
        }
      ],
      "name": "revokeRole",
      "outputs": [],
      "stateMutability": "nonpayable",
      "type": "function"
    },
    {
      "inputs": [
        {
          "internalType": "bytes4",
          "name": "interfaceId",
          "type": "bytes4"
        }
      ],
      "name": "supportsInterface",
      "outputs": [
        {
          "internalType": "bool",
          "name": "",
          "type": "bool"
        }
      ],
      "stateMutability": "view",
      "type": "function"
    },
    {
      "inputs": [],
      "name": "usdc",
      "outputs": [
        {
          "internalType": "contract IERC20",
          "name": "",
          "type": "address"
        }
      ],
      "stateMutability": "view",
      "type": "function"
    }
  ],
  "bytecode": "0x60a060405234801561001057600080fd5b50604051610d12380380610d1283398101604081905261002f916101f7565b600180556001600160a01b03821661008e5760405162461bcd60e51b815260206004820152601460248201527f496e76616c69642055534443206164647265737300000000000000000000000060448201526064015b60405180910390fd5b6001600160a01b0381166100e45760405162461bcd60e51b815260206004820152601560248201527f496e76616c69642061646d696e206164647265737300000000000000000000006044820152606401610085565b6001600160a01b0382166080526100fc60008261012f565b506101277fe2b7fb3b832174769106daebcfd6d1970523240dda11281102db9363b83b0dc48261012f565b50505061022a565b6000828152602081815260408083206001600160a01b038516845290915281205460ff166101d1576000838152602081815260408083206001600160a01b03861684529091529020805460ff191660011790556101893390565b6001600160a01b0316826001600160a01b0316847f2f8788117e7eff1d82e926ec794901d17c78024a50270940304540a733656f0d60405160405180910390a45060016101d5565b5060005b92915050565b80516001600160a01b03811681146101f257600080fd5b919050565b6000806040838503121561020a57600080fd5b610213836101db565b9150610221602084016101db565b90509250929050565b608051610ab861025a6000396000818161015a015281816103880152818161053001526106220152610ab86000f3fe608060405234801561001057600080fd5b50600436106100cf5760003560e01c806362174ed31161008c578063926d7d7f11610066578063926d7d7f146101f057806395ccea6714610217578063a217fddf1461022a578063d547741f1461023257600080fd5b806362174ed3146101a757806377bc4718146101ca57806391d14854146101dd57600080fd5b806301ffc9a7146100d4578063248a9ca3146100fc5780632f2ff15d1461012d57806336568abe146101425780633e413bee14610155578063533f044d14610194575b600080fd5b6100e76100e236600461097a565b610245565b60405190151581526020015b60405180910390f35b61011f61010a3660046109ab565b60009081526020819052604090206001015490565b6040519081526020016100f3565b61014061013b3660046109e0565b61027c565b005b6101406101503660046109e0565b6102a7565b61017c7f000000000000000000000000000000000000000000000000000000000000000081565b6040516001600160a01b0390911681526020016100f3565b6101406101a23660046109e0565b6102df565b6100e76101b53660046109ab565b60026020526000908152604090205460ff1681565b6101406101d8366004610a0c565b610402565b6100e76101eb3660046109e0565b610697565b61011f7fe2b7fb3b832174769106daebcfd6d1970523240dda11281102db9363b83b0dc481565b610140610225366004610a3f565b6106c0565b61011f600081565b6101406102403660046109e0565b6106df565b60006001600160e01b03198216637965db0b60e01b148061027657506301ffc9a760e01b6001600160e01b03198316145b92915050565b60008281526020819052604090206001015461029781610704565b6102a18383610711565b50505050565b6001600160a01b03811633146102d05760405163334bd91960e11b815260040160405180910390fd5b6102da82826107a3565b505050565b6102e761080e565b600082116103315760405162461bcd60e51b81526020600482015260126024820152710416d6f756e74206d757374206265203e20360741b60448201526064015b60405180910390fd5b6001600160a01b03811661037b5760405162461bcd60e51b8152602060048201526011602482015270125b9d985b1a59081c9958da5c1a595b9d607a1b6044820152606401610328565b6103b06001600160a01b037f000000000000000000000000000000000000000000000000000000000000000016333085610838565b604080518381524260208201526001600160a01b0383169133917f3814c3c4d88fac9d097d9d26ad43420876c08a3e67501ac53fe24f2e1b924034910160405180910390a36103fe60018055565b5050565b7fe2b7fb3b832174769106daebcfd6d1970523240dda11281102db9363b83b0dc461042c81610704565b61043461080e565b6001600160a01b03841661047e5760405162461bcd60e51b8152602060048201526011602482015270125b9d985b1a59081c9958da5c1a595b9d607a1b6044820152606401610328565b600083116104c35760405162461bcd60e51b81526020600482015260126024820152710416d6f756e74206d757374206265203e20360741b6044820152606401610328565b60008281526002602052604090205460ff16156105195760405162461bcd60e51b8152602060048201526014602482015273151e08185b1c9958591e481c1c9bd8d95cdcd95960621b6044820152606401610328565b6040516370a0823160e01b815230600482015283907f00000000000000000000000000000000000000000000000000000000000000006001600160a01b0316906370a0823190602401602060405180830381865afa15801561057f573d6000803e3d6000fd5b505050506040513d601f19601f820116820180604052508101906105a39190610a69565b10156105fc5760405162461bcd60e51b815260206004820152602260248201527f496e73756666696369656e74206c697175696469747920696e20547265617375604482015261727960f01b6064820152608401610328565b6000828152600260205260409020805460ff191660011790556106496001600160a01b037f000000000000000000000000000000000000000000000000000000000000000016858561089f565b6040805184815242602082015283916001600160a01b038716917f22569d8f9b5515357ec00f5d1cec4bc7ee57d3d0f09fdd43086bcc5e3989a91f910160405180910390a36102a160018055565b6000918252602082815260408084206001600160a01b0393909316845291905290205460ff1690565b60006106cb81610704565b6102da6001600160a01b038416338461089f565b6000828152602081905260409020600101546106fa81610704565b6102a183836107a3565b61070e81336108d0565b50565b600061071d8383610697565b61079b576000838152602081815260408083206001600160a01b03861684529091529020805460ff191660011790556107533390565b6001600160a01b0316826001600160a01b0316847f2f8788117e7eff1d82e926ec794901d17c78024a50270940304540a733656f0d60405160405180910390a4506001610276565b506000610276565b60006107af8383610697565b1561079b576000838152602081815260408083206001600160a01b0386168085529252808320805460ff1916905551339286917ff6391f5c32d9c69d2a47ea670b442974b53935d1edc7fd64eb21e047a839171b9190a4506001610276565b60026001540361083157604051633ee5aeb560e01b815260040160405180910390fd5b6002600155565b6040516001600160a01b0384811660248301528381166044830152606482018390526102a19186918216906323b872dd906084015b604051602081830303815290604052915060e01b6020820180516001600160e01b038381831617835250505050610909565b6040516001600160a01b038381166024830152604482018390526102da91859182169063a9059cbb9060640161086d565b6108da8282610697565b6103fe5760405163e2517d3f60e01b81526001600160a01b038216600482015260248101839052604401610328565b600080602060008451602086016000885af18061092c576040513d6000823e3d81fd5b50506000513d91508115610944578060011415610951565b6001600160a01b0384163b155b156102a157604051635274afe760e01b81526001600160a01b0385166004820152602401610328565b60006020828403121561098c57600080fd5b81356001600160e01b0319811681146109a457600080fd5b9392505050565b6000602082840312156109bd57600080fd5b5035919050565b80356001600160a01b03811681146109db57600080fd5b919050565b600080604083850312156109f357600080fd5b82359150610a03602084016109c4565b90509250929050565b600080600060608486031215610a2157600080fd5b610a2a846109c4565b95602085013595506040909401359392505050565b60008060408385031215610a5257600080fd5b610a5b836109c4565b946020939093013593505050565b600060208284031215610a7b57600080fd5b505191905056fea2646970667358221220a76d2cf07b28dd496b52bbf048841ba9b8e724883cc9f8d899949075c643be8864736f6c63430008140033",
  "linkReferences": {},
  "deployedLinkReferences": {}
}