{
  "_format": "hh-sol-artifact-1",
  "contractName": "TronPaymentVault",
  "sourceName": "contracts/tron/TronPaymentVault.sol",
  "abi": [
    {
      "inputs": [
        {
          "internalType": "address[]",
          "name": "_initialSigners",
          "type": "address[]"
        },
        {
          "internalType": "uint256",
          "name": "_threshold",
          "type": "uint256"
        },
        {
          "internalType": "address",
          "name": "_guardian",
          "type": "address"
        },
        {
          "internalType": "address[]",
          "name": "_supportedTokens",
          "type": "address[]"
        },
        {
          "internalType": "uint256",
          "name": "_timelock",
          "type": "uint256"
        },
        {
          "internalType": "uint256",
          "name": "_dailyLimit",
          "type": "uint256"
        }
      ],
      "stateMutability": "nonpayable",
      "type": "constructor"
    },
    {
      "inputs": [
        {
          "internalType": "uint256",
          "name": "requested",
          "type": "uint256"
        },
        {
          "internalType": "uint256",
          "name": "remaining",
          "type": "uint256"
        }
      ],
      "name": "DailyLimitExceeded",
      "type": "error"
    },
    {
      "inputs": [
        {
          "internalType": "uint256",
          "name": "unlockTime",
          "type": "uint256"
        },
        {
          "internalType": "uint256",
          "name": "currentTime",
          "type": "uint256"
        }
      ],
      "name": "EmergencyNotReady",
      "type": "error"
    },
    {
      "inputs": [
        {
          "internalType": "uint256",
          "name": "current",
          "type": "uint256"
        },
        {
          "internalType": "uint256",
          "name": "required",
          "type": "uint256"
        }
      ],
      "name": "InsufficientApprovals",
      "type": "error"
    },
    {
      "inputs": [],
      "name": "InvalidAddress",
      "type": "error"
    },
    {
      "inputs": [],
      "name": "InvalidAmount",
      "type": "error"
    },
    {
      "inputs": [],
      "name": "InvalidDailyLimit",
      "type": "error"
    },
    {
      "inputs": [],
      "name": "InvalidPaymentId",
      "type": "error"
    },
    {
      "inputs": [],
      "name": "InvalidThreshold",
      "type": "error"
    },
    {
      "inputs": [],
      "name": "InvalidTimelock",
      "type": "error"
    },
    {
      "inputs": [
        {
          "internalType": "address",
          "name": "signer",
          "type": "address"
        }
      ],
      "name": "NotAuthorized",
      "type": "error"
    },
    {
      "inputs": [
        {
          "internalType": "uint256",
          "name": "proposedAt",
          "type": "uint256"
        },
        {
          "internalType": "uint256",
          "name": "timelock",
          "type": "uint256"
        },
        {
          "internalType": "uint256",
          "name": "currentTime",
          "type": "uint256"
        }
      ],
      "name": "NotTimelocked",
      "type": "error"
    },
    {
      "inputs": [
        {
          "internalType": "address",
          "name": "signer",
          "type": "address"
        }
      ],
      "name": "PaymentAlreadyApproved",
      "type": "error"
    },
    {
      "inputs": [],
      "name": "PaymentAlreadyCancelled",
      "type": "error"
    },
    {
      "inputs": [],
      "name": "PaymentAlreadyExecuted",
      "type": "error"
    },
    {
      "inputs": [
        {
          "internalType": "address",
          "name": "token",
          "type": "address"
        }
      ],
      "name": "SafeERC20FailedOperation",
      "type": "error"
    },
    {
      "inputs": [
        {
          "internalType": "address",
          "name": "signer",
          "type": "address"
        }
      ],
      "name": "SignerAlreadyExists",
      "type": "error"
    },
    {
      "inputs": [
        {
          "internalType": "address",
          "name": "signer",
          "type": "address"
        }
      ],
      "name": "SignerNotFound",
      "type": "error"
    },
    {
      "inputs": [
        {
          "internalType": "address",
          "name": "token",
          "type": "address"
        }
      ],
      "name": "TokenNotSupported",
      "type": "error"
    },
    {
      "inputs": [],
      "name": "VaultIsPaused",
      "type": "error"
    },
    {
      "anonymous": false,
      "inputs": [
        {
          "indexed": false,
          "internalType": "uint256",
          "name": "oldLimit",
          "type": "uint256"
        },
        {
          "indexed": false,
          "internalType": "uint256",
          "name": "newLimit",
          "type": "uint256"
        }
      ],
      "name": "DailyLimitUpdated",
      "type": "event"
    },
    {
      "anonymous": false,
      "inputs": [
        {
          "indexed": true,
          "internalType": "address",
          "name": "to",
          "type": "address"
        },
        {
          "indexed": true,
          "internalType": "address",
          "name": "token",
          "type": "address"
        },
        {
          "indexed": false,
          "internalType": "uint256",
          "name": "amount",
          "type": "uint256"
        }
      ],
      "name": "EmergencyWithdrawalExecuted",
      "type": "event"
    },
    {
      "anonymous": false,
      "inputs": [
        {
          "indexed": true,
          "internalType": "address",
          "name": "to",
          "type": "address"
        },
        {
          "indexed": true,
          "internalType": "address",
          "name": "token",
          "type": "address"
        },
        {
          "indexed": false,
          "internalType": "uint256",
          "name": "amount",
          "type": "uint256"
        },
        {
          "indexed": false,
          "internalType": "uint256",
          "name": "unlockTime",
          "type": "uint256"
        }
      ],
      "name": "EmergencyWithdrawalRequested",
      "type": "event"
    },
    {
      "anonymous": false,
      "inputs": [
        {
          "indexed": true,
          "internalType": "uint256",
          "name": "paymentId",
          "type": "uint256"
        },
        {
          "indexed": true,
          "internalType": "address",
          "name": "signer",
          "type": "address"
        },
        {
          "indexed": false,
          "internalType": "uint256",
          "name": "approvals",
          "type": "uint256"
        },
        {
          "indexed": false,
          "internalType": "uint256",
          "name": "required",
          "type": "uint256"
        }
      ],
      "name": "PaymentApproved",
      "type": "event"
    },
    {
      "anonymous": false,
      "inputs": [
        {
          "indexed": true,
          "internalType": "uint256",
          "name": "paymentId",
          "type": "uint256"
        }
      ],
      "name": "PaymentCancelled",
      "type": "event"
    },
    {
      "anonymous": false,
      "inputs": [
        {
          "indexed": true,
          "internalType": "uint256",
          "name": "paymentId",
          "type": "uint256"
        },
        {
          "indexed": true,
          "internalType": "address",
          "name": "token",
          "type": "address"
        },
        {
          "indexed": true,
          "internalType": "address",
          "name": "to",
          "type": "address"
        },
        {
          "indexed": false,
          "internalType": "uint256",
          "name": "amount",
          "type": "uint256"
        },
        {
          "indexed": false,
          "internalType": "bytes",
          "name": "txHash",
          "type": "bytes"
        }
      ],
      "name": "PaymentExecuted",
      "type": "event"
    },
    {
      "anonymous": false,
      "inputs": [
        {
          "indexed": true,
          "internalType": "uint256",
          "name": "paymentId",
          "type": "uint256"
        },
        {
          "indexed": true,
          "internalType": "address",
          "name": "token",
          "type": "address"
        },
        {
          "indexed": true,
          "internalType": "address",
          "name": "to",
          "type": "address"
        },
        {
          "indexed": false,
          "internalType": "uint256",
          "name": "amount",
          "type": "uint256"
        },
        {
          "indexed": false,
          "internalType": "bytes",
          "name": "data",
          "type": "bytes"
        },
        {
          "indexed": false,
          "internalType": "uint256",
          "name": "proposedAt",
          "type": "uint256"
        }
      ],
      "name": "PaymentProposed",
      "type": "event"
    },
    {
      "anonymous": false,
      "inputs": [
        {
          "indexed": true,
          "internalType": "address",
          "name": "signer",
          "type": "address"
        },
        {
          "indexed": false,
          "internalType": "uint256",
          "name": "threshold",
          "type": "uint256"
        }
      ],
      "name": "SignerAdded",
      "type": "event"
    },
    {
      "anonymous": false,
      "inputs": [
        {
          "indexed": true,
          "internalType": "address",
          "name": "signer",
          "type": "address"
        },
        {
          "indexed": false,
          "internalType": "uint256",
          "name": "threshold",
          "type": "uint256"
        }
      ],
      "name": "SignerRemoved",
      "type": "event"
    },
    {
      "anonymous": false,
      "inputs": [
        {
          "indexed": false,
          "internalType": "uint256",
          "name": "oldThreshold",
          "type": "uint256"
        },
        {
          "indexed": false,
          "internalType": "uint256",
          "name": "newThreshold",
          "type": "uint256"
        }
      ],
      "name": "ThresholdUpdated",
      "type": "event"
    },
    {
      "anonymous": false,
      "inputs": [
        {
          "indexed": false,
          "internalType": "uint256",
          "name": "oldTimelock",
          "type": "uint256"
        },
        {
          "indexed": false,
          "internalType": "uint256",
          "name": "newTimelock",
          "type": "uint256"
        }
      ],
      "name": "TimelockUpdated",
      "type": "event"
    },
    {
      "anonymous": false,
      "inputs": [
        {
          "indexed": true,
          "internalType": "address",
          "name": "pauser",
          "type": "address"
        }
      ],
      "name": "VaultPaused",
      "type": "event"
    },
    {
      "anonymous": false,
      "inputs": [
        {
          "indexed": true,
          "internalType": "address",
          "name": "unpauser",
          "type": "address"
        }
      ],
      "name": "VaultUnpaused",
      "type": "event"
    },
    {
      "inputs": [
        {
          "internalType": "address",
          "name": "newSigner",
          "type": "address"
        }
      ],
      "name": "addSigner",
      "outputs": [],
      "stateMutability": "nonpayable",
      "type": "function"
    },
    {
      "inputs": [
        {
          "internalType": "address",
          "name": "token",
          "type": "address"
        }
      ],
      "name": "addSupportedToken",
      "outputs": [],
      "stateMutability": "nonpayable",
      "type": "function"
    },
    {
      "inputs": [
        {
          "internalType": "uint256",
          "name": "paymentId",
          "type": "uint256"
        }
      ],
      "name": "approvePayment",
      "outputs": [],
      "stateMutability": "nonpayable",
      "type": "function"
    },
    {
      "inputs": [
        {
          "internalType": "uint256",
          "name": "paymentId",
          "type": "uint256"
        }
      ],
      "name": "cancelPayment",
      "outputs": [],
      "stateMutability": "nonpayable",
      "type": "function"
    },
    {
      "inputs": [],
      "name": "dailyLimit",
      "outputs": [
        {
          "internalType": "uint256",
          "name": "",
          "type": "uint256"
        }
      ],
      "stateMutability": "view",
      "type": "function"
    },
    {
      "inputs": [],
      "name": "dailyPaid",
      "outputs": [
        {
          "internalType": "uint256",
          "name": "",
          "type": "uint256"
        }
      ],
      "stateMutability": "view",
      "type": "function"
    },
    {
      "inputs": [
        {
          "internalType": "bytes32",
          "name": "",
          "type": "bytes32"
        }
      ],
      "name": "emergencyRequests",
      "outputs": [
        {
          "internalType": "address",
          "name": "to",
          "type": "address"
        },
        {
          "internalType": "address",
          "name": "token",
          "type": "address"
        },
        {
          "internalType": "uint256",
          "name": "amount",
          "type": "uint256"
        },
        {
          "internalType": "uint256",
          "name": "unlockTime",
          "type": "uint256"
        },
        {
          "internalType": "bool",
          "name": "exists",
          "type": "bool"
        }
      ],
      "stateMutability": "view",
      "type": "function"
    },
    {
      "inputs": [
        {
          "internalType": "address",
          "name": "to",
          "type": "address"
        },
        {
          "internalType": "address",
          "name": "token",
          "type": "address"
        },
        {
          "internalType": "uint256",
          "name": "amount",
          "type": "uint256"
        },
        {
          "internalType": "uint256",
          "name": "requestTimestamp",
          "type": "uint256"
        }
      ],
      "name": "executeEmergencyWithdrawal",
      "outputs": [],
      "stateMutability": "nonpayable",
      "type": "function"
    },
    {
      "inputs": [
        {
          "internalType": "uint256",
          "name": "paymentId",
          "type": "uint256"
        }
      ],
      "name": "executePayment",
      "outputs": [],
      "stateMutability": "nonpayable",
      "type": "function"
    },
    {
      "inputs": [
        {
          "internalType": "address",
          "name": "token",
          "type": "address"
        }
      ],
      "name": "getBalance",
      "outputs": [
        {
          "internalType": "uint256",
          "name": "balance",
          "type": "uint256"
        }
      ],
      "stateMutability": "view",
      "type": "function"
    },
    {
      "inputs": [
        {
          "internalType": "uint256",
          "name": "paymentId",
          "type": "uint256"
        }
      ],
      "name": "getPayment",
      "outputs": [
        {
          "internalType": "address",
          "name": "token",
          "type": "address"
        },
        {
          "internalType": "address",
          "name": "to",
          "type": "address"
        },
        {
          "internalType": "uint256",
          "name": "amount",
          "type": "uint256"
        },
        {
          "internalType": "uint256",
          "name": "approvalCount",
          "type": "uint256"
        },
        {
          "internalType": "uint256",
          "name": "required",
          "type": "uint256"
        },
        {
          "internalType": "bool",
          "name": "executed",
          "type": "bool"
        },
        {
          "internalType": "bool",
          "name": "cancelled",
          "type": "bool"
        },
        {
          "internalType": "uint256",
          "name": "proposedAt",
          "type": "uint256"
        }
      ],
      "stateMutability": "view",
      "type": "function"
    },
    {
      "inputs": [],
      "name": "getRemainingDailyLimit",
      "outputs": [
        {
          "internalType": "uint256",
          "name": "remaining",
          "type": "uint256"
        }
      ],
      "stateMutability": "view",
      "type": "function"
    },
    {
      "inputs": [],
      "name": "getSigners",
      "outputs": [
        {
          "internalType": "address[]",
          "name": "",
          "type": "address[]"
        }
      ],
      "stateMutability": "view",
      "type": "function"
    },
    {
      "inputs": [],
      "name": "guardian",
      "outputs": [
        {
          "internalType": "address",
          "name": "",
          "type": "address"
        }
      ],
      "stateMutability": "view",
      "type": "function"
    },
    {
      "inputs": [
        {
          "internalType": "uint256",
          "name": "paymentId",
          "type": "uint256"
        },
        {
          "internalType": "address",
          "name": "signer",
          "type": "address"
        }
      ],
      "name": "hasApproved",
      "outputs": [
        {
          "internalType": "bool",
          "name": "",
          "type": "bool"
        }
      ],
      "stateMutability": "view",
      "type": "function"
    },
    {
      "inputs": [
        {
          "internalType": "address",
          "name": "",
          "type": "address"
        }
      ],
      "name": "isSigner",
      "outputs": [
        {
          "internalType": "bool",
          "name": "",
          "type": "bool"
        }
      ],
      "stateMutability": "view",
      "type": "function"
    },
    {
      "inputs": [],
      "name": "lastDailyReset",
      "outputs": [
        {
          "internalType": "uint256",
          "name": "",
          "type": "uint256"
        }
      ],
      "stateMutability": "view",
      "type": "function"
    },
    {
      "inputs": [],
      "name": "nextPaymentId",
      "outputs": [
        {
          "internalType": "uint256",
          "name": "",
          "type": "uint256"
        }
      ],
      "stateMutability": "view",
      "type": "function"
    },
    {
      "inputs": [],
      "name": "pause",
      "outputs": [],
      "stateMutability": "nonpayable",
      "type": "function"
    },
    {
      "inputs": [],
      "name": "paused",
      "outputs": [
        {
          "internalType": "bool",
          "name": "",
          "type": "bool"
        }
      ],
      "stateMutability": "view",
      "type": "function"
    },
    {
      "inputs": [
        {
          "internalType": "uint256",
          "name": "",
          "type": "uint256"
        }
      ],
      "name": "payments",
      "outputs": [
        {
          "internalType": "address",
          "name": "token",
          "type": "address"
        },
        {
          "internalType": "address",
          "name": "to",
          "type": "address"
        },
        {
          "internalType": "uint256",
          "name": "amount",
          "type": "uint256"
        },
        {
          "internalType": "bytes",
          "name": "data",
          "type": "bytes"
        },
        {
          "internalType": "uint256",
          "name": "approvalCount",
          "type": "uint256"
        },
        {
          "internalType": "bool",
          "name": "executed",
          "type": "bool"
        },
        {
          "internalType": "bool",
          "name": "cancelled",
          "type": "bool"
        },
        {
          "internalType": "uint256",
          "name": "proposedAt",
          "type": "uint256"
        }
      ],
      "stateMutability": "view",
      "type": "function"
    },
    {
      "inputs": [
        {
          "internalType": "address",
          "name": "token",
          "type": "address"
        },
        {
          "internalType": "address",
          "name": "to",
          "type": "address"
        },
        {
          "internalType": "uint256",
          "name": "amount",
          "type": "uint256"
        },
        {
          "internalType": "bytes",
          "name": "data",
          "type": "bytes"
        }
      ],
      "name": "proposePayment",
      "outputs": [
        {
          "internalType": "uint256",
          "name": "paymentId",
          "type": "uint256"
        }
      ],
      "stateMutability": "nonpayable",
      "type": "function"
    },
    {
      "inputs": [
        {
          "internalType": "address",
          "name": "signer",
          "type": "address"
        }
      ],
      "name": "removeSigner",
      "outputs": [],
      "stateMutability": "nonpayable",
      "type": "function"
    },
    {
      "inputs": [
        {
          "internalType": "address",
          "name": "token",
          "type": "address"
        }
      ],
      "name": "removeSupportedToken",
      "outputs": [],
      "stateMutability": "nonpayable",
      "type": "function"
    },
    {
      "inputs": [
        {
          "internalType": "address",
          "name": "to",
          "type": "address"
        },
        {
          "internalType": "address",
          "name": "token",
          "type": "address"
        },
        {
          "internalType": "uint256",
          "name": "amount",
          "type": "uint256"
        }
      ],
      "name": "requestEmergencyWithdrawal",
      "outputs": [],
      "stateMutability": "nonpayable",
      "type": "function"
    },
    {
      "inputs": [
        {
          "internalType": "uint256",
          "name": "",
          "type": "uint256"
        }
      ],
      "name": "signers",
      "outputs": [
        {
          "internalType": "address",
          "name": "",
          "type": "address"
        }
      ],
      "stateMutability": "view",
      "type": "function"
    },
    {
      "inputs": [
        {
          "internalType": "address",
          "name": "",
          "type": "address"
        }
      ],
      "name": "supportedTokens",
      "outputs": [
        {
          "internalType": "bool",
          "name": "",
          "type": "bool"
        }
      ],
      "stateMutability": "view",
      "type": "function"
    },
    {
      "inputs": [],
      "name": "threshold",
      "outputs": [
        {
          "internalType": "uint256",
          "name": "",
          "type": "uint256"
        }
      ],
      "stateMutability": "view",
      "type": "function"
    },
    {
      "inputs": [],
      "name": "timelock",
      "outputs": [
        {
          "internalType": "uint256",
          "name": "",
          "type": "uint256"
        }
      ],
      "stateMutability": "view",
      "type": "function"
    },
    {
      "inputs": [],
      "name": "unpause",
      "outputs": [],
      "stateMutability": "nonpayable",
      "type": "function"
    },
    {
      "inputs": [
        {
          "internalType": "uint256",
          "name": "newLimit",
          "type": "uint256"
        }
      ],
      "name": "updateDailyLimit",
      "outputs": [],
      "stateMutability": "nonpayable",
      "type": "function"
    },
    {
      "inputs": [
        {
          "internalType": "uint256",
          "name": "newThreshold",
          "type": "uint256"
        }
      ],
      "name": "updateThreshold",
      "outputs": [],
      "stateMutability": "nonpayable",
      "type": "function"
    },
    {
      "inputs": [
        {
          "internalType": "uint256",
          "name": "newTimelock",
          "type": "uint256"
        }
      ],
      "name": "updateTimelock",
      "outputs": [],
      "stateMutability": "nonpayable",
      "type": "function"
    }
  ],
  "bytecode": "0x60806040523480156200001157600080fd5b5060405162002516380380620025168339810160408190526200003491620003a8565b8551600003620000575760405163e6c4247b60e01b815260040160405180910390fd5b6001600160a01b0384166200007f5760405163e6c4247b60e01b815260040160405180910390fd5b8415806200008d5750855185115b15620000ac5760405163aabd5a0960e01b815260040160405180910390fd5b62093a80821115620000d157604051637c68874160e11b815260040160405180910390fd5b60005b8651811015620001f3576000878281518110620000f557620000f562000440565b6020026020010151905060006001600160a01b0316816001600160a01b031603620001335760405163e6c4247b60e01b815260040160405180910390fd5b6001600160a01b03811660009081526020819052604090205460ff16156200017d5760405163899ec36960e01b81526001600160a01b038216600482015260240160405180910390fd5b6001600160a01b03166000818152602081905260408120805460ff191660019081179091558054808201825591527fb10e2d527612073b26eecdfd717e6a320cf44b4afac2b0732d9fcbe2b7fa0cf60180546001600160a01b031916909117905580620001ea8162000456565b915050620000d4565b506002859055600c80546001600160a01b0319166001600160a01b038616179055600682905560078190554260095560005b8351811015620002bb57600084828151811062000246576200024662000440565b6020026020010151905060006001600160a01b0316816001600160a01b031603620002845760405163e6c4247b60e01b815260040160405180910390fd5b6001600160a01b03166000908152600a60205260409020805460ff1916600117905580620002b28162000456565b91505062000225565b505050505050506200047e565b634e487b7160e01b600052604160045260246000fd5b80516001600160a01b0381168114620002f657600080fd5b919050565b600082601f8301126200030d57600080fd5b815160206001600160401b03808311156200032c576200032c620002c8565b8260051b604051601f19603f83011681018181108482111715620003545762000354620002c8565b6040529384528581018301938381019250878511156200037357600080fd5b83870191505b848210156200039d576200038d82620002de565b8352918301919083019062000379565b979650505050505050565b60008060008060008060c08789031215620003c257600080fd5b86516001600160401b0380821115620003da57600080fd5b620003e88a838b01620002fb565b975060208901519650620003ff60408a01620002de565b955060608901519150808211156200041657600080fd5b506200042589828a01620002fb565b9350506080870151915060a087015190509295509295509295565b634e487b7160e01b600052603260045260246000fd5b6000600182016200047757634e487b7160e01b600052601160045260246000fd5b5060010190565b612088806200048e6000396000f3fe608060405234801561001057600080fd5b50600436106101fb5760003560e01c80638422927d1161011a578063b4a7a187116100ad578063eb12d61e1161007c578063eb12d61e14610535578063f8175d7814610548578063f8b2cb4f1461055b578063fa1ccffd1461056e578063fcd130ef1461058157600080fd5b8063b4a7a187146104fd578063d33219b414610506578063d7d7442f1461050f578063de14c8181461052257600080fd5b806394cf795e116100e957806394cf795e146104c45780639b22b920146104d9578063a15f39e8146104e2578063a523d435146104ea57600080fd5b80638422927d1461046f5780638456cb591461048257806387d817891461048a5780638b2b9ec7146104b157600080fd5b8063452a9320116101925780636d69fcaf116101615780636d69fcaf1461041357806376319190146104265780637df73e271461043957806380d34fc11461045c57600080fd5b8063452a9320146103c75780635c975abb146103da57806367eeba0c146103e757806368c4ac26146103f057600080fd5b80632358d5a8116101ce5780632358d5a8146102d95780633280a836146102fc5780633f4ba83a146103a857806342cde4e8146103b057600080fd5b80630557ac41146102005780630e316ab714610286578063162a0cf81461029b5780632079fb9a146102ae575b600080fd5b61024c61020e366004611b73565b600b60205260009081526040902080546001820154600283015460038401546004909401546001600160a01b03938416949390921692909160ff1685565b604080516001600160a01b0396871681529590941660208601529284019190915260608301521515608082015260a0015b60405180910390f35b610299610294366004611ba8565b61058a565b005b6102996102a9366004611b73565b6107e5565b6102c16102bc366004611b73565b6109d5565b6040516001600160a01b03909116815260200161027d565b6102ec6102e7366004611bca565b6109ff565b604051901515815260200161027d565b61035e61030a366004611b73565b6000908152600360205260409020805460018201546002808401546005850154915460068601546007909601546001600160a01b0395861697959094169591949293909260ff808416936101009004169190565b604080516001600160a01b03998a1681529890971660208901529587019490945260608601929092526080850152151560a0840152151560c083015260e08201526101000161027d565b610299610a2f565b6103b960025481565b60405190815260200161027d565b600c546102c1906001600160a01b031681565b6005546102ec9060ff1681565b6103b960075481565b6102ec6103fe366004611ba8565b600a6020526000908152604090205460ff1681565b610299610421366004611ba8565b610a93565b610299610434366004611ba8565b610b0b565b6102ec610447366004611ba8565b60006020819052908152604090205460ff1681565b6103b961046a366004611bf6565b610b59565b61029961047d366004611b73565b610d18565b610299610e0b565b61049d610498366004611b73565b610e72565b60405161027d989796959493929190611c91565b6102996104bf366004611d2c565b610f54565b6104cc611117565b60405161027d9190611d68565b6103b960045481565b6103b96112e1565b6102996104f8366004611db5565b61133a565b6103b960095481565b6103b960065481565b61029961051d366004611b73565b6114b1565b610299610530366004611b73565b6115c5565b610299610543366004611ba8565b611735565b610299610556366004611b73565b61186d565b6103b9610569366004611ba8565b6118e0565b61029961057c366004611b73565b61194b565b6103b960085481565b3360009081526020819052604090205460ff166105c157604051634a0bfec160e01b81523360048201526024015b60405180910390fd5b6001600160a01b03811660009081526020819052604090205460ff16610605576040516353b1def160e01b81526001600160a01b03821660048201526024016105b8565b6001546002548082116106755761061d600183611e0d565b90506000811161066f5760405162461bcd60e51b815260206004820152601760248201527f5468726573686f6c6420776f756c64206265207a65726f00000000000000000060448201526064016105b8565b60028190555b6001600160a01b0383166000908152602081905260408120805460ff191690555b60015481101561079a57836001600160a01b0316600182815481106106bd576106bd611e20565b6000918252602090912001546001600160a01b03160361078857600180546106e6908290611e0d565b815481106106f6576106f6611e20565b600091825260209091200154600180546001600160a01b03909216918390811061072257610722611e20565b9060005260206000200160006101000a8154816001600160a01b0302191690836001600160a01b03160217905550600180548061076157610761611e36565b600082815260209020810160001990810180546001600160a01b031916905501905561079a565b8061079281611e4c565b915050610696565b50826001600160a01b03167f99c1d2c0ed8107e4db2e5dbfb10a2549cd2a63cbe39cf99d2adffbcd039544186002546040516107d891815260200190565b60405180910390a2505050565b60055460ff1615610809576040516336039cdb60e11b815260040160405180910390fd5b6000818152600360205260409020600454821061083957604051632c46fa3160e21b815260040160405180910390fd5b600681015460ff161561085f57604051633c131f9560e21b815260040160405180910390fd5b6006810154610100900460ff161561088a57604051639c7dbde560e01b815260040160405180910390fd5b600254816005015410156108c2576005810154600254604051635ab4617560e01b8152600481019290925260248201526044016105b8565b600654156109135760065481600701546108dc9190611e65565b421015610913576007810154600654604051631dd2e27160e01b8152600481019290925260248201524260448201526064016105b8565b61092081600201546119da565b60068101805460ff19166001179055600281015460088054600090610946908490611e65565b90915550508054600182015460028301546001600160a01b0392831692610971928492911690611a91565b60018201548254600284015460408051918252602082018190526000908201526001600160a01b03928316929091169085907fe39a68869373e11ddad64a6017a51542c3a72ae2329c7320663ca052de7c4f6f9060600160405180910390a4505050565b600181815481106109e557600080fd5b6000918252602090912001546001600160a01b0316905081565b60008281526003602090815260408083206001600160a01b038516845260040190915290205460ff165b92915050565b600c546001600160a01b03163314610a5c57604051634a0bfec160e01b81523360048201526024016105b8565b6005805460ff1916905560405133907fcf1b4127793ff168d18689e30ebd56f02dc076b536aab2a7fd836bea6776101790600090a2565b600c546001600160a01b03163314610ac057604051634a0bfec160e01b81523360048201526024016105b8565b6001600160a01b038116610ae75760405163e6c4247b60e01b815260040160405180910390fd5b6001600160a01b03166000908152600a60205260409020805460ff19166001179055565b600c546001600160a01b03163314610b3857604051634a0bfec160e01b81523360048201526024016105b8565b6001600160a01b03166000908152600a60205260409020805460ff19169055565b3360009081526020819052604081205460ff16610b8b57604051634a0bfec160e01b81523360048201526024016105b8565b60055460ff1615610baf576040516336039cdb60e11b815260040160405180910390fd5b6001600160a01b038516610bd65760405163e6c4247b60e01b815260040160405180910390fd5b83600003610bf75760405163162908e360e11b815260040160405180910390fd5b6001600160a01b0386166000908152600a602052604090205460ff16610c3b576040516306439c6b60e01b81526001600160a01b03871660048201526024016105b8565b60048054906000610c4b83611e4c565b90915550600081815260036020819052604090912080546001600160a01b03808b166001600160a01b0319928316178355600183018054918b1691909216179055600281018790559192508101610ca3848683611f16565b506000600582015560068101805461ffff1916905542600782018190556040516001600160a01b0380891692908a169185917ff8989de4c9f9be0707e9f9519f84a873f68fc16ed8eb6bc04e06ebcd19a2622491610d06918b918b918b91611fd7565b60405180910390a45095945050505050565b3360009081526020819052604090205460ff16610d4a57604051634a0bfec160e01b81523360048201526024016105b8565b60008181526003602052604090206004548210610d7a57604051632c46fa3160e21b815260040160405180910390fd5b600681015460ff1615610da057604051633c131f9560e21b815260040160405180910390fd5b6006810154610100900460ff1615610dcb57604051639c7dbde560e01b815260040160405180910390fd5b60068101805461ff00191661010017905560405182907fb85e553db1cc947378f2f2d6071d3e64a20a8d3896fee3d15a5087372164e97c90600090a25050565b600c546001600160a01b03163314610e3857604051634a0bfec160e01b81523360048201526024016105b8565b6005805460ff1916600117905560405133907fdffada2889ebfab9224c24069d833f3de835d8cf99872d49e7b7ba5fccb7a46f90600090a2565b600360208190526000918252604090912080546001820154600283015493830180546001600160a01b0393841695939092169391610eaf90611e8e565b80601f0160208091040260200160405190810160405280929190818152602001828054610edb90611e8e565b8015610f285780601f10610efd57610100808354040283529160200191610f28565b820191906000526020600020905b815481529060010190602001808311610f0b57829003601f168201915b505050600584015460068501546007909501549394909360ff8083169450610100909204909116915088565b600c546001600160a01b03163314610f8157604051634a0bfec160e01b81523360048201526024016105b8565b6001600160a01b038316610fa85760405163e6c4247b60e01b815260040160405180910390fd5b80600003610fc95760405163162908e360e11b815260040160405180910390fd5b604080516001600160a01b0380861660208301528416918101919091526060810182905242608082015260009060a00160408051601f1981840301815291815281516020928301206000818152600b90935291206004015490915060ff161561103157600080fd5b6000600654426110419190611e65565b6040805160a0810182526001600160a01b0388811680835288821660208085018281528587018b81526060870189815260016080890181815260008e8152600b87528b902099518a546001600160a01b0319908116918b16919091178b559451918a018054909516919098161790925551600287015551600386015592516004909401805460ff19169415159490941790935583518881529182018590529394509092917ff1c8025c774f762f16bae44fd8038afda9d224382fa547f17f3eaaa993ad903b910160405180910390a35050505050565b60015460609060009067ffffffffffffffff81111561113857611138611e78565b604051908082528060200260200182016040528015611161578160200160208202803683370190505b5090506000805b600154811015611230576000806001838154811061118857611188611e20565b60009182526020808320909101546001600160a01b0316835282019290925260400190205460ff161561121e57600181815481106111c8576111c8611e20565b9060005260206000200160009054906101000a90046001600160a01b03168383815181106111f8576111f8611e20565b6001600160a01b03909216602092830291909101909101528161121a81611e4c565b9250505b8061122881611e4c565b915050611168565b5060008167ffffffffffffffff81111561124c5761124c611e78565b604051908082528060200260200182016040528015611275578160200160208202803683370190505b50905060005b828110156112d95783818151811061129557611295611e20565b60200260200101518282815181106112af576112af611e20565b6001600160a01b0390921660209283029190910190910152806112d181611e4c565b91505061127b565b509392505050565b60006007546000036112f4575060001990565b60006112fe611ae8565b9050600954811461131157505060075490565b6007546008541061132457600091505090565b6008546007546113349190611e0d565b91505090565b600c546001600160a01b0316331461136757604051634a0bfec160e01b81523360048201526024016105b8565b604080516001600160a01b038087166020830152851691810191909152606081018390526080810182905260009060a00160408051601f1981840301815291815281516020928301206000818152600b909352912060048101549192509060ff166113d157600080fd5b8060030154421015611405576003810154604051630a83f0c360e01b815260048101919091524260248201526044016105b8565b6000828152600b6020526040812080546001600160a01b031990811682556001820180549091169055600281018290556003810191909155600401805460ff1916905561145c6001600160a01b0386168786611a91565b846001600160a01b0316866001600160a01b03167ffc1ec46aae79fbb3f8570a4e75012d5aa304184152e1b97ec06405010f70874c866040516114a191815260200190565b60405180910390a3505050505050565b3360009081526020819052604090205460ff166114e357604051634a0bfec160e01b81523360048201526024016105b8565b6000805b600154811015611554576000806001838154811061150757611507611e20565b60009182526020808320909101546001600160a01b0316835282019290925260400190205460ff1615611542578161153e81611e4c565b9250505b8061154c81611e4c565b9150506114e7565b5081158061156157508082115b1561157f5760405163aabd5a0960e01b815260040160405180910390fd5b600280549083905560408051828152602081018590527fb06a54caabe58475c86c2bf9df3f2f06dd1213e9e10659c293117fe4893b274b910160405180910390a1505050565b3360009081526020819052604090205460ff166115f757604051634a0bfec160e01b81523360048201526024016105b8565b6000818152600360205260409020600454821061162757604051632c46fa3160e21b815260040160405180910390fd5b33600090815260048201602052604090205460ff161561165c57604051631ec4a3f560e01b81523360048201526024016105b8565b600681015460ff161561168257604051633c131f9560e21b815260040160405180910390fd5b6006810154610100900460ff16156116ad57604051639c7dbde560e01b815260040160405180910390fd5b3360009081526004820160205260408120805460ff19166001179055600582018054916116d983611e4c565b9190505550336001600160a01b0316827f812fb1343af5c2403bd838b8976ced26e192872a29f0b1affaa828819f7c1fdf8360050154600254604051611729929190918252602082015260400190565b60405180910390a35050565b3360009081526020819052604090205460ff1661176757604051634a0bfec160e01b81523360048201526024016105b8565b6001600160a01b03811661178e5760405163e6c4247b60e01b815260040160405180910390fd5b6001600160a01b03811660009081526020819052604090205460ff16156117d35760405163899ec36960e01b81526001600160a01b03821660048201526024016105b8565b6001600160a01b038116600081815260208181526040808320805460ff191660019081179091558054808201825593527fb10e2d527612073b26eecdfd717e6a320cf44b4afac2b0732d9fcbe2b7fa0cf690920180546001600160a01b0319168417905560025491519182527f50999ebf9b59bf3157a58816611976f2d723378ad51457d7b0413209e0cdee59910160405180910390a250565b600c546001600160a01b0316331461189a57604051634a0bfec160e01b81523360048201526024016105b8565b600780549082905560408051828152602081018490527f207c4cbdf55ec315a13f0d5e047732ec5d947da056e706593aa509909941cedf91015b60405180910390a15050565b6040516370a0823160e01b81523060048201526000906001600160a01b038316906370a0823190602401602060405180830381865afa158015611927573d6000803e3d6000fd5b505050506040513d601f19601f82011682018060405250810190610a299190612017565b600c546001600160a01b0316331461197857604051634a0bfec160e01b81523360048201526024016105b8565b62093a8081111561199c57604051637c68874160e11b815260040160405180910390fd5b600680549082905560408051828152602081018490527f3e9cac94b7c7db9b86df56321e6f7e3e88a6c87fc15fd825df1492cf69e3355191016118d4565b6007546000036119e75750565b60006119f1611ae8565b90506009548114611a435760085460408051918252600060208301527f207c4cbdf55ec315a13f0d5e047732ec5d947da056e706593aa509909941cedf910160405180910390a1600060085560098190555b60075482600854611a549190611e65565b1115611a8d5781600854600754611a6b9190611e0d565b6040516377b326b560e11b8152600481019290925260248201526044016105b8565b5050565b604080516001600160a01b038416602482015260448082018490528251808303909101815260649091019091526020810180516001600160e01b031663a9059cbb60e01b179052611ae3908490611afc565b505050565b6000611af76201518042612030565b905090565b600080602060008451602086016000885af180611b1f576040513d6000823e3d81fd5b50506000513d91508115611b37578060011415611b44565b6001600160a01b0384163b155b15611b6d57604051635274afe760e01b81526001600160a01b03851660048201526024016105b8565b50505050565b600060208284031215611b8557600080fd5b5035919050565b80356001600160a01b0381168114611ba357600080fd5b919050565b600060208284031215611bba57600080fd5b611bc382611b8c565b9392505050565b60008060408385031215611bdd57600080fd5b82359150611bed60208401611b8c565b90509250929050565b600080600080600060808688031215611c0e57600080fd5b611c1786611b8c565b9450611c2560208701611b8c565b935060408601359250606086013567ffffffffffffffff80821115611c4957600080fd5b818801915088601f830112611c5d57600080fd5b813581811115611c6c57600080fd5b896020828501011115611c7e57600080fd5b9699959850939650602001949392505050565b600061010060018060a01b03808c1684526020818c16818601528a6040860152826060860152895191508183860152600092505b81831015611ce457898301810151858401610120015291820191611cc5565b506101209150600082828601015281601f19601f83011685010192505050856080830152611d1660a083018615159052565b92151560c082015260e001529695505050505050565b600080600060608486031215611d4157600080fd5b611d4a84611b8c565b9250611d5860208501611b8c565b9150604084013590509250925092565b6020808252825182820181905260009190848201906040850190845b81811015611da95783516001600160a01b031683529284019291840191600101611d84565b50909695505050505050565b60008060008060808587031215611dcb57600080fd5b611dd485611b8c565b9350611de260208601611b8c565b93969395505050506040820135916060013590565b634e487b7160e01b600052601160045260246000fd5b81810381811115610a2957610a29611df7565b634e487b7160e01b600052603260045260246000fd5b634e487b7160e01b600052603160045260246000fd5b600060018201611e5e57611e5e611df7565b5060010190565b80820180821115610a2957610a29611df7565b634e487b7160e01b600052604160045260246000fd5b600181811c90821680611ea257607f821691505b602082108103611ec257634e487b7160e01b600052602260045260246000fd5b50919050565b601f821115611ae357600081815260208120601f850160051c81016020861015611eef5750805b601f850160051c820191505b81811015611f0e57828155600101611efb565b505050505050565b67ffffffffffffffff831115611f2e57611f2e611e78565b611f4283611f3c8354611e8e565b83611ec8565b6000601f841160018114611f765760008515611f5e5750838201355b600019600387901b1c1916600186901b178355611fd0565b600083815260209020601f19861690835b82811015611fa75786850135825560209485019460019092019101611f87565b5086821015611fc45760001960f88860031b161c19848701351681555b505060018560011b0183555b5050505050565b848152606060208201528260608201528284608083013760006080848301015260006080601f19601f860116830101905082604083015295945050505050565b60006020828403121561202957600080fd5b5051919050565b60008261204d57634e487b7160e01b600052601260045260246000fd5b50049056fea2646970667358221220c769463351f4ab741fbc078dac4139ce8964e95e375dc8e1a70f887f78212cb264736f6c63430008140033",
  "linkReferences": {},
  "deployedLinkReferences": {}
}