{"contracts/mocks/MockFHE.sol":{"MockFHE":{"abi":[{"anonymous":false,"inputs":[{"indexed":true,"internalType":"bytes32","name":"handle","type":"bytes32"},{"indexed":true,"internalType":"address","name":"account","type":"address"}],"name":"MockACLGrant","type":"event"},{"anonymous":false,"inputs":[{"indexed":true,"internalType":"bytes32","name":"handle","type":"bytes32"},{"indexed":false,"internalType":"uint256","name":"value","type":"uint256"}],"name":"MockDecryptRequest","type":"event"},{"anonymous":false,"inputs":[{"indexed":true,"internalType":"bytes32","name":"handle","type":"bytes32"},{"indexed":false,"internalType":"uint256","name":"value","type":"uint256"}],"name":"MockEncrypt","type":"event"},{"anonymous":false,"inputs":[{"indexed":false,"internalType":"string","name":"op","type":"string"},{"indexed":true,"internalType":"bytes32","name":"result","type":"bytes32"},{"indexed":false,"internalType":"uint256","name":"value","type":"uint256"}],"name":"MockOperation","type":"event"},{"inputs":[{"internalType":"bytes32","name":"","type":"bytes32"},{"internalType":"address","name":"","type":"address"}],"name":"acl","outputs":[{"internalType":"bool","name":"","type":"bool"}],"stateMutability":"view","type":"function"},{"inputs":[{"internalType":"bytes32","name":"lhs","type":"bytes32"},{"internalType":"bytes32","name":"rhs","type":"bytes32"}],"name":"add","outputs":[{"internalType":"bytes32","name":"","type":"bytes32"}],"stateMutability":"nonpayable","type":"function"},{"inputs":[{"internalType":"bytes32","name":"handle","type":"bytes32"},{"internalType":"address","name":"account","type":"address"}],"name":"allow","outputs":[],"stateMutability":"nonpayable","type":"function"},{"inputs":[{"internalType":"bytes32","name":"handle","type":"bytes32"}],"name":"allowThis","outputs":[],"stateMutability":"nonpayable","type":"function"},{"inputs":[{"internalType":"bytes32","name":"lhs","type":"bytes32"},{"internalType":"bytes32","name":"rhs","type":"bytes32"}],"name":"and_","outputs":[{"internalType":"bytes32","name":"","type":"bytes32"}],"stateMutability":"nonpayable","type":"function"},{"inputs":[{"internalType":"address","name":"value","type":"address"}],"name":"asEaddress","outputs":[{"internalType":"bytes32","name":"","type":"bytes32"}],"stateMutability":"nonpayable","type":"function"},{"inputs":[{"internalType":"bool","name":"value","type":"bool"}],"name":"asEbool","outputs":[{"internalType":"bytes32","name":"","type":"bytes32"}],"stateMutability":"nonpayable","type":"function"},{"inputs":[{"internalType":"uint64","name":"value","type":"uint64"}],"name":"asEuint64","outputs":[{"internalType":"bytes32","name":"","type":"bytes32"}],"stateMutability":"nonpayable","type":"function"},{"inputs":[{"internalType":"bytes32","name":"lhs","type":"bytes32"},{"internalType":"bytes32","name":"rhs","type":"bytes32"}],"name":"eq","outputs":[{"internalType":"bytes32","name":"","type":"bytes32"}],"stateMutability":"nonpayable","type":"function"},{"inputs":[{"internalType":"bytes32","name":"handle","type":"bytes32"},{"internalType":"bytes","name":"","type":"bytes"}],"name":"fromExternal","outputs":[{"internalType":"bytes32","name":"","type":"bytes32"}],"stateMutability":"nonpayable","type":"function"},{"inputs":[{"internalType":"bytes32","name":"lhs","type":"bytes32"},{"internalType":"bytes32","name":"rhs","type":"bytes32"}],"name":"ge","outputs":[{"internalType":"bytes32","name":"","type":"bytes32"}],"stateMutability":"nonpayable","type":"function"},{"inputs":[{"internalType":"bytes32","name":"lhs","type":"bytes32"},{"internalType":"bytes32","name":"rhs","type":"bytes32"}],"name":"gt","outputs":[{"internalType":"bytes32","name":"","type":"bytes32"}],"stateMutability":"nonpayable","type":"function"},{"inputs":[],"name":"handleCount","outputs":[{"internalType":"uint256","name":"","type":"uint256"}],"stateMutability":"view","type":"function"},{"inputs":[{"internalType":"bytes32","name":"","type":"bytes32"}],"name":"isPubliclyDecryptable","outputs":[{"internalType":"bool","name":"","type":"bool"}],"stateMutability":"view","type":"function"},{"inputs":[{"internalType":"bytes32","name":"handle","type":"bytes32"}],"name":"isSenderAllowed","outputs":[{"internalType":"bool","name":"","type":"bool"}],"stateMutability":"view","type":"function"},{"inputs":[{"internalType":"bytes32","name":"lhs","type":"bytes32"},{"internalType":"bytes32","name":"rhs","type":"bytes32"}],"name":"le","outputs":[{"internalType":"bytes32","name":"","type":"bytes32"}],"stateMutability":"nonpayable","type":"function"},{"inputs":[{"internalType":"bytes32","name":"lhs","type":"bytes32"},{"internalType":"bytes32","name":"rhs","type":"bytes32"}],"name":"lt","outputs":[{"internalType":"bytes32","name":"","type":"bytes32"}],"stateMutability":"nonpayable","type":"function"},{"inputs":[{"internalType":"bytes32","name":"handle","type":"bytes32"}],"name":"makePubliclyDecryptable","outputs":[],"stateMutability":"nonpayable","type":"function"},{"inputs":[{"internalType":"bytes32","name":"lhs","type":"bytes32"},{"internalType":"bytes32","name":"rhs","type":"bytes32"}],"name":"mul","outputs":[{"internalType":"bytes32","name":"","type":"bytes32"}],"stateMutability":"nonpayable","type":"function"},{"inputs":[{"internalType":"bytes32","name":"lhs","type":"bytes32"},{"internalType":"bytes32","name":"rhs","type":"bytes32"}],"name":"ne","outputs":[{"internalType":"bytes32","name":"","type":"bytes32"}],"stateMutability":"nonpayable","type":"function"},{"inputs":[{"internalType":"bytes32","name":"value","type":"bytes32"}],"name":"not_","outputs":[{"internalType":"bytes32","name":"","type":"bytes32"}],"stateMutability":"nonpayable","type":"function"},{"inputs":[{"internalType":"bytes32","name":"lhs","type":"bytes32"},{"internalType":"bytes32","name":"rhs","type":"bytes32"}],"name":"or_","outputs":[{"internalType":"bytes32","name":"","type":"bytes32"}],"stateMutability":"nonpayable","type":"function"},{"inputs":[{"internalType":"bytes32","name":"","type":"bytes32"}],"name":"plaintextValues","outputs":[{"internalType":"uint256","name":"","type":"uint256"}],"stateMutability":"view","type":"function"},{"inputs":[{"internalType":"bytes32","name":"handle","type":"bytes32"}],"name":"publicDecrypt","outputs":[{"internalType":"uint256","name":"","type":"uint256"}],"stateMutability":"view","type":"function"},{"inputs":[{"internalType":"bytes32","name":"handle","type":"bytes32"}],"name":"revealPlaintext","outputs":[{"internalType":"uint256","name":"","type":"uint256"}],"stateMutability":"view","type":"function"},{"inputs":[{"internalType":"bytes32","name":"condition","type":"bytes32"},{"internalType":"bytes32","name":"ifTrue","type":"bytes32"},{"internalType":"bytes32","name":"ifFalse","type":"bytes32"}],"name":"select","outputs":[{"internalType":"bytes32","name":"","type":"bytes32"}],"stateMutability":"nonpayable","type":"function"},{"inputs":[{"internalType":"bytes32","name":"lhs","type":"bytes32"},{"internalType":"bytes32","name":"rhs","type":"bytes32"}],"name":"sub","outputs":[{"internalType":"bytes32","name":"","type":"bytes32"}],"stateMutability":"nonpayable","type":"function"}],"evm":{"bytecode":{"linkReferences":{},"object":"608060405234801561001057600080fd5b50610dc4806100206000396000f3fe608060405234801561001057600080fd5b50600436106101a95760003560e01c80638dc29807116100f9578063c0b73c6811610097578063d102b4d311610071578063d102b4d3146103a7578063d1de592a146103ba578063de82c18a146103cd578063fd0a3f67146103fb57600080fd5b8063c0b73c681461036e578063c169649514610381578063ca5cc8531461039457600080fd5b806398c38455116100d357806398c384551461030d5780639dd9b33614610340578063b5e94bc114610353578063b9496b621461035b57600080fd5b80638dc29807146102d457806396ce1ec7146102e7578063973ab10b146102fa57600080fd5b806354fe3eb7116101665780636bf532ac116101405780636bf532ac1461027b5780637406f2801461028e578063790d17a9146102a15780637dbb68ae146102b457600080fd5b806354fe3eb7146102425780635d7d53971461025557806369be0ef91461026857600080fd5b8063080120a0146101ae5780630df44e1d146101d457806331213c57146101e75780633447c03014610207578063406509ba1461021a57806341aa00801461022f575b600080fd5b6101c16101bc366004610b70565b610429565b6040519081526020015b60405180910390f35b6101c16101e2366004610b89565b6104a9565b6101c16101f5366004610b70565b60016020526000908152604090205481565b6101c1610215366004610b89565b6104d6565b61022d610228366004610b70565b610514565b005b6101c161023d366004610b89565b61056f565b6101c1610250366004610b89565b6105ff565b6101c1610263366004610bab565b610628565b6101c1610276366004610bcd565b610639565b6101c1610289366004610b89565b61064e565b6101c161029c366004610c65565b610678565b6101c16102af366004610b89565b61068c565b6101c16102c2366004610b70565b60009081526001602052604090205490565b6101c16102e2366004610b89565b6106ae565b6101c16102f5366004610b89565b6106d7565b6101c1610308366004610c80565b61079a565b61033061031b366004610b70565b60036020526000908152604090205460ff1681565b60405190151581526020016101cb565b6101c161034e366004610b89565b610825565b6000546101c1565b61022d610369366004610cac565b6108ad565b61022d61037c366004610b70565b610908565b6101c161038f366004610b70565b610959565b6101c16103a2366004610cd8565b61097f565b6101c16103b5366004610b89565b610994565b6101c16103c8366004610b89565b610a0d565b6103306103db366004610cac565b600260209081526000928352604080842090915290825290205460ff1681565b610330610409366004610b70565b600090815260026020908152604080832033845290915290205460ff1690565b60008181526003602052604081205460ff166104965760405162461bcd60e51b815260206004820152602160248201527f4d6f636b4648453a206e6f74207075626c69636c79206465637279707461626c6044820152606560f81b60648201526084015b60405180910390fd5b5060009081526001602052604090205490565b60008281526001602052604080822054838352908220546104cb818316610ad0565b925050505b92915050565b60008281526001602052604080822054838352908220548261050a8284146104ff576000610502565b60015b60ff16610ad0565b9695505050505050565b6000818152600360209081526040808320805460ff1916600190811790915582529182902054915191825282917f95b0954385b6747cf6bf152b83ebea54f93ee6cf4cf7caabd820b9427d7e12d5910160405180910390a250565b600082815260016020526040808220548383529082205482818310156105965760006105a0565b6105a08284610d18565b905060006105ad82610ad0565b905080600080516020610d6f833981519152836040516105ed919060408082526003908201526239bab160e91b6060820152602081019190915260800190565b60405180910390a29695505050505050565b60008281526001602052604080822054838352908220548261050a8284036104ff576000610502565b60006104d0826104ff576000610502565b60008361064581610ad0565b95945050505050565b60008281526001602052604080822054838352908220548261050a828410156104ff576000610502565b60006104d0826001600160a01b0316610ad0565b60008281526001602052604080822054838352908220546104cb818317610ad0565b60008281526001602052604080822054838352908220548261050a8284116104ff576000610502565b6000828152600160205260408082205483835290822054826106f98284610d2b565b905067ffffffffffffffff81111561074f5760405162461bcd60e51b81526020600482015260196024820152784d6f636b4648453a206575696e743634206f766572666c6f7760381b604482015260640161048d565b600061075a82610ad0565b905080600080516020610d6f833981519152836040516105ed91906040808252600390820152621b5d5b60ea1b6060820152602081019190915260800190565b600083815260016020526040812054818181036107c5576000848152600160205260409020546107d5565b6000858152600160205260409020545b905060006107e282610ad0565b905080600080516020610d6f833981519152836040516105ed91906040808252600690820152651cd95b1958dd60d21b6060820152602081019190915260800190565b60008281526001602052604080822054838352908220548261084f828411156104ff576000610502565b905080600080516020610d6f83398151915283851115610870576000610873565b60015b60408051818152600291810191909152616c6560f01b606082015260ff90911660208201526080015b60405180910390a295945050505050565b60008281526002602090815260408083206001600160a01b0385168085529252808320805460ff1916600117905551909184917f3341dc059c9d0b03440d1e6b5c116ec629029748d05bb6256bc89bd134a00b3f9190a35050565b6000818152600260209081526040808320338085529252808320805460ff1916600117905551909183917f3341dc059c9d0b03440d1e6b5c116ec629029748d05bb6256bc89bd134a00b3f9190a350565b60008181526001602052604081205461097881156104ff576000610502565b9392505050565b60006104d08267ffffffffffffffff16610ad0565b6000828152600160205260408082205483835290822054826109bd8284106104ff576000610502565b905080600080516020610d6f8339815191528385106109dd5760006109e0565b60015b60408051818152600291810191909152611b1d60f21b606082015260ff909116602082015260800161089c565b600082815260016020526040808220548383529082205482610a2f8284610d42565b905067ffffffffffffffff811115610a855760405162461bcd60e51b81526020600482015260196024820152784d6f636b4648453a206575696e743634206f766572666c6f7760381b604482015260640161048d565b6000610a9082610ad0565b905080600080516020610d6f833981519152836040516105ed919060408082526003908201526218591960ea1b6060820152602081019190915260800190565b600080548180610adf83610d55565b9091555050600080546040516f6d6f636b5f6668655f68616e646c655f60801b6020820152603081019190915260500160408051808303601f1901815282825280516020918201206000818152600183529290922086905585835290925082917fe68ad1f6e74654d4fbf9cd0f623ef86129a21976906b2d0a80ce9fdead3332fb910160405180910390a292915050565b600060208284031215610b8257600080fd5b5035919050565b60008060408385031215610b9c57600080fd5b50508035926020909101359150565b600060208284031215610bbd57600080fd5b8135801515811461097857600080fd5b600080600060408486031215610be257600080fd5b83359250602084013567ffffffffffffffff80821115610c0157600080fd5b818601915086601f830112610c1557600080fd5b813581811115610c2457600080fd5b876020828501011115610c3657600080fd5b6020830194508093505050509250925092565b80356001600160a01b0381168114610c6057600080fd5b919050565b600060208284031215610c7757600080fd5b61097882610c49565b600080600060608486031215610c9557600080fd5b505081359360208301359350604090920135919050565b60008060408385031215610cbf57600080fd5b82359150610ccf60208401610c49565b90509250929050565b600060208284031215610cea57600080fd5b813567ffffffffffffffff8116811461097857600080fd5b634e487b7160e01b600052601160045260246000fd5b818103818111156104d0576104d0610d02565b80820281158282048414176104d0576104d0610d02565b808201808211156104d0576104d0610d02565b600060018201610d6757610d67610d02565b506001019056fe8564013d4537ba1343e7b0fd2201e9e8f794007ddb914ea159a2a6fc0d2592f0a26469706673582212206c39c5d0ba1145997b5eca7e8c82c966f2532d4bf9600c54ef5ea2e6317ca17d64736f6c63430008140033","opcodes":"PUSH1 0x80 PUSH1 0x40 MSTORE CALLVALUE DUP1 ISZERO PUSH2 0x10 JUMPI PUSH1 0x0 DUP1 REVERT JUMPDEST POP PUSH2 0xDC4 DUP1 PUSH2 0x20 PUSH1 0x0 CODECOPY PUSH1 0x0 RETURN INVALID PUSH1 0x80 PUSH1 0x40 MSTORE CALLVALUE DUP1 ISZERO PUSH2 0x10 JUMPI PUSH1 0x0 DUP1 REVERT JUMPDEST POP PUSH1 0x4 CALLDATASIZE LT PUSH2 0x1A9 JUMPI PUSH1 0x0 CALLDATALOAD PUSH1 0xE0 SHR DUP1 PUSH4 0x8DC29807 GT PUSH2 0xF9 JUMPI DUP1 PUSH4 0xC0B73C68 GT PUSH2 0x97 JUMPI DUP1 PUSH4 0xD102B4D3 GT PUSH2 0x71 JUMPI DUP1 PUSH4 0xD102B4D3 EQ PUSH2 0x3A7 JUMPI DUP1 PUSH4 0xD1DE592A EQ PUSH2 0x3BA JUMPI DUP1 PUSH4 0xDE82C18A EQ PUSH2 0x3CD JUMPI DUP1 PUSH4 0xFD0A3F67 EQ PUSH2 0x3FB JUMPI PUSH1 0x0 DUP1 REVERT JUMPDEST DUP1 PUSH4 0xC0B73C68 EQ PUSH2 0x36E JUMPI DUP1 PUSH4 0xC1696495 EQ PUSH2 0x381 JUMPI DUP1 PUSH4 0xCA5CC853 EQ PUSH2 0x394 JUMPI PUSH1 0x0 DUP1 REVERT JUMPDEST DUP1 PUSH4 0x98C38455 GT PUSH2 0xD3 JUMPI DUP1 PUSH4 0x98C38455 EQ PUSH2 0x30D JUMPI DUP1 PUSH4 0x9DD9B336 EQ PUSH2 0x340 JUMPI DUP1 PUSH4 0xB5E94BC1 EQ PUSH2 0x353 JUMPI DUP1 PUSH4 0xB9496B62 EQ PUSH2 0x35B JUMPI PUSH1 0x0 DUP1 REVERT JUMPDEST DUP1 PUSH4 0x8DC29807 EQ PUSH2 0x2D4 JUMPI DUP1 PUSH4 0x96CE1EC7 EQ PUSH2 0x2E7 JUMPI DUP1 PUSH4 0x973AB10B EQ PUSH2 0x2FA JUMPI PUSH1 0x0 DUP1 REVERT JUMPDEST DUP1 PUSH4 0x54FE3EB7 GT PUSH2 0x166 JUMPI DUP1 PUSH4 0x6BF532AC GT PUSH2 0x140 JUMPI DUP1 PUSH4 0x6BF532AC EQ PUSH2 0x27B JUMPI DUP1 PUSH4 0x7406F280 EQ PUSH2 0x28E JUMPI DUP1 PUSH4 0x790D17A9 EQ PUSH2 0x2A1 JUMPI DUP1 PUSH4 0x7DBB68AE EQ PUSH2 0x2B4 JUMPI PUSH1 0x0 DUP1 REVERT JUMPDEST DUP1 PUSH4 0x54FE3EB7 EQ PUSH2 0x242 JUMPI DUP1 PUSH4 0x5D7D5397 EQ PUSH2 0x255 JUMPI DUP1 PUSH4 0x69BE0EF9 EQ PUSH2 0x268 JUMPI PUSH1 0x0 DUP1 REVERT JUMPDEST DUP1 PUSH4 0x80120A0 EQ PUSH2 0x1AE JUMPI DUP1 PUSH4 0xDF44E1D EQ PUSH2 0x1D4 JUMPI DUP1 PUSH4 0x31213C57 EQ PUSH2 0x1E7 JUMPI DUP1 PUSH4 0x3447C030 EQ PUSH2 0x207 JUMPI DUP1 PUSH4 0x406509BA EQ PUSH2 0x21A JUMPI DUP1 PUSH4 0x41AA0080 EQ PUSH2 0x22F JUMPI JUMPDEST PUSH1 0x0 DUP1 REVERT JUMPDEST PUSH2 0x1C1 PUSH2 0x1BC CALLDATASIZE PUSH1 0x4 PUSH2 0xB70 JUMP JUMPDEST PUSH2 0x429 JUMP JUMPDEST PUSH1 0x40 MLOAD SWAP1 DUP2 MSTORE PUSH1 0x20 ADD JUMPDEST PUSH1 0x40 MLOAD DUP1 SWAP2 SUB SWAP1 RETURN JUMPDEST PUSH2 0x1C1 PUSH2 0x1E2 CALLDATASIZE PUSH1 0x4 PUSH2 0xB89 JUMP JUMPDEST PUSH2 0x4A9 JUMP JUMPDEST PUSH2 0x1C1 PUSH2 0x1F5 CALLDATASIZE PUSH1 0x4 PUSH2 0xB70 JUMP JUMPDEST PUSH1 0x1 PUSH1 0x20 MSTORE PUSH1 0x0 SWAP1 DUP2 MSTORE PUSH1 0x40 SWAP1 KECCAK256 SLOAD DUP2 JUMP JUMPDEST PUSH2 0x1C1 PUSH2 0x215 CALLDATASIZE PUSH1 0x4 PUSH2 0xB89 JUMP JUMPDEST PUSH2 0x4D6 JUMP JUMPDEST PUSH2 0x22D PUSH2 0x228 CALLDATASIZE PUSH1 0x4 PUSH2 0xB70 JUMP JUMPDEST PUSH2 0x514 JUMP JUMPDEST STOP JUMPDEST PUSH2 0x1C1 PUSH2 0x23D CALLDATASIZE PUSH1 0x4 PUSH2 0xB89 JUMP JUMPDEST PUSH2 0x56F JUMP JUMPDEST PUSH2 0x1C1 PUSH2 0x250 CALLDATASIZE PUSH1 0x4 PUSH2 0xB89 JUMP JUMPDEST PUSH2 0x5FF JUMP JUMPDEST PUSH2 0x1C1 PUSH2 0x263 CALLDATASIZE PUSH1 0x4 PUSH2 0xBAB JUMP JUMPDEST PUSH2 0x628 JUMP JUMPDEST PUSH2 0x1C1 PUSH2 0x276 CALLDATASIZE PUSH1 0x4 PUSH2 0xBCD JUMP JUMPDEST PUSH2 0x639 JUMP JUMPDEST PUSH2 0x1C1 PUSH2 0x289 CALLDATASIZE PUSH1 0x4 PUSH2 0xB89 JUMP JUMPDEST PUSH2 0x64E JUMP JUMPDEST PUSH2 0x1C1 PUSH2 0x29C CALLDATASIZE PUSH1 0x4 PUSH2 0xC65 JUMP JUMPDEST PUSH2 0x678 JUMP JUMPDEST PUSH2 0x1C1 PUSH2 0x2AF CALLDATASIZE PUSH1 0x4 PUSH2 0xB89 JUMP JUMPDEST PUSH2 0x68C JUMP JUMPDEST PUSH2 0x1C1 PUSH2 0x2C2 CALLDATASIZE PUSH1 0x4 PUSH2 0xB70 JUMP JUMPDEST PUSH1 0x0 SWAP1 DUP2 MSTORE PUSH1 0x1 PUSH1 0x20 MSTORE PUSH1 0x40 SWAP1 KECCAK256 SLOAD SWAP1 JUMP JUMPDEST PUSH2 0x1C1 PUSH2 0x2E2 CALLDATASIZE PUSH1 0x4 PUSH2 0xB89 JUMP JUMPDEST PUSH2 0x6AE JUMP JUMPDEST PUSH2 0x1C1 PUSH2 0x2F5 CALLDATASIZE PUSH1 0x4 PUSH2 0xB89 JUMP JUMPDEST PUSH2 0x6D7 JUMP JUMPDEST PUSH2 0x1C1 PUSH2 0x308 CALLDATASIZE PUSH1 0x4 PUSH2 0xC80 JUMP JUMPDEST PUSH2 0x79A JUMP JUMPDEST PUSH2 0x330 PUSH2 0x31B CALLDATASIZE PUSH1 0x4 PUSH2 0xB70 JUMP JUMPDEST PUSH1 0x3 PUSH1 0x20 MSTORE PUSH1 0x0 SWAP1 DUP2 MSTORE PUSH1 0x40 SWAP1 KECCAK256 SLOAD PUSH1 0xFF AND DUP2 JUMP JUMPDEST PUSH1 0x40 MLOAD SWAP1 ISZERO ISZERO DUP2 MSTORE PUSH1 0x20 ADD PUSH2 0x1CB JUMP JUMPDEST PUSH2 0x1C1 PUSH2 0x34E CALLDATASIZE PUSH1 0x4 PUSH2 0xB89 JUMP JUMPDEST PUSH2 0x825 JUMP JUMPDEST PUSH1 0x0 SLOAD PUSH2 0x1C1 JUMP JUMPDEST PUSH2 0x22D PUSH2 0x369 CALLDATASIZE PUSH1 0x4 PUSH2 0xCAC JUMP JUMPDEST PUSH2 0x8AD JUMP JUMPDEST PUSH2 0x22D PUSH2 0x37C CALLDATASIZE PUSH1 0x4 PUSH2 0xB70 JUMP JUMPDEST PUSH2 0x908 JUMP JUMPDEST PUSH2 0x1C1 PUSH2 0x38F CALLDATASIZE PUSH1 0x4 PUSH2 0xB70 JUMP JUMPDEST PUSH2 0x959 JUMP JUMPDEST PUSH2 0x1C1 PUSH2 0x3A2 CALLDATASIZE PUSH1 0x4 PUSH2 0xCD8 JUMP JUMPDEST PUSH2 0x97F JUMP JUMPDEST PUSH2 0x1C1 PUSH2 0x3B5 CALLDATASIZE PUSH1 0x4 PUSH2 0xB89 JUMP JUMPDEST PUSH2 0x994 JUMP JUMPDEST PUSH2 0x1C1 PUSH2 0x3C8 CALLDATASIZE PUSH1 0x4 PUSH2 0xB89 JUMP JUMPDEST PUSH2 0xA0D JUMP JUMPDEST PUSH2 0x330 PUSH2 0x3DB CALLDATASIZE PUSH1 0x4 PUSH2 0xCAC JUMP JUMPDEST PUSH1 0x2 PUSH1 0x20 SWAP1 DUP2 MSTORE PUSH1 0x0 SWAP3 DUP4 MSTORE PUSH1 0x40 DUP1 DUP5 KECCAK256 SWAP1 SWAP2 MSTORE SWAP1 DUP3 MSTORE SWAP1 KECCAK256 SLOAD PUSH1 0xFF AND DUP2 JUMP JUMPDEST PUSH2 0x330 PUSH2 0x409 CALLDATASIZE PUSH1 0x4 PUSH2 0xB70 JUMP JUMPDEST PUSH1 0x0 SWAP1 DUP2 MSTORE PUSH1 0x2 PUSH1 0x20 SWAP1 DUP2 MSTORE PUSH1 0x40 DUP1 DUP4 KECCAK256 CALLER DUP5 MSTORE SWAP1 SWAP2 MSTORE SWAP1 KECCAK256 SLOAD PUSH1 0xFF AND SWAP1 JUMP JUMPDEST PUSH1 0x0 DUP2 DUP2 MSTORE PUSH1 0x3 PUSH1 0x20 MSTORE PUSH1 0x40 DUP2 KECCAK256 SLOAD PUSH1 0xFF AND PUSH2 0x496 JUMPI PUSH1 0x40 MLOAD PUSH3 0x461BCD PUSH1 0xE5 SHL DUP2 MSTORE PUSH1 0x20 PUSH1 0x4 DUP3 ADD MSTORE PUSH1 0x21 PUSH1 0x24 DUP3 ADD MSTORE PUSH32 0x4D6F636B4648453A206E6F74207075626C69636C79206465637279707461626C PUSH1 0x44 DUP3 ADD MSTORE PUSH1 0x65 PUSH1 0xF8 SHL PUSH1 0x64 DUP3 ADD MSTORE PUSH1 0x84 ADD JUMPDEST PUSH1 0x40 MLOAD DUP1 SWAP2 SUB SWAP1 REVERT JUMPDEST POP PUSH1 0x0 SWAP1 DUP2 MSTORE PUSH1 0x1 PUSH1 0x20 MSTORE PUSH1 0x40 SWAP1 KECCAK256 SLOAD SWAP1 JUMP JUMPDEST PUSH1 0x0 DUP3 DUP2 MSTORE PUSH1 0x1 PUSH1 0x20 MSTORE PUSH1 0x40 DUP1 DUP3 KECCAK256 SLOAD DUP4 DUP4 MSTORE SWAP1 DUP3 KECCAK256 SLOAD PUSH2 0x4CB DUP2 DUP4 AND PUSH2 0xAD0 JUMP JUMPDEST SWAP3 POP POP POP JUMPDEST SWAP3 SWAP2 POP POP JUMP JUMPDEST PUSH1 0x0 DUP3 DUP2 MSTORE PUSH1 0x1 PUSH1 0x20 MSTORE PUSH1 0x40 DUP1 DUP3 KECCAK256 SLOAD DUP4 DUP4 MSTORE SWAP1 DUP3 KECCAK256 SLOAD DUP3 PUSH2 0x50A DUP3 DUP5 EQ PUSH2 0x4FF JUMPI PUSH1 0x0 PUSH2 0x502 JUMP JUMPDEST PUSH1 0x1 JUMPDEST PUSH1 0xFF AND PUSH2 0xAD0 JUMP JUMPDEST SWAP7 SWAP6 POP POP POP POP POP POP JUMP JUMPDEST PUSH1 0x0 DUP2 DUP2 MSTORE PUSH1 0x3 PUSH1 0x20 SWAP1 DUP2 MSTORE PUSH1 0x40 DUP1 DUP4 KECCAK256 DUP1 SLOAD PUSH1 0xFF NOT AND PUSH1 0x1 SWAP1 DUP2 OR SWAP1 SWAP2 SSTORE DUP3 MSTORE SWAP2 DUP3 SWAP1 KECCAK256 SLOAD SWAP2 MLOAD SWAP2 DUP3 MSTORE DUP3 SWAP2 PUSH32 0x95B0954385B6747CF6BF152B83EBEA54F93EE6CF4CF7CAABD820B9427D7E12D5 SWAP2 ADD PUSH1 0x40 MLOAD DUP1 SWAP2 SUB SWAP1 LOG2 POP JUMP JUMPDEST PUSH1 0x0 DUP3 DUP2 MSTORE PUSH1 0x1 PUSH1 0x20 MSTORE PUSH1 0x40 DUP1 DUP3 KECCAK256 SLOAD DUP4 DUP4 MSTORE SWAP1 DUP3 KECCAK256 SLOAD DUP3 DUP2 DUP4 LT ISZERO PUSH2 0x596 JUMPI PUSH1 0x0 PUSH2 0x5A0 JUMP JUMPDEST PUSH2 0x5A0 DUP3 DUP5 PUSH2 0xD18 JUMP JUMPDEST SWAP1 POP PUSH1 0x0 PUSH2 0x5AD DUP3 PUSH2 0xAD0 JUMP JUMPDEST SWAP1 POP DUP1 PUSH1 0x0 DUP1 MLOAD PUSH1 0x20 PUSH2 0xD6F DUP4 CODECOPY DUP2 MLOAD SWAP2 MSTORE DUP4 PUSH1 0x40 MLOAD PUSH2 0x5ED SWAP2 SWAP1 PUSH1 0x40 DUP1 DUP3 MSTORE PUSH1 0x3 SWAP1 DUP3 ADD MSTORE PUSH3 0x39BAB1 PUSH1 0xE9 SHL PUSH1 0x60 DUP3 ADD MSTORE PUSH1 0x20 DUP2 ADD SWAP2 SWAP1 SWAP2 MSTORE PUSH1 0x80 ADD SWAP1 JUMP JUMPDEST PUSH1 0x40 MLOAD DUP1 SWAP2 SUB SWAP1 LOG2 SWAP7 SWAP6 POP POP POP POP POP POP JUMP JUMPDEST PUSH1 0x0 DUP3 DUP2 MSTORE PUSH1 0x1 PUSH1 0x20 MSTORE PUSH1 0x40 DUP1 DUP3 KECCAK256 SLOAD DUP4 DUP4 MSTORE SWAP1 DUP3 KECCAK256 SLOAD DUP3 PUSH2 0x50A DUP3 DUP5 SUB PUSH2 0x4FF JUMPI PUSH1 0x0 PUSH2 0x502 JUMP JUMPDEST PUSH1 0x0 PUSH2 0x4D0 DUP3 PUSH2 0x4FF JUMPI PUSH1 0x0 PUSH2 0x502 JUMP JUMPDEST PUSH1 0x0 DUP4 PUSH2 0x645 DUP2 PUSH2 0xAD0 JUMP JUMPDEST SWAP6 SWAP5 POP POP POP POP POP JUMP JUMPDEST PUSH1 0x0 DUP3 DUP2 MSTORE PUSH1 0x1 PUSH1 0x20 MSTORE PUSH1 0x40 DUP1 DUP3 KECCAK256 SLOAD DUP4 DUP4 MSTORE SWAP1 DUP3 KECCAK256 SLOAD DUP3 PUSH2 0x50A DUP3 DUP5 LT ISZERO PUSH2 0x4FF JUMPI PUSH1 0x0 PUSH2 0x502 JUMP JUMPDEST PUSH1 0x0 PUSH2 0x4D0 DUP3 PUSH1 0x1 PUSH1 0x1 PUSH1 0xA0 SHL SUB AND PUSH2 0xAD0 JUMP JUMPDEST PUSH1 0x0 DUP3 DUP2 MSTORE PUSH1 0x1 PUSH1 0x20 MSTORE PUSH1 0x40 DUP1 DUP3 KECCAK256 SLOAD DUP4 DUP4 MSTORE SWAP1 DUP3 KECCAK256 SLOAD PUSH2 0x4CB DUP2 DUP4 OR PUSH2 0xAD0 JUMP JUMPDEST PUSH1 0x0 DUP3 DUP2 MSTORE PUSH1 0x1 PUSH1 0x20 MSTORE PUSH1 0x40 DUP1 DUP3 KECCAK256 SLOAD DUP4 DUP4 MSTORE SWAP1 DUP3 KECCAK256 SLOAD DUP3 PUSH2 0x50A DUP3 DUP5 GT PUSH2 0x4FF JUMPI PUSH1 0x0 PUSH2 0x502 JUMP JUMPDEST PUSH1 0x0 DUP3 DUP2 MSTORE PUSH1 0x1 PUSH1 0x20 MSTORE PUSH1 0x40 DUP1 DUP3 KECCAK256 SLOAD DUP4 DUP4 MSTORE SWAP1 DUP3 KECCAK256 SLOAD DUP3 PUSH2 0x6F9 DUP3 DUP5 PUSH2 0xD2B JUMP JUMPDEST SWAP1 POP PUSH8 0xFFFFFFFFFFFFFFFF DUP2 GT ISZERO PUSH2 0x74F JUMPI PUSH1 0x40 MLOAD PUSH3 0x461BCD PUSH1 0xE5 SHL DUP2 MSTORE PUSH1 0x20 PUSH1 0x4 DUP3 ADD MSTORE PUSH1 0x19 PUSH1 0x24 DUP3 ADD MSTORE PUSH25 0x4D6F636B4648453A206575696E743634206F766572666C6F77 PUSH1 0x38 SHL PUSH1 0x44 DUP3 ADD MSTORE PUSH1 0x64 ADD PUSH2 0x48D JUMP JUMPDEST PUSH1 0x0 PUSH2 0x75A DUP3 PUSH2 0xAD0 JUMP JUMPDEST SWAP1 POP DUP1 PUSH1 0x0 DUP1 MLOAD PUSH1 0x20 PUSH2 0xD6F DUP4 CODECOPY DUP2 MLOAD SWAP2 MSTORE DUP4 PUSH1 0x40 MLOAD PUSH2 0x5ED SWAP2 SWAP1 PUSH1 0x40 DUP1 DUP3 MSTORE PUSH1 0x3 SWAP1 DUP3 ADD MSTORE PUSH3 0x1B5D5B PUSH1 0xEA SHL PUSH1 0x60 DUP3 ADD MSTORE PUSH1 0x20 DUP2 ADD SWAP2 SWAP1 SWAP2 MSTORE PUSH1 0x80 ADD SWAP1 JUMP JUMPDEST PUSH1 0x0 DUP4 DUP2 MSTORE PUSH1 0x1 PUSH1 0x20 MSTORE PUSH1 0x40 DUP2 KECCAK256 SLOAD DUP2 DUP2 DUP2 SUB PUSH2 0x7C5 JUMPI PUSH1 0x0 DUP5 DUP2 MSTORE PUSH1 0x1 PUSH1 0x20 MSTORE PUSH1 0x40 SWAP1 KECCAK256 SLOAD PUSH2 0x7D5 JUMP JUMPDEST PUSH1 0x0 DUP6 DUP2 MSTORE PUSH1 0x1 PUSH1 0x20 MSTORE PUSH1 0x40 SWAP1 KECCAK256 SLOAD JUMPDEST SWAP1 POP PUSH1 0x0 PUSH2 0x7E2 DUP3 PUSH2 0xAD0 JUMP JUMPDEST SWAP1 POP DUP1 PUSH1 0x0 DUP1 MLOAD PUSH1 0x20 PUSH2 0xD6F DUP4 CODECOPY DUP2 MLOAD SWAP2 MSTORE DUP4 PUSH1 0x40 MLOAD PUSH2 0x5ED SWAP2 SWAP1 PUSH1 0x40 DUP1 DUP3 MSTORE PUSH1 0x6 SWAP1 DUP3 ADD MSTORE PUSH6 0x1CD95B1958DD PUSH1 0xD2 SHL PUSH1 0x60 DUP3 ADD MSTORE PUSH1 0x20 DUP2 ADD SWAP2 SWAP1 SWAP2 MSTORE PUSH1 0x80 ADD SWAP1 JUMP JUMPDEST PUSH1 0x0 DUP3 DUP2 MSTORE PUSH1 0x1 PUSH1 0x20 MSTORE PUSH1 0x40 DUP1 DUP3 KECCAK256 SLOAD DUP4 DUP4 MSTORE SWAP1 DUP3 KECCAK256 SLOAD DUP3 PUSH2 0x84F DUP3 DUP5 GT ISZERO PUSH2 0x4FF JUMPI PUSH1 0x0 PUSH2 0x502 JUMP JUMPDEST SWAP1 POP DUP1 PUSH1 0x0 DUP1 MLOAD PUSH1 0x20 PUSH2 0xD6F DUP4 CODECOPY DUP2 MLOAD SWAP2 MSTORE DUP4 DUP6 GT ISZERO PUSH2 0x870 JUMPI PUSH1 0x0 PUSH2 0x873 JUMP JUMPDEST PUSH1 0x1 JUMPDEST PUSH1 0x40 DUP1 MLOAD DUP2 DUP2 MSTORE PUSH1 0x2 SWAP2 DUP2 ADD SWAP2 SWAP1 SWAP2 MSTORE PUSH2 0x6C65 PUSH1 0xF0 SHL PUSH1 0x60 DUP3 ADD MSTORE PUSH1 0xFF SWAP1 SWAP2 AND PUSH1 0x20 DUP3 ADD MSTORE PUSH1 0x80 ADD JUMPDEST PUSH1 0x40 MLOAD DUP1 SWAP2 SUB SWAP1 LOG2 SWAP6 SWAP5 POP POP POP POP POP JUMP JUMPDEST PUSH1 0x0 DUP3 DUP2 MSTORE PUSH1 0x2 PUSH1 0x20 SWAP1 DUP2 MSTORE PUSH1 0x40 DUP1 DUP4 KECCAK256 PUSH1 0x1 PUSH1 0x1 PUSH1 0xA0 SHL SUB DUP6 AND DUP1 DUP6 MSTORE SWAP3 MSTORE DUP1 DUP4 KECCAK256 DUP1 SLOAD PUSH1 0xFF NOT AND PUSH1 0x1 OR SWAP1 SSTORE MLOAD SWAP1 SWAP2 DUP5 SWAP2 PUSH32 0x3341DC059C9D0B03440D1E6B5C116EC629029748D05BB6256BC89BD134A00B3F SWAP2 SWAP1 LOG3 POP POP JUMP JUMPDEST PUSH1 0x0 DUP2 DUP2 MSTORE PUSH1 0x2 PUSH1 0x20 SWAP1 DUP2 MSTORE PUSH1 0x40 DUP1 DUP4 KECCAK256 CALLER DUP1 DUP6 MSTORE SWAP3 MSTORE DUP1 DUP4 KECCAK256 DUP1 SLOAD PUSH1 0xFF NOT AND PUSH1 0x1 OR SWAP1 SSTORE MLOAD SWAP1 SWAP2 DUP4 SWAP2 PUSH32 0x3341DC059C9D0B03440D1E6B5C116EC629029748D05BB6256BC89BD134A00B3F SWAP2 SWAP1 LOG3 POP JUMP JUMPDEST PUSH1 0x0 DUP2 DUP2 MSTORE PUSH1 0x1 PUSH1 0x20 MSTORE PUSH1 0x40 DUP2 KECCAK256 SLOAD PUSH2 0x978 DUP2 ISZERO PUSH2 0x4FF JUMPI PUSH1 0x0 PUSH2 0x502 JUMP JUMPDEST SWAP4 SWAP3 POP POP POP JUMP JUMPDEST PUSH1 0x0 PUSH2 0x4D0 DUP3 PUSH8 0xFFFFFFFFFFFFFFFF AND PUSH2 0xAD0 JUMP JUMPDEST PUSH1 0x0 DUP3 DUP2 MSTORE PUSH1 0x1 PUSH1 0x20 MSTORE PUSH1 0x40 DUP1 DUP3 KECCAK256 SLOAD DUP4 DUP4 MSTORE SWAP1 DUP3 KECCAK256 SLOAD DUP3 PUSH2 0x9BD DUP3 DUP5 LT PUSH2 0x4FF JUMPI PUSH1 0x0 PUSH2 0x502 JUMP JUMPDEST SWAP1 POP DUP1 PUSH1 0x0 DUP1 MLOAD PUSH1 0x20 PUSH2 0xD6F DUP4 CODECOPY DUP2 MLOAD SWAP2 MSTORE DUP4 DUP6 LT PUSH2 0x9DD JUMPI PUSH1 0x0 PUSH2 0x9E0 JUMP JUMPDEST PUSH1 0x1 JUMPDEST PUSH1 0x40 DUP1 MLOAD DUP2 DUP2 MSTORE PUSH1 0x2 SWAP2 DUP2 ADD SWAP2 SWAP1 SWAP2 MSTORE PUSH2 0x1B1D PUSH1 0xF2 SHL PUSH1 0x60 DUP3 ADD MSTORE PUSH1 0xFF SWAP1 SWAP2 AND PUSH1 0x20 DUP3 ADD MSTORE PUSH1 0x80 ADD PUSH2 0x89C JUMP JUMPDEST PUSH1 0x0 DUP3 DUP2 MSTORE PUSH1 0x1 PUSH1 0x20 MSTORE PUSH1 0x40 DUP1 DUP3 KECCAK256 SLOAD DUP4 DUP4 MSTORE SWAP1 DUP3 KECCAK256 SLOAD DUP3 PUSH2 0xA2F DUP3 DUP5 PUSH2 0xD42 JUMP JUMPDEST SWAP1 POP PUSH8 0xFFFFFFFFFFFFFFFF DUP2 GT ISZERO PUSH2 0xA85 JUMPI PUSH1 0x40 MLOAD PUSH3 0x461BCD PUSH1 0xE5 SHL DUP2 MSTORE PUSH1 0x20 PUSH1 0x4 DUP3 ADD MSTORE PUSH1 0x19 PUSH1 0x24 DUP3 ADD MSTORE PUSH25 0x4D6F636B4648453A206575696E743634206F766572666C6F77 PUSH1 0x38 SHL PUSH1 0x44 DUP3 ADD MSTORE PUSH1 0x64 ADD PUSH2 0x48D JUMP JUMPDEST PUSH1 0x0 PUSH2 0xA90 DUP3 PUSH2 0xAD0 JUMP JUMPDEST SWAP1 POP DUP1 PUSH1 0x0 DUP1 MLOAD PUSH1 0x20 PUSH2 0xD6F DUP4 CODECOPY DUP2 MLOAD SWAP2 MSTORE DUP4 PUSH1 0x40 MLOAD PUSH2 0x5ED SWAP2 SWAP1 PUSH1 0x40 DUP1 DUP3 MSTORE PUSH1 0x3 SWAP1 DUP3 ADD MSTORE PUSH3 0x185919 PUSH1 0xEA SHL PUSH1 0x60 DUP3 ADD MSTORE PUSH1 0x20 DUP2 ADD SWAP2 SWAP1 SWAP2 MSTORE PUSH1 0x80 ADD SWAP1 JUMP JUMPDEST PUSH1 0x0 DUP1 SLOAD DUP2 DUP1 PUSH2 0xADF DUP4 PUSH2 0xD55 JUMP JUMPDEST SWAP1 SWAP2 SSTORE POP POP PUSH1 0x0 DUP1 SLOAD PUSH1 0x40 MLOAD PUSH16 0x6D6F636B5F6668655F68616E646C655F PUSH1 0x80 SHL PUSH1 0x20 DUP3 ADD MSTORE PUSH1 0x30 DUP2 ADD SWAP2 SWAP1 SWAP2 MSTORE PUSH1 0x50 ADD PUSH1 0x40 DUP1 MLOAD DUP1 DUP4 SUB PUSH1 0x1F NOT ADD DUP2 MSTORE DUP3 DUP3 MSTORE DUP1 MLOAD PUSH1 0x20 SWAP2 DUP3 ADD KECCAK256 PUSH1 0x0 DUP2 DUP2 MSTORE PUSH1 0x1 DUP4 MSTORE SWAP3 SWAP1 SWAP3 KECCAK256 DUP7 SWAP1 SSTORE DUP6 DUP4 MSTORE SWAP1 SWAP3 POP DUP3 SWAP2 PUSH32 0xE68AD1F6E74654D4FBF9CD0F623EF86129A21976906B2D0A80CE9FDEAD3332FB SWAP2 ADD PUSH1 0x40 MLOAD DUP1 SWAP2 SUB SWAP1 LOG2 SWAP3 SWAP2 POP POP JUMP JUMPDEST PUSH1 0x0 PUSH1 0x20 DUP3 DUP5 SUB SLT ISZERO PUSH2 0xB82 JUMPI PUSH1 0x0 DUP1 REVERT JUMPDEST POP CALLDATALOAD SWAP2 SWAP1 POP JUMP JUMPDEST PUSH1 0x0 DUP1 PUSH1 0x40 DUP4 DUP6 SUB SLT ISZERO PUSH2 0xB9C JUMPI PUSH1 0x0 DUP1 REVERT JUMPDEST POP POP DUP1 CALLDATALOAD SWAP3 PUSH1 0x20 SWAP1 SWAP2 ADD CALLDATALOAD SWAP2 POP JUMP JUMPDEST PUSH1 0x0 PUSH1 0x20 DUP3 DUP5 SUB SLT ISZERO PUSH2 0xBBD JUMPI PUSH1 0x0 DUP1 REVERT JUMPDEST DUP2 CALLDATALOAD DUP1 ISZERO ISZERO DUP2 EQ PUSH2 0x978 JUMPI PUSH1 0x0 DUP1 REVERT JUMPDEST PUSH1 0x0 DUP1 PUSH1 0x0 PUSH1 0x40 DUP5 DUP7 SUB SLT ISZERO PUSH2 0xBE2 JUMPI PUSH1 0x0 DUP1 REVERT JUMPDEST DUP4 CALLDATALOAD SWAP3 POP PUSH1 0x20 DUP5 ADD CALLDATALOAD PUSH8 0xFFFFFFFFFFFFFFFF DUP1 DUP3 GT ISZERO PUSH2 0xC01 JUMPI PUSH1 0x0 DUP1 REVERT JUMPDEST DUP2 DUP7 ADD SWAP2 POP DUP7 PUSH1 0x1F DUP4 ADD SLT PUSH2 0xC15 JUMPI PUSH1 0x0 DUP1 REVERT JUMPDEST DUP2 CALLDATALOAD DUP2 DUP2 GT ISZERO PUSH2 0xC24 JUMPI PUSH1 0x0 DUP1 REVERT JUMPDEST DUP8 PUSH1 0x20 DUP3 DUP6 ADD ADD GT ISZERO PUSH2 0xC36 JUMPI PUSH1 0x0 DUP1 REVERT JUMPDEST PUSH1 0x20 DUP4 ADD SWAP5 POP DUP1 SWAP4 POP POP POP POP SWAP3 POP SWAP3 POP SWAP3 JUMP JUMPDEST DUP1 CALLDATALOAD PUSH1 0x1 PUSH1 0x1 PUSH1 0xA0 SHL SUB DUP2 AND DUP2 EQ PUSH2 0xC60 JUMPI PUSH1 0x0 DUP1 REVERT JUMPDEST SWAP2 SWAP1 POP JUMP JUMPDEST PUSH1 0x0 PUSH1 0x20 DUP3 DUP5 SUB SLT ISZERO PUSH2 0xC77 JUMPI PUSH1 0x0 DUP1 REVERT JUMPDEST PUSH2 0x978 DUP3 PUSH2 0xC49 JUMP JUMPDEST PUSH1 0x0 DUP1 PUSH1 0x0 PUSH1 0x60 DUP5 DUP7 SUB SLT ISZERO PUSH2 0xC95 JUMPI PUSH1 0x0 DUP1 REVERT JUMPDEST POP POP DUP2 CALLDATALOAD SWAP4 PUSH1 0x20 DUP4 ADD CALLDATALOAD SWAP4 POP PUSH1 0x40 SWAP1 SWAP3 ADD CALLDATALOAD SWAP2 SWAP1 POP JUMP JUMPDEST PUSH1 0x0 DUP1 PUSH1 0x40 DUP4 DUP6 SUB SLT ISZERO PUSH2 0xCBF JUMPI PUSH1 0x0 DUP1 REVERT JUMPDEST DUP3 CALLDATALOAD SWAP2 POP PUSH2 0xCCF PUSH1 0x20 DUP5 ADD PUSH2 0xC49 JUMP JUMPDEST SWAP1 POP SWAP3 POP SWAP3 SWAP1 POP JUMP JUMPDEST PUSH1 0x0 PUSH1 0x20 DUP3 DUP5 SUB SLT ISZERO PUSH2 0xCEA JUMPI PUSH1 0x0 DUP1 REVERT JUMPDEST DUP2 CALLDATALOAD PUSH8 0xFFFFFFFFFFFFFFFF DUP2 AND DUP2 EQ PUSH2 0x978 JUMPI PUSH1 0x0 DUP1 REVERT JUMPDEST PUSH4 0x4E487B71 PUSH1 0xE0 SHL PUSH1 0x0 MSTORE PUSH1 0x11 PUSH1 0x4 MSTORE PUSH1 0x24 PUSH1 0x0 REVERT JUMPDEST DUP2 DUP2 SUB DUP2 DUP2 GT ISZERO PUSH2 0x4D0 JUMPI PUSH2 0x4D0 PUSH2 0xD02 JUMP JUMPDEST DUP1 DUP3 MUL DUP2 ISZERO DUP3 DUP3 DIV DUP5 EQ OR PUSH2 0x4D0 JUMPI PUSH2 0x4D0 PUSH2 0xD02 JUMP JUMPDEST DUP1 DUP3 ADD DUP1 DUP3 GT ISZERO PUSH2 0x4D0 JUMPI PUSH2 0x4D0 PUSH2 0xD02 JUMP JUMPDEST PUSH1 0x0 PUSH1 0x1 DUP3 ADD PUSH2 0xD67 JUMPI PUSH2 0xD67 PUSH2 0xD02 JUMP JUMPDEST POP PUSH1 0x1 ADD SWAP1 JUMP INVALID DUP6 PUSH5 0x13D4537BA SGT NUMBER 0xE7 0xB0 REVERT 0x22 ADD 0xE9 0xE8 0xF7 SWAP5 STOP PUSH30 0xDB914EA159A2A6FC0D2592F0A26469706673582212206C39C5D0BA114599 PUSH28 0x5ECA7E8C82C966F2532D4BF9600C54EF5EA2E6317CA17D64736F6C63 NUMBER STOP ADDMOD EQ STOP CALLER "},"methodIdentifiers":{"acl(bytes32,address)":"de82c18a","add(bytes32,bytes32)":"d1de592a","allow(bytes32,address)":"b9496b62","allowThis(bytes32)":"c0b73c68","and_(bytes32,bytes32)":"0df44e1d","asEaddress(address)":"7406f280","asEbool(bool)":"5d7d5397","asEuint64(uint64)":"ca5cc853","eq(bytes32,bytes32)":"3447c030","fromExternal(bytes32,bytes)":"69be0ef9","ge(bytes32,bytes32)":"6bf532ac","gt(bytes32,bytes32)":"8dc29807","handleCount()":"b5e94bc1","isPubliclyDecryptable(bytes32)":"98c38455","isSenderAllowed(bytes32)":"fd0a3f67","le(bytes32,bytes32)":"9dd9b336","lt(bytes32,bytes32)":"d102b4d3","makePubliclyDecryptable(bytes32)":"406509ba","mul(bytes32,bytes32)":"96ce1ec7","ne(bytes32,bytes32)":"54fe3eb7","not_(bytes32)":"c1696495","or_(bytes32,bytes32)":"790d17a9","plaintextValues(bytes32)":"31213c57","publicDecrypt(bytes32)":"080120a0","revealPlaintext(bytes32)":"7dbb68ae","select(bytes32,bytes32,bytes32)":"973ab10b","sub(bytes32,bytes32)":"41aa0080"}}}}}