{"contracts/fhe/ConfidentialPBUSD.sol":{"ConfidentialPBUSD":{"abi":[{"inputs":[{"internalType":"address","name":"defaultAdmin","type":"address"},{"internalType":"address","name":"minter","type":"address"},{"internalType":"address","name":"pauser","type":"address"},{"internalType":"address","name":"compliance","type":"address"},{"internalType":"uint256","name":"_dailyMintCap","type":"uint256"},{"internalType":"address","name":"coprocessor","type":"address"},{"internalType":"address","name":"acl","type":"address"}],"stateMutability":"nonpayable","type":"constructor"},{"inputs":[],"name":"AccessControlBadConfirmation","type":"error"},{"inputs":[{"internalType":"address","name":"account","type":"address"},{"internalType":"bytes32","name":"neededRole","type":"bytes32"}],"name":"AccessControlUnauthorizedAccount","type":"error"},{"inputs":[{"internalType":"address","name":"authorizer","type":"address"},{"internalType":"bytes32","name":"nonce","type":"bytes32"}],"name":"AuthorizationAlreadyUsed","type":"error"},{"inputs":[{"internalType":"uint256","name":"deadline","type":"uint256"}],"name":"AuthorizationExpired","type":"error"},{"inputs":[],"name":"CallerNotPayee","type":"error"},{"inputs":[{"internalType":"uint256","name":"requested","type":"uint256"},{"internalType":"uint256","name":"remaining","type":"uint256"}],"name":"DailyMintCapExceeded","type":"error"},{"inputs":[],"name":"EnforcedPause","type":"error"},{"inputs":[],"name":"ExpectedPause","type":"error"},{"inputs":[{"internalType":"uint256","name":"requested","type":"uint256"},{"internalType":"uint256","name":"max","type":"uint256"}],"name":"FeeTooHigh","type":"error"},{"inputs":[],"name":"InvalidAmount","type":"error"},{"inputs":[],"name":"InvalidFeeCollector","type":"error"},{"inputs":[],"name":"InvalidMintCap","type":"error"},{"inputs":[],"name":"InvalidRecipient","type":"error"},{"inputs":[],"name":"InvalidSignature","type":"error"},{"inputs":[{"internalType":"address","name":"account","type":"address"}],"name":"RecipientBlacklisted","type":"error"},{"inputs":[{"internalType":"address","name":"account","type":"address"}],"name":"SenderBlacklisted","type":"error"},{"anonymous":false,"inputs":[{"indexed":true,"internalType":"address","name":"authorizer","type":"address"},{"indexed":true,"internalType":"bytes32","name":"nonce","type":"bytes32"}],"name":"AuthorizationCanceled","type":"event"},{"anonymous":false,"inputs":[{"indexed":true,"internalType":"address","name":"authorizer","type":"address"},{"indexed":true,"internalType":"bytes32","name":"nonce","type":"bytes32"}],"name":"AuthorizationUsed","type":"event"},{"anonymous":false,"inputs":[{"indexed":true,"internalType":"address","name":"account","type":"address"},{"indexed":false,"internalType":"bool","name":"status","type":"bool"}],"name":"BlacklistUpdated","type":"event"},{"anonymous":false,"inputs":[{"indexed":true,"internalType":"address","name":"owner","type":"address"},{"indexed":true,"internalType":"address","name":"spender","type":"address"}],"name":"ConfidentialApproval","type":"event"},{"anonymous":false,"inputs":[{"indexed":true,"internalType":"address","name":"from","type":"address"},{"indexed":false,"internalType":"uint256","name":"plaintextAmount","type":"uint256"}],"name":"ConfidentialBurn","type":"event"},{"anonymous":false,"inputs":[{"indexed":true,"internalType":"address","name":"to","type":"address"},{"indexed":false,"internalType":"uint256","name":"plaintextAmount","type":"uint256"}],"name":"ConfidentialMint","type":"event"},{"anonymous":false,"inputs":[{"indexed":true,"internalType":"address","name":"from","type":"address"},{"indexed":true,"internalType":"address","name":"to","type":"address"}],"name":"ConfidentialTransfer","type":"event"},{"anonymous":false,"inputs":[{"indexed":false,"internalType":"uint256","name":"oldCap","type":"uint256"},{"indexed":false,"internalType":"uint256","name":"newCap","type":"uint256"}],"name":"DailyMintCapUpdated","type":"event"},{"anonymous":false,"inputs":[{"indexed":false,"internalType":"address","name":"oldCollector","type":"address"},{"indexed":false,"internalType":"address","name":"newCollector","type":"address"}],"name":"FeeCollectorUpdated","type":"event"},{"anonymous":false,"inputs":[{"indexed":true,"internalType":"address","name":"account","type":"address"},{"indexed":false,"internalType":"bool","name":"exempt","type":"bool"}],"name":"FeeExemptUpdated","type":"event"},{"anonymous":false,"inputs":[{"indexed":false,"internalType":"uint256","name":"day","type":"uint256"},{"indexed":false,"internalType":"uint256","name":"previousDayTotal","type":"uint256"}],"name":"MintCapReset","type":"event"},{"anonymous":false,"inputs":[{"indexed":false,"internalType":"address","name":"account","type":"address"}],"name":"Paused","type":"event"},{"anonymous":false,"inputs":[{"indexed":true,"internalType":"address","name":"burner","type":"address"},{"indexed":false,"internalType":"uint256","name":"amount","type":"uint256"},{"indexed":true,"internalType":"address","name":"baseRecipient","type":"address"},{"indexed":false,"internalType":"uint256","name":"timestamp","type":"uint256"}],"name":"RedeemRequested","type":"event"},{"anonymous":false,"inputs":[{"indexed":true,"internalType":"bytes32","name":"role","type":"bytes32"},{"indexed":true,"internalType":"bytes32","name":"previousAdminRole","type":"bytes32"},{"indexed":true,"internalType":"bytes32","name":"newAdminRole","type":"bytes32"}],"name":"RoleAdminChanged","type":"event"},{"anonymous":false,"inputs":[{"indexed":true,"internalType":"bytes32","name":"role","type":"bytes32"},{"indexed":true,"internalType":"address","name":"account","type":"address"},{"indexed":true,"internalType":"address","name":"sender","type":"address"}],"name":"RoleGranted","type":"event"},{"anonymous":false,"inputs":[{"indexed":true,"internalType":"bytes32","name":"role","type":"bytes32"},{"indexed":true,"internalType":"address","name":"account","type":"address"},{"indexed":true,"internalType":"address","name":"sender","type":"address"}],"name":"RoleRevoked","type":"event"},{"anonymous":false,"inputs":[{"indexed":false,"internalType":"uint256","name":"oldFeeBps","type":"uint256"},{"indexed":false,"internalType":"uint256","name":"newFeeBps","type":"uint256"}],"name":"TransferFeeUpdated","type":"event"},{"anonymous":false,"inputs":[{"indexed":false,"internalType":"address","name":"account","type":"address"}],"name":"Unpaused","type":"event"},{"inputs":[],"name":"CANCEL_AUTHORIZATION_TYPEHASH","outputs":[{"internalType":"bytes32","name":"","type":"bytes32"}],"stateMutability":"view","type":"function"},{"inputs":[],"name":"COMPLIANCE_ROLE","outputs":[{"internalType":"bytes32","name":"","type":"bytes32"}],"stateMutability":"view","type":"function"},{"inputs":[],"name":"DEFAULT_ADMIN_ROLE","outputs":[{"internalType":"bytes32","name":"","type":"bytes32"}],"stateMutability":"view","type":"function"},{"inputs":[],"name":"FEE_MANAGER_ROLE","outputs":[{"internalType":"bytes32","name":"","type":"bytes32"}],"stateMutability":"view","type":"function"},{"inputs":[],"name":"MAX_FEE_BPS","outputs":[{"internalType":"uint256","name":"","type":"uint256"}],"stateMutability":"view","type":"function"},{"inputs":[],"name":"MINTER_ROLE","outputs":[{"internalType":"bytes32","name":"","type":"bytes32"}],"stateMutability":"view","type":"function"},{"inputs":[],"name":"PAUSER_ROLE","outputs":[{"internalType":"bytes32","name":"","type":"bytes32"}],"stateMutability":"view","type":"function"},{"inputs":[],"name":"RECEIVE_WITH_AUTHORIZATION_TYPEHASH","outputs":[{"internalType":"bytes32","name":"","type":"bytes32"}],"stateMutability":"view","type":"function"},{"inputs":[],"name":"TRANSFER_WITH_AUTHORIZATION_TYPEHASH","outputs":[{"internalType":"bytes32","name":"","type":"bytes32"}],"stateMutability":"view","type":"function"},{"inputs":[{"internalType":"address","name":"owner","type":"address"},{"internalType":"address","name":"spender","type":"address"}],"name":"allowance","outputs":[{"internalType":"euint64","name":"","type":"bytes32"}],"stateMutability":"view","type":"function"},{"inputs":[{"internalType":"address","name":"spender","type":"address"},{"internalType":"uint256","name":"plaintextAmount","type":"uint256"}],"name":"approve","outputs":[{"internalType":"bool","name":"","type":"bool"}],"stateMutability":"nonpayable","type":"function"},{"inputs":[{"internalType":"address","name":"spender","type":"address"},{"internalType":"externalEuint64","name":"encryptedAmount","type":"bytes32"},{"internalType":"bytes","name":"inputProof","type":"bytes"}],"name":"approve","outputs":[{"internalType":"bool","name":"","type":"bool"}],"stateMutability":"nonpayable","type":"function"},{"inputs":[{"internalType":"address","name":"","type":"address"},{"internalType":"bytes32","name":"","type":"bytes32"}],"name":"authorizationState","outputs":[{"internalType":"bool","name":"","type":"bool"}],"stateMutability":"view","type":"function"},{"inputs":[{"internalType":"address","name":"account","type":"address"}],"name":"balanceOf","outputs":[{"internalType":"euint64","name":"","type":"bytes32"}],"stateMutability":"view","type":"function"},{"inputs":[{"internalType":"uint256","name":"amount","type":"uint256"},{"internalType":"address","name":"baseRecipient","type":"address"}],"name":"burnAndRedeem","outputs":[],"stateMutability":"nonpayable","type":"function"},{"inputs":[{"internalType":"bytes32","name":"nonce","type":"bytes32"},{"internalType":"uint8","name":"v","type":"uint8"},{"internalType":"bytes32","name":"r","type":"bytes32"},{"internalType":"bytes32","name":"s","type":"bytes32"}],"name":"cancelAuthorization","outputs":[],"stateMutability":"nonpayable","type":"function"},{"inputs":[],"name":"circulatingSupply","outputs":[{"internalType":"uint256","name":"","type":"uint256"}],"stateMutability":"view","type":"function"},{"inputs":[],"name":"currentDayMinted","outputs":[{"internalType":"uint256","name":"","type":"uint256"}],"stateMutability":"view","type":"function"},{"inputs":[],"name":"dailyMintCap","outputs":[{"internalType":"uint256","name":"","type":"uint256"}],"stateMutability":"view","type":"function"},{"inputs":[],"name":"decimals","outputs":[{"internalType":"uint8","name":"","type":"uint8"}],"stateMutability":"view","type":"function"},{"inputs":[],"name":"feeCollector","outputs":[{"internalType":"address","name":"","type":"address"}],"stateMutability":"view","type":"function"},{"inputs":[{"internalType":"bytes32","name":"role","type":"bytes32"}],"name":"getRoleAdmin","outputs":[{"internalType":"bytes32","name":"","type":"bytes32"}],"stateMutability":"view","type":"function"},{"inputs":[{"internalType":"bytes32","name":"role","type":"bytes32"},{"internalType":"address","name":"account","type":"address"}],"name":"grantRole","outputs":[],"stateMutability":"nonpayable","type":"function"},{"inputs":[{"internalType":"bytes32","name":"role","type":"bytes32"},{"internalType":"address","name":"account","type":"address"}],"name":"hasRole","outputs":[{"internalType":"bool","name":"","type":"bool"}],"stateMutability":"view","type":"function"},{"inputs":[{"internalType":"address","name":"","type":"address"}],"name":"isBlacklisted","outputs":[{"internalType":"bool","name":"","type":"bool"}],"stateMutability":"view","type":"function"},{"inputs":[{"internalType":"address","name":"","type":"address"}],"name":"isFeeExempt","outputs":[{"internalType":"bool","name":"","type":"bool"}],"stateMutability":"view","type":"function"},{"inputs":[],"name":"lastMintResetDay","outputs":[{"internalType":"uint256","name":"","type":"uint256"}],"stateMutability":"view","type":"function"},{"inputs":[{"internalType":"address","name":"to","type":"address"},{"internalType":"uint256","name":"amount","type":"uint256"}],"name":"mint","outputs":[],"stateMutability":"nonpayable","type":"function"},{"inputs":[],"name":"name","outputs":[{"internalType":"string","name":"","type":"string"}],"stateMutability":"view","type":"function"},{"inputs":[],"name":"pause","outputs":[],"stateMutability":"nonpayable","type":"function"},{"inputs":[],"name":"paused","outputs":[{"internalType":"bool","name":"","type":"bool"}],"stateMutability":"view","type":"function"},{"inputs":[{"internalType":"address","name":"from","type":"address"},{"internalType":"address","name":"to","type":"address"},{"internalType":"uint256","name":"value","type":"uint256"},{"internalType":"uint256","name":"validAfter","type":"uint256"},{"internalType":"uint256","name":"validBefore","type":"uint256"},{"internalType":"bytes32","name":"nonce","type":"bytes32"},{"internalType":"uint8","name":"v","type":"uint8"},{"internalType":"bytes32","name":"r","type":"bytes32"},{"internalType":"bytes32","name":"s","type":"bytes32"}],"name":"receiveWithAuthorization","outputs":[],"stateMutability":"nonpayable","type":"function"},{"inputs":[],"name":"remainingDailyMint","outputs":[{"internalType":"uint256","name":"","type":"uint256"}],"stateMutability":"view","type":"function"},{"inputs":[{"internalType":"bytes32","name":"role","type":"bytes32"},{"internalType":"address","name":"callerConfirmation","type":"address"}],"name":"renounceRole","outputs":[],"stateMutability":"nonpayable","type":"function"},{"inputs":[{"internalType":"bytes32","name":"role","type":"bytes32"},{"internalType":"address","name":"account","type":"address"}],"name":"revokeRole","outputs":[],"stateMutability":"nonpayable","type":"function"},{"inputs":[{"internalType":"address","name":"account","type":"address"},{"internalType":"bool","name":"status","type":"bool"}],"name":"setBlacklist","outputs":[],"stateMutability":"nonpayable","type":"function"},{"inputs":[{"internalType":"uint256","name":"newCap","type":"uint256"}],"name":"setDailyMintCap","outputs":[],"stateMutability":"nonpayable","type":"function"},{"inputs":[{"internalType":"address","name":"newCollector","type":"address"}],"name":"setFeeCollector","outputs":[],"stateMutability":"nonpayable","type":"function"},{"inputs":[{"internalType":"address","name":"account","type":"address"},{"internalType":"bool","name":"exempt","type":"bool"}],"name":"setFeeExempt","outputs":[],"stateMutability":"nonpayable","type":"function"},{"inputs":[{"internalType":"uint256","name":"newFeeBps","type":"uint256"}],"name":"setTransferFee","outputs":[],"stateMutability":"nonpayable","type":"function"},{"inputs":[{"internalType":"bytes4","name":"interfaceId","type":"bytes4"}],"name":"supportsInterface","outputs":[{"internalType":"bool","name":"","type":"bool"}],"stateMutability":"view","type":"function"},{"inputs":[],"name":"symbol","outputs":[{"internalType":"string","name":"","type":"string"}],"stateMutability":"view","type":"function"},{"inputs":[],"name":"totalBurned","outputs":[{"internalType":"uint256","name":"","type":"uint256"}],"stateMutability":"view","type":"function"},{"inputs":[],"name":"totalMinted","outputs":[{"internalType":"uint256","name":"","type":"uint256"}],"stateMutability":"view","type":"function"},{"inputs":[],"name":"totalSupply","outputs":[{"internalType":"uint256","name":"","type":"uint256"}],"stateMutability":"view","type":"function"},{"inputs":[{"internalType":"address","name":"to","type":"address"},{"internalType":"externalEuint64","name":"encryptedAmount","type":"bytes32"},{"internalType":"bytes","name":"inputProof","type":"bytes"}],"name":"transfer","outputs":[{"internalType":"bool","name":"success","type":"bool"}],"stateMutability":"nonpayable","type":"function"},{"inputs":[{"internalType":"address","name":"to","type":"address"},{"internalType":"uint256","name":"plaintextAmount","type":"uint256"}],"name":"transfer","outputs":[{"internalType":"bool","name":"success","type":"bool"}],"stateMutability":"nonpayable","type":"function"},{"inputs":[],"name":"transferFeeBps","outputs":[{"internalType":"uint256","name":"","type":"uint256"}],"stateMutability":"view","type":"function"},{"inputs":[{"internalType":"address","name":"from","type":"address"},{"internalType":"address","name":"to","type":"address"},{"internalType":"uint256","name":"plaintextAmount","type":"uint256"}],"name":"transferFrom","outputs":[{"internalType":"bool","name":"","type":"bool"}],"stateMutability":"nonpayable","type":"function"},{"inputs":[{"internalType":"address","name":"from","type":"address"},{"internalType":"address","name":"to","type":"address"},{"internalType":"externalEuint64","name":"encryptedAmount","type":"bytes32"},{"internalType":"bytes","name":"inputProof","type":"bytes"}],"name":"transferFrom","outputs":[{"internalType":"bool","name":"","type":"bool"}],"stateMutability":"nonpayable","type":"function"},{"inputs":[{"internalType":"address","name":"from","type":"address"},{"internalType":"address","name":"to","type":"address"},{"internalType":"uint256","name":"value","type":"uint256"},{"internalType":"uint256","name":"validAfter","type":"uint256"},{"internalType":"uint256","name":"validBefore","type":"uint256"},{"internalType":"bytes32","name":"nonce","type":"bytes32"},{"internalType":"uint8","name":"v","type":"uint8"},{"internalType":"bytes32","name":"r","type":"bytes32"},{"internalType":"bytes32","name":"s","type":"bytes32"}],"name":"transferWithAuthorization","outputs":[],"stateMutability":"nonpayable","type":"function"},{"inputs":[],"name":"unpause","outputs":[],"stateMutability":"nonpayable","type":"function"}],"evm":{"bytecode":{"linkReferences":{},"object":"60806040523480156200001157600080fd5b5060405162002ea138038062002ea183398101604081905262000034916200027a565b7f2213e27a69620589bdc2328df8f4c3a2839d393438318617d33d9d300e84323b8290557f82f254e4a7a8f94602f3099951664c39f0003504358f237efb99e7c5d4f3b7238190556200008960008862000198565b50620000b67f9f2df0fed2c77648de5860a4cc508cd0818c85b8b8a1ab4ceeef8d981c8956a68762000198565b50620000e37f65d7a28e3265b37a6474929f336521b332c1681b933f6cb9f3376673440d862a8662000198565b50620001107f442a94f1a1fac79af32856af2a64f63648cfa2ef3b98610a5bb7cbec4cee69858562000198565b506200013d7f6c0757dc3e6b28b2580c03fd9e96c274acf4f99d91fbec9b418fa1d70604ff1c8862000198565b5060068390556200014d62000247565b6008555050600a80546001600160a01b0319166001600160a01b0396909616959095179094555050306000908152600b60205260409020805460ff1916600117905550620003299050565b6000828152602081815260408083206001600160a01b038516845290915281205460ff166200023d576000838152602081815260408083206001600160a01b03861684529091529020805460ff19166001179055620001f43390565b6001600160a01b0316826001600160a01b0316847f2f8788117e7eff1d82e926ec794901d17c78024a50270940304540a733656f0d60405160405180910390a450600162000241565b5060005b92915050565b600062000258620151804262000306565b905090565b80516001600160a01b03811681146200027557600080fd5b919050565b600080600080600080600060e0888a0312156200029657600080fd5b620002a1886200025d565b9650620002b1602089016200025d565b9550620002c1604089016200025d565b9450620002d1606089016200025d565b935060808801519250620002e860a089016200025d565b9150620002f860c089016200025d565b905092959891949750929550565b6000826200032457634e487b7160e01b600052601260045260246000fd5b500490565b612b6880620003396000396000f3fe608060405234801561001057600080fd5b506004361061030c5760003560e01c80639358928b1161019d578063d5391393116100e9578063dd62ed3e116100a2578063e94a01021161007c578063e94a01021461077c578063ef55bec6146107aa578063fb83a664146107bd578063fe575a87146107c657600080fd5b8063dd62ed3e14610709578063e3ee160e14610742578063e63ab1e91461075557600080fd5b8063d539139314610684578063d547741f146106ab578063d55be8c6146106be578063d87a2993146106c6578063d89135cd146106d9578063d9169487146106e257600080fd5b8063a2309ff811610156578063b32c100111610130578063b32c10011461062b578063b780595b1461063e578063c415b95c14610651578063c8be015e1461067c57600080fd5b8063a2309ff8146105fc578063a42dce8014610605578063a9059cbb1461061857600080fd5b80639358928b1461058457806395d89b411461058c5780639a094352146105b15780639de8d982146105c4578063a0cc6a68146105cd578063a217fddf146105f457600080fd5b80633f4218e01161025c57806370a08231116102155780638456cb59116101ef5780638456cb59146105435780638ebfc7961461054b5780638f02bb5b1461055e57806391d148541461057157600080fd5b806370a08231146104e05780637b7e0a5a146105095780637f2eecc31461051c57600080fd5b80633f4218e01461047b5780633f4ba83a1461049e57806340c10f19146104a657806348b8691c146104b95780635c975abb146104cc5780635de78d7a146104d757600080fd5b806318160ddd116102c95780632832bcb5116102a35780632832bcb5146104325780632f2ff15d1461043b578063313ce5671461044e57806336568abe1461046857600080fd5b806318160ddd146103f457806323b872dd146103fc578063248a9ca31461040f57600080fd5b806301ffc9a71461031157806305db2f4114610339578063062d3bd71461035c57806306fdde0314610383578063095ea7b3146103cc578063153b0d1e146103df575b600080fd5b61032461031f366004612636565b6107e9565b60405190151581526020015b60405180910390f35b61034e600080516020612af383398151915281565b604051908152602001610330565b61034e7f442a94f1a1fac79af32856af2a64f63648cfa2ef3b98610a5bb7cbec4cee698581565b6103bf6040518060400160405280601e81526020017f436f6e666964656e7469616c2050726f746f636f6c2042616e6b20555344000081525081565b6040516103309190612660565b6103246103da3660046126ca565b610820565b6103f26103ed3660046126f4565b6108ba565b005b60045461034e565b61032461040a366004612730565b610945565b61034e61041d36600461276c565b60009081526020819052604090206001015490565b61034e60065481565b6103f2610449366004612785565b610a63565b610456600681565b60405160ff9091168152602001610330565b6103f2610476366004612785565b610a8e565b6103246104893660046127b1565b600b6020526000908152604090205460ff1681565b6103f2610ac6565b6103f26104b43660046126ca565b610afb565b6103f26104c7366004612785565b610d36565b60015460ff16610324565b61034e60095481565b61034e6104ee3660046127b1565b6001600160a01b031660009081526002602052604090205490565b610324610517366004612815565b610eca565b61034e7fd099cc98ef71107a616c4f0f941f04c322d8e254fe26b3c6668db87aae413de881565b6103f2610fbd565b6103f26105593660046126f4565b610fef565b6103f261056c36600461276c565b61105f565b61032461057f366004612785565b6110ea565b61034e611113565b6103bf6040518060400160405280600681526020016518d4109554d160d21b81525081565b6103246105bf36600461286f565b61112a565b61034e60085481565b61034e7f7c7c6cdb67a18743f49ec6fa9b35f50d52ed05cbed4cc592e13b44501c1a226781565b61034e600081565b61034e600c5481565b6103f26106133660046127b1565b611245565b6103246106263660046126ca565b6112de565b610324610639366004612815565b6113cd565b6103f261064c36600461276c565b61146b565b600a54610664906001600160a01b031681565b6040516001600160a01b039091168152602001610330565b61034e6114b4565b61034e7f9f2df0fed2c77648de5860a4cc508cd0818c85b8b8a1ab4ceeef8d981c8956a681565b6103f26106b9366004612785565b61150d565b61034e603281565b6103f26106d43660046128ef565b611532565b61034e600d5481565b61034e7f158b0a9edf7a828aad02f63cd515c68ef2f50ba807396f6d12842833a159742981565b61034e61071736600461292a565b6001600160a01b03918216600090815260036020908152604080832093909416825291909152205490565b6103f2610750366004612954565b61162f565b61034e7f65d7a28e3265b37a6474929f336521b332c1681b933f6cb9f3376673440d862a81565b61032461078a3660046126ca565b600e60209081526000928352604080842090915290825290205460ff1681565b6103f26107b8366004612954565b611855565b61034e60075481565b6103246107d43660046127b1565b60056020526000908152604090205460ff1681565b60006001600160e01b03198216637965db0b60e01b148061081a57506301ffc9a760e01b6001600160e01b03198316145b92915050565b600061082a6119d6565b6000610835836119fc565b3360009081526003602090815260408083206001600160a01b03891684529091529020819055905061086681611ab3565b6108708133611b3b565b61087a8185611b3b565b6040516001600160a01b0385169033907fd36ab67102a7729f9ecbdfab3a7752e2874cbf3ee72c6b2f709e21735f46163790600090a35060019392505050565b7f442a94f1a1fac79af32856af2a64f63648cfa2ef3b98610a5bb7cbec4cee69856108e481611bcb565b6001600160a01b038316600081815260056020908152604091829020805460ff191686151590811790915591519182527f6a12b3df6cba4203bd7fd06b816789f87de8c594299aed5717ae070fac781bac91015b60405180910390a2505050565b600061094f6119d6565b6001600160a01b03841660009081526005602052604090205460ff16156109995760405163578f3e1360e01b81526001600160a01b03851660048201526024015b60405180910390fd5b6001600160a01b03831660009081526005602052604090205460ff16156109de576040516332e38af360e21b81526001600160a01b0384166004820152602401610990565b6001600160a01b038316610a0557604051634e46966960e11b815260040160405180910390fd5b6000610a10836119fc565b9050610a1d853383611bd5565b610a28858583611cb8565b836001600160a01b0316856001600160a01b0316600080516020612ad383398151915260405160405180910390a360019150505b9392505050565b600082815260208190526040902060010154610a7e81611bcb565b610a888383611ec1565b50505050565b6001600160a01b0381163314610ab75760405163334bd91960e11b815260040160405180910390fd5b610ac18282611f53565b505050565b7f65d7a28e3265b37a6474929f336521b332c1681b933f6cb9f3376673440d862a610af081611bcb565b610af8611fbe565b50565b7f9f2df0fed2c77648de5860a4cc508cd0818c85b8b8a1ab4ceeef8d981c8956a6610b2581611bcb565b610b2d6119d6565b81600003610b4e5760405163162908e360e11b815260040160405180910390fd5b6001600160a01b038316610b7557604051634e46966960e11b815260040160405180910390fd5b610b7d612010565b6000600654118015610b9d575060065482600754610b9b91906129e8565b115b15610bd55781600754600654610bb391906129fb565b6040516345a8948760e01b815260048101929092526024820152604401610990565b8160076000828254610be791906129e8565b9250508190555081600c6000828254610c0091906129e8565b925050819055508160046000828254610c1991906129e8565b9091555060009050610c2a836119fc565b6001600160a01b03851660009081526002602052604090205490915015610c8c576001600160a01b038416600090815260026020526040902054610c6e908261206c565b6001600160a01b038516600090815260026020526040902055610ca8565b6001600160a01b03841660009081526002602052604090208190555b6001600160a01b038416600090815260026020526040902054610cca90611ab3565b6001600160a01b038416600090815260026020526040902054610ced9085611b3b565b836001600160a01b03167f4e60b77a04cc9464aba25edee4e78d2ddae3f8d47eab47d244df54063dc9e4c684604051610d2891815260200190565b60405180910390a250505050565b610d3e6119d6565b81600003610d5f5760405163162908e360e11b815260040160405180910390fd5b6001600160a01b038116610d8657604051634e46966960e11b815260040160405180910390fd5b6000610d91836119fc565b3360009081526002602052604081205491925090610db090839061212b565b90506000610dc88284610dc360006119fc565b6121ad565b33600090815260026020526040902054909150610de59082612278565b336000908152600260205260409020819055610e0090611ab3565b33600081815260026020526040902054610e1991611b3b565b84600d6000828254610e2b91906129e8565b925050819055508460046000828254610e4491906129fb565b909155505060405185815233907fb50c51cb7b98630ada9b13dbf04c5dda466c871667e1abf9c1c981b6f2bde1cb9060200160405180910390a2604080518681524260208201526001600160a01b0386169133917ff19e38d400b780173d91580d23ad02ef9617f12fbe127581a9dd6736bc3214ef910160405180910390a35050505050565b6000610ed46119d6565b3360009081526005602052604090205460ff1615610f075760405163578f3e1360e01b8152336004820152602401610990565b6001600160a01b03851660009081526005602052604090205460ff1615610f4c576040516332e38af360e21b81526001600160a01b0386166004820152602401610990565b6001600160a01b038516610f7357604051634e46966960e11b815260040160405180910390fd5b6000610f808585856122e3565b9050610f8d338783611cb8565b6040516001600160a01b038716903390600080516020612ad383398151915290600090a350600195945050505050565b7f65d7a28e3265b37a6474929f336521b332c1681b933f6cb9f3376673440d862a610fe781611bcb565b610af8612348565b600080516020612af383398151915261100781611bcb565b6001600160a01b0383166000818152600b6020908152604091829020805460ff191686151590811790915591519182527f4d5771454588f51370a8a2e7e151354b6de0dc3159b14821b4ad76bc04c28bc79101610938565b600080516020612af383398151915261107781611bcb565b60328211156110a3576040516373ab893560e11b81526004810183905260326024820152604401610990565b600980549083905560408051828152602081018590527f940334a9f5c76529ad9447ac490c2073b06d880209383a3d3e4b0ecab72a0d9991015b60405180910390a1505050565b6000918252602082815260408084206001600160a01b0393909316845291905290205460ff1690565b6000600d54600c5461112591906129fb565b905090565b60006111346119d6565b6001600160a01b03861660009081526005602052604090205460ff16156111795760405163578f3e1360e01b81526001600160a01b0387166004820152602401610990565b6001600160a01b03851660009081526005602052604090205460ff16156111be576040516332e38af360e21b81526001600160a01b0386166004820152602401610990565b6001600160a01b0385166111e557604051634e46966960e11b815260040160405180910390fd5b60006111f28585856122e3565b90506111ff873383611bd5565b61120a878783611cb8565b856001600160a01b0316876001600160a01b0316600080516020612ad383398151915260405160405180910390a35060019695505050505050565b600080516020612af383398151915261125d81611bcb565b6001600160a01b0382166112845760405163bb0bac9960e01b815260040160405180910390fd5b600a80546001600160a01b038481166001600160a01b031983168117909355604080519190921680825260208201939093527f5d16ad41baeb009cd23eb8f6c7cde5c2e0cd5acf4a33926ab488875c37c37f3891016110dd565b60006112e86119d6565b3360009081526005602052604090205460ff161561131b5760405163578f3e1360e01b8152336004820152602401610990565b6001600160a01b03831660009081526005602052604090205460ff1615611360576040516332e38af360e21b81526001600160a01b0384166004820152602401610990565b6001600160a01b03831661138757604051634e46966960e11b815260040160405180910390fd5b6000611392836119fc565b905061139f338583611cb8565b6040516001600160a01b038516903390600080516020612ad383398151915290600090a35060019392505050565b60006113d76119d6565b60006113e48585856122e3565b3360009081526003602090815260408083206001600160a01b038b1684529091529020819055905061141581611ab3565b61141f8133611b3b565b6114298187611b3b565b6040516001600160a01b0387169033907fd36ab67102a7729f9ecbdfab3a7752e2874cbf3ee72c6b2f709e21735f46163790600090a350600195945050505050565b600061147681611bcb565b600680549083905560408051828152602081018590527f2ee37ce64c711d861d1cb02d76a95d30e47a90e2db87ab5d7e4584d16d7dc6e491016110dd565b60006006546000036114c7575060001990565b60006114d1612383565b905060085481146114e457505060065490565b600654600754106114f757600091505090565b60075460065461150791906129fb565b91505090565b60008281526020819052604090206001015461152881611bcb565b610a888383611f53565b336000908152600e6020908152604080832087845290915290205460ff16156115775760405163d309466d60e01b815233600482015260248101859052604401610990565b604080517f158b0a9edf7a828aad02f63cd515c68ef2f50ba807396f6d12842833a159742960208201523391810191909152606081018590526000906080016040516020818303038152906040528051906020012090506115db3382868686612392565b336000818152600e60209081526040808320898452909152808220805460ff19166001179055518792917f1cdd46ff242716cdaa72d159d339a485b3438398348d68f09d7c8c0a59353d8191a35050505050565b6116376119d6565b85421115806116465750844210155b1561166757604051633d91b05f60e01b815260048101869052602401610990565b6001600160a01b0389166000908152600e6020908152604080832087845290915290205460ff16156116be5760405163d309466d60e01b81526001600160a01b038a16600482015260248101859052604401610990565b6001600160a01b03891660009081526005602052604090205460ff16156117035760405163578f3e1360e01b81526001600160a01b038a166004820152602401610990565b6001600160a01b03881660009081526005602052604090205460ff1615611748576040516332e38af360e21b81526001600160a01b0389166004820152602401610990565b60007f7c7c6cdb67a18743f49ec6fa9b35f50d52ed05cbed4cc592e13b44501c1a22678a8a8a8a8a8a6040516020016117879796959493929190612a0e565b6040516020818303038152906040528051906020012090506117ac8a82868686612392565b6001600160a01b038a166000818152600e60209081526040808320898452909152808220805460ff19166001179055518792917f98de503528ee59b575ef0c0a2576a82497bfc029a5685b209e9ec333479b10a591a3600061180d896119fc565b905061181a8b8b83611cb8565b896001600160a01b03168b6001600160a01b0316600080516020612ad383398151915260405160405180910390a35050505050505050505050565b61185d6119d6565b6001600160a01b038816331461188657604051630476d41960e01b815260040160405180910390fd5b85421115806118955750844210155b156118b657604051633d91b05f60e01b815260048101869052602401610990565b6001600160a01b0389166000908152600e6020908152604080832087845290915290205460ff161561190d5760405163d309466d60e01b81526001600160a01b038a16600482015260248101859052604401610990565b6001600160a01b03891660009081526005602052604090205460ff16156119525760405163578f3e1360e01b81526001600160a01b038a166004820152602401610990565b6001600160a01b03881660009081526005602052604090205460ff1615611997576040516332e38af360e21b81526001600160a01b0389166004820152602401610990565b60007fd099cc98ef71107a616c4f0f941f04c322d8e254fe26b3c6668db87aae413de88a8a8a8a8a8a6040516020016117879796959493929190612a0e565b60015460ff16156119fa5760405163d93c066560e01b815260040160405180910390fd5b565b600080611a15600080516020612b138339815191525490565b90506001600160a01b038116611a3457505067ffffffffffffffff1690565b60405163ca5cc85360e01b815267ffffffffffffffff841660048201526000906001600160a01b0383169063ca5cc853906024016020604051808303816000875af1158015611a87573d6000803e3d6000fd5b505050506040513d601f19601f82011682018060405250810190611aab9190612a4a565b949350505050565b6000611acb600080516020612b138339815191525490565b90506001600160a01b03811615611b3757604051631816e78d60e31b8152600481018390526001600160a01b0382169063c0b73c6890602401600060405180830381600087803b158015611b1e57600080fd5b505af1158015611b32573d6000803e3d6000fd5b505050505b5050565b6000611b53600080516020612b138339815191525490565b90506001600160a01b03811615610ac157604051635ca4b5b160e11b8152600481018490526001600160a01b03838116602483015282169063b9496b6290604401600060405180830381600087803b158015611bae57600080fd5b505af1158015611bc2573d6000803e3d6000fd5b50505050505050565b610af88133612448565b6001600160a01b03808416600090815260036020908152604080832093861683529290529081205490611c08838361212b565b90506000611c1b8285610dc360006119fc565b9050611c278382612278565b6001600160a01b038781166000908152600360209081526040808320938a16835292905220819055611c5890611ab3565b6001600160a01b03808716600090815260036020908152604080832093891683529290522054611c889087611b3b565b6001600160a01b03808716600090815260036020908152604080832093891683529290522054611b329086611b3b565b6001600160a01b038316600090815260026020526040812054611cdc90839061212b565b90506000611cef8284610dc360006119fc565b9050600080600954118015611d1d57506001600160a01b0386166000908152600b602052604090205460ff16155b8015611d4257506001600160a01b0385166000908152600b602052604090205460ff16155b8015611d585750600a546001600160a01b031615155b15611d94576000611d6a6009546119fc565b90506000611d788483612481565b90506000611d876127106119fc565b9050849350505050611d97565b50805b6001600160a01b038616600090815260026020526040902054611dba9083612278565b6001600160a01b0387166000908152600260205260409020819055611dde90611ab3565b6001600160a01b038616600090815260026020526040902054611e019087611b3b565b6001600160a01b03851660009081526002602052604090205415611e60576001600160a01b038516600090815260026020526040902054611e42908261206c565b6001600160a01b038616600090815260026020526040902055611e7c565b6001600160a01b03851660009081526002602052604090208190555b6001600160a01b038516600090815260026020526040902054611e9e90611ab3565b6001600160a01b038516600090815260026020526040902054611b329086611b3b565b6000611ecd83836110ea565b611f4b576000838152602081815260408083206001600160a01b03861684529091529020805460ff19166001179055611f033390565b6001600160a01b0316826001600160a01b0316847f2f8788117e7eff1d82e926ec794901d17c78024a50270940304540a733656f0d60405160405180910390a450600161081a565b50600061081a565b6000611f5f83836110ea565b15611f4b576000838152602081815260408083206001600160a01b0386168085529252808320805460ff1916905551339286917ff6391f5c32d9c69d2a47ea670b442974b53935d1edc7fd64eb21e047a839171b9190a450600161081a565b611fc66124ed565b6001805460ff191690557f5db9ee0a495bf2e6ff9c91a7834c1ba4fdd244a5e8aa4e537bd38aeae4b073aa335b6040516001600160a01b03909116815260200160405180910390a1565b600061201a612383565b90506008548114610af8576007546040805183815260208101929092527f3adc352b84186f0229522a6c80c6ee84884462be6b35023b7cd2e65ecefbd9a3910160405180910390a16000600755600855565b600080612085600080516020612b138339815191525490565b90506001600160a01b0381166120ac5783836120a181836129e8565b935061081a92505050565b6040516368ef2c9560e11b815260048101859052602481018490526000906001600160a01b0383169063d1de592a906044015b6020604051808303816000875af11580156120fe573d6000803e3d6000fd5b505050506040513d601f19601f820116820180604052508101906121229190612a4a565b95945050505050565b600080612144600080516020612b138339815191525490565b90506001600160a01b03811661217657838380821115612165576000612168565b60015b60ff16935061081a92505050565b604051634eecd99b60e11b815260048101859052602481018490526000906001600160a01b03831690639dd9b336906044016120df565b6000806121c6600080516020612b138339815191525490565b90506001600160a01b0381166121f1578480156121e7578492505050610a5c565b8392505050610a5c565b60405163973ab10b60e01b81526004810186905260248101859052604481018490526000906001600160a01b0383169063973ab10b906064015b6020604051808303816000875af115801561224a573d6000803e3d6000fd5b505050506040513d601f19601f8201168201806040525081019061226e9190612a4a565b9695505050505050565b600080612291600080516020612b138339815191525490565b90506001600160a01b0381166122ad5783836120a181836129fb565b6040516283540160e71b815260048101859052602481018490526000906001600160a01b038316906341aa0080906044016120df565b6000806122fc600080516020612b138339815191525490565b90506001600160a01b0381166123155784915050610a5c565b6040516369be0ef960e01b81526000906001600160a01b038316906369be0ef99061222b90899089908990600401612a63565b6123506119d6565b6001805460ff1916811790557f62e78cea01bee320cd4e420270b5ea74000d11b0c9f74754ebdbfc544b05a25833611ff3565b60006111256201518042612a99565b600061239d85612510565b6040805160008082526020820180845284905260ff88169282019290925260608101869052608081018590529192509060019060a0016020604051602081039080840390855afa1580156123f5573d6000803e3d6000fd5b5050604051601f1901519150506001600160a01b038116158061242a5750866001600160a01b0316816001600160a01b031614155b15611bc257604051638baa579f60e01b815260040160405180910390fd5b61245282826110ea565b611b375760405163e2517d3f60e01b81526001600160a01b038216600482015260248101839052604401610990565b60008061249a600080516020612b138339815191525490565b90506001600160a01b0381166124b65783836120a18183612abb565b6040516396ce1ec760e01b815260048101859052602481018490526000906001600160a01b038316906396ce1ec7906044016120df565b60015460ff166119fa57604051638dfc202b60e01b815260040160405180910390fd5b60006125f9604080518082018252601e81527f436f6e666964656e7469616c2050726f746f636f6c2042616e6b2055534400006020918201528151808301835260018152603160f81b9082015281517f8b73c3c69bb8fe3d512ecc4cf759cc79239f7b179b0ffacaa9a75d522b39400f818301527f1ed45ec96aaa22344331625c64fff35be8ec39e02d5e5ea06a07c6dc29118a68818401527fc89efdaa54c0f20c7adf612882df0950f5a951637e0307cdcb4c672f298b8bc660608201524660808201523060a0808301919091528351808303909101815260c0909101909252815191012090565b60405161190160f01b6020820152602281019190915260428101839052606201604051602081830303815290604052805190602001209050919050565b60006020828403121561264857600080fd5b81356001600160e01b031981168114610a5c57600080fd5b600060208083528351808285015260005b8181101561268d57858101830151858201604001528201612671565b506000604082860101526040601f19601f8301168501019250505092915050565b80356001600160a01b03811681146126c557600080fd5b919050565b600080604083850312156126dd57600080fd5b6126e6836126ae565b946020939093013593505050565b6000806040838503121561270757600080fd5b612710836126ae565b91506020830135801515811461272557600080fd5b809150509250929050565b60008060006060848603121561274557600080fd5b61274e846126ae565b925061275c602085016126ae565b9150604084013590509250925092565b60006020828403121561277e57600080fd5b5035919050565b6000806040838503121561279857600080fd5b823591506127a8602084016126ae565b90509250929050565b6000602082840312156127c357600080fd5b610a5c826126ae565b60008083601f8401126127de57600080fd5b50813567ffffffffffffffff8111156127f657600080fd5b60208301915083602082850101111561280e57600080fd5b9250929050565b6000806000806060858703121561282b57600080fd5b612834856126ae565b935060208501359250604085013567ffffffffffffffff81111561285757600080fd5b612863878288016127cc565b95989497509550505050565b60008060008060006080868803121561288757600080fd5b612890866126ae565b945061289e602087016126ae565b935060408601359250606086013567ffffffffffffffff8111156128c157600080fd5b6128cd888289016127cc565b969995985093965092949392505050565b803560ff811681146126c557600080fd5b6000806000806080858703121561290557600080fd5b84359350612915602086016128de565b93969395505050506040820135916060013590565b6000806040838503121561293d57600080fd5b612946836126ae565b91506127a8602084016126ae565b60008060008060008060008060006101208a8c03121561297357600080fd5b61297c8a6126ae565b985061298a60208b016126ae565b975060408a0135965060608a0135955060808a0135945060a08a013593506129b460c08b016128de565b925060e08a013591506101008a013590509295985092959850929598565b634e487b7160e01b600052601160045260246000fd5b8082018082111561081a5761081a6129d2565b8181038181111561081a5761081a6129d2565b9687526001600160a01b0395861660208801529390941660408601526060850191909152608084015260a083019190915260c082015260e00190565b600060208284031215612a5c57600080fd5b5051919050565b83815260406020820152816040820152818360608301376000818301606090810191909152601f909201601f1916010192915050565b600082612ab657634e487b7160e01b600052601260045260246000fd5b500490565b808202811582820484141761081a5761081a6129d256fe75f412a499b41f8e80914ae262c37b5cbe8b4301cf1036324872310af4ab2aed6c0757dc3e6b28b2580c03fd9e96c274acf4f99d91fbec9b418fa1d70604ff1c2213e27a69620589bdc2328df8f4c3a2839d393438318617d33d9d300e84323ba2646970667358221220bf522e9a1de0fc592da1bc9026aa037cd9f85910078a24854c8101428871a2ac64736f6c63430008140033","opcodes":"PUSH1 0x80 PUSH1 0x40 MSTORE CALLVALUE DUP1 ISZERO PUSH3 0x11 JUMPI PUSH1 0x0 DUP1 REVERT JUMPDEST POP PUSH1 0x40 MLOAD PUSH3 0x2EA1 CODESIZE SUB DUP1 PUSH3 0x2EA1 DUP4 CODECOPY DUP2 ADD PUSH1 0x40 DUP2 SWAP1 MSTORE PUSH3 0x34 SWAP2 PUSH3 0x27A JUMP JUMPDEST PUSH32 0x2213E27A69620589BDC2328DF8F4C3A2839D393438318617D33D9D300E84323B DUP3 SWAP1 SSTORE PUSH32 0x82F254E4A7A8F94602F3099951664C39F0003504358F237EFB99E7C5D4F3B723 DUP2 SWAP1 SSTORE PUSH3 0x89 PUSH1 0x0 DUP9 PUSH3 0x198 JUMP JUMPDEST POP PUSH3 0xB6 PUSH32 0x9F2DF0FED2C77648DE5860A4CC508CD0818C85B8B8A1AB4CEEEF8D981C8956A6 DUP8 PUSH3 0x198 JUMP JUMPDEST POP PUSH3 0xE3 PUSH32 0x65D7A28E3265B37A6474929F336521B332C1681B933F6CB9F3376673440D862A DUP7 PUSH3 0x198 JUMP JUMPDEST POP PUSH3 0x110 PUSH32 0x442A94F1A1FAC79AF32856AF2A64F63648CFA2EF3B98610A5BB7CBEC4CEE6985 DUP6 PUSH3 0x198 JUMP JUMPDEST POP PUSH3 0x13D PUSH32 0x6C0757DC3E6B28B2580C03FD9E96C274ACF4F99D91FBEC9B418FA1D70604FF1C DUP9 PUSH3 0x198 JUMP JUMPDEST POP PUSH1 0x6 DUP4 SWAP1 SSTORE PUSH3 0x14D PUSH3 0x247 JUMP JUMPDEST PUSH1 0x8 SSTORE POP POP PUSH1 0xA DUP1 SLOAD PUSH1 0x1 PUSH1 0x1 PUSH1 0xA0 SHL SUB NOT AND PUSH1 0x1 PUSH1 0x1 PUSH1 0xA0 SHL SUB SWAP7 SWAP1 SWAP7 AND SWAP6 SWAP1 SWAP6 OR SWAP1 SWAP5 SSTORE POP POP ADDRESS PUSH1 0x0 SWAP1 DUP2 MSTORE PUSH1 0xB PUSH1 0x20 MSTORE PUSH1 0x40 SWAP1 KECCAK256 DUP1 SLOAD PUSH1 0xFF NOT AND PUSH1 0x1 OR SWAP1 SSTORE POP PUSH3 0x329 SWAP1 POP JUMP JUMPDEST PUSH1 0x0 DUP3 DUP2 MSTORE PUSH1 0x20 DUP2 DUP2 MSTORE PUSH1 0x40 DUP1 DUP4 KECCAK256 PUSH1 0x1 PUSH1 0x1 PUSH1 0xA0 SHL SUB DUP6 AND DUP5 MSTORE SWAP1 SWAP2 MSTORE DUP2 KECCAK256 SLOAD PUSH1 0xFF AND PUSH3 0x23D JUMPI PUSH1 0x0 DUP4 DUP2 MSTORE PUSH1 0x20 DUP2 DUP2 MSTORE PUSH1 0x40 DUP1 DUP4 KECCAK256 PUSH1 0x1 PUSH1 0x1 PUSH1 0xA0 SHL SUB DUP7 AND DUP5 MSTORE SWAP1 SWAP2 MSTORE SWAP1 KECCAK256 DUP1 SLOAD PUSH1 0xFF NOT AND PUSH1 0x1 OR SWAP1 SSTORE PUSH3 0x1F4 CALLER SWAP1 JUMP JUMPDEST PUSH1 0x1 PUSH1 0x1 PUSH1 0xA0 SHL SUB AND DUP3 PUSH1 0x1 PUSH1 0x1 PUSH1 0xA0 SHL SUB AND DUP5 PUSH32 0x2F8788117E7EFF1D82E926EC794901D17C78024A50270940304540A733656F0D PUSH1 0x40 MLOAD PUSH1 0x40 MLOAD DUP1 SWAP2 SUB SWAP1 LOG4 POP PUSH1 0x1 PUSH3 0x241 JUMP JUMPDEST POP PUSH1 0x0 JUMPDEST SWAP3 SWAP2 POP POP JUMP JUMPDEST PUSH1 0x0 PUSH3 0x258 PUSH3 0x15180 TIMESTAMP PUSH3 0x306 JUMP JUMPDEST SWAP1 POP SWAP1 JUMP JUMPDEST DUP1 MLOAD PUSH1 0x1 PUSH1 0x1 PUSH1 0xA0 SHL SUB DUP2 AND DUP2 EQ PUSH3 0x275 JUMPI PUSH1 0x0 DUP1 REVERT JUMPDEST SWAP2 SWAP1 POP JUMP JUMPDEST PUSH1 0x0 DUP1 PUSH1 0x0 DUP1 PUSH1 0x0 DUP1 PUSH1 0x0 PUSH1 0xE0 DUP9 DUP11 SUB SLT ISZERO PUSH3 0x296 JUMPI PUSH1 0x0 DUP1 REVERT JUMPDEST PUSH3 0x2A1 DUP9 PUSH3 0x25D JUMP JUMPDEST SWAP7 POP PUSH3 0x2B1 PUSH1 0x20 DUP10 ADD PUSH3 0x25D JUMP JUMPDEST SWAP6 POP PUSH3 0x2C1 PUSH1 0x40 DUP10 ADD PUSH3 0x25D JUMP JUMPDEST SWAP5 POP PUSH3 0x2D1 PUSH1 0x60 DUP10 ADD PUSH3 0x25D JUMP JUMPDEST SWAP4 POP PUSH1 0x80 DUP9 ADD MLOAD SWAP3 POP PUSH3 0x2E8 PUSH1 0xA0 DUP10 ADD PUSH3 0x25D JUMP JUMPDEST SWAP2 POP PUSH3 0x2F8 PUSH1 0xC0 DUP10 ADD PUSH3 0x25D JUMP JUMPDEST SWAP1 POP SWAP3 SWAP6 SWAP9 SWAP2 SWAP5 SWAP8 POP SWAP3 SWAP6 POP JUMP JUMPDEST PUSH1 0x0 DUP3 PUSH3 0x324 JUMPI PUSH4 0x4E487B71 PUSH1 0xE0 SHL PUSH1 0x0 MSTORE PUSH1 0x12 PUSH1 0x4 MSTORE PUSH1 0x24 PUSH1 0x0 REVERT JUMPDEST POP DIV SWAP1 JUMP JUMPDEST PUSH2 0x2B68 DUP1 PUSH3 0x339 PUSH1 0x0 CODECOPY PUSH1 0x0 RETURN INVALID PUSH1 0x80 PUSH1 0x40 MSTORE CALLVALUE DUP1 ISZERO PUSH2 0x10 JUMPI PUSH1 0x0 DUP1 REVERT JUMPDEST POP PUSH1 0x4 CALLDATASIZE LT PUSH2 0x30C JUMPI PUSH1 0x0 CALLDATALOAD PUSH1 0xE0 SHR DUP1 PUSH4 0x9358928B GT PUSH2 0x19D JUMPI DUP1 PUSH4 0xD5391393 GT PUSH2 0xE9 JUMPI DUP1 PUSH4 0xDD62ED3E GT PUSH2 0xA2 JUMPI DUP1 PUSH4 0xE94A0102 GT PUSH2 0x7C JUMPI DUP1 PUSH4 0xE94A0102 EQ PUSH2 0x77C JUMPI DUP1 PUSH4 0xEF55BEC6 EQ PUSH2 0x7AA JUMPI DUP1 PUSH4 0xFB83A664 EQ PUSH2 0x7BD JUMPI DUP1 PUSH4 0xFE575A87 EQ PUSH2 0x7C6 JUMPI PUSH1 0x0 DUP1 REVERT JUMPDEST DUP1 PUSH4 0xDD62ED3E EQ PUSH2 0x709 JUMPI DUP1 PUSH4 0xE3EE160E EQ PUSH2 0x742 JUMPI DUP1 PUSH4 0xE63AB1E9 EQ PUSH2 0x755 JUMPI PUSH1 0x0 DUP1 REVERT JUMPDEST DUP1 PUSH4 0xD5391393 EQ PUSH2 0x684 JUMPI DUP1 PUSH4 0xD547741F EQ PUSH2 0x6AB JUMPI DUP1 PUSH4 0xD55BE8C6 EQ PUSH2 0x6BE JUMPI DUP1 PUSH4 0xD87A2993 EQ PUSH2 0x6C6 JUMPI DUP1 PUSH4 0xD89135CD EQ PUSH2 0x6D9 JUMPI DUP1 PUSH4 0xD9169487 EQ PUSH2 0x6E2 JUMPI PUSH1 0x0 DUP1 REVERT JUMPDEST DUP1 PUSH4 0xA2309FF8 GT PUSH2 0x156 JUMPI DUP1 PUSH4 0xB32C1001 GT PUSH2 0x130 JUMPI DUP1 PUSH4 0xB32C1001 EQ PUSH2 0x62B JUMPI DUP1 PUSH4 0xB780595B EQ PUSH2 0x63E JUMPI DUP1 PUSH4 0xC415B95C EQ PUSH2 0x651 JUMPI DUP1 PUSH4 0xC8BE015E EQ PUSH2 0x67C JUMPI PUSH1 0x0 DUP1 REVERT JUMPDEST DUP1 PUSH4 0xA2309FF8 EQ PUSH2 0x5FC JUMPI DUP1 PUSH4 0xA42DCE80 EQ PUSH2 0x605 JUMPI DUP1 PUSH4 0xA9059CBB EQ PUSH2 0x618 JUMPI PUSH1 0x0 DUP1 REVERT JUMPDEST DUP1 PUSH4 0x9358928B EQ PUSH2 0x584 JUMPI DUP1 PUSH4 0x95D89B41 EQ PUSH2 0x58C JUMPI DUP1 PUSH4 0x9A094352 EQ PUSH2 0x5B1 JUMPI DUP1 PUSH4 0x9DE8D982 EQ PUSH2 0x5C4 JUMPI DUP1 PUSH4 0xA0CC6A68 EQ PUSH2 0x5CD JUMPI DUP1 PUSH4 0xA217FDDF EQ PUSH2 0x5F4 JUMPI PUSH1 0x0 DUP1 REVERT JUMPDEST DUP1 PUSH4 0x3F4218E0 GT PUSH2 0x25C JUMPI DUP1 PUSH4 0x70A08231 GT PUSH2 0x215 JUMPI DUP1 PUSH4 0x8456CB59 GT PUSH2 0x1EF JUMPI DUP1 PUSH4 0x8456CB59 EQ PUSH2 0x543 JUMPI DUP1 PUSH4 0x8EBFC796 EQ PUSH2 0x54B JUMPI DUP1 PUSH4 0x8F02BB5B EQ PUSH2 0x55E JUMPI DUP1 PUSH4 0x91D14854 EQ PUSH2 0x571 JUMPI PUSH1 0x0 DUP1 REVERT JUMPDEST DUP1 PUSH4 0x70A08231 EQ PUSH2 0x4E0 JUMPI DUP1 PUSH4 0x7B7E0A5A EQ PUSH2 0x509 JUMPI DUP1 PUSH4 0x7F2EECC3 EQ PUSH2 0x51C JUMPI PUSH1 0x0 DUP1 REVERT JUMPDEST DUP1 PUSH4 0x3F4218E0 EQ PUSH2 0x47B JUMPI DUP1 PUSH4 0x3F4BA83A EQ PUSH2 0x49E JUMPI DUP1 PUSH4 0x40C10F19 EQ PUSH2 0x4A6 JUMPI DUP1 PUSH4 0x48B8691C EQ PUSH2 0x4B9 JUMPI DUP1 PUSH4 0x5C975ABB EQ PUSH2 0x4CC JUMPI DUP1 PUSH4 0x5DE78D7A EQ PUSH2 0x4D7 JUMPI PUSH1 0x0 DUP1 REVERT JUMPDEST DUP1 PUSH4 0x18160DDD GT PUSH2 0x2C9 JUMPI DUP1 PUSH4 0x2832BCB5 GT PUSH2 0x2A3 JUMPI DUP1 PUSH4 0x2832BCB5 EQ PUSH2 0x432 JUMPI DUP1 PUSH4 0x2F2FF15D EQ PUSH2 0x43B JUMPI DUP1 PUSH4 0x313CE567 EQ PUSH2 0x44E JUMPI DUP1 PUSH4 0x36568ABE EQ PUSH2 0x468 JUMPI PUSH1 0x0 DUP1 REVERT JUMPDEST DUP1 PUSH4 0x18160DDD EQ PUSH2 0x3F4 JUMPI DUP1 PUSH4 0x23B872DD EQ PUSH2 0x3FC JUMPI DUP1 PUSH4 0x248A9CA3 EQ PUSH2 0x40F JUMPI PUSH1 0x0 DUP1 REVERT JUMPDEST DUP1 PUSH4 0x1FFC9A7 EQ PUSH2 0x311 JUMPI DUP1 PUSH4 0x5DB2F41 EQ PUSH2 0x339 JUMPI DUP1 PUSH4 0x62D3BD7 EQ PUSH2 0x35C JUMPI DUP1 PUSH4 0x6FDDE03 EQ PUSH2 0x383 JUMPI DUP1 PUSH4 0x95EA7B3 EQ PUSH2 0x3CC JUMPI DUP1 PUSH4 0x153B0D1E EQ PUSH2 0x3DF JUMPI JUMPDEST PUSH1 0x0 DUP1 REVERT JUMPDEST PUSH2 0x324 PUSH2 0x31F CALLDATASIZE PUSH1 0x4 PUSH2 0x2636 JUMP JUMPDEST PUSH2 0x7E9 JUMP JUMPDEST PUSH1 0x40 MLOAD SWAP1 ISZERO ISZERO DUP2 MSTORE PUSH1 0x20 ADD JUMPDEST PUSH1 0x40 MLOAD DUP1 SWAP2 SUB SWAP1 RETURN JUMPDEST PUSH2 0x34E PUSH1 0x0 DUP1 MLOAD PUSH1 0x20 PUSH2 0x2AF3 DUP4 CODECOPY DUP2 MLOAD SWAP2 MSTORE DUP2 JUMP JUMPDEST PUSH1 0x40 MLOAD SWAP1 DUP2 MSTORE PUSH1 0x20 ADD PUSH2 0x330 JUMP JUMPDEST PUSH2 0x34E PUSH32 0x442A94F1A1FAC79AF32856AF2A64F63648CFA2EF3B98610A5BB7CBEC4CEE6985 DUP2 JUMP JUMPDEST PUSH2 0x3BF PUSH1 0x40 MLOAD DUP1 PUSH1 0x40 ADD PUSH1 0x40 MSTORE DUP1 PUSH1 0x1E DUP2 MSTORE PUSH1 0x20 ADD PUSH32 0x436F6E666964656E7469616C2050726F746F636F6C2042616E6B205553440000 DUP2 MSTORE POP DUP2 JUMP JUMPDEST PUSH1 0x40 MLOAD PUSH2 0x330 SWAP2 SWAP1 PUSH2 0x2660 JUMP JUMPDEST PUSH2 0x324 PUSH2 0x3DA CALLDATASIZE PUSH1 0x4 PUSH2 0x26CA JUMP JUMPDEST PUSH2 0x820 JUMP JUMPDEST PUSH2 0x3F2 PUSH2 0x3ED CALLDATASIZE PUSH1 0x4 PUSH2 0x26F4 JUMP JUMPDEST PUSH2 0x8BA JUMP JUMPDEST STOP JUMPDEST PUSH1 0x4 SLOAD PUSH2 0x34E JUMP JUMPDEST PUSH2 0x324 PUSH2 0x40A CALLDATASIZE PUSH1 0x4 PUSH2 0x2730 JUMP JUMPDEST PUSH2 0x945 JUMP JUMPDEST PUSH2 0x34E PUSH2 0x41D CALLDATASIZE PUSH1 0x4 PUSH2 0x276C JUMP JUMPDEST PUSH1 0x0 SWAP1 DUP2 MSTORE PUSH1 0x20 DUP2 SWAP1 MSTORE PUSH1 0x40 SWAP1 KECCAK256 PUSH1 0x1 ADD SLOAD SWAP1 JUMP JUMPDEST PUSH2 0x34E PUSH1 0x6 SLOAD DUP2 JUMP JUMPDEST PUSH2 0x3F2 PUSH2 0x449 CALLDATASIZE PUSH1 0x4 PUSH2 0x2785 JUMP JUMPDEST PUSH2 0xA63 JUMP JUMPDEST PUSH2 0x456 PUSH1 0x6 DUP2 JUMP JUMPDEST PUSH1 0x40 MLOAD PUSH1 0xFF SWAP1 SWAP2 AND DUP2 MSTORE PUSH1 0x20 ADD PUSH2 0x330 JUMP JUMPDEST PUSH2 0x3F2 PUSH2 0x476 CALLDATASIZE PUSH1 0x4 PUSH2 0x2785 JUMP JUMPDEST PUSH2 0xA8E JUMP JUMPDEST PUSH2 0x324 PUSH2 0x489 CALLDATASIZE PUSH1 0x4 PUSH2 0x27B1 JUMP JUMPDEST PUSH1 0xB PUSH1 0x20 MSTORE PUSH1 0x0 SWAP1 DUP2 MSTORE PUSH1 0x40 SWAP1 KECCAK256 SLOAD PUSH1 0xFF AND DUP2 JUMP JUMPDEST PUSH2 0x3F2 PUSH2 0xAC6 JUMP JUMPDEST PUSH2 0x3F2 PUSH2 0x4B4 CALLDATASIZE PUSH1 0x4 PUSH2 0x26CA JUMP JUMPDEST PUSH2 0xAFB JUMP JUMPDEST PUSH2 0x3F2 PUSH2 0x4C7 CALLDATASIZE PUSH1 0x4 PUSH2 0x2785 JUMP JUMPDEST PUSH2 0xD36 JUMP JUMPDEST PUSH1 0x1 SLOAD PUSH1 0xFF AND PUSH2 0x324 JUMP JUMPDEST PUSH2 0x34E PUSH1 0x9 SLOAD DUP2 JUMP JUMPDEST PUSH2 0x34E PUSH2 0x4EE CALLDATASIZE PUSH1 0x4 PUSH2 0x27B1 JUMP JUMPDEST PUSH1 0x1 PUSH1 0x1 PUSH1 0xA0 SHL SUB AND PUSH1 0x0 SWAP1 DUP2 MSTORE PUSH1 0x2 PUSH1 0x20 MSTORE PUSH1 0x40 SWAP1 KECCAK256 SLOAD SWAP1 JUMP JUMPDEST PUSH2 0x324 PUSH2 0x517 CALLDATASIZE PUSH1 0x4 PUSH2 0x2815 JUMP JUMPDEST PUSH2 0xECA JUMP JUMPDEST PUSH2 0x34E PUSH32 0xD099CC98EF71107A616C4F0F941F04C322D8E254FE26B3C6668DB87AAE413DE8 DUP2 JUMP JUMPDEST PUSH2 0x3F2 PUSH2 0xFBD JUMP JUMPDEST PUSH2 0x3F2 PUSH2 0x559 CALLDATASIZE PUSH1 0x4 PUSH2 0x26F4 JUMP JUMPDEST PUSH2 0xFEF JUMP JUMPDEST PUSH2 0x3F2 PUSH2 0x56C CALLDATASIZE PUSH1 0x4 PUSH2 0x276C JUMP JUMPDEST PUSH2 0x105F JUMP JUMPDEST PUSH2 0x324 PUSH2 0x57F CALLDATASIZE PUSH1 0x4 PUSH2 0x2785 JUMP JUMPDEST PUSH2 0x10EA JUMP JUMPDEST PUSH2 0x34E PUSH2 0x1113 JUMP JUMPDEST PUSH2 0x3BF PUSH1 0x40 MLOAD DUP1 PUSH1 0x40 ADD PUSH1 0x40 MSTORE DUP1 PUSH1 0x6 DUP2 MSTORE PUSH1 0x20 ADD PUSH6 0x18D4109554D1 PUSH1 0xD2 SHL DUP2 MSTORE POP DUP2 JUMP JUMPDEST PUSH2 0x324 PUSH2 0x5BF CALLDATASIZE PUSH1 0x4 PUSH2 0x286F JUMP JUMPDEST PUSH2 0x112A JUMP JUMPDEST PUSH2 0x34E PUSH1 0x8 SLOAD DUP2 JUMP JUMPDEST PUSH2 0x34E PUSH32 0x7C7C6CDB67A18743F49EC6FA9B35F50D52ED05CBED4CC592E13B44501C1A2267 DUP2 JUMP JUMPDEST PUSH2 0x34E PUSH1 0x0 DUP2 JUMP JUMPDEST PUSH2 0x34E PUSH1 0xC SLOAD DUP2 JUMP JUMPDEST PUSH2 0x3F2 PUSH2 0x613 CALLDATASIZE PUSH1 0x4 PUSH2 0x27B1 JUMP JUMPDEST PUSH2 0x1245 JUMP JUMPDEST PUSH2 0x324 PUSH2 0x626 CALLDATASIZE PUSH1 0x4 PUSH2 0x26CA JUMP JUMPDEST PUSH2 0x12DE JUMP JUMPDEST PUSH2 0x324 PUSH2 0x639 CALLDATASIZE PUSH1 0x4 PUSH2 0x2815 JUMP JUMPDEST PUSH2 0x13CD JUMP JUMPDEST PUSH2 0x3F2 PUSH2 0x64C CALLDATASIZE PUSH1 0x4 PUSH2 0x276C JUMP JUMPDEST PUSH2 0x146B JUMP JUMPDEST PUSH1 0xA SLOAD PUSH2 0x664 SWAP1 PUSH1 0x1 PUSH1 0x1 PUSH1 0xA0 SHL SUB AND DUP2 JUMP JUMPDEST PUSH1 0x40 MLOAD PUSH1 0x1 PUSH1 0x1 PUSH1 0xA0 SHL SUB SWAP1 SWAP2 AND DUP2 MSTORE PUSH1 0x20 ADD PUSH2 0x330 JUMP JUMPDEST PUSH2 0x34E PUSH2 0x14B4 JUMP JUMPDEST PUSH2 0x34E PUSH32 0x9F2DF0FED2C77648DE5860A4CC508CD0818C85B8B8A1AB4CEEEF8D981C8956A6 DUP2 JUMP JUMPDEST PUSH2 0x3F2 PUSH2 0x6B9 CALLDATASIZE PUSH1 0x4 PUSH2 0x2785 JUMP JUMPDEST PUSH2 0x150D JUMP JUMPDEST PUSH2 0x34E PUSH1 0x32 DUP2 JUMP JUMPDEST PUSH2 0x3F2 PUSH2 0x6D4 CALLDATASIZE PUSH1 0x4 PUSH2 0x28EF JUMP JUMPDEST PUSH2 0x1532 JUMP JUMPDEST PUSH2 0x34E PUSH1 0xD SLOAD DUP2 JUMP JUMPDEST PUSH2 0x34E PUSH32 0x158B0A9EDF7A828AAD02F63CD515C68EF2F50BA807396F6D12842833A1597429 DUP2 JUMP JUMPDEST PUSH2 0x34E PUSH2 0x717 CALLDATASIZE PUSH1 0x4 PUSH2 0x292A JUMP JUMPDEST PUSH1 0x1 PUSH1 0x1 PUSH1 0xA0 SHL SUB SWAP2 DUP3 AND PUSH1 0x0 SWAP1 DUP2 MSTORE PUSH1 0x3 PUSH1 0x20 SWAP1 DUP2 MSTORE PUSH1 0x40 DUP1 DUP4 KECCAK256 SWAP4 SWAP1 SWAP5 AND DUP3 MSTORE SWAP2 SWAP1 SWAP2 MSTORE KECCAK256 SLOAD SWAP1 JUMP JUMPDEST PUSH2 0x3F2 PUSH2 0x750 CALLDATASIZE PUSH1 0x4 PUSH2 0x2954 JUMP JUMPDEST PUSH2 0x162F JUMP JUMPDEST PUSH2 0x34E PUSH32 0x65D7A28E3265B37A6474929F336521B332C1681B933F6CB9F3376673440D862A DUP2 JUMP JUMPDEST PUSH2 0x324 PUSH2 0x78A CALLDATASIZE PUSH1 0x4 PUSH2 0x26CA JUMP JUMPDEST PUSH1 0xE PUSH1 0x20 SWAP1 DUP2 MSTORE PUSH1 0x0 SWAP3 DUP4 MSTORE PUSH1 0x40 DUP1 DUP5 KECCAK256 SWAP1 SWAP2 MSTORE SWAP1 DUP3 MSTORE SWAP1 KECCAK256 SLOAD PUSH1 0xFF AND DUP2 JUMP JUMPDEST PUSH2 0x3F2 PUSH2 0x7B8 CALLDATASIZE PUSH1 0x4 PUSH2 0x2954 JUMP JUMPDEST PUSH2 0x1855 JUMP JUMPDEST PUSH2 0x34E PUSH1 0x7 SLOAD DUP2 JUMP JUMPDEST PUSH2 0x324 PUSH2 0x7D4 CALLDATASIZE PUSH1 0x4 PUSH2 0x27B1 JUMP JUMPDEST PUSH1 0x5 PUSH1 0x20 MSTORE PUSH1 0x0 SWAP1 DUP2 MSTORE PUSH1 0x40 SWAP1 KECCAK256 SLOAD PUSH1 0xFF AND DUP2 JUMP JUMPDEST PUSH1 0x0 PUSH1 0x1 PUSH1 0x1 PUSH1 0xE0 SHL SUB NOT DUP3 AND PUSH4 0x7965DB0B PUSH1 0xE0 SHL EQ DUP1 PUSH2 0x81A JUMPI POP PUSH4 0x1FFC9A7 PUSH1 0xE0 SHL PUSH1 0x1 PUSH1 0x1 PUSH1 0xE0 SHL SUB NOT DUP4 AND EQ JUMPDEST SWAP3 SWAP2 POP POP JUMP JUMPDEST PUSH1 0x0 PUSH2 0x82A PUSH2 0x19D6 JUMP JUMPDEST PUSH1 0x0 PUSH2 0x835 DUP4 PUSH2 0x19FC JUMP JUMPDEST CALLER PUSH1 0x0 SWAP1 DUP2 MSTORE PUSH1 0x3 PUSH1 0x20 SWAP1 DUP2 MSTORE PUSH1 0x40 DUP1 DUP4 KECCAK256 PUSH1 0x1 PUSH1 0x1 PUSH1 0xA0 SHL SUB DUP10 AND DUP5 MSTORE SWAP1 SWAP2 MSTORE SWAP1 KECCAK256 DUP2 SWAP1 SSTORE SWAP1 POP PUSH2 0x866 DUP2 PUSH2 0x1AB3 JUMP JUMPDEST PUSH2 0x870 DUP2 CALLER PUSH2 0x1B3B JUMP JUMPDEST PUSH2 0x87A DUP2 DUP6 PUSH2 0x1B3B JUMP JUMPDEST PUSH1 0x40 MLOAD PUSH1 0x1 PUSH1 0x1 PUSH1 0xA0 SHL SUB DUP6 AND SWAP1 CALLER SWAP1 PUSH32 0xD36AB67102A7729F9ECBDFAB3A7752E2874CBF3EE72C6B2F709E21735F461637 SWAP1 PUSH1 0x0 SWAP1 LOG3 POP PUSH1 0x1 SWAP4 SWAP3 POP POP POP JUMP JUMPDEST PUSH32 0x442A94F1A1FAC79AF32856AF2A64F63648CFA2EF3B98610A5BB7CBEC4CEE6985 PUSH2 0x8E4 DUP2 PUSH2 0x1BCB JUMP JUMPDEST PUSH1 0x1 PUSH1 0x1 PUSH1 0xA0 SHL SUB DUP4 AND PUSH1 0x0 DUP2 DUP2 MSTORE PUSH1 0x5 PUSH1 0x20 SWAP1 DUP2 MSTORE PUSH1 0x40 SWAP2 DUP3 SWAP1 KECCAK256 DUP1 SLOAD PUSH1 0xFF NOT AND DUP7 ISZERO ISZERO SWAP1 DUP2 OR SWAP1 SWAP2 SSTORE SWAP2 MLOAD SWAP2 DUP3 MSTORE PUSH32 0x6A12B3DF6CBA4203BD7FD06B816789F87DE8C594299AED5717AE070FAC781BAC SWAP2 ADD JUMPDEST PUSH1 0x40 MLOAD DUP1 SWAP2 SUB SWAP1 LOG2 POP POP POP JUMP JUMPDEST PUSH1 0x0 PUSH2 0x94F PUSH2 0x19D6 JUMP JUMPDEST PUSH1 0x1 PUSH1 0x1 PUSH1 0xA0 SHL SUB DUP5 AND PUSH1 0x0 SWAP1 DUP2 MSTORE PUSH1 0x5 PUSH1 0x20 MSTORE PUSH1 0x40 SWAP1 KECCAK256 SLOAD PUSH1 0xFF AND ISZERO PUSH2 0x999 JUMPI PUSH1 0x40 MLOAD PUSH4 0x578F3E13 PUSH1 0xE0 SHL DUP2 MSTORE PUSH1 0x1 PUSH1 0x1 PUSH1 0xA0 SHL SUB DUP6 AND PUSH1 0x4 DUP3 ADD MSTORE PUSH1 0x24 ADD JUMPDEST PUSH1 0x40 MLOAD DUP1 SWAP2 SUB SWAP1 REVERT JUMPDEST PUSH1 0x1 PUSH1 0x1 PUSH1 0xA0 SHL SUB DUP4 AND PUSH1 0x0 SWAP1 DUP2 MSTORE PUSH1 0x5 PUSH1 0x20 MSTORE PUSH1 0x40 SWAP1 KECCAK256 SLOAD PUSH1 0xFF AND ISZERO PUSH2 0x9DE JUMPI PUSH1 0x40 MLOAD PUSH4 0x32E38AF3 PUSH1 0xE2 SHL DUP2 MSTORE PUSH1 0x1 PUSH1 0x1 PUSH1 0xA0 SHL SUB DUP5 AND PUSH1 0x4 DUP3 ADD MSTORE PUSH1 0x24 ADD PUSH2 0x990 JUMP JUMPDEST PUSH1 0x1 PUSH1 0x1 PUSH1 0xA0 SHL SUB DUP4 AND PUSH2 0xA05 JUMPI PUSH1 0x40 MLOAD PUSH4 0x4E469669 PUSH1 0xE1 SHL DUP2 MSTORE PUSH1 0x4 ADD PUSH1 0x40 MLOAD DUP1 SWAP2 SUB SWAP1 REVERT JUMPDEST PUSH1 0x0 PUSH2 0xA10 DUP4 PUSH2 0x19FC JUMP JUMPDEST SWAP1 POP PUSH2 0xA1D DUP6 CALLER DUP4 PUSH2 0x1BD5 JUMP JUMPDEST PUSH2 0xA28 DUP6 DUP6 DUP4 PUSH2 0x1CB8 JUMP JUMPDEST DUP4 PUSH1 0x1 PUSH1 0x1 PUSH1 0xA0 SHL SUB AND DUP6 PUSH1 0x1 PUSH1 0x1 PUSH1 0xA0 SHL SUB AND PUSH1 0x0 DUP1 MLOAD PUSH1 0x20 PUSH2 0x2AD3 DUP4 CODECOPY DUP2 MLOAD SWAP2 MSTORE PUSH1 0x40 MLOAD PUSH1 0x40 MLOAD DUP1 SWAP2 SUB SWAP1 LOG3 PUSH1 0x1 SWAP2 POP POP JUMPDEST SWAP4 SWAP3 POP POP POP JUMP JUMPDEST PUSH1 0x0 DUP3 DUP2 MSTORE PUSH1 0x20 DUP2 SWAP1 MSTORE PUSH1 0x40 SWAP1 KECCAK256 PUSH1 0x1 ADD SLOAD PUSH2 0xA7E DUP2 PUSH2 0x1BCB JUMP JUMPDEST PUSH2 0xA88 DUP4 DUP4 PUSH2 0x1EC1 JUMP JUMPDEST POP POP POP POP JUMP JUMPDEST PUSH1 0x1 PUSH1 0x1 PUSH1 0xA0 SHL SUB DUP2 AND CALLER EQ PUSH2 0xAB7 JUMPI PUSH1 0x40 MLOAD PUSH4 0x334BD919 PUSH1 0xE1 SHL DUP2 MSTORE PUSH1 0x4 ADD PUSH1 0x40 MLOAD DUP1 SWAP2 SUB SWAP1 REVERT JUMPDEST PUSH2 0xAC1 DUP3 DUP3 PUSH2 0x1F53 JUMP JUMPDEST POP POP POP JUMP JUMPDEST PUSH32 0x65D7A28E3265B37A6474929F336521B332C1681B933F6CB9F3376673440D862A PUSH2 0xAF0 DUP2 PUSH2 0x1BCB JUMP JUMPDEST PUSH2 0xAF8 PUSH2 0x1FBE JUMP JUMPDEST POP JUMP JUMPDEST PUSH32 0x9F2DF0FED2C77648DE5860A4CC508CD0818C85B8B8A1AB4CEEEF8D981C8956A6 PUSH2 0xB25 DUP2 PUSH2 0x1BCB JUMP JUMPDEST PUSH2 0xB2D PUSH2 0x19D6 JUMP JUMPDEST DUP2 PUSH1 0x0 SUB PUSH2 0xB4E JUMPI PUSH1 0x40 MLOAD PUSH4 0x162908E3 PUSH1 0xE1 SHL DUP2 MSTORE PUSH1 0x4 ADD PUSH1 0x40 MLOAD DUP1 SWAP2 SUB SWAP1 REVERT JUMPDEST PUSH1 0x1 PUSH1 0x1 PUSH1 0xA0 SHL SUB DUP4 AND PUSH2 0xB75 JUMPI PUSH1 0x40 MLOAD PUSH4 0x4E469669 PUSH1 0xE1 SHL DUP2 MSTORE PUSH1 0x4 ADD PUSH1 0x40 MLOAD DUP1 SWAP2 SUB SWAP1 REVERT JUMPDEST PUSH2 0xB7D PUSH2 0x2010 JUMP JUMPDEST PUSH1 0x0 PUSH1 0x6 SLOAD GT DUP1 ISZERO PUSH2 0xB9D JUMPI POP PUSH1 0x6 SLOAD DUP3 PUSH1 0x7 SLOAD PUSH2 0xB9B SWAP2 SWAP1 PUSH2 0x29E8 JUMP JUMPDEST GT JUMPDEST ISZERO PUSH2 0xBD5 JUMPI DUP2 PUSH1 0x7 SLOAD PUSH1 0x6 SLOAD PUSH2 0xBB3 SWAP2 SWAP1 PUSH2 0x29FB JUMP JUMPDEST PUSH1 0x40 MLOAD PUSH4 0x45A89487 PUSH1 0xE0 SHL DUP2 MSTORE PUSH1 0x4 DUP2 ADD SWAP3 SWAP1 SWAP3 MSTORE PUSH1 0x24 DUP3 ADD MSTORE PUSH1 0x44 ADD PUSH2 0x990 JUMP JUMPDEST DUP2 PUSH1 0x7 PUSH1 0x0 DUP3 DUP3 SLOAD PUSH2 0xBE7 SWAP2 SWAP1 PUSH2 0x29E8 JUMP JUMPDEST SWAP3 POP POP DUP2 SWAP1 SSTORE POP DUP2 PUSH1 0xC PUSH1 0x0 DUP3 DUP3 SLOAD PUSH2 0xC00 SWAP2 SWAP1 PUSH2 0x29E8 JUMP JUMPDEST SWAP3 POP POP DUP2 SWAP1 SSTORE POP DUP2 PUSH1 0x4 PUSH1 0x0 DUP3 DUP3 SLOAD PUSH2 0xC19 SWAP2 SWAP1 PUSH2 0x29E8 JUMP JUMPDEST SWAP1 SWAP2 SSTORE POP PUSH1 0x0 SWAP1 POP PUSH2 0xC2A DUP4 PUSH2 0x19FC JUMP JUMPDEST PUSH1 0x1 PUSH1 0x1 PUSH1 0xA0 SHL SUB DUP6 AND PUSH1 0x0 SWAP1 DUP2 MSTORE PUSH1 0x2 PUSH1 0x20 MSTORE PUSH1 0x40 SWAP1 KECCAK256 SLOAD SWAP1 SWAP2 POP ISZERO PUSH2 0xC8C JUMPI PUSH1 0x1 PUSH1 0x1 PUSH1 0xA0 SHL SUB DUP5 AND PUSH1 0x0 SWAP1 DUP2 MSTORE PUSH1 0x2 PUSH1 0x20 MSTORE PUSH1 0x40 SWAP1 KECCAK256 SLOAD PUSH2 0xC6E SWAP1 DUP3 PUSH2 0x206C JUMP JUMPDEST PUSH1 0x1 PUSH1 0x1 PUSH1 0xA0 SHL SUB DUP6 AND PUSH1 0x0 SWAP1 DUP2 MSTORE PUSH1 0x2 PUSH1 0x20 MSTORE PUSH1 0x40 SWAP1 KECCAK256 SSTORE PUSH2 0xCA8 JUMP JUMPDEST PUSH1 0x1 PUSH1 0x1 PUSH1 0xA0 SHL SUB DUP5 AND PUSH1 0x0 SWAP1 DUP2 MSTORE PUSH1 0x2 PUSH1 0x20 MSTORE PUSH1 0x40 SWAP1 KECCAK256 DUP2 SWAP1 SSTORE JUMPDEST PUSH1 0x1 PUSH1 0x1 PUSH1 0xA0 SHL SUB DUP5 AND PUSH1 0x0 SWAP1 DUP2 MSTORE PUSH1 0x2 PUSH1 0x20 MSTORE PUSH1 0x40 SWAP1 KECCAK256 SLOAD PUSH2 0xCCA SWAP1 PUSH2 0x1AB3 JUMP JUMPDEST PUSH1 0x1 PUSH1 0x1 PUSH1 0xA0 SHL SUB DUP5 AND PUSH1 0x0 SWAP1 DUP2 MSTORE PUSH1 0x2 PUSH1 0x20 MSTORE PUSH1 0x40 SWAP1 KECCAK256 SLOAD PUSH2 0xCED SWAP1 DUP6 PUSH2 0x1B3B JUMP JUMPDEST DUP4 PUSH1 0x1 PUSH1 0x1 PUSH1 0xA0 SHL SUB AND PUSH32 0x4E60B77A04CC9464ABA25EDEE4E78D2DDAE3F8D47EAB47D244DF54063DC9E4C6 DUP5 PUSH1 0x40 MLOAD PUSH2 0xD28 SWAP2 DUP2 MSTORE PUSH1 0x20 ADD SWAP1 JUMP JUMPDEST PUSH1 0x40 MLOAD DUP1 SWAP2 SUB SWAP1 LOG2 POP POP POP POP JUMP JUMPDEST PUSH2 0xD3E PUSH2 0x19D6 JUMP JUMPDEST DUP2 PUSH1 0x0 SUB PUSH2 0xD5F JUMPI PUSH1 0x40 MLOAD PUSH4 0x162908E3 PUSH1 0xE1 SHL DUP2 MSTORE PUSH1 0x4 ADD PUSH1 0x40 MLOAD DUP1 SWAP2 SUB SWAP1 REVERT JUMPDEST PUSH1 0x1 PUSH1 0x1 PUSH1 0xA0 SHL SUB DUP2 AND PUSH2 0xD86 JUMPI PUSH1 0x40 MLOAD PUSH4 0x4E469669 PUSH1 0xE1 SHL DUP2 MSTORE PUSH1 0x4 ADD PUSH1 0x40 MLOAD DUP1 SWAP2 SUB SWAP1 REVERT JUMPDEST PUSH1 0x0 PUSH2 0xD91 DUP4 PUSH2 0x19FC JUMP JUMPDEST CALLER PUSH1 0x0 SWAP1 DUP2 MSTORE PUSH1 0x2 PUSH1 0x20 MSTORE PUSH1 0x40 DUP2 KECCAK256 SLOAD SWAP2 SWAP3 POP SWAP1 PUSH2 0xDB0 SWAP1 DUP4 SWAP1 PUSH2 0x212B JUMP JUMPDEST SWAP1 POP PUSH1 0x0 PUSH2 0xDC8 DUP3 DUP5 PUSH2 0xDC3 PUSH1 0x0 PUSH2 0x19FC JUMP JUMPDEST PUSH2 0x21AD JUMP JUMPDEST CALLER PUSH1 0x0 SWAP1 DUP2 MSTORE PUSH1 0x2 PUSH1 0x20 MSTORE PUSH1 0x40 SWAP1 KECCAK256 SLOAD SWAP1 SWAP2 POP PUSH2 0xDE5 SWAP1 DUP3 PUSH2 0x2278 JUMP JUMPDEST CALLER PUSH1 0x0 SWAP1 DUP2 MSTORE PUSH1 0x2 PUSH1 0x20 MSTORE PUSH1 0x40 SWAP1 KECCAK256 DUP2 SWAP1 SSTORE PUSH2 0xE00 SWAP1 PUSH2 0x1AB3 JUMP JUMPDEST CALLER PUSH1 0x0 DUP2 DUP2 MSTORE PUSH1 0x2 PUSH1 0x20 MSTORE PUSH1 0x40 SWAP1 KECCAK256 SLOAD PUSH2 0xE19 SWAP2 PUSH2 0x1B3B JUMP JUMPDEST DUP5 PUSH1 0xD PUSH1 0x0 DUP3 DUP3 SLOAD PUSH2 0xE2B SWAP2 SWAP1 PUSH2 0x29E8 JUMP JUMPDEST SWAP3 POP POP DUP2 SWAP1 SSTORE POP DUP5 PUSH1 0x4 PUSH1 0x0 DUP3 DUP3 SLOAD PUSH2 0xE44 SWAP2 SWAP1 PUSH2 0x29FB JUMP JUMPDEST SWAP1 SWAP2 SSTORE POP POP PUSH1 0x40 MLOAD DUP6 DUP2 MSTORE CALLER SWAP1 PUSH32 0xB50C51CB7B98630ADA9B13DBF04C5DDA466C871667E1ABF9C1C981B6F2BDE1CB SWAP1 PUSH1 0x20 ADD PUSH1 0x40 MLOAD DUP1 SWAP2 SUB SWAP1 LOG2 PUSH1 0x40 DUP1 MLOAD DUP7 DUP2 MSTORE TIMESTAMP PUSH1 0x20 DUP3 ADD MSTORE PUSH1 0x1 PUSH1 0x1 PUSH1 0xA0 SHL SUB DUP7 AND SWAP2 CALLER SWAP2 PUSH32 0xF19E38D400B780173D91580D23AD02EF9617F12FBE127581A9DD6736BC3214EF SWAP2 ADD PUSH1 0x40 MLOAD DUP1 SWAP2 SUB SWAP1 LOG3 POP POP POP POP POP JUMP JUMPDEST PUSH1 0x0 PUSH2 0xED4 PUSH2 0x19D6 JUMP JUMPDEST CALLER PUSH1 0x0 SWAP1 DUP2 MSTORE PUSH1 0x5 PUSH1 0x20 MSTORE PUSH1 0x40 SWAP1 KECCAK256 SLOAD PUSH1 0xFF AND ISZERO PUSH2 0xF07 JUMPI PUSH1 0x40 MLOAD PUSH4 0x578F3E13 PUSH1 0xE0 SHL DUP2 MSTORE CALLER PUSH1 0x4 DUP3 ADD MSTORE PUSH1 0x24 ADD PUSH2 0x990 JUMP JUMPDEST PUSH1 0x1 PUSH1 0x1 PUSH1 0xA0 SHL SUB DUP6 AND PUSH1 0x0 SWAP1 DUP2 MSTORE PUSH1 0x5 PUSH1 0x20 MSTORE PUSH1 0x40 SWAP1 KECCAK256 SLOAD PUSH1 0xFF AND ISZERO PUSH2 0xF4C JUMPI PUSH1 0x40 MLOAD PUSH4 0x32E38AF3 PUSH1 0xE2 SHL DUP2 MSTORE PUSH1 0x1 PUSH1 0x1 PUSH1 0xA0 SHL SUB DUP7 AND PUSH1 0x4 DUP3 ADD MSTORE PUSH1 0x24 ADD PUSH2 0x990 JUMP JUMPDEST PUSH1 0x1 PUSH1 0x1 PUSH1 0xA0 SHL SUB DUP6 AND PUSH2 0xF73 JUMPI PUSH1 0x40 MLOAD PUSH4 0x4E469669 PUSH1 0xE1 SHL DUP2 MSTORE PUSH1 0x4 ADD PUSH1 0x40 MLOAD DUP1 SWAP2 SUB SWAP1 REVERT JUMPDEST PUSH1 0x0 PUSH2 0xF80 DUP6 DUP6 DUP6 PUSH2 0x22E3 JUMP JUMPDEST SWAP1 POP PUSH2 0xF8D CALLER DUP8 DUP4 PUSH2 0x1CB8 JUMP JUMPDEST PUSH1 0x40 MLOAD PUSH1 0x1 PUSH1 0x1 PUSH1 0xA0 SHL SUB DUP8 AND SWAP1 CALLER SWAP1 PUSH1 0x0 DUP1 MLOAD PUSH1 0x20 PUSH2 0x2AD3 DUP4 CODECOPY DUP2 MLOAD SWAP2 MSTORE SWAP1 PUSH1 0x0 SWAP1 LOG3 POP PUSH1 0x1 SWAP6 SWAP5 POP POP POP POP POP JUMP JUMPDEST PUSH32 0x65D7A28E3265B37A6474929F336521B332C1681B933F6CB9F3376673440D862A PUSH2 0xFE7 DUP2 PUSH2 0x1BCB JUMP JUMPDEST PUSH2 0xAF8 PUSH2 0x2348 JUMP JUMPDEST PUSH1 0x0 DUP1 MLOAD PUSH1 0x20 PUSH2 0x2AF3 DUP4 CODECOPY DUP2 MLOAD SWAP2 MSTORE PUSH2 0x1007 DUP2 PUSH2 0x1BCB JUMP JUMPDEST PUSH1 0x1 PUSH1 0x1 PUSH1 0xA0 SHL SUB DUP4 AND PUSH1 0x0 DUP2 DUP2 MSTORE PUSH1 0xB PUSH1 0x20 SWAP1 DUP2 MSTORE PUSH1 0x40 SWAP2 DUP3 SWAP1 KECCAK256 DUP1 SLOAD PUSH1 0xFF NOT AND DUP7 ISZERO ISZERO SWAP1 DUP2 OR SWAP1 SWAP2 SSTORE SWAP2 MLOAD SWAP2 DUP3 MSTORE PUSH32 0x4D5771454588F51370A8A2E7E151354B6DE0DC3159B14821B4AD76BC04C28BC7 SWAP2 ADD PUSH2 0x938 JUMP JUMPDEST PUSH1 0x0 DUP1 MLOAD PUSH1 0x20 PUSH2 0x2AF3 DUP4 CODECOPY DUP2 MLOAD SWAP2 MSTORE PUSH2 0x1077 DUP2 PUSH2 0x1BCB JUMP JUMPDEST PUSH1 0x32 DUP3 GT ISZERO PUSH2 0x10A3 JUMPI PUSH1 0x40 MLOAD PUSH4 0x73AB8935 PUSH1 0xE1 SHL DUP2 MSTORE PUSH1 0x4 DUP2 ADD DUP4 SWAP1 MSTORE PUSH1 0x32 PUSH1 0x24 DUP3 ADD MSTORE PUSH1 0x44 ADD PUSH2 0x990 JUMP JUMPDEST PUSH1 0x9 DUP1 SLOAD SWAP1 DUP4 SWAP1 SSTORE PUSH1 0x40 DUP1 MLOAD DUP3 DUP2 MSTORE PUSH1 0x20 DUP2 ADD DUP6 SWAP1 MSTORE PUSH32 0x940334A9F5C76529AD9447AC490C2073B06D880209383A3D3E4B0ECAB72A0D99 SWAP2 ADD JUMPDEST PUSH1 0x40 MLOAD DUP1 SWAP2 SUB SWAP1 LOG1 POP POP POP JUMP JUMPDEST PUSH1 0x0 SWAP2 DUP3 MSTORE PUSH1 0x20 DUP3 DUP2 MSTORE PUSH1 0x40 DUP1 DUP5 KECCAK256 PUSH1 0x1 PUSH1 0x1 PUSH1 0xA0 SHL SUB SWAP4 SWAP1 SWAP4 AND DUP5 MSTORE SWAP2 SWAP1 MSTORE SWAP1 KECCAK256 SLOAD PUSH1 0xFF AND SWAP1 JUMP JUMPDEST PUSH1 0x0 PUSH1 0xD SLOAD PUSH1 0xC SLOAD PUSH2 0x1125 SWAP2 SWAP1 PUSH2 0x29FB JUMP JUMPDEST SWAP1 POP SWAP1 JUMP JUMPDEST PUSH1 0x0 PUSH2 0x1134 PUSH2 0x19D6 JUMP JUMPDEST PUSH1 0x1 PUSH1 0x1 PUSH1 0xA0 SHL SUB DUP7 AND PUSH1 0x0 SWAP1 DUP2 MSTORE PUSH1 0x5 PUSH1 0x20 MSTORE PUSH1 0x40 SWAP1 KECCAK256 SLOAD PUSH1 0xFF AND ISZERO PUSH2 0x1179 JUMPI PUSH1 0x40 MLOAD PUSH4 0x578F3E13 PUSH1 0xE0 SHL DUP2 MSTORE PUSH1 0x1 PUSH1 0x1 PUSH1 0xA0 SHL SUB DUP8 AND PUSH1 0x4 DUP3 ADD MSTORE PUSH1 0x24 ADD PUSH2 0x990 JUMP JUMPDEST PUSH1 0x1 PUSH1 0x1 PUSH1 0xA0 SHL SUB DUP6 AND PUSH1 0x0 SWAP1 DUP2 MSTORE PUSH1 0x5 PUSH1 0x20 MSTORE PUSH1 0x40 SWAP1 KECCAK256 SLOAD PUSH1 0xFF AND ISZERO PUSH2 0x11BE JUMPI PUSH1 0x40 MLOAD PUSH4 0x32E38AF3 PUSH1 0xE2 SHL DUP2 MSTORE PUSH1 0x1 PUSH1 0x1 PUSH1 0xA0 SHL SUB DUP7 AND PUSH1 0x4 DUP3 ADD MSTORE PUSH1 0x24 ADD PUSH2 0x990 JUMP JUMPDEST PUSH1 0x1 PUSH1 0x1 PUSH1 0xA0 SHL SUB DUP6 AND PUSH2 0x11E5 JUMPI PUSH1 0x40 MLOAD PUSH4 0x4E469669 PUSH1 0xE1 SHL DUP2 MSTORE PUSH1 0x4 ADD PUSH1 0x40 MLOAD DUP1 SWAP2 SUB SWAP1 REVERT JUMPDEST PUSH1 0x0 PUSH2 0x11F2 DUP6 DUP6 DUP6 PUSH2 0x22E3 JUMP JUMPDEST SWAP1 POP PUSH2 0x11FF DUP8 CALLER DUP4 PUSH2 0x1BD5 JUMP JUMPDEST PUSH2 0x120A DUP8 DUP8 DUP4 PUSH2 0x1CB8 JUMP JUMPDEST DUP6 PUSH1 0x1 PUSH1 0x1 PUSH1 0xA0 SHL SUB AND DUP8 PUSH1 0x1 PUSH1 0x1 PUSH1 0xA0 SHL SUB AND PUSH1 0x0 DUP1 MLOAD PUSH1 0x20 PUSH2 0x2AD3 DUP4 CODECOPY DUP2 MLOAD SWAP2 MSTORE PUSH1 0x40 MLOAD PUSH1 0x40 MLOAD DUP1 SWAP2 SUB SWAP1 LOG3 POP PUSH1 0x1 SWAP7 SWAP6 POP POP POP POP POP POP JUMP JUMPDEST PUSH1 0x0 DUP1 MLOAD PUSH1 0x20 PUSH2 0x2AF3 DUP4 CODECOPY DUP2 MLOAD SWAP2 MSTORE PUSH2 0x125D DUP2 PUSH2 0x1BCB JUMP JUMPDEST PUSH1 0x1 PUSH1 0x1 PUSH1 0xA0 SHL SUB DUP3 AND PUSH2 0x1284 JUMPI PUSH1 0x40 MLOAD PUSH4 0xBB0BAC99 PUSH1 0xE0 SHL DUP2 MSTORE PUSH1 0x4 ADD PUSH1 0x40 MLOAD DUP1 SWAP2 SUB SWAP1 REVERT JUMPDEST PUSH1 0xA DUP1 SLOAD PUSH1 0x1 PUSH1 0x1 PUSH1 0xA0 SHL SUB DUP5 DUP2 AND PUSH1 0x1 PUSH1 0x1 PUSH1 0xA0 SHL SUB NOT DUP4 AND DUP2 OR SWAP1 SWAP4 SSTORE PUSH1 0x40 DUP1 MLOAD SWAP2 SWAP1 SWAP3 AND DUP1 DUP3 MSTORE PUSH1 0x20 DUP3 ADD SWAP4 SWAP1 SWAP4 MSTORE PUSH32 0x5D16AD41BAEB009CD23EB8F6C7CDE5C2E0CD5ACF4A33926AB488875C37C37F38 SWAP2 ADD PUSH2 0x10DD JUMP JUMPDEST PUSH1 0x0 PUSH2 0x12E8 PUSH2 0x19D6 JUMP JUMPDEST CALLER PUSH1 0x0 SWAP1 DUP2 MSTORE PUSH1 0x5 PUSH1 0x20 MSTORE PUSH1 0x40 SWAP1 KECCAK256 SLOAD PUSH1 0xFF AND ISZERO PUSH2 0x131B JUMPI PUSH1 0x40 MLOAD PUSH4 0x578F3E13 PUSH1 0xE0 SHL DUP2 MSTORE CALLER PUSH1 0x4 DUP3 ADD MSTORE PUSH1 0x24 ADD PUSH2 0x990 JUMP JUMPDEST PUSH1 0x1 PUSH1 0x1 PUSH1 0xA0 SHL SUB DUP4 AND PUSH1 0x0 SWAP1 DUP2 MSTORE PUSH1 0x5 PUSH1 0x20 MSTORE PUSH1 0x40 SWAP1 KECCAK256 SLOAD PUSH1 0xFF AND ISZERO PUSH2 0x1360 JUMPI PUSH1 0x40 MLOAD PUSH4 0x32E38AF3 PUSH1 0xE2 SHL DUP2 MSTORE PUSH1 0x1 PUSH1 0x1 PUSH1 0xA0 SHL SUB DUP5 AND PUSH1 0x4 DUP3 ADD MSTORE PUSH1 0x24 ADD PUSH2 0x990 JUMP JUMPDEST PUSH1 0x1 PUSH1 0x1 PUSH1 0xA0 SHL SUB DUP4 AND PUSH2 0x1387 JUMPI PUSH1 0x40 MLOAD PUSH4 0x4E469669 PUSH1 0xE1 SHL DUP2 MSTORE PUSH1 0x4 ADD PUSH1 0x40 MLOAD DUP1 SWAP2 SUB SWAP1 REVERT JUMPDEST PUSH1 0x0 PUSH2 0x1392 DUP4 PUSH2 0x19FC JUMP JUMPDEST SWAP1 POP PUSH2 0x139F CALLER DUP6 DUP4 PUSH2 0x1CB8 JUMP JUMPDEST PUSH1 0x40 MLOAD PUSH1 0x1 PUSH1 0x1 PUSH1 0xA0 SHL SUB DUP6 AND SWAP1 CALLER SWAP1 PUSH1 0x0 DUP1 MLOAD PUSH1 0x20 PUSH2 0x2AD3 DUP4 CODECOPY DUP2 MLOAD SWAP2 MSTORE SWAP1 PUSH1 0x0 SWAP1 LOG3 POP PUSH1 0x1 SWAP4 SWAP3 POP POP POP JUMP JUMPDEST PUSH1 0x0 PUSH2 0x13D7 PUSH2 0x19D6 JUMP JUMPDEST PUSH1 0x0 PUSH2 0x13E4 DUP6 DUP6 DUP6 PUSH2 0x22E3 JUMP JUMPDEST CALLER PUSH1 0x0 SWAP1 DUP2 MSTORE PUSH1 0x3 PUSH1 0x20 SWAP1 DUP2 MSTORE PUSH1 0x40 DUP1 DUP4 KECCAK256 PUSH1 0x1 PUSH1 0x1 PUSH1 0xA0 SHL SUB DUP12 AND DUP5 MSTORE SWAP1 SWAP2 MSTORE SWAP1 KECCAK256 DUP2 SWAP1 SSTORE SWAP1 POP PUSH2 0x1415 DUP2 PUSH2 0x1AB3 JUMP JUMPDEST PUSH2 0x141F DUP2 CALLER PUSH2 0x1B3B JUMP JUMPDEST PUSH2 0x1429 DUP2 DUP8 PUSH2 0x1B3B JUMP JUMPDEST PUSH1 0x40 MLOAD PUSH1 0x1 PUSH1 0x1 PUSH1 0xA0 SHL SUB DUP8 AND SWAP1 CALLER SWAP1 PUSH32 0xD36AB67102A7729F9ECBDFAB3A7752E2874CBF3EE72C6B2F709E21735F461637 SWAP1 PUSH1 0x0 SWAP1 LOG3 POP PUSH1 0x1 SWAP6 SWAP5 POP POP POP POP POP JUMP JUMPDEST PUSH1 0x0 PUSH2 0x1476 DUP2 PUSH2 0x1BCB JUMP JUMPDEST PUSH1 0x6 DUP1 SLOAD SWAP1 DUP4 SWAP1 SSTORE PUSH1 0x40 DUP1 MLOAD DUP3 DUP2 MSTORE PUSH1 0x20 DUP2 ADD DUP6 SWAP1 MSTORE PUSH32 0x2EE37CE64C711D861D1CB02D76A95D30E47A90E2DB87AB5D7E4584D16D7DC6E4 SWAP2 ADD PUSH2 0x10DD JUMP JUMPDEST PUSH1 0x0 PUSH1 0x6 SLOAD PUSH1 0x0 SUB PUSH2 0x14C7 JUMPI POP PUSH1 0x0 NOT SWAP1 JUMP JUMPDEST PUSH1 0x0 PUSH2 0x14D1 PUSH2 0x2383 JUMP JUMPDEST SWAP1 POP PUSH1 0x8 SLOAD DUP2 EQ PUSH2 0x14E4 JUMPI POP POP PUSH1 0x6 SLOAD SWAP1 JUMP JUMPDEST PUSH1 0x6 SLOAD PUSH1 0x7 SLOAD LT PUSH2 0x14F7 JUMPI PUSH1 0x0 SWAP2 POP POP SWAP1 JUMP JUMPDEST PUSH1 0x7 SLOAD PUSH1 0x6 SLOAD PUSH2 0x1507 SWAP2 SWAP1 PUSH2 0x29FB JUMP JUMPDEST SWAP2 POP POP SWAP1 JUMP JUMPDEST PUSH1 0x0 DUP3 DUP2 MSTORE PUSH1 0x20 DUP2 SWAP1 MSTORE PUSH1 0x40 SWAP1 KECCAK256 PUSH1 0x1 ADD SLOAD PUSH2 0x1528 DUP2 PUSH2 0x1BCB JUMP JUMPDEST PUSH2 0xA88 DUP4 DUP4 PUSH2 0x1F53 JUMP JUMPDEST CALLER PUSH1 0x0 SWAP1 DUP2 MSTORE PUSH1 0xE PUSH1 0x20 SWAP1 DUP2 MSTORE PUSH1 0x40 DUP1 DUP4 KECCAK256 DUP8 DUP5 MSTORE SWAP1 SWAP2 MSTORE SWAP1 KECCAK256 SLOAD PUSH1 0xFF AND ISZERO PUSH2 0x1577 JUMPI PUSH1 0x40 MLOAD PUSH4 0xD309466D PUSH1 0xE0 SHL DUP2 MSTORE CALLER PUSH1 0x4 DUP3 ADD MSTORE PUSH1 0x24 DUP2 ADD DUP6 SWAP1 MSTORE PUSH1 0x44 ADD PUSH2 0x990 JUMP JUMPDEST PUSH1 0x40 DUP1 MLOAD PUSH32 0x158B0A9EDF7A828AAD02F63CD515C68EF2F50BA807396F6D12842833A1597429 PUSH1 0x20 DUP3 ADD MSTORE CALLER SWAP2 DUP2 ADD SWAP2 SWAP1 SWAP2 MSTORE PUSH1 0x60 DUP2 ADD DUP6 SWAP1 MSTORE PUSH1 0x0 SWAP1 PUSH1 0x80 ADD PUSH1 0x40 MLOAD PUSH1 0x20 DUP2 DUP4 SUB SUB DUP2 MSTORE SWAP1 PUSH1 0x40 MSTORE DUP1 MLOAD SWAP1 PUSH1 0x20 ADD KECCAK256 SWAP1 POP PUSH2 0x15DB CALLER DUP3 DUP7 DUP7 DUP7 PUSH2 0x2392 JUMP JUMPDEST CALLER PUSH1 0x0 DUP2 DUP2 MSTORE PUSH1 0xE PUSH1 0x20 SWAP1 DUP2 MSTORE PUSH1 0x40 DUP1 DUP4 KECCAK256 DUP10 DUP5 MSTORE SWAP1 SWAP2 MSTORE DUP1 DUP3 KECCAK256 DUP1 SLOAD PUSH1 0xFF NOT AND PUSH1 0x1 OR SWAP1 SSTORE MLOAD DUP8 SWAP3 SWAP2 PUSH32 0x1CDD46FF242716CDAA72D159D339A485B3438398348D68F09D7C8C0A59353D81 SWAP2 LOG3 POP POP POP POP POP JUMP JUMPDEST PUSH2 0x1637 PUSH2 0x19D6 JUMP JUMPDEST DUP6 TIMESTAMP GT ISZERO DUP1 PUSH2 0x1646 JUMPI POP DUP5 TIMESTAMP LT ISZERO JUMPDEST ISZERO PUSH2 0x1667 JUMPI PUSH1 0x40 MLOAD PUSH4 0x3D91B05F PUSH1 0xE0 SHL DUP2 MSTORE PUSH1 0x4 DUP2 ADD DUP7 SWAP1 MSTORE PUSH1 0x24 ADD PUSH2 0x990 JUMP JUMPDEST PUSH1 0x1 PUSH1 0x1 PUSH1 0xA0 SHL SUB DUP10 AND PUSH1 0x0 SWAP1 DUP2 MSTORE PUSH1 0xE PUSH1 0x20 SWAP1 DUP2 MSTORE PUSH1 0x40 DUP1 DUP4 KECCAK256 DUP8 DUP5 MSTORE SWAP1 SWAP2 MSTORE SWAP1 KECCAK256 SLOAD PUSH1 0xFF AND ISZERO PUSH2 0x16BE JUMPI PUSH1 0x40 MLOAD PUSH4 0xD309466D PUSH1 0xE0 SHL DUP2 MSTORE PUSH1 0x1 PUSH1 0x1 PUSH1 0xA0 SHL SUB DUP11 AND PUSH1 0x4 DUP3 ADD MSTORE PUSH1 0x24 DUP2 ADD DUP6 SWAP1 MSTORE PUSH1 0x44 ADD PUSH2 0x990 JUMP JUMPDEST PUSH1 0x1 PUSH1 0x1 PUSH1 0xA0 SHL SUB DUP10 AND PUSH1 0x0 SWAP1 DUP2 MSTORE PUSH1 0x5 PUSH1 0x20 MSTORE PUSH1 0x40 SWAP1 KECCAK256 SLOAD PUSH1 0xFF AND ISZERO PUSH2 0x1703 JUMPI PUSH1 0x40 MLOAD PUSH4 0x578F3E13 PUSH1 0xE0 SHL DUP2 MSTORE PUSH1 0x1 PUSH1 0x1 PUSH1 0xA0 SHL SUB DUP11 AND PUSH1 0x4 DUP3 ADD MSTORE PUSH1 0x24 ADD PUSH2 0x990 JUMP JUMPDEST PUSH1 0x1 PUSH1 0x1 PUSH1 0xA0 SHL SUB DUP9 AND PUSH1 0x0 SWAP1 DUP2 MSTORE PUSH1 0x5 PUSH1 0x20 MSTORE PUSH1 0x40 SWAP1 KECCAK256 SLOAD PUSH1 0xFF AND ISZERO PUSH2 0x1748 JUMPI PUSH1 0x40 MLOAD PUSH4 0x32E38AF3 PUSH1 0xE2 SHL DUP2 MSTORE PUSH1 0x1 PUSH1 0x1 PUSH1 0xA0 SHL SUB DUP10 AND PUSH1 0x4 DUP3 ADD MSTORE PUSH1 0x24 ADD PUSH2 0x990 JUMP JUMPDEST PUSH1 0x0 PUSH32 0x7C7C6CDB67A18743F49EC6FA9B35F50D52ED05CBED4CC592E13B44501C1A2267 DUP11 DUP11 DUP11 DUP11 DUP11 DUP11 PUSH1 0x40 MLOAD PUSH1 0x20 ADD PUSH2 0x1787 SWAP8 SWAP7 SWAP6 SWAP5 SWAP4 SWAP3 SWAP2 SWAP1 PUSH2 0x2A0E JUMP JUMPDEST PUSH1 0x40 MLOAD PUSH1 0x20 DUP2 DUP4 SUB SUB DUP2 MSTORE SWAP1 PUSH1 0x40 MSTORE DUP1 MLOAD SWAP1 PUSH1 0x20 ADD KECCAK256 SWAP1 POP PUSH2 0x17AC DUP11 DUP3 DUP7 DUP7 DUP7 PUSH2 0x2392 JUMP JUMPDEST PUSH1 0x1 PUSH1 0x1 PUSH1 0xA0 SHL SUB DUP11 AND PUSH1 0x0 DUP2 DUP2 MSTORE PUSH1 0xE PUSH1 0x20 SWAP1 DUP2 MSTORE PUSH1 0x40 DUP1 DUP4 KECCAK256 DUP10 DUP5 MSTORE SWAP1 SWAP2 MSTORE DUP1 DUP3 KECCAK256 DUP1 SLOAD PUSH1 0xFF NOT AND PUSH1 0x1 OR SWAP1 SSTORE MLOAD DUP8 SWAP3 SWAP2 PUSH32 0x98DE503528EE59B575EF0C0A2576A82497BFC029A5685B209E9EC333479B10A5 SWAP2 LOG3 PUSH1 0x0 PUSH2 0x180D DUP10 PUSH2 0x19FC JUMP JUMPDEST SWAP1 POP PUSH2 0x181A DUP12 DUP12 DUP4 PUSH2 0x1CB8 JUMP JUMPDEST DUP10 PUSH1 0x1 PUSH1 0x1 PUSH1 0xA0 SHL SUB AND DUP12 PUSH1 0x1 PUSH1 0x1 PUSH1 0xA0 SHL SUB AND PUSH1 0x0 DUP1 MLOAD PUSH1 0x20 PUSH2 0x2AD3 DUP4 CODECOPY DUP2 MLOAD SWAP2 MSTORE PUSH1 0x40 MLOAD PUSH1 0x40 MLOAD DUP1 SWAP2 SUB SWAP1 LOG3 POP POP POP POP POP POP POP POP POP POP POP JUMP JUMPDEST PUSH2 0x185D PUSH2 0x19D6 JUMP JUMPDEST PUSH1 0x1 PUSH1 0x1 PUSH1 0xA0 SHL SUB DUP9 AND CALLER EQ PUSH2 0x1886 JUMPI PUSH1 0x40 MLOAD PUSH4 0x476D419 PUSH1 0xE0 SHL DUP2 MSTORE PUSH1 0x4 ADD PUSH1 0x40 MLOAD DUP1 SWAP2 SUB SWAP1 REVERT JUMPDEST DUP6 TIMESTAMP GT ISZERO DUP1 PUSH2 0x1895 JUMPI POP DUP5 TIMESTAMP LT ISZERO JUMPDEST ISZERO PUSH2 0x18B6 JUMPI PUSH1 0x40 MLOAD PUSH4 0x3D91B05F PUSH1 0xE0 SHL DUP2 MSTORE PUSH1 0x4 DUP2 ADD DUP7 SWAP1 MSTORE PUSH1 0x24 ADD PUSH2 0x990 JUMP JUMPDEST PUSH1 0x1 PUSH1 0x1 PUSH1 0xA0 SHL SUB DUP10 AND PUSH1 0x0 SWAP1 DUP2 MSTORE PUSH1 0xE PUSH1 0x20 SWAP1 DUP2 MSTORE PUSH1 0x40 DUP1 DUP4 KECCAK256 DUP8 DUP5 MSTORE SWAP1 SWAP2 MSTORE SWAP1 KECCAK256 SLOAD PUSH1 0xFF AND ISZERO PUSH2 0x190D JUMPI PUSH1 0x40 MLOAD PUSH4 0xD309466D PUSH1 0xE0 SHL DUP2 MSTORE PUSH1 0x1 PUSH1 0x1 PUSH1 0xA0 SHL SUB DUP11 AND PUSH1 0x4 DUP3 ADD MSTORE PUSH1 0x24 DUP2 ADD DUP6 SWAP1 MSTORE PUSH1 0x44 ADD PUSH2 0x990 JUMP JUMPDEST PUSH1 0x1 PUSH1 0x1 PUSH1 0xA0 SHL SUB DUP10 AND PUSH1 0x0 SWAP1 DUP2 MSTORE PUSH1 0x5 PUSH1 0x20 MSTORE PUSH1 0x40 SWAP1 KECCAK256 SLOAD PUSH1 0xFF AND ISZERO PUSH2 0x1952 JUMPI PUSH1 0x40 MLOAD PUSH4 0x578F3E13 PUSH1 0xE0 SHL DUP2 MSTORE PUSH1 0x1 PUSH1 0x1 PUSH1 0xA0 SHL SUB DUP11 AND PUSH1 0x4 DUP3 ADD MSTORE PUSH1 0x24 ADD PUSH2 0x990 JUMP JUMPDEST PUSH1 0x1 PUSH1 0x1 PUSH1 0xA0 SHL SUB DUP9 AND PUSH1 0x0 SWAP1 DUP2 MSTORE PUSH1 0x5 PUSH1 0x20 MSTORE PUSH1 0x40 SWAP1 KECCAK256 SLOAD PUSH1 0xFF AND ISZERO PUSH2 0x1997 JUMPI PUSH1 0x40 MLOAD PUSH4 0x32E38AF3 PUSH1 0xE2 SHL DUP2 MSTORE PUSH1 0x1 PUSH1 0x1 PUSH1 0xA0 SHL SUB DUP10 AND PUSH1 0x4 DUP3 ADD MSTORE PUSH1 0x24 ADD PUSH2 0x990 JUMP JUMPDEST PUSH1 0x0 PUSH32 0xD099CC98EF71107A616C4F0F941F04C322D8E254FE26B3C6668DB87AAE413DE8 DUP11 DUP11 DUP11 DUP11 DUP11 DUP11 PUSH1 0x40 MLOAD PUSH1 0x20 ADD PUSH2 0x1787 SWAP8 SWAP7 SWAP6 SWAP5 SWAP4 SWAP3 SWAP2 SWAP1 PUSH2 0x2A0E JUMP JUMPDEST PUSH1 0x1 SLOAD PUSH1 0xFF AND ISZERO PUSH2 0x19FA JUMPI PUSH1 0x40 MLOAD PUSH4 0xD93C0665 PUSH1 0xE0 SHL DUP2 MSTORE PUSH1 0x4 ADD PUSH1 0x40 MLOAD DUP1 SWAP2 SUB SWAP1 REVERT JUMPDEST JUMP JUMPDEST PUSH1 0x0 DUP1 PUSH2 0x1A15 PUSH1 0x0 DUP1 MLOAD PUSH1 0x20 PUSH2 0x2B13 DUP4 CODECOPY DUP2 MLOAD SWAP2 MSTORE SLOAD SWAP1 JUMP JUMPDEST SWAP1 POP PUSH1 0x1 PUSH1 0x1 PUSH1 0xA0 SHL SUB DUP2 AND PUSH2 0x1A34 JUMPI POP POP PUSH8 0xFFFFFFFFFFFFFFFF AND SWAP1 JUMP JUMPDEST PUSH1 0x40 MLOAD PUSH4 0xCA5CC853 PUSH1 0xE0 SHL DUP2 MSTORE PUSH8 0xFFFFFFFFFFFFFFFF DUP5 AND PUSH1 0x4 DUP3 ADD MSTORE PUSH1 0x0 SWAP1 PUSH1 0x1 PUSH1 0x1 PUSH1 0xA0 SHL SUB DUP4 AND SWAP1 PUSH4 0xCA5CC853 SWAP1 PUSH1 0x24 ADD PUSH1 0x20 PUSH1 0x40 MLOAD DUP1 DUP4 SUB DUP2 PUSH1 0x0 DUP8 GAS CALL ISZERO DUP1 ISZERO PUSH2 0x1A87 JUMPI RETURNDATASIZE PUSH1 0x0 DUP1 RETURNDATACOPY RETURNDATASIZE PUSH1 0x0 REVERT JUMPDEST POP POP POP POP PUSH1 0x40 MLOAD RETURNDATASIZE PUSH1 0x1F NOT PUSH1 0x1F DUP3 ADD AND DUP3 ADD DUP1 PUSH1 0x40 MSTORE POP DUP2 ADD SWAP1 PUSH2 0x1AAB SWAP2 SWAP1 PUSH2 0x2A4A JUMP JUMPDEST SWAP5 SWAP4 POP POP POP POP JUMP JUMPDEST PUSH1 0x0 PUSH2 0x1ACB PUSH1 0x0 DUP1 MLOAD PUSH1 0x20 PUSH2 0x2B13 DUP4 CODECOPY DUP2 MLOAD SWAP2 MSTORE SLOAD SWAP1 JUMP JUMPDEST SWAP1 POP PUSH1 0x1 PUSH1 0x1 PUSH1 0xA0 SHL SUB DUP2 AND ISZERO PUSH2 0x1B37 JUMPI PUSH1 0x40 MLOAD PUSH4 0x1816E78D PUSH1 0xE3 SHL DUP2 MSTORE PUSH1 0x4 DUP2 ADD DUP4 SWAP1 MSTORE PUSH1 0x1 PUSH1 0x1 PUSH1 0xA0 SHL SUB DUP3 AND SWAP1 PUSH4 0xC0B73C68 SWAP1 PUSH1 0x24 ADD PUSH1 0x0 PUSH1 0x40 MLOAD DUP1 DUP4 SUB DUP2 PUSH1 0x0 DUP8 DUP1 EXTCODESIZE ISZERO DUP1 ISZERO PUSH2 0x1B1E JUMPI PUSH1 0x0 DUP1 REVERT JUMPDEST POP GAS CALL ISZERO DUP1 ISZERO PUSH2 0x1B32 JUMPI RETURNDATASIZE PUSH1 0x0 DUP1 RETURNDATACOPY RETURNDATASIZE PUSH1 0x0 REVERT JUMPDEST POP POP POP POP JUMPDEST POP POP JUMP JUMPDEST PUSH1 0x0 PUSH2 0x1B53 PUSH1 0x0 DUP1 MLOAD PUSH1 0x20 PUSH2 0x2B13 DUP4 CODECOPY DUP2 MLOAD SWAP2 MSTORE SLOAD SWAP1 JUMP JUMPDEST SWAP1 POP PUSH1 0x1 PUSH1 0x1 PUSH1 0xA0 SHL SUB DUP2 AND ISZERO PUSH2 0xAC1 JUMPI PUSH1 0x40 MLOAD PUSH4 0x5CA4B5B1 PUSH1 0xE1 SHL DUP2 MSTORE PUSH1 0x4 DUP2 ADD DUP5 SWAP1 MSTORE PUSH1 0x1 PUSH1 0x1 PUSH1 0xA0 SHL SUB DUP4 DUP2 AND PUSH1 0x24 DUP4 ADD MSTORE DUP3 AND SWAP1 PUSH4 0xB9496B62 SWAP1 PUSH1 0x44 ADD PUSH1 0x0 PUSH1 0x40 MLOAD DUP1 DUP4 SUB DUP2 PUSH1 0x0 DUP8 DUP1 EXTCODESIZE ISZERO DUP1 ISZERO PUSH2 0x1BAE JUMPI PUSH1 0x0 DUP1 REVERT JUMPDEST POP GAS CALL ISZERO DUP1 ISZERO PUSH2 0x1BC2 JUMPI RETURNDATASIZE PUSH1 0x0 DUP1 RETURNDATACOPY RETURNDATASIZE PUSH1 0x0 REVERT JUMPDEST POP POP POP POP POP POP POP JUMP JUMPDEST PUSH2 0xAF8 DUP2 CALLER PUSH2 0x2448 JUMP JUMPDEST PUSH1 0x1 PUSH1 0x1 PUSH1 0xA0 SHL SUB DUP1 DUP5 AND PUSH1 0x0 SWAP1 DUP2 MSTORE PUSH1 0x3 PUSH1 0x20 SWAP1 DUP2 MSTORE PUSH1 0x40 DUP1 DUP4 KECCAK256 SWAP4 DUP7 AND DUP4 MSTORE SWAP3 SWAP1 MSTORE SWAP1 DUP2 KECCAK256 SLOAD SWAP1 PUSH2 0x1C08 DUP4 DUP4 PUSH2 0x212B JUMP JUMPDEST SWAP1 POP PUSH1 0x0 PUSH2 0x1C1B DUP3 DUP6 PUSH2 0xDC3 PUSH1 0x0 PUSH2 0x19FC JUMP JUMPDEST SWAP1 POP PUSH2 0x1C27 DUP4 DUP3 PUSH2 0x2278 JUMP JUMPDEST PUSH1 0x1 PUSH1 0x1 PUSH1 0xA0 SHL SUB DUP8 DUP2 AND PUSH1 0x0 SWAP1 DUP2 MSTORE PUSH1 0x3 PUSH1 0x20 SWAP1 DUP2 MSTORE PUSH1 0x40 DUP1 DUP4 KECCAK256 SWAP4 DUP11 AND DUP4 MSTORE SWAP3 SWAP1 MSTORE KECCAK256 DUP2 SWAP1 SSTORE PUSH2 0x1C58 SWAP1 PUSH2 0x1AB3 JUMP JUMPDEST PUSH1 0x1 PUSH1 0x1 PUSH1 0xA0 SHL SUB DUP1 DUP8 AND PUSH1 0x0 SWAP1 DUP2 MSTORE PUSH1 0x3 PUSH1 0x20 SWAP1 DUP2 MSTORE PUSH1 0x40 DUP1 DUP4 KECCAK256 SWAP4 DUP10 AND DUP4 MSTORE SWAP3 SWAP1 MSTORE KECCAK256 SLOAD PUSH2 0x1C88 SWAP1 DUP8 PUSH2 0x1B3B JUMP JUMPDEST PUSH1 0x1 PUSH1 0x1 PUSH1 0xA0 SHL SUB DUP1 DUP8 AND PUSH1 0x0 SWAP1 DUP2 MSTORE PUSH1 0x3 PUSH1 0x20 SWAP1 DUP2 MSTORE PUSH1 0x40 DUP1 DUP4 KECCAK256 SWAP4 DUP10 AND DUP4 MSTORE SWAP3 SWAP1 MSTORE KECCAK256 SLOAD PUSH2 0x1B32 SWAP1 DUP7 PUSH2 0x1B3B JUMP JUMPDEST PUSH1 0x1 PUSH1 0x1 PUSH1 0xA0 SHL SUB DUP4 AND PUSH1 0x0 SWAP1 DUP2 MSTORE PUSH1 0x2 PUSH1 0x20 MSTORE PUSH1 0x40 DUP2 KECCAK256 SLOAD PUSH2 0x1CDC SWAP1 DUP4 SWAP1 PUSH2 0x212B JUMP JUMPDEST SWAP1 POP PUSH1 0x0 PUSH2 0x1CEF DUP3 DUP5 PUSH2 0xDC3 PUSH1 0x0 PUSH2 0x19FC JUMP JUMPDEST SWAP1 POP PUSH1 0x0 DUP1 PUSH1 0x9 SLOAD GT DUP1 ISZERO PUSH2 0x1D1D JUMPI POP PUSH1 0x1 PUSH1 0x1 PUSH1 0xA0 SHL SUB DUP7 AND PUSH1 0x0 SWAP1 DUP2 MSTORE PUSH1 0xB PUSH1 0x20 MSTORE PUSH1 0x40 SWAP1 KECCAK256 SLOAD PUSH1 0xFF AND ISZERO JUMPDEST DUP1 ISZERO PUSH2 0x1D42 JUMPI POP PUSH1 0x1 PUSH1 0x1 PUSH1 0xA0 SHL SUB DUP6 AND PUSH1 0x0 SWAP1 DUP2 MSTORE PUSH1 0xB PUSH1 0x20 MSTORE PUSH1 0x40 SWAP1 KECCAK256 SLOAD PUSH1 0xFF AND ISZERO JUMPDEST DUP1 ISZERO PUSH2 0x1D58 JUMPI POP PUSH1 0xA SLOAD PUSH1 0x1 PUSH1 0x1 PUSH1 0xA0 SHL SUB AND ISZERO ISZERO JUMPDEST ISZERO PUSH2 0x1D94 JUMPI PUSH1 0x0 PUSH2 0x1D6A PUSH1 0x9 SLOAD PUSH2 0x19FC JUMP JUMPDEST SWAP1 POP PUSH1 0x0 PUSH2 0x1D78 DUP5 DUP4 PUSH2 0x2481 JUMP JUMPDEST SWAP1 POP PUSH1 0x0 PUSH2 0x1D87 PUSH2 0x2710 PUSH2 0x19FC JUMP JUMPDEST SWAP1 POP DUP5 SWAP4 POP POP POP POP PUSH2 0x1D97 JUMP JUMPDEST POP DUP1 JUMPDEST PUSH1 0x1 PUSH1 0x1 PUSH1 0xA0 SHL SUB DUP7 AND PUSH1 0x0 SWAP1 DUP2 MSTORE PUSH1 0x2 PUSH1 0x20 MSTORE PUSH1 0x40 SWAP1 KECCAK256 SLOAD PUSH2 0x1DBA SWAP1 DUP4 PUSH2 0x2278 JUMP JUMPDEST PUSH1 0x1 PUSH1 0x1 PUSH1 0xA0 SHL SUB DUP8 AND PUSH1 0x0 SWAP1 DUP2 MSTORE PUSH1 0x2 PUSH1 0x20 MSTORE PUSH1 0x40 SWAP1 KECCAK256 DUP2 SWAP1 SSTORE PUSH2 0x1DDE SWAP1 PUSH2 0x1AB3 JUMP JUMPDEST PUSH1 0x1 PUSH1 0x1 PUSH1 0xA0 SHL SUB DUP7 AND PUSH1 0x0 SWAP1 DUP2 MSTORE PUSH1 0x2 PUSH1 0x20 MSTORE PUSH1 0x40 SWAP1 KECCAK256 SLOAD PUSH2 0x1E01 SWAP1 DUP8 PUSH2 0x1B3B JUMP JUMPDEST PUSH1 0x1 PUSH1 0x1 PUSH1 0xA0 SHL SUB DUP6 AND PUSH1 0x0 SWAP1 DUP2 MSTORE PUSH1 0x2 PUSH1 0x20 MSTORE PUSH1 0x40 SWAP1 KECCAK256 SLOAD ISZERO PUSH2 0x1E60 JUMPI PUSH1 0x1 PUSH1 0x1 PUSH1 0xA0 SHL SUB DUP6 AND PUSH1 0x0 SWAP1 DUP2 MSTORE PUSH1 0x2 PUSH1 0x20 MSTORE PUSH1 0x40 SWAP1 KECCAK256 SLOAD PUSH2 0x1E42 SWAP1 DUP3 PUSH2 0x206C JUMP JUMPDEST PUSH1 0x1 PUSH1 0x1 PUSH1 0xA0 SHL SUB DUP7 AND PUSH1 0x0 SWAP1 DUP2 MSTORE PUSH1 0x2 PUSH1 0x20 MSTORE PUSH1 0x40 SWAP1 KECCAK256 SSTORE PUSH2 0x1E7C JUMP JUMPDEST PUSH1 0x1 PUSH1 0x1 PUSH1 0xA0 SHL SUB DUP6 AND PUSH1 0x0 SWAP1 DUP2 MSTORE PUSH1 0x2 PUSH1 0x20 MSTORE PUSH1 0x40 SWAP1 KECCAK256 DUP2 SWAP1 SSTORE JUMPDEST PUSH1 0x1 PUSH1 0x1 PUSH1 0xA0 SHL SUB DUP6 AND PUSH1 0x0 SWAP1 DUP2 MSTORE PUSH1 0x2 PUSH1 0x20 MSTORE PUSH1 0x40 SWAP1 KECCAK256 SLOAD PUSH2 0x1E9E SWAP1 PUSH2 0x1AB3 JUMP JUMPDEST PUSH1 0x1 PUSH1 0x1 PUSH1 0xA0 SHL SUB DUP6 AND PUSH1 0x0 SWAP1 DUP2 MSTORE PUSH1 0x2 PUSH1 0x20 MSTORE PUSH1 0x40 SWAP1 KECCAK256 SLOAD PUSH2 0x1B32 SWAP1 DUP7 PUSH2 0x1B3B JUMP JUMPDEST PUSH1 0x0 PUSH2 0x1ECD DUP4 DUP4 PUSH2 0x10EA JUMP JUMPDEST PUSH2 0x1F4B JUMPI PUSH1 0x0 DUP4 DUP2 MSTORE PUSH1 0x20 DUP2 DUP2 MSTORE PUSH1 0x40 DUP1 DUP4 KECCAK256 PUSH1 0x1 PUSH1 0x1 PUSH1 0xA0 SHL SUB DUP7 AND DUP5 MSTORE SWAP1 SWAP2 MSTORE SWAP1 KECCAK256 DUP1 SLOAD PUSH1 0xFF NOT AND PUSH1 0x1 OR SWAP1 SSTORE PUSH2 0x1F03 CALLER SWAP1 JUMP JUMPDEST PUSH1 0x1 PUSH1 0x1 PUSH1 0xA0 SHL SUB AND DUP3 PUSH1 0x1 PUSH1 0x1 PUSH1 0xA0 SHL SUB AND DUP5 PUSH32 0x2F8788117E7EFF1D82E926EC794901D17C78024A50270940304540A733656F0D PUSH1 0x40 MLOAD PUSH1 0x40 MLOAD DUP1 SWAP2 SUB SWAP1 LOG4 POP PUSH1 0x1 PUSH2 0x81A JUMP JUMPDEST POP PUSH1 0x0 PUSH2 0x81A JUMP JUMPDEST PUSH1 0x0 PUSH2 0x1F5F DUP4 DUP4 PUSH2 0x10EA JUMP JUMPDEST ISZERO PUSH2 0x1F4B JUMPI PUSH1 0x0 DUP4 DUP2 MSTORE PUSH1 0x20 DUP2 DUP2 MSTORE PUSH1 0x40 DUP1 DUP4 KECCAK256 PUSH1 0x1 PUSH1 0x1 PUSH1 0xA0 SHL SUB DUP7 AND DUP1 DUP6 MSTORE SWAP3 MSTORE DUP1 DUP4 KECCAK256 DUP1 SLOAD PUSH1 0xFF NOT AND SWAP1 SSTORE MLOAD CALLER SWAP3 DUP7 SWAP2 PUSH32 0xF6391F5C32D9C69D2A47EA670B442974B53935D1EDC7FD64EB21E047A839171B SWAP2 SWAP1 LOG4 POP PUSH1 0x1 PUSH2 0x81A JUMP JUMPDEST PUSH2 0x1FC6 PUSH2 0x24ED JUMP JUMPDEST PUSH1 0x1 DUP1 SLOAD PUSH1 0xFF NOT AND SWAP1 SSTORE PUSH32 0x5DB9EE0A495BF2E6FF9C91A7834C1BA4FDD244A5E8AA4E537BD38AEAE4B073AA CALLER JUMPDEST PUSH1 0x40 MLOAD PUSH1 0x1 PUSH1 0x1 PUSH1 0xA0 SHL SUB SWAP1 SWAP2 AND DUP2 MSTORE PUSH1 0x20 ADD PUSH1 0x40 MLOAD DUP1 SWAP2 SUB SWAP1 LOG1 JUMP JUMPDEST PUSH1 0x0 PUSH2 0x201A PUSH2 0x2383 JUMP JUMPDEST SWAP1 POP PUSH1 0x8 SLOAD DUP2 EQ PUSH2 0xAF8 JUMPI PUSH1 0x7 SLOAD PUSH1 0x40 DUP1 MLOAD DUP4 DUP2 MSTORE PUSH1 0x20 DUP2 ADD SWAP3 SWAP1 SWAP3 MSTORE PUSH32 0x3ADC352B84186F0229522A6C80C6EE84884462BE6B35023B7CD2E65ECEFBD9A3 SWAP2 ADD PUSH1 0x40 MLOAD DUP1 SWAP2 SUB SWAP1 LOG1 PUSH1 0x0 PUSH1 0x7 SSTORE PUSH1 0x8 SSTORE JUMP JUMPDEST PUSH1 0x0 DUP1 PUSH2 0x2085 PUSH1 0x0 DUP1 MLOAD PUSH1 0x20 PUSH2 0x2B13 DUP4 CODECOPY DUP2 MLOAD SWAP2 MSTORE SLOAD SWAP1 JUMP JUMPDEST SWAP1 POP PUSH1 0x1 PUSH1 0x1 PUSH1 0xA0 SHL SUB DUP2 AND PUSH2 0x20AC JUMPI DUP4 DUP4 PUSH2 0x20A1 DUP2 DUP4 PUSH2 0x29E8 JUMP JUMPDEST SWAP4 POP PUSH2 0x81A SWAP3 POP POP POP JUMP JUMPDEST PUSH1 0x40 MLOAD PUSH4 0x68EF2C95 PUSH1 0xE1 SHL DUP2 MSTORE PUSH1 0x4 DUP2 ADD DUP6 SWAP1 MSTORE PUSH1 0x24 DUP2 ADD DUP5 SWAP1 MSTORE PUSH1 0x0 SWAP1 PUSH1 0x1 PUSH1 0x1 PUSH1 0xA0 SHL SUB DUP4 AND SWAP1 PUSH4 0xD1DE592A SWAP1 PUSH1 0x44 ADD JUMPDEST PUSH1 0x20 PUSH1 0x40 MLOAD DUP1 DUP4 SUB DUP2 PUSH1 0x0 DUP8 GAS CALL ISZERO DUP1 ISZERO PUSH2 0x20FE JUMPI RETURNDATASIZE PUSH1 0x0 DUP1 RETURNDATACOPY RETURNDATASIZE PUSH1 0x0 REVERT JUMPDEST POP POP POP POP PUSH1 0x40 MLOAD RETURNDATASIZE PUSH1 0x1F NOT PUSH1 0x1F DUP3 ADD AND DUP3 ADD DUP1 PUSH1 0x40 MSTORE POP DUP2 ADD SWAP1 PUSH2 0x2122 SWAP2 SWAP1 PUSH2 0x2A4A JUMP JUMPDEST SWAP6 SWAP5 POP POP POP POP POP JUMP JUMPDEST PUSH1 0x0 DUP1 PUSH2 0x2144 PUSH1 0x0 DUP1 MLOAD PUSH1 0x20 PUSH2 0x2B13 DUP4 CODECOPY DUP2 MLOAD SWAP2 MSTORE SLOAD SWAP1 JUMP JUMPDEST SWAP1 POP PUSH1 0x1 PUSH1 0x1 PUSH1 0xA0 SHL SUB DUP2 AND PUSH2 0x2176 JUMPI DUP4 DUP4 DUP1 DUP3 GT ISZERO PUSH2 0x2165 JUMPI PUSH1 0x0 PUSH2 0x2168 JUMP JUMPDEST PUSH1 0x1 JUMPDEST PUSH1 0xFF AND SWAP4 POP PUSH2 0x81A SWAP3 POP POP POP JUMP JUMPDEST PUSH1 0x40 MLOAD PUSH4 0x4EECD99B PUSH1 0xE1 SHL DUP2 MSTORE PUSH1 0x4 DUP2 ADD DUP6 SWAP1 MSTORE PUSH1 0x24 DUP2 ADD DUP5 SWAP1 MSTORE PUSH1 0x0 SWAP1 PUSH1 0x1 PUSH1 0x1 PUSH1 0xA0 SHL SUB DUP4 AND SWAP1 PUSH4 0x9DD9B336 SWAP1 PUSH1 0x44 ADD PUSH2 0x20DF JUMP JUMPDEST PUSH1 0x0 DUP1 PUSH2 0x21C6 PUSH1 0x0 DUP1 MLOAD PUSH1 0x20 PUSH2 0x2B13 DUP4 CODECOPY DUP2 MLOAD SWAP2 MSTORE SLOAD SWAP1 JUMP JUMPDEST SWAP1 POP PUSH1 0x1 PUSH1 0x1 PUSH1 0xA0 SHL SUB DUP2 AND PUSH2 0x21F1 JUMPI DUP5 DUP1 ISZERO PUSH2 0x21E7 JUMPI DUP5 SWAP3 POP POP POP PUSH2 0xA5C JUMP JUMPDEST DUP4 SWAP3 POP POP POP PUSH2 0xA5C JUMP JUMPDEST PUSH1 0x40 MLOAD PUSH4 0x973AB10B PUSH1 0xE0 SHL DUP2 MSTORE PUSH1 0x4 DUP2 ADD DUP7 SWAP1 MSTORE PUSH1 0x24 DUP2 ADD DUP6 SWAP1 MSTORE PUSH1 0x44 DUP2 ADD DUP5 SWAP1 MSTORE PUSH1 0x0 SWAP1 PUSH1 0x1 PUSH1 0x1 PUSH1 0xA0 SHL SUB DUP4 AND SWAP1 PUSH4 0x973AB10B SWAP1 PUSH1 0x64 ADD JUMPDEST PUSH1 0x20 PUSH1 0x40 MLOAD DUP1 DUP4 SUB DUP2 PUSH1 0x0 DUP8 GAS CALL ISZERO DUP1 ISZERO PUSH2 0x224A JUMPI RETURNDATASIZE PUSH1 0x0 DUP1 RETURNDATACOPY RETURNDATASIZE PUSH1 0x0 REVERT JUMPDEST POP POP POP POP PUSH1 0x40 MLOAD RETURNDATASIZE PUSH1 0x1F NOT PUSH1 0x1F DUP3 ADD AND DUP3 ADD DUP1 PUSH1 0x40 MSTORE POP DUP2 ADD SWAP1 PUSH2 0x226E SWAP2 SWAP1 PUSH2 0x2A4A JUMP JUMPDEST SWAP7 SWAP6 POP POP POP POP POP POP JUMP JUMPDEST PUSH1 0x0 DUP1 PUSH2 0x2291 PUSH1 0x0 DUP1 MLOAD PUSH1 0x20 PUSH2 0x2B13 DUP4 CODECOPY DUP2 MLOAD SWAP2 MSTORE SLOAD SWAP1 JUMP JUMPDEST SWAP1 POP PUSH1 0x1 PUSH1 0x1 PUSH1 0xA0 SHL SUB DUP2 AND PUSH2 0x22AD JUMPI DUP4 DUP4 PUSH2 0x20A1 DUP2 DUP4 PUSH2 0x29FB JUMP JUMPDEST PUSH1 0x40 MLOAD PUSH3 0x835401 PUSH1 0xE7 SHL DUP2 MSTORE PUSH1 0x4 DUP2 ADD DUP6 SWAP1 MSTORE PUSH1 0x24 DUP2 ADD DUP5 SWAP1 MSTORE PUSH1 0x0 SWAP1 PUSH1 0x1 PUSH1 0x1 PUSH1 0xA0 SHL SUB DUP4 AND SWAP1 PUSH4 0x41AA0080 SWAP1 PUSH1 0x44 ADD PUSH2 0x20DF JUMP JUMPDEST PUSH1 0x0 DUP1 PUSH2 0x22FC PUSH1 0x0 DUP1 MLOAD PUSH1 0x20 PUSH2 0x2B13 DUP4 CODECOPY DUP2 MLOAD SWAP2 MSTORE SLOAD SWAP1 JUMP JUMPDEST SWAP1 POP PUSH1 0x1 PUSH1 0x1 PUSH1 0xA0 SHL SUB DUP2 AND PUSH2 0x2315 JUMPI DUP5 SWAP2 POP POP PUSH2 0xA5C JUMP JUMPDEST PUSH1 0x40 MLOAD PUSH4 0x69BE0EF9 PUSH1 0xE0 SHL DUP2 MSTORE PUSH1 0x0 SWAP1 PUSH1 0x1 PUSH1 0x1 PUSH1 0xA0 SHL SUB DUP4 AND SWAP1 PUSH4 0x69BE0EF9 SWAP1 PUSH2 0x222B SWAP1 DUP10 SWAP1 DUP10 SWAP1 DUP10 SWAP1 PUSH1 0x4 ADD PUSH2 0x2A63 JUMP JUMPDEST PUSH2 0x2350 PUSH2 0x19D6 JUMP JUMPDEST PUSH1 0x1 DUP1 SLOAD PUSH1 0xFF NOT AND DUP2 OR SWAP1 SSTORE PUSH32 0x62E78CEA01BEE320CD4E420270B5EA74000D11B0C9F74754EBDBFC544B05A258 CALLER PUSH2 0x1FF3 JUMP JUMPDEST PUSH1 0x0 PUSH2 0x1125 PUSH3 0x15180 TIMESTAMP PUSH2 0x2A99 JUMP JUMPDEST PUSH1 0x0 PUSH2 0x239D DUP6 PUSH2 0x2510 JUMP JUMPDEST PUSH1 0x40 DUP1 MLOAD PUSH1 0x0 DUP1 DUP3 MSTORE PUSH1 0x20 DUP3 ADD DUP1 DUP5 MSTORE DUP5 SWAP1 MSTORE PUSH1 0xFF DUP9 AND SWAP3 DUP3 ADD SWAP3 SWAP1 SWAP3 MSTORE PUSH1 0x60 DUP2 ADD DUP7 SWAP1 MSTORE PUSH1 0x80 DUP2 ADD DUP6 SWAP1 MSTORE SWAP2 SWAP3 POP SWAP1 PUSH1 0x1 SWAP1 PUSH1 0xA0 ADD PUSH1 0x20 PUSH1 0x40 MLOAD PUSH1 0x20 DUP2 SUB SWAP1 DUP1 DUP5 SUB SWAP1 DUP6 GAS STATICCALL ISZERO DUP1 ISZERO PUSH2 0x23F5 JUMPI RETURNDATASIZE PUSH1 0x0 DUP1 RETURNDATACOPY RETURNDATASIZE PUSH1 0x0 REVERT JUMPDEST POP POP PUSH1 0x40 MLOAD PUSH1 0x1F NOT ADD MLOAD SWAP2 POP POP PUSH1 0x1 PUSH1 0x1 PUSH1 0xA0 SHL SUB DUP2 AND ISZERO DUP1 PUSH2 0x242A JUMPI POP DUP7 PUSH1 0x1 PUSH1 0x1 PUSH1 0xA0 SHL SUB AND DUP2 PUSH1 0x1 PUSH1 0x1 PUSH1 0xA0 SHL SUB AND EQ ISZERO JUMPDEST ISZERO PUSH2 0x1BC2 JUMPI PUSH1 0x40 MLOAD PUSH4 0x8BAA579F PUSH1 0xE0 SHL DUP2 MSTORE PUSH1 0x4 ADD PUSH1 0x40 MLOAD DUP1 SWAP2 SUB SWAP1 REVERT JUMPDEST PUSH2 0x2452 DUP3 DUP3 PUSH2 0x10EA JUMP JUMPDEST PUSH2 0x1B37 JUMPI PUSH1 0x40 MLOAD PUSH4 0xE2517D3F PUSH1 0xE0 SHL DUP2 MSTORE PUSH1 0x1 PUSH1 0x1 PUSH1 0xA0 SHL SUB DUP3 AND PUSH1 0x4 DUP3 ADD MSTORE PUSH1 0x24 DUP2 ADD DUP4 SWAP1 MSTORE PUSH1 0x44 ADD PUSH2 0x990 JUMP JUMPDEST PUSH1 0x0 DUP1 PUSH2 0x249A PUSH1 0x0 DUP1 MLOAD PUSH1 0x20 PUSH2 0x2B13 DUP4 CODECOPY DUP2 MLOAD SWAP2 MSTORE SLOAD SWAP1 JUMP JUMPDEST SWAP1 POP PUSH1 0x1 PUSH1 0x1 PUSH1 0xA0 SHL SUB DUP2 AND PUSH2 0x24B6 JUMPI DUP4 DUP4 PUSH2 0x20A1 DUP2 DUP4 PUSH2 0x2ABB JUMP JUMPDEST PUSH1 0x40 MLOAD PUSH4 0x96CE1EC7 PUSH1 0xE0 SHL DUP2 MSTORE PUSH1 0x4 DUP2 ADD DUP6 SWAP1 MSTORE PUSH1 0x24 DUP2 ADD DUP5 SWAP1 MSTORE PUSH1 0x0 SWAP1 PUSH1 0x1 PUSH1 0x1 PUSH1 0xA0 SHL SUB DUP4 AND SWAP1 PUSH4 0x96CE1EC7 SWAP1 PUSH1 0x44 ADD PUSH2 0x20DF JUMP JUMPDEST PUSH1 0x1 SLOAD PUSH1 0xFF AND PUSH2 0x19FA JUMPI PUSH1 0x40 MLOAD PUSH4 0x8DFC202B PUSH1 0xE0 SHL DUP2 MSTORE PUSH1 0x4 ADD PUSH1 0x40 MLOAD DUP1 SWAP2 SUB SWAP1 REVERT JUMPDEST PUSH1 0x0 PUSH2 0x25F9 PUSH1 0x40 DUP1 MLOAD DUP1 DUP3 ADD DUP3 MSTORE PUSH1 0x1E DUP2 MSTORE PUSH32 0x436F6E666964656E7469616C2050726F746F636F6C2042616E6B205553440000 PUSH1 0x20 SWAP2 DUP3 ADD MSTORE DUP2 MLOAD DUP1 DUP4 ADD DUP4 MSTORE PUSH1 0x1 DUP2 MSTORE PUSH1 0x31 PUSH1 0xF8 SHL SWAP1 DUP3 ADD MSTORE DUP2 MLOAD PUSH32 0x8B73C3C69BB8FE3D512ECC4CF759CC79239F7B179B0FFACAA9A75D522B39400F DUP2 DUP4 ADD MSTORE PUSH32 0x1ED45EC96AAA22344331625C64FFF35BE8EC39E02D5E5EA06A07C6DC29118A68 DUP2 DUP5 ADD MSTORE PUSH32 0xC89EFDAA54C0F20C7ADF612882DF0950F5A951637E0307CDCB4C672F298B8BC6 PUSH1 0x60 DUP3 ADD MSTORE CHAINID PUSH1 0x80 DUP3 ADD MSTORE ADDRESS PUSH1 0xA0 DUP1 DUP4 ADD SWAP2 SWAP1 SWAP2 MSTORE DUP4 MLOAD DUP1 DUP4 SUB SWAP1 SWAP2 ADD DUP2 MSTORE PUSH1 0xC0 SWAP1 SWAP2 ADD SWAP1 SWAP3 MSTORE DUP2 MLOAD SWAP2 ADD KECCAK256 SWAP1 JUMP JUMPDEST PUSH1 0x40 MLOAD PUSH2 0x1901 PUSH1 0xF0 SHL PUSH1 0x20 DUP3 ADD MSTORE PUSH1 0x22 DUP2 ADD SWAP2 SWAP1 SWAP2 MSTORE PUSH1 0x42 DUP2 ADD DUP4 SWAP1 MSTORE PUSH1 0x62 ADD PUSH1 0x40 MLOAD PUSH1 0x20 DUP2 DUP4 SUB SUB DUP2 MSTORE SWAP1 PUSH1 0x40 MSTORE DUP1 MLOAD SWAP1 PUSH1 0x20 ADD KECCAK256 SWAP1 POP SWAP2 SWAP1 POP JUMP JUMPDEST PUSH1 0x0 PUSH1 0x20 DUP3 DUP5 SUB SLT ISZERO PUSH2 0x2648 JUMPI PUSH1 0x0 DUP1 REVERT JUMPDEST DUP2 CALLDATALOAD PUSH1 0x1 PUSH1 0x1 PUSH1 0xE0 SHL SUB NOT DUP2 AND DUP2 EQ PUSH2 0xA5C JUMPI PUSH1 0x0 DUP1 REVERT JUMPDEST PUSH1 0x0 PUSH1 0x20 DUP1 DUP4 MSTORE DUP4 MLOAD DUP1 DUP3 DUP6 ADD MSTORE PUSH1 0x0 JUMPDEST DUP2 DUP2 LT ISZERO PUSH2 0x268D JUMPI DUP6 DUP2 ADD DUP4 ADD MLOAD DUP6 DUP3 ADD PUSH1 0x40 ADD MSTORE DUP3 ADD PUSH2 0x2671 JUMP JUMPDEST POP PUSH1 0x0 PUSH1 0x40 DUP3 DUP7 ADD ADD MSTORE PUSH1 0x40 PUSH1 0x1F NOT PUSH1 0x1F DUP4 ADD AND DUP6 ADD ADD SWAP3 POP POP POP SWAP3 SWAP2 POP POP JUMP JUMPDEST DUP1 CALLDATALOAD PUSH1 0x1 PUSH1 0x1 PUSH1 0xA0 SHL SUB DUP2 AND DUP2 EQ PUSH2 0x26C5 JUMPI PUSH1 0x0 DUP1 REVERT JUMPDEST SWAP2 SWAP1 POP JUMP JUMPDEST PUSH1 0x0 DUP1 PUSH1 0x40 DUP4 DUP6 SUB SLT ISZERO PUSH2 0x26DD JUMPI PUSH1 0x0 DUP1 REVERT JUMPDEST PUSH2 0x26E6 DUP4 PUSH2 0x26AE JUMP JUMPDEST SWAP5 PUSH1 0x20 SWAP4 SWAP1 SWAP4 ADD CALLDATALOAD SWAP4 POP POP POP JUMP JUMPDEST PUSH1 0x0 DUP1 PUSH1 0x40 DUP4 DUP6 SUB SLT ISZERO PUSH2 0x2707 JUMPI PUSH1 0x0 DUP1 REVERT JUMPDEST PUSH2 0x2710 DUP4 PUSH2 0x26AE JUMP JUMPDEST SWAP2 POP PUSH1 0x20 DUP4 ADD CALLDATALOAD DUP1 ISZERO ISZERO DUP2 EQ PUSH2 0x2725 JUMPI PUSH1 0x0 DUP1 REVERT JUMPDEST DUP1 SWAP2 POP POP SWAP3 POP SWAP3 SWAP1 POP JUMP JUMPDEST PUSH1 0x0 DUP1 PUSH1 0x0 PUSH1 0x60 DUP5 DUP7 SUB SLT ISZERO PUSH2 0x2745 JUMPI PUSH1 0x0 DUP1 REVERT JUMPDEST PUSH2 0x274E DUP5 PUSH2 0x26AE JUMP JUMPDEST SWAP3 POP PUSH2 0x275C PUSH1 0x20 DUP6 ADD PUSH2 0x26AE JUMP JUMPDEST SWAP2 POP PUSH1 0x40 DUP5 ADD CALLDATALOAD SWAP1 POP SWAP3 POP SWAP3 POP SWAP3 JUMP JUMPDEST PUSH1 0x0 PUSH1 0x20 DUP3 DUP5 SUB SLT ISZERO PUSH2 0x277E JUMPI PUSH1 0x0 DUP1 REVERT JUMPDEST POP CALLDATALOAD SWAP2 SWAP1 POP JUMP JUMPDEST PUSH1 0x0 DUP1 PUSH1 0x40 DUP4 DUP6 SUB SLT ISZERO PUSH2 0x2798 JUMPI PUSH1 0x0 DUP1 REVERT JUMPDEST DUP3 CALLDATALOAD SWAP2 POP PUSH2 0x27A8 PUSH1 0x20 DUP5 ADD PUSH2 0x26AE JUMP JUMPDEST SWAP1 POP SWAP3 POP SWAP3 SWAP1 POP JUMP JUMPDEST PUSH1 0x0 PUSH1 0x20 DUP3 DUP5 SUB SLT ISZERO PUSH2 0x27C3 JUMPI PUSH1 0x0 DUP1 REVERT JUMPDEST PUSH2 0xA5C DUP3 PUSH2 0x26AE JUMP JUMPDEST PUSH1 0x0 DUP1 DUP4 PUSH1 0x1F DUP5 ADD SLT PUSH2 0x27DE JUMPI PUSH1 0x0 DUP1 REVERT JUMPDEST POP DUP2 CALLDATALOAD PUSH8 0xFFFFFFFFFFFFFFFF DUP2 GT ISZERO PUSH2 0x27F6 JUMPI PUSH1 0x0 DUP1 REVERT JUMPDEST PUSH1 0x20 DUP4 ADD SWAP2 POP DUP4 PUSH1 0x20 DUP3 DUP6 ADD ADD GT ISZERO PUSH2 0x280E JUMPI PUSH1 0x0 DUP1 REVERT JUMPDEST SWAP3 POP SWAP3 SWAP1 POP JUMP JUMPDEST PUSH1 0x0 DUP1 PUSH1 0x0 DUP1 PUSH1 0x60 DUP6 DUP8 SUB SLT ISZERO PUSH2 0x282B JUMPI PUSH1 0x0 DUP1 REVERT JUMPDEST PUSH2 0x2834 DUP6 PUSH2 0x26AE JUMP JUMPDEST SWAP4 POP PUSH1 0x20 DUP6 ADD CALLDATALOAD SWAP3 POP PUSH1 0x40 DUP6 ADD CALLDATALOAD PUSH8 0xFFFFFFFFFFFFFFFF DUP2 GT ISZERO PUSH2 0x2857 JUMPI PUSH1 0x0 DUP1 REVERT JUMPDEST PUSH2 0x2863 DUP8 DUP3 DUP9 ADD PUSH2 0x27CC JUMP JUMPDEST SWAP6 SWAP9 SWAP5 SWAP8 POP SWAP6 POP POP POP POP JUMP JUMPDEST PUSH1 0x0 DUP1 PUSH1 0x0 DUP1 PUSH1 0x0 PUSH1 0x80 DUP7 DUP9 SUB SLT ISZERO PUSH2 0x2887 JUMPI PUSH1 0x0 DUP1 REVERT JUMPDEST PUSH2 0x2890 DUP7 PUSH2 0x26AE JUMP JUMPDEST SWAP5 POP PUSH2 0x289E PUSH1 0x20 DUP8 ADD PUSH2 0x26AE JUMP JUMPDEST SWAP4 POP PUSH1 0x40 DUP7 ADD CALLDATALOAD SWAP3 POP PUSH1 0x60 DUP7 ADD CALLDATALOAD PUSH8 0xFFFFFFFFFFFFFFFF DUP2 GT ISZERO PUSH2 0x28C1 JUMPI PUSH1 0x0 DUP1 REVERT JUMPDEST PUSH2 0x28CD DUP9 DUP3 DUP10 ADD PUSH2 0x27CC JUMP JUMPDEST SWAP7 SWAP10 SWAP6 SWAP9 POP SWAP4 SWAP7 POP SWAP3 SWAP5 SWAP4 SWAP3 POP POP POP JUMP JUMPDEST DUP1 CALLDATALOAD PUSH1 0xFF DUP2 AND DUP2 EQ PUSH2 0x26C5 JUMPI PUSH1 0x0 DUP1 REVERT JUMPDEST PUSH1 0x0 DUP1 PUSH1 0x0 DUP1 PUSH1 0x80 DUP6 DUP8 SUB SLT ISZERO PUSH2 0x2905 JUMPI PUSH1 0x0 DUP1 REVERT JUMPDEST DUP5 CALLDATALOAD SWAP4 POP PUSH2 0x2915 PUSH1 0x20 DUP7 ADD PUSH2 0x28DE JUMP JUMPDEST SWAP4 SWAP7 SWAP4 SWAP6 POP POP POP POP PUSH1 0x40 DUP3 ADD CALLDATALOAD SWAP2 PUSH1 0x60 ADD CALLDATALOAD SWAP1 JUMP JUMPDEST PUSH1 0x0 DUP1 PUSH1 0x40 DUP4 DUP6 SUB SLT ISZERO PUSH2 0x293D JUMPI PUSH1 0x0 DUP1 REVERT JUMPDEST PUSH2 0x2946 DUP4 PUSH2 0x26AE JUMP JUMPDEST SWAP2 POP PUSH2 0x27A8 PUSH1 0x20 DUP5 ADD PUSH2 0x26AE JUMP JUMPDEST PUSH1 0x0 DUP1 PUSH1 0x0 DUP1 PUSH1 0x0 DUP1 PUSH1 0x0 DUP1 PUSH1 0x0 PUSH2 0x120 DUP11 DUP13 SUB SLT ISZERO PUSH2 0x2973 JUMPI PUSH1 0x0 DUP1 REVERT JUMPDEST PUSH2 0x297C DUP11 PUSH2 0x26AE JUMP JUMPDEST SWAP9 POP PUSH2 0x298A PUSH1 0x20 DUP12 ADD PUSH2 0x26AE JUMP JUMPDEST SWAP8 POP PUSH1 0x40 DUP11 ADD CALLDATALOAD SWAP7 POP PUSH1 0x60 DUP11 ADD CALLDATALOAD SWAP6 POP PUSH1 0x80 DUP11 ADD CALLDATALOAD SWAP5 POP PUSH1 0xA0 DUP11 ADD CALLDATALOAD SWAP4 POP PUSH2 0x29B4 PUSH1 0xC0 DUP12 ADD PUSH2 0x28DE JUMP JUMPDEST SWAP3 POP PUSH1 0xE0 DUP11 ADD CALLDATALOAD SWAP2 POP PUSH2 0x100 DUP11 ADD CALLDATALOAD SWAP1 POP SWAP3 SWAP6 SWAP9 POP SWAP3 SWAP6 SWAP9 POP SWAP3 SWAP6 SWAP9 JUMP JUMPDEST PUSH4 0x4E487B71 PUSH1 0xE0 SHL PUSH1 0x0 MSTORE PUSH1 0x11 PUSH1 0x4 MSTORE PUSH1 0x24 PUSH1 0x0 REVERT JUMPDEST DUP1 DUP3 ADD DUP1 DUP3 GT ISZERO PUSH2 0x81A JUMPI PUSH2 0x81A PUSH2 0x29D2 JUMP JUMPDEST DUP2 DUP2 SUB DUP2 DUP2 GT ISZERO PUSH2 0x81A JUMPI PUSH2 0x81A PUSH2 0x29D2 JUMP JUMPDEST SWAP7 DUP8 MSTORE PUSH1 0x1 PUSH1 0x1 PUSH1 0xA0 SHL SUB SWAP6 DUP7 AND PUSH1 0x20 DUP9 ADD MSTORE SWAP4 SWAP1 SWAP5 AND PUSH1 0x40 DUP7 ADD MSTORE PUSH1 0x60 DUP6 ADD SWAP2 SWAP1 SWAP2 MSTORE PUSH1 0x80 DUP5 ADD MSTORE PUSH1 0xA0 DUP4 ADD SWAP2 SWAP1 SWAP2 MSTORE PUSH1 0xC0 DUP3 ADD MSTORE PUSH1 0xE0 ADD SWAP1 JUMP JUMPDEST PUSH1 0x0 PUSH1 0x20 DUP3 DUP5 SUB SLT ISZERO PUSH2 0x2A5C JUMPI PUSH1 0x0 DUP1 REVERT JUMPDEST POP MLOAD SWAP2 SWAP1 POP JUMP JUMPDEST DUP4 DUP2 MSTORE PUSH1 0x40 PUSH1 0x20 DUP3 ADD MSTORE DUP2 PUSH1 0x40 DUP3 ADD MSTORE DUP2 DUP4 PUSH1 0x60 DUP4 ADD CALLDATACOPY PUSH1 0x0 DUP2 DUP4 ADD PUSH1 0x60 SWAP1 DUP2 ADD SWAP2 SWAP1 SWAP2 MSTORE PUSH1 0x1F SWAP1 SWAP3 ADD PUSH1 0x1F NOT AND ADD ADD SWAP3 SWAP2 POP POP JUMP JUMPDEST PUSH1 0x0 DUP3 PUSH2 0x2AB6 JUMPI PUSH4 0x4E487B71 PUSH1 0xE0 SHL PUSH1 0x0 MSTORE PUSH1 0x12 PUSH1 0x4 MSTORE PUSH1 0x24 PUSH1 0x0 REVERT JUMPDEST POP DIV SWAP1 JUMP JUMPDEST DUP1 DUP3 MUL DUP2 ISZERO DUP3 DUP3 DIV DUP5 EQ OR PUSH2 0x81A JUMPI PUSH2 0x81A PUSH2 0x29D2 JUMP INVALID PUSH22 0xF412A499B41F8E80914AE262C37B5CBE8B4301CF1036 ORIGIN BASEFEE PUSH19 0x310AF4AB2AED6C0757DC3E6B28B2580C03FD9E SWAP7 0xC2 PUSH21 0xACF4F99D91FBEC9B418FA1D70604FF1C2213E27A69 PUSH3 0x589BD 0xC2 ORIGIN DUP14 0xF8 DELEGATECALL 0xC3 LOG2 DUP4 SWAP14 CODECOPY CALLVALUE CODESIZE BALANCE DUP7 OR 0xD3 RETURNDATASIZE SWAP14 ADDRESS 0xE DUP5 ORIGIN EXTCODESIZE LOG2 PUSH5 0x6970667358 0x22 SLT KECCAK256 0xBF MSTORE 0x2E SWAP11 SAR 0xE0 0xFC MSIZE 0x2D LOG1 0xBC SWAP1 0x26 0xAA SUB PUSH29 0xD9F85910078A24854C8101428871A2AC64736F6C634300081400330000 "},"methodIdentifiers":{"CANCEL_AUTHORIZATION_TYPEHASH()":"d9169487","COMPLIANCE_ROLE()":"062d3bd7","DEFAULT_ADMIN_ROLE()":"a217fddf","FEE_MANAGER_ROLE()":"05db2f41","MAX_FEE_BPS()":"d55be8c6","MINTER_ROLE()":"d5391393","PAUSER_ROLE()":"e63ab1e9","RECEIVE_WITH_AUTHORIZATION_TYPEHASH()":"7f2eecc3","TRANSFER_WITH_AUTHORIZATION_TYPEHASH()":"a0cc6a68","allowance(address,address)":"dd62ed3e","approve(address,bytes32,bytes)":"b32c1001","approve(address,uint256)":"095ea7b3","authorizationState(address,bytes32)":"e94a0102","balanceOf(address)":"70a08231","burnAndRedeem(uint256,address)":"48b8691c","cancelAuthorization(bytes32,uint8,bytes32,bytes32)":"d87a2993","circulatingSupply()":"9358928b","currentDayMinted()":"fb83a664","dailyMintCap()":"2832bcb5","decimals()":"313ce567","feeCollector()":"c415b95c","getRoleAdmin(bytes32)":"248a9ca3","grantRole(bytes32,address)":"2f2ff15d","hasRole(bytes32,address)":"91d14854","isBlacklisted(address)":"fe575a87","isFeeExempt(address)":"3f4218e0","lastMintResetDay()":"9de8d982","mint(address,uint256)":"40c10f19","name()":"06fdde03","pause()":"8456cb59","paused()":"5c975abb","receiveWithAuthorization(address,address,uint256,uint256,uint256,bytes32,uint8,bytes32,bytes32)":"ef55bec6","remainingDailyMint()":"c8be015e","renounceRole(bytes32,address)":"36568abe","revokeRole(bytes32,address)":"d547741f","setBlacklist(address,bool)":"153b0d1e","setDailyMintCap(uint256)":"b780595b","setFeeCollector(address)":"a42dce80","setFeeExempt(address,bool)":"8ebfc796","setTransferFee(uint256)":"8f02bb5b","supportsInterface(bytes4)":"01ffc9a7","symbol()":"95d89b41","totalBurned()":"d89135cd","totalMinted()":"a2309ff8","totalSupply()":"18160ddd","transfer(address,bytes32,bytes)":"7b7e0a5a","transfer(address,uint256)":"a9059cbb","transferFeeBps()":"5de78d7a","transferFrom(address,address,bytes32,bytes)":"9a094352","transferFrom(address,address,uint256)":"23b872dd","transferWithAuthorization(address,address,uint256,uint256,uint256,bytes32,uint8,bytes32,bytes32)":"e3ee160e","unpause()":"3f4ba83a"}}}}}