{"contracts/ProtocolBankUSD.sol":{"ProtocolBankUSD":{"abi":[{"inputs":[{"internalType":"address","name":"defaultAdmin","type":"address"},{"internalType":"address","name":"minter","type":"address"},{"internalType":"address","name":"pauser","type":"address"},{"internalType":"address","name":"compliance","type":"address"},{"internalType":"uint256","name":"_dailyMintCap","type":"uint256"}],"stateMutability":"nonpayable","type":"constructor"},{"inputs":[],"name":"AccessControlBadConfirmation","type":"error"},{"inputs":[{"internalType":"address","name":"account","type":"address"},{"internalType":"bytes32","name":"neededRole","type":"bytes32"}],"name":"AccessControlUnauthorizedAccount","type":"error"},{"inputs":[{"internalType":"address","name":"authorizer","type":"address"},{"internalType":"bytes32","name":"nonce","type":"bytes32"}],"name":"AuthorizationAlreadyUsed","type":"error"},{"inputs":[{"internalType":"uint256","name":"deadline","type":"uint256"}],"name":"AuthorizationExpired","type":"error"},{"inputs":[],"name":"CallerNotPayee","type":"error"},{"inputs":[{"internalType":"uint256","name":"requested","type":"uint256"},{"internalType":"uint256","name":"remaining","type":"uint256"}],"name":"DailyMintCapExceeded","type":"error"},{"inputs":[],"name":"ECDSAInvalidSignature","type":"error"},{"inputs":[{"internalType":"uint256","name":"length","type":"uint256"}],"name":"ECDSAInvalidSignatureLength","type":"error"},{"inputs":[{"internalType":"bytes32","name":"s","type":"bytes32"}],"name":"ECDSAInvalidSignatureS","type":"error"},{"inputs":[{"internalType":"address","name":"spender","type":"address"},{"internalType":"uint256","name":"allowance","type":"uint256"},{"internalType":"uint256","name":"needed","type":"uint256"}],"name":"ERC20InsufficientAllowance","type":"error"},{"inputs":[{"internalType":"address","name":"sender","type":"address"},{"internalType":"uint256","name":"balance","type":"uint256"},{"internalType":"uint256","name":"needed","type":"uint256"}],"name":"ERC20InsufficientBalance","type":"error"},{"inputs":[{"internalType":"address","name":"approver","type":"address"}],"name":"ERC20InvalidApprover","type":"error"},{"inputs":[{"internalType":"address","name":"receiver","type":"address"}],"name":"ERC20InvalidReceiver","type":"error"},{"inputs":[{"internalType":"address","name":"sender","type":"address"}],"name":"ERC20InvalidSender","type":"error"},{"inputs":[{"internalType":"address","name":"spender","type":"address"}],"name":"ERC20InvalidSpender","type":"error"},{"inputs":[{"internalType":"uint256","name":"deadline","type":"uint256"}],"name":"ERC2612ExpiredSignature","type":"error"},{"inputs":[{"internalType":"address","name":"signer","type":"address"},{"internalType":"address","name":"owner","type":"address"}],"name":"ERC2612InvalidSigner","type":"error"},{"inputs":[],"name":"EnforcedPause","type":"error"},{"inputs":[],"name":"ExpectedPause","type":"error"},{"inputs":[{"internalType":"uint256","name":"requested","type":"uint256"},{"internalType":"uint256","name":"max","type":"uint256"}],"name":"FeeTooHigh","type":"error"},{"inputs":[{"internalType":"address","name":"account","type":"address"},{"internalType":"uint256","name":"currentNonce","type":"uint256"}],"name":"InvalidAccountNonce","type":"error"},{"inputs":[],"name":"InvalidAmount","type":"error"},{"inputs":[],"name":"InvalidFeeCollector","type":"error"},{"inputs":[],"name":"InvalidMintCap","type":"error"},{"inputs":[],"name":"InvalidRecipient","type":"error"},{"inputs":[],"name":"InvalidShortString","type":"error"},{"inputs":[],"name":"InvalidSignature","type":"error"},{"inputs":[{"internalType":"address","name":"account","type":"address"}],"name":"RecipientBlacklisted","type":"error"},{"inputs":[{"internalType":"address","name":"account","type":"address"}],"name":"SenderBlacklisted","type":"error"},{"inputs":[{"internalType":"string","name":"str","type":"string"}],"name":"StringTooLong","type":"error"},{"anonymous":false,"inputs":[{"indexed":true,"internalType":"address","name":"owner","type":"address"},{"indexed":true,"internalType":"address","name":"spender","type":"address"},{"indexed":false,"internalType":"uint256","name":"value","type":"uint256"}],"name":"Approval","type":"event"},{"anonymous":false,"inputs":[{"indexed":true,"internalType":"address","name":"authorizer","type":"address"},{"indexed":true,"internalType":"bytes32","name":"nonce","type":"bytes32"}],"name":"AuthorizationCanceled","type":"event"},{"anonymous":false,"inputs":[{"indexed":true,"internalType":"address","name":"authorizer","type":"address"},{"indexed":true,"internalType":"bytes32","name":"nonce","type":"bytes32"}],"name":"AuthorizationUsed","type":"event"},{"anonymous":false,"inputs":[{"indexed":true,"internalType":"address","name":"account","type":"address"},{"indexed":false,"internalType":"bool","name":"isBlacklisted","type":"bool"}],"name":"BlacklistUpdated","type":"event"},{"anonymous":false,"inputs":[{"indexed":false,"internalType":"uint256","name":"oldCap","type":"uint256"},{"indexed":false,"internalType":"uint256","name":"newCap","type":"uint256"}],"name":"DailyMintCapUpdated","type":"event"},{"anonymous":false,"inputs":[],"name":"EIP712DomainChanged","type":"event"},{"anonymous":false,"inputs":[{"indexed":true,"internalType":"address","name":"from","type":"address"},{"indexed":true,"internalType":"address","name":"to","type":"address"},{"indexed":false,"internalType":"uint256","name":"feeAmount","type":"uint256"}],"name":"FeeCollected","type":"event"},{"anonymous":false,"inputs":[{"indexed":false,"internalType":"address","name":"oldCollector","type":"address"},{"indexed":false,"internalType":"address","name":"newCollector","type":"address"}],"name":"FeeCollectorUpdated","type":"event"},{"anonymous":false,"inputs":[{"indexed":true,"internalType":"address","name":"account","type":"address"},{"indexed":false,"internalType":"bool","name":"exempt","type":"bool"}],"name":"FeeExemptUpdated","type":"event"},{"anonymous":false,"inputs":[{"indexed":false,"internalType":"uint256","name":"day","type":"uint256"},{"indexed":false,"internalType":"uint256","name":"previousDayTotal","type":"uint256"}],"name":"MintCapReset","type":"event"},{"anonymous":false,"inputs":[{"indexed":false,"internalType":"address","name":"account","type":"address"}],"name":"Paused","type":"event"},{"anonymous":false,"inputs":[{"indexed":true,"internalType":"address","name":"burner","type":"address"},{"indexed":false,"internalType":"uint256","name":"amount","type":"uint256"},{"indexed":true,"internalType":"address","name":"baseRecipient","type":"address"},{"indexed":false,"internalType":"uint256","name":"timestamp","type":"uint256"}],"name":"RedeemRequested","type":"event"},{"anonymous":false,"inputs":[{"indexed":true,"internalType":"bytes32","name":"role","type":"bytes32"},{"indexed":true,"internalType":"bytes32","name":"previousAdminRole","type":"bytes32"},{"indexed":true,"internalType":"bytes32","name":"newAdminRole","type":"bytes32"}],"name":"RoleAdminChanged","type":"event"},{"anonymous":false,"inputs":[{"indexed":true,"internalType":"bytes32","name":"role","type":"bytes32"},{"indexed":true,"internalType":"address","name":"account","type":"address"},{"indexed":true,"internalType":"address","name":"sender","type":"address"}],"name":"RoleGranted","type":"event"},{"anonymous":false,"inputs":[{"indexed":true,"internalType":"bytes32","name":"role","type":"bytes32"},{"indexed":true,"internalType":"address","name":"account","type":"address"},{"indexed":true,"internalType":"address","name":"sender","type":"address"}],"name":"RoleRevoked","type":"event"},{"anonymous":false,"inputs":[{"indexed":true,"internalType":"address","name":"from","type":"address"},{"indexed":true,"internalType":"address","name":"to","type":"address"},{"indexed":false,"internalType":"uint256","name":"value","type":"uint256"}],"name":"Transfer","type":"event"},{"anonymous":false,"inputs":[{"indexed":false,"internalType":"uint256","name":"oldFeeBps","type":"uint256"},{"indexed":false,"internalType":"uint256","name":"newFeeBps","type":"uint256"}],"name":"TransferFeeUpdated","type":"event"},{"anonymous":false,"inputs":[{"indexed":false,"internalType":"address","name":"account","type":"address"}],"name":"Unpaused","type":"event"},{"inputs":[],"name":"CANCEL_AUTHORIZATION_TYPEHASH","outputs":[{"internalType":"bytes32","name":"","type":"bytes32"}],"stateMutability":"view","type":"function"},{"inputs":[],"name":"COMPLIANCE_ROLE","outputs":[{"internalType":"bytes32","name":"","type":"bytes32"}],"stateMutability":"view","type":"function"},{"inputs":[],"name":"DEFAULT_ADMIN_ROLE","outputs":[{"internalType":"bytes32","name":"","type":"bytes32"}],"stateMutability":"view","type":"function"},{"inputs":[],"name":"DOMAIN_SEPARATOR","outputs":[{"internalType":"bytes32","name":"","type":"bytes32"}],"stateMutability":"view","type":"function"},{"inputs":[],"name":"FEE_MANAGER_ROLE","outputs":[{"internalType":"bytes32","name":"","type":"bytes32"}],"stateMutability":"view","type":"function"},{"inputs":[],"name":"MAX_FEE_BPS","outputs":[{"internalType":"uint256","name":"","type":"uint256"}],"stateMutability":"view","type":"function"},{"inputs":[],"name":"MINTER_ROLE","outputs":[{"internalType":"bytes32","name":"","type":"bytes32"}],"stateMutability":"view","type":"function"},{"inputs":[],"name":"PAUSER_ROLE","outputs":[{"internalType":"bytes32","name":"","type":"bytes32"}],"stateMutability":"view","type":"function"},{"inputs":[],"name":"RECEIVE_WITH_AUTHORIZATION_TYPEHASH","outputs":[{"internalType":"bytes32","name":"","type":"bytes32"}],"stateMutability":"view","type":"function"},{"inputs":[],"name":"TRANSFER_WITH_AUTHORIZATION_TYPEHASH","outputs":[{"internalType":"bytes32","name":"","type":"bytes32"}],"stateMutability":"view","type":"function"},{"inputs":[{"internalType":"address","name":"owner","type":"address"},{"internalType":"address","name":"spender","type":"address"}],"name":"allowance","outputs":[{"internalType":"uint256","name":"","type":"uint256"}],"stateMutability":"view","type":"function"},{"inputs":[{"internalType":"address","name":"spender","type":"address"},{"internalType":"uint256","name":"value","type":"uint256"}],"name":"approve","outputs":[{"internalType":"bool","name":"","type":"bool"}],"stateMutability":"nonpayable","type":"function"},{"inputs":[{"internalType":"address","name":"","type":"address"},{"internalType":"bytes32","name":"","type":"bytes32"}],"name":"authorizationState","outputs":[{"internalType":"bool","name":"","type":"bool"}],"stateMutability":"view","type":"function"},{"inputs":[{"internalType":"address","name":"account","type":"address"}],"name":"balanceOf","outputs":[{"internalType":"uint256","name":"","type":"uint256"}],"stateMutability":"view","type":"function"},{"inputs":[{"internalType":"uint256","name":"value","type":"uint256"}],"name":"burn","outputs":[],"stateMutability":"nonpayable","type":"function"},{"inputs":[{"internalType":"uint256","name":"amount","type":"uint256"},{"internalType":"address","name":"baseRecipient","type":"address"}],"name":"burnAndRedeem","outputs":[],"stateMutability":"nonpayable","type":"function"},{"inputs":[{"internalType":"address","name":"account","type":"address"},{"internalType":"uint256","name":"value","type":"uint256"}],"name":"burnFrom","outputs":[],"stateMutability":"nonpayable","type":"function"},{"inputs":[{"internalType":"bytes32","name":"nonce","type":"bytes32"},{"internalType":"uint8","name":"v","type":"uint8"},{"internalType":"bytes32","name":"r","type":"bytes32"},{"internalType":"bytes32","name":"s","type":"bytes32"}],"name":"cancelAuthorization","outputs":[],"stateMutability":"nonpayable","type":"function"},{"inputs":[],"name":"circulatingSupply","outputs":[{"internalType":"uint256","name":"","type":"uint256"}],"stateMutability":"view","type":"function"},{"inputs":[],"name":"currentDayMinted","outputs":[{"internalType":"uint256","name":"","type":"uint256"}],"stateMutability":"view","type":"function"},{"inputs":[],"name":"dailyMintCap","outputs":[{"internalType":"uint256","name":"","type":"uint256"}],"stateMutability":"view","type":"function"},{"inputs":[],"name":"decimals","outputs":[{"internalType":"uint8","name":"","type":"uint8"}],"stateMutability":"view","type":"function"},{"inputs":[],"name":"eip712Domain","outputs":[{"internalType":"bytes1","name":"fields","type":"bytes1"},{"internalType":"string","name":"name","type":"string"},{"internalType":"string","name":"version","type":"string"},{"internalType":"uint256","name":"chainId","type":"uint256"},{"internalType":"address","name":"verifyingContract","type":"address"},{"internalType":"bytes32","name":"salt","type":"bytes32"},{"internalType":"uint256[]","name":"extensions","type":"uint256[]"}],"stateMutability":"view","type":"function"},{"inputs":[],"name":"feeCollector","outputs":[{"internalType":"address","name":"","type":"address"}],"stateMutability":"view","type":"function"},{"inputs":[{"internalType":"bytes32","name":"role","type":"bytes32"}],"name":"getRoleAdmin","outputs":[{"internalType":"bytes32","name":"","type":"bytes32"}],"stateMutability":"view","type":"function"},{"inputs":[{"internalType":"bytes32","name":"role","type":"bytes32"},{"internalType":"address","name":"account","type":"address"}],"name":"grantRole","outputs":[],"stateMutability":"nonpayable","type":"function"},{"inputs":[{"internalType":"bytes32","name":"role","type":"bytes32"},{"internalType":"address","name":"account","type":"address"}],"name":"hasRole","outputs":[{"internalType":"bool","name":"","type":"bool"}],"stateMutability":"view","type":"function"},{"inputs":[{"internalType":"address","name":"","type":"address"}],"name":"isBlacklisted","outputs":[{"internalType":"bool","name":"","type":"bool"}],"stateMutability":"view","type":"function"},{"inputs":[{"internalType":"address","name":"","type":"address"}],"name":"isFeeExempt","outputs":[{"internalType":"bool","name":"","type":"bool"}],"stateMutability":"view","type":"function"},{"inputs":[],"name":"lastMintResetDay","outputs":[{"internalType":"uint256","name":"","type":"uint256"}],"stateMutability":"view","type":"function"},{"inputs":[{"internalType":"address","name":"to","type":"address"},{"internalType":"uint256","name":"amount","type":"uint256"}],"name":"mint","outputs":[],"stateMutability":"nonpayable","type":"function"},{"inputs":[],"name":"name","outputs":[{"internalType":"string","name":"","type":"string"}],"stateMutability":"view","type":"function"},{"inputs":[{"internalType":"address","name":"owner","type":"address"}],"name":"nonces","outputs":[{"internalType":"uint256","name":"","type":"uint256"}],"stateMutability":"view","type":"function"},{"inputs":[],"name":"pause","outputs":[],"stateMutability":"nonpayable","type":"function"},{"inputs":[],"name":"paused","outputs":[{"internalType":"bool","name":"","type":"bool"}],"stateMutability":"view","type":"function"},{"inputs":[{"internalType":"address","name":"owner","type":"address"},{"internalType":"address","name":"spender","type":"address"},{"internalType":"uint256","name":"value","type":"uint256"},{"internalType":"uint256","name":"deadline","type":"uint256"},{"internalType":"uint8","name":"v","type":"uint8"},{"internalType":"bytes32","name":"r","type":"bytes32"},{"internalType":"bytes32","name":"s","type":"bytes32"}],"name":"permit","outputs":[],"stateMutability":"nonpayable","type":"function"},{"inputs":[{"internalType":"address","name":"from","type":"address"},{"internalType":"address","name":"to","type":"address"},{"internalType":"uint256","name":"value","type":"uint256"},{"internalType":"uint256","name":"validAfter","type":"uint256"},{"internalType":"uint256","name":"validBefore","type":"uint256"},{"internalType":"bytes32","name":"nonce","type":"bytes32"},{"internalType":"uint8","name":"v","type":"uint8"},{"internalType":"bytes32","name":"r","type":"bytes32"},{"internalType":"bytes32","name":"s","type":"bytes32"}],"name":"receiveWithAuthorization","outputs":[],"stateMutability":"nonpayable","type":"function"},{"inputs":[],"name":"remainingDailyMint","outputs":[{"internalType":"uint256","name":"","type":"uint256"}],"stateMutability":"view","type":"function"},{"inputs":[{"internalType":"bytes32","name":"role","type":"bytes32"},{"internalType":"address","name":"callerConfirmation","type":"address"}],"name":"renounceRole","outputs":[],"stateMutability":"nonpayable","type":"function"},{"inputs":[{"internalType":"bytes32","name":"role","type":"bytes32"},{"internalType":"address","name":"account","type":"address"}],"name":"revokeRole","outputs":[],"stateMutability":"nonpayable","type":"function"},{"inputs":[{"internalType":"address","name":"account","type":"address"},{"internalType":"bool","name":"status","type":"bool"}],"name":"setBlacklist","outputs":[],"stateMutability":"nonpayable","type":"function"},{"inputs":[{"internalType":"uint256","name":"newCap","type":"uint256"}],"name":"setDailyMintCap","outputs":[],"stateMutability":"nonpayable","type":"function"},{"inputs":[{"internalType":"address","name":"newCollector","type":"address"}],"name":"setFeeCollector","outputs":[],"stateMutability":"nonpayable","type":"function"},{"inputs":[{"internalType":"address","name":"account","type":"address"},{"internalType":"bool","name":"exempt","type":"bool"}],"name":"setFeeExempt","outputs":[],"stateMutability":"nonpayable","type":"function"},{"inputs":[{"internalType":"uint256","name":"newFeeBps","type":"uint256"}],"name":"setTransferFee","outputs":[],"stateMutability":"nonpayable","type":"function"},{"inputs":[{"internalType":"bytes4","name":"interfaceId","type":"bytes4"}],"name":"supportsInterface","outputs":[{"internalType":"bool","name":"","type":"bool"}],"stateMutability":"view","type":"function"},{"inputs":[],"name":"symbol","outputs":[{"internalType":"string","name":"","type":"string"}],"stateMutability":"view","type":"function"},{"inputs":[],"name":"totalBurned","outputs":[{"internalType":"uint256","name":"","type":"uint256"}],"stateMutability":"view","type":"function"},{"inputs":[],"name":"totalMinted","outputs":[{"internalType":"uint256","name":"","type":"uint256"}],"stateMutability":"view","type":"function"},{"inputs":[],"name":"totalSupply","outputs":[{"internalType":"uint256","name":"","type":"uint256"}],"stateMutability":"view","type":"function"},{"inputs":[{"internalType":"address","name":"to","type":"address"},{"internalType":"uint256","name":"value","type":"uint256"}],"name":"transfer","outputs":[{"internalType":"bool","name":"","type":"bool"}],"stateMutability":"nonpayable","type":"function"},{"inputs":[],"name":"transferFeeBps","outputs":[{"internalType":"uint256","name":"","type":"uint256"}],"stateMutability":"view","type":"function"},{"inputs":[{"internalType":"address","name":"from","type":"address"},{"internalType":"address","name":"to","type":"address"},{"internalType":"uint256","name":"value","type":"uint256"}],"name":"transferFrom","outputs":[{"internalType":"bool","name":"","type":"bool"}],"stateMutability":"nonpayable","type":"function"},{"inputs":[{"internalType":"address","name":"from","type":"address"},{"internalType":"address","name":"to","type":"address"},{"internalType":"uint256","name":"value","type":"uint256"},{"internalType":"uint256","name":"validAfter","type":"uint256"},{"internalType":"uint256","name":"validBefore","type":"uint256"},{"internalType":"bytes32","name":"nonce","type":"bytes32"},{"internalType":"uint8","name":"v","type":"uint8"},{"internalType":"bytes32","name":"r","type":"bytes32"},{"internalType":"bytes32","name":"s","type":"bytes32"}],"name":"transferWithAuthorization","outputs":[],"stateMutability":"nonpayable","type":"function"},{"inputs":[],"name":"unpause","outputs":[],"stateMutability":"nonpayable","type":"function"}],"evm":{"bytecode":{"linkReferences":{},"object":"6101606040523480156200001257600080fd5b5060405162002ccc38038062002ccc833981016040819052620000359162000420565b60405180604001604052806011815260200170141c9bdd1bd8dbdb0810985b9ac81554d1607a1b81525080604051806040016040528060018152602001603160f81b81525060405180604001604052806011815260200170141c9bdd1bd8dbdb0810985b9ac81554d1607a1b815250604051806040016040528060058152602001641c189554d160da1b8152508160039081620000d391906200052c565b506004620000e282826200052c565b50620000f491508390506005620002b6565b6101205262000105816006620002b6565b61014052815160208084019190912060e052815190820120610100524660a0526200019360e05161010051604080517f8b73c3c69bb8fe3d512ecc4cf759cc79239f7b179b0ffacaa9a75d522b39400f60208201529081019290925260608201524660808201523060a082015260009060c00160405160208183030381529060405280519060200120905090565b60805250503060c05250620001aa600086620002ef565b50620001d77f9f2df0fed2c77648de5860a4cc508cd0818c85b8b8a1ab4ceeef8d981c8956a685620002ef565b50620002047f65d7a28e3265b37a6474929f336521b332c1681b933f6cb9f3376673440d862a84620002ef565b50620002317f442a94f1a1fac79af32856af2a64f63648cfa2ef3b98610a5bb7cbec4cee698583620002ef565b506200025e7f6c0757dc3e6b28b2580c03fd9e96c274acf4f99d91fbec9b418fa1d70604ff1c86620002ef565b50600b8190556200026e620003a1565b600d555050600f80546001600160a01b0319166001600160a01b0394909416939093179092555050306000908152601060205260409020805460ff1916600117905562000690565b6000602083511015620002d657620002ce83620003b7565b9050620002e9565b81620002e384826200052c565b5060ff90505b92915050565b60008281526009602090815260408083206001600160a01b038516845290915281205460ff16620003985760008381526009602090815260408083206001600160a01b03861684529091529020805460ff191660011790556200034f3390565b6001600160a01b0316826001600160a01b0316847f2f8788117e7eff1d82e926ec794901d17c78024a50270940304540a733656f0d60405160405180910390a4506001620002e9565b506000620002e9565b6000620003b26201518042620005f8565b905090565b600080829050601f81511115620003ee578260405163305a27a960e01b8152600401620003e591906200061b565b60405180910390fd5b8051620003fb826200066b565b179392505050565b80516001600160a01b03811681146200041b57600080fd5b919050565b600080600080600060a086880312156200043957600080fd5b620004448662000403565b9450620004546020870162000403565b9350620004646040870162000403565b9250620004746060870162000403565b9150608086015190509295509295909350565b634e487b7160e01b600052604160045260246000fd5b600181811c90821680620004b257607f821691505b602082108103620004d357634e487b7160e01b600052602260045260246000fd5b50919050565b601f8211156200052757600081815260208120601f850160051c81016020861015620005025750805b601f850160051c820191505b8181101562000523578281556001016200050e565b5050505b505050565b81516001600160401b0381111562000548576200054862000487565b62000560816200055984546200049d565b84620004d9565b602080601f8311600181146200059857600084156200057f5750858301515b600019600386901b1c1916600185901b17855562000523565b600085815260208120601f198616915b82811015620005c957888601518255948401946001909101908401620005a8565b5085821015620005e85787850151600019600388901b60f8161c191681555b5050505050600190811b01905550565b6000826200061657634e487b7160e01b600052601260045260246000fd5b500490565b600060208083528351808285015260005b818110156200064a578581018301518582016040015282016200062c565b506000604082860101526040601f19601f8301168501019250505092915050565b80516020808301519190811015620004d35760001960209190910360031b1b16919050565b60805160a05160c05160e0516101005161012051610140516125e1620006eb60003960006118dc015260006118af0152600061166d01526000611645015260006115a0015260006115ca015260006115f401526125e16000f3fe608060405234801561001057600080fd5b506004361061035d5760003560e01c80638ebfc796116101d3578063d505accf11610104578063dd62ed3e116100a2578063e94a01021161007c578063e94a0102146107a7578063ef55bec6146107d5578063fb83a664146107e8578063fe575a87146107f157600080fd5b8063dd62ed3e14610734578063e3ee160e1461076d578063e63ab1e91461078057600080fd5b8063d55be8c6116100de578063d55be8c6146106e9578063d87a2993146106f1578063d89135cd14610704578063d91694871461070d57600080fd5b8063d505accf1461069c578063d5391393146106af578063d547741f146106d657600080fd5b8063a217fddf11610171578063a9059cbb1161014b578063a9059cbb14610643578063b780595b14610656578063c415b95c14610669578063c8be015e1461069457600080fd5b8063a217fddf1461061f578063a2309ff814610627578063a42dce801461063057600080fd5b80639358928b116101ad5780639358928b146105df57806395d89b41146105e75780639de8d982146105ef578063a0cc6a68146105f857600080fd5b80638ebfc796146105a65780638f02bb5b146105b957806391d14854146105cc57600080fd5b806336568abe116102ad5780635de78d7a1161024b5780637ecebe00116102255780637ecebe00146105495780637f2eecc31461055c5780638456cb591461058357806384b0196e1461058b57600080fd5b80635de78d7a1461050457806370a082311461050d57806379cc67901461053657600080fd5b806340c10f191161028757806340c10f19146104c057806342966c68146104d357806348b8691c146104e65780635c975abb146104f957600080fd5b806336568abe146104825780633f4218e0146104955780633f4ba83a146104b857600080fd5b806318160ddd1161031a5780632832bcb5116102f45780632832bcb51461044f5780632f2ff15d14610458578063313ce5671461046b5780633644e5151461047a57600080fd5b806318160ddd1461041157806323b872dd14610419578063248a9ca31461042c57600080fd5b806301ffc9a71461036257806305db2f411461038a578063062d3bd7146103ad57806306fdde03146103d4578063095ea7b3146103e9578063153b0d1e146103fc575b600080fd5b6103756103703660046120ee565b610814565b60405190151581526020015b60405180910390f35b61039f60008051602061258c83398151915281565b604051908152602001610381565b61039f7f442a94f1a1fac79af32856af2a64f63648cfa2ef3b98610a5bb7cbec4cee698581565b6103dc61084b565b6040516103819190612165565b6103756103f7366004612194565b6108dd565b61040f61040a3660046121be565b6108f5565b005b60025461039f565b6103756104273660046121fa565b610980565b61039f61043a366004612236565b60009081526009602052604090206001015490565b61039f600b5481565b61040f61046636600461224f565b6109a4565b60405160068152602001610381565b61039f6109cf565b61040f61049036600461224f565b6109de565b6103756104a336600461227b565b60106020526000908152604090205460ff1681565b61040f610a16565b61040f6104ce366004612194565b610a4b565b61040f6104e1366004612236565b610b65565b61040f6104f436600461224f565b610b6f565b60085460ff16610375565b61039f600e5481565b61039f61051b36600461227b565b6001600160a01b031660009081526020819052604090205490565b61040f610544366004612194565b610c2a565b61039f61055736600461227b565b610c43565b61039f7fd099cc98ef71107a616c4f0f941f04c322d8e254fe26b3c6668db87aae413de881565b61040f610c61565b610593610c93565b6040516103819796959493929190612296565b61040f6105b43660046121be565b610cd9565b61040f6105c7366004612236565b610d49565b6103756105da36600461224f565b610dd4565b61039f610dff565b6103dc610e11565b61039f600d5481565b61039f7f7c7c6cdb67a18743f49ec6fa9b35f50d52ed05cbed4cc592e13b44501c1a226781565b61039f600081565b61039f60115481565b61040f61063e36600461227b565b610e20565b610375610651366004612194565b610eb9565b61040f610664366004612236565b610ec7565b600f5461067c906001600160a01b031681565b6040516001600160a01b039091168152602001610381565b61039f610f10565b61040f6106aa36600461233d565b610f69565b61039f7f9f2df0fed2c77648de5860a4cc508cd0818c85b8b8a1ab4ceeef8d981c8956a681565b61040f6106e436600461224f565b6110a3565b61039f603281565b61040f6106ff3660046123a7565b6110c8565b61039f60125481565b61039f7f158b0a9edf7a828aad02f63cd515c68ef2f50ba807396f6d12842833a159742981565b61039f6107423660046123e2565b6001600160a01b03918216600090815260016020908152604080832093909416825291909152205490565b61040f61077b36600461240c565b6111c5565b61039f7f65d7a28e3265b37a6474929f336521b332c1681b933f6cb9f3376673440d862a81565b6103756107b5366004612194565b601360209081526000928352604080842090915290825290205460ff1681565b61040f6107e336600461240c565b611319565b61039f600c5481565b6103756107ff36600461227b565b600a6020526000908152604090205460ff1681565b60006001600160e01b03198216637965db0b60e01b148061084557506301ffc9a760e01b6001600160e01b03198316145b92915050565b60606003805461085a9061248a565b80601f01602080910402602001604051908101604052809291908181526020018280546108869061248a565b80156108d35780601f106108a8576101008083540402835291602001916108d3565b820191906000526020600020905b8154815290600101906020018083116108b657829003601f168201915b5050505050905090565b6000336108eb818585611410565b5060019392505050565b7f442a94f1a1fac79af32856af2a64f63648cfa2ef3b98610a5bb7cbec4cee698561091f8161141d565b6001600160a01b0383166000818152600a6020908152604091829020805460ff191686151590811790915591519182527f6a12b3df6cba4203bd7fd06b816789f87de8c594299aed5717ae070fac781bac91015b60405180910390a2505050565b60003361098e858285611427565b6109998585856114a0565b506001949350505050565b6000828152600960205260409020600101546109bf8161141d565b6109c983836114ff565b50505050565b60006109d9611593565b905090565b6001600160a01b0381163314610a075760405163334bd91960e11b815260040160405180910390fd5b610a1182826116be565b505050565b7f65d7a28e3265b37a6474929f336521b332c1681b933f6cb9f3376673440d862a610a408161141d565b610a4861172b565b50565b7f9f2df0fed2c77648de5860a4cc508cd0818c85b8b8a1ab4ceeef8d981c8956a6610a758161141d565b610a7d61177d565b81600003610a9e5760405163162908e360e11b815260040160405180910390fd5b6001600160a01b038316610ac557604051634e46966960e11b815260040160405180910390fd5b610acd6117a3565b6000600b54118015610aed5750600b5482600c54610aeb91906124da565b115b15610b2a5781600c54600b54610b0391906124ed565b6040516345a8948760e01b8152600481019290925260248201526044015b60405180910390fd5b81600c6000828254610b3c91906124da565b925050819055508160116000828254610b5591906124da565b90915550610a11905083836117ff565b610a483382611835565b610b7761177d565b81600003610b985760405163162908e360e11b815260040160405180910390fd5b6001600160a01b038116610bbf57604051634e46966960e11b815260040160405180910390fd5b8160126000828254610bd191906124da565b90915550610be190503383611835565b604080518381524260208201526001600160a01b0383169133917ff19e38d400b780173d91580d23ad02ef9617f12fbe127581a9dd6736bc3214ef910160405180910390a35050565b610c35823383611427565b610c3f8282611835565b5050565b6001600160a01b038116600090815260076020526040812054610845565b7f65d7a28e3265b37a6474929f336521b332c1681b933f6cb9f3376673440d862a610c8b8161141d565b610a4861186b565b600060608060008060006060610ca76118a8565b610caf6118d5565b60408051600080825260208201909252600f60f81b9b939a50919850469750309650945092509050565b60008051602061258c833981519152610cf18161141d565b6001600160a01b038316600081815260106020908152604091829020805460ff191686151590811790915591519182527f4d5771454588f51370a8a2e7e151354b6de0dc3159b14821b4ad76bc04c28bc79101610973565b60008051602061258c833981519152610d618161141d565b6032821115610d8d576040516373ab893560e11b81526004810183905260326024820152604401610b21565b600e80549083905560408051828152602081018590527f940334a9f5c76529ad9447ac490c2073b06d880209383a3d3e4b0ecab72a0d9991015b60405180910390a1505050565b60009182526009602090815260408084206001600160a01b0393909316845291905290205460ff1690565b60006012546011546109d991906124ed565b60606004805461085a9061248a565b60008051602061258c833981519152610e388161141d565b6001600160a01b038216610e5f5760405163bb0bac9960e01b815260040160405180910390fd5b600f80546001600160a01b038481166001600160a01b031983168117909355604080519190921680825260208201939093527f5d16ad41baeb009cd23eb8f6c7cde5c2e0cd5acf4a33926ab488875c37c37f389101610dc7565b6000336108eb8185856114a0565b6000610ed28161141d565b600b80549083905560408051828152602081018590527f2ee37ce64c711d861d1cb02d76a95d30e47a90e2db87ab5d7e4584d16d7dc6e49101610dc7565b6000600b54600003610f23575060001990565b6000610f2d611902565b9050600d548114610f40575050600b5490565b600b54600c5410610f5357600091505090565b600c54600b54610f6391906124ed565b91505090565b83421115610f8d5760405163313c898160e11b815260048101859052602401610b21565b60007f6e71edae12b1b97f4d1f60370fef10105fa2faae0126114a169c64845d6126c9888888610fda8c6001600160a01b0316600090815260076020526040902080546001810190915590565b6040805160208101969096526001600160a01b0394851690860152929091166060840152608083015260a082015260c0810186905260e001604051602081830303815290604052805190602001209050600061103582611911565b905060006110458287878761193e565b9050896001600160a01b0316816001600160a01b03161461108c576040516325c0072360e11b81526001600160a01b0380831660048301528b166024820152604401610b21565b6110978a8a8a611410565b50505050505050505050565b6000828152600960205260409020600101546110be8161141d565b6109c983836116be565b33600090815260136020908152604080832087845290915290205460ff161561110d5760405163d309466d60e01b815233600482015260248101859052604401610b21565b604080517f158b0a9edf7a828aad02f63cd515c68ef2f50ba807396f6d12842833a15974296020820152339181019190915260608101859052600090608001604051602081830303815290604052805190602001209050611171338286868661196c565b336000818152601360209081526040808320898452909152808220805460ff19166001179055518792917f1cdd46ff242716cdaa72d159d339a485b3438398348d68f09d7c8c0a59353d8191a35050505050565b6111cd61177d565b85421115806111dc5750844210155b156111fd57604051633d91b05f60e01b815260048101869052602401610b21565b6001600160a01b038916600090815260136020908152604080832087845290915290205460ff16156112545760405163d309466d60e01b81526001600160a01b038a16600482015260248101859052604401610b21565b60007f7c7c6cdb67a18743f49ec6fa9b35f50d52ed05cbed4cc592e13b44501c1a22678a8a8a8a8a8a6040516020016112939796959493929190612500565b6040516020818303038152906040528051906020012090506112b88a8286868661196c565b6001600160a01b038a166000818152601360209081526040808320898452909152808220805460ff19166001179055518792917f98de503528ee59b575ef0c0a2576a82497bfc029a5685b209e9ec333479b10a591a36110978a8a8a6114a0565b61132161177d565b6001600160a01b038816331461134a57604051630476d41960e01b815260040160405180910390fd5b85421115806113595750844210155b1561137a57604051633d91b05f60e01b815260048101869052602401610b21565b6001600160a01b038916600090815260136020908152604080832087845290915290205460ff16156113d15760405163d309466d60e01b81526001600160a01b038a16600482015260248101859052604401610b21565b60007fd099cc98ef71107a616c4f0f941f04c322d8e254fe26b3c6668db87aae413de88a8a8a8a8a8a6040516020016112939796959493929190612500565b610a118383836001611a2b565b610a488133611b00565b6001600160a01b038381166000908152600160209081526040808320938616835292905220546000198110156109c9578181101561149157604051637dc7a0d960e11b81526001600160a01b03841660048201526024810182905260448101839052606401610b21565b6109c984848484036000611a2b565b6001600160a01b0383166114ca57604051634b637e8f60e11b815260006004820152602401610b21565b6001600160a01b0382166114f45760405163ec442f0560e01b815260006004820152602401610b21565b610a11838383611b39565b600061150b8383610dd4565b61158b5760008381526009602090815260408083206001600160a01b03861684529091529020805460ff191660011790556115433390565b6001600160a01b0316826001600160a01b0316847f2f8788117e7eff1d82e926ec794901d17c78024a50270940304540a733656f0d60405160405180910390a4506001610845565b506000610845565b6000306001600160a01b037f0000000000000000000000000000000000000000000000000000000000000000161480156115ec57507f000000000000000000000000000000000000000000000000000000000000000046145b1561161657507f000000000000000000000000000000000000000000000000000000000000000090565b6109d9604080517f8b73c3c69bb8fe3d512ecc4cf759cc79239f7b179b0ffacaa9a75d522b39400f60208201527f0000000000000000000000000000000000000000000000000000000000000000918101919091527f000000000000000000000000000000000000000000000000000000000000000060608201524660808201523060a082015260009060c00160405160208183030381529060405280519060200120905090565b60006116ca8383610dd4565b1561158b5760008381526009602090815260408083206001600160a01b0386168085529252808320805460ff1916905551339286917ff6391f5c32d9c69d2a47ea670b442974b53935d1edc7fd64eb21e047a839171b9190a4506001610845565b611733611cf4565b6008805460ff191690557f5db9ee0a495bf2e6ff9c91a7834c1ba4fdd244a5e8aa4e537bd38aeae4b073aa335b6040516001600160a01b03909116815260200160405180910390a1565b60085460ff16156117a15760405163d93c066560e01b815260040160405180910390fd5b565b60006117ad611902565b9050600d548114610a4857600c546040805183815260208101929092527f3adc352b84186f0229522a6c80c6ee84884462be6b35023b7cd2e65ecefbd9a3910160405180910390a16000600c55600d55565b6001600160a01b0382166118295760405163ec442f0560e01b815260006004820152602401610b21565b610c3f60008383611b39565b6001600160a01b03821661185f57604051634b637e8f60e11b815260006004820152602401610b21565b610c3f82600083611b39565b61187361177d565b6008805460ff191660011790557f62e78cea01bee320cd4e420270b5ea74000d11b0c9f74754ebdbfc544b05a2586117603390565b60606109d97f00000000000000000000000000000000000000000000000000000000000000006005611d17565b60606109d97f00000000000000000000000000000000000000000000000000000000000000006006611d17565b60006109d9620151804261253c565b600061084561191e611593565b8360405161190160f01b8152600281019290925260228201526042902090565b60008060008061195088888888611dc2565b9250925092506119608282611e91565b50909695505050505050565b600061197785611911565b6040805160008082526020820180845284905260ff88169282019290925260608101869052608081018590529192509060019060a0016020604051602081039080840390855afa1580156119cf573d6000803e3d6000fd5b5050604051601f1901519150506001600160a01b0381161580611a045750866001600160a01b0316816001600160a01b031614155b15611a2257604051638baa579f60e01b815260040160405180910390fd5b50505050505050565b6001600160a01b038416611a555760405163e602df0560e01b815260006004820152602401610b21565b6001600160a01b038316611a7f57604051634a1406b160e11b815260006004820152602401610b21565b6001600160a01b03808516600090815260016020908152604080832093871683529290522082905580156109c957826001600160a01b0316846001600160a01b03167f8c5be1e5ebec7d5bd14f71427d1e84f3dd0314c0f7b2291e5b200ac8c7c3b92584604051611af291815260200190565b60405180910390a350505050565b611b0a8282610dd4565b610c3f5760405163e2517d3f60e01b81526001600160a01b038216600482015260248101839052604401610b21565b6001600160a01b0383166000908152600a602052604090205460ff1615611b7e5760405163578f3e1360e01b81526001600160a01b0384166004820152602401610b21565b6001600160a01b0382166000908152600a602052604090205460ff1615611bc3576040516332e38af360e21b81526001600160a01b0383166004820152602401610b21565b600080600e54118015611bde57506001600160a01b03841615155b8015611bf257506001600160a01b03831615155b8015611c1757506001600160a01b03841660009081526010602052604090205460ff16155b8015611c3c57506001600160a01b03831660009081526010602052604090205460ff16155b8015611c525750600f546001600160a01b031615155b15611ce057612710600e5483611c68919061255e565b611c72919061253c565b90508015611ce057600f54611c929085906001600160a01b031683611f4a565b826001600160a01b0316846001600160a01b03167ff228de527fc1b9843baac03b9a04565473a263375950e63435d4138464386f4683604051611cd791815260200190565b60405180910390a35b6109c98484611cef84866124ed565b611f4a565b60085460ff166117a157604051638dfc202b60e01b815260040160405180910390fd5b606060ff8314611d3157611d2a83611f5d565b9050610845565b818054611d3d9061248a565b80601f0160208091040260200160405190810160405280929190818152602001828054611d699061248a565b8015611db65780601f10611d8b57610100808354040283529160200191611db6565b820191906000526020600020905b815481529060010190602001808311611d9957829003601f168201915b50505050509050610845565b600080807f7fffffffffffffffffffffffffffffff5d576e7357a4501ddfe92f46681b20a0841115611dfd5750600091506003905082611e87565b604080516000808252602082018084528a905260ff891692820192909252606081018790526080810186905260019060a0016020604051602081039080840390855afa158015611e51573d6000803e3d6000fd5b5050604051601f1901519150506001600160a01b038116611e7d57506000925060019150829050611e87565b9250600091508190505b9450945094915050565b6000826003811115611ea557611ea5612575565b03611eae575050565b6001826003811115611ec257611ec2612575565b03611ee05760405163f645eedf60e01b815260040160405180910390fd5b6002826003811115611ef457611ef4612575565b03611f155760405163fce698f760e01b815260048101829052602401610b21565b6003826003811115611f2957611f29612575565b03610c3f576040516335e2f38360e21b815260048101829052602401610b21565b611f5261177d565b610a11838383611f9c565b60606000611f6a836120c6565b604080516020808252818301909252919250600091906020820181803683375050509182525060208101929092525090565b6001600160a01b038316611fc7578060026000828254611fbc91906124da565b909155506120399050565b6001600160a01b0383166000908152602081905260409020548181101561201a5760405163391434e360e21b81526001600160a01b03851660048201526024810182905260448101839052606401610b21565b6001600160a01b03841660009081526020819052604090209082900390555b6001600160a01b03821661205557600280548290039055612074565b6001600160a01b03821660009081526020819052604090208054820190555b816001600160a01b0316836001600160a01b03167fddf252ad1be2c89b69c2b068fc378daa952ba7f163c4a11628f55a4df523b3ef836040516120b991815260200190565b60405180910390a3505050565b600060ff8216601f81111561084557604051632cd44ac360e21b815260040160405180910390fd5b60006020828403121561210057600080fd5b81356001600160e01b03198116811461211857600080fd5b9392505050565b6000815180845260005b8181101561214557602081850181015186830182015201612129565b506000602082860101526020601f19601f83011685010191505092915050565b602081526000612118602083018461211f565b80356001600160a01b038116811461218f57600080fd5b919050565b600080604083850312156121a757600080fd5b6121b083612178565b946020939093013593505050565b600080604083850312156121d157600080fd5b6121da83612178565b9150602083013580151581146121ef57600080fd5b809150509250929050565b60008060006060848603121561220f57600080fd5b61221884612178565b925061222660208501612178565b9150604084013590509250925092565b60006020828403121561224857600080fd5b5035919050565b6000806040838503121561226257600080fd5b8235915061227260208401612178565b90509250929050565b60006020828403121561228d57600080fd5b61211882612178565b60ff60f81b881681526000602060e0818401526122b660e084018a61211f565b83810360408501526122c8818a61211f565b606085018990526001600160a01b038816608086015260a0850187905284810360c0860152855180825283870192509083019060005b8181101561231a578351835292840192918401916001016122fe565b50909c9b505050505050505050505050565b803560ff8116811461218f57600080fd5b600080600080600080600060e0888a03121561235857600080fd5b61236188612178565b965061236f60208901612178565b9550604088013594506060880135935061238b6080890161232c565b925060a0880135915060c0880135905092959891949750929550565b600080600080608085870312156123bd57600080fd5b843593506123cd6020860161232c565b93969395505050506040820135916060013590565b600080604083850312156123f557600080fd5b6123fe83612178565b915061227260208401612178565b60008060008060008060008060006101208a8c03121561242b57600080fd5b6124348a612178565b985061244260208b01612178565b975060408a0135965060608a0135955060808a0135945060a08a0135935061246c60c08b0161232c565b925060e08a013591506101008a013590509295985092959850929598565b600181811c9082168061249e57607f821691505b6020821081036124be57634e487b7160e01b600052602260045260246000fd5b50919050565b634e487b7160e01b600052601160045260246000fd5b80820180821115610845576108456124c4565b81810381811115610845576108456124c4565b9687526001600160a01b0395861660208801529390941660408601526060850191909152608084015260a083019190915260c082015260e00190565b60008261255957634e487b7160e01b600052601260045260246000fd5b500490565b8082028115828204841417610845576108456124c4565b634e487b7160e01b600052602160045260246000fdfe6c0757dc3e6b28b2580c03fd9e96c274acf4f99d91fbec9b418fa1d70604ff1ca2646970667358221220cea2f752ef90222e2592633561d807305332daf8be1906acb18d61dd1ee8a08364736f6c63430008140033","opcodes":"PUSH2 0x160 PUSH1 0x40 MSTORE CALLVALUE DUP1 ISZERO PUSH3 0x12 JUMPI PUSH1 0x0 DUP1 REVERT JUMPDEST POP PUSH1 0x40 MLOAD PUSH3 0x2CCC CODESIZE SUB DUP1 PUSH3 0x2CCC DUP4 CODECOPY DUP2 ADD PUSH1 0x40 DUP2 SWAP1 MSTORE PUSH3 0x35 SWAP2 PUSH3 0x420 JUMP JUMPDEST PUSH1 0x40 MLOAD DUP1 PUSH1 0x40 ADD PUSH1 0x40 MSTORE DUP1 PUSH1 0x11 DUP2 MSTORE PUSH1 0x20 ADD PUSH17 0x141C9BDD1BD8DBDB0810985B9AC81554D1 PUSH1 0x7A SHL DUP2 MSTORE POP DUP1 PUSH1 0x40 MLOAD DUP1 PUSH1 0x40 ADD PUSH1 0x40 MSTORE DUP1 PUSH1 0x1 DUP2 MSTORE PUSH1 0x20 ADD PUSH1 0x31 PUSH1 0xF8 SHL DUP2 MSTORE POP PUSH1 0x40 MLOAD DUP1 PUSH1 0x40 ADD PUSH1 0x40 MSTORE DUP1 PUSH1 0x11 DUP2 MSTORE PUSH1 0x20 ADD PUSH17 0x141C9BDD1BD8DBDB0810985B9AC81554D1 PUSH1 0x7A SHL DUP2 MSTORE POP PUSH1 0x40 MLOAD DUP1 PUSH1 0x40 ADD PUSH1 0x40 MSTORE DUP1 PUSH1 0x5 DUP2 MSTORE PUSH1 0x20 ADD PUSH5 0x1C189554D1 PUSH1 0xDA SHL DUP2 MSTORE POP DUP2 PUSH1 0x3 SWAP1 DUP2 PUSH3 0xD3 SWAP2 SWAP1 PUSH3 0x52C JUMP JUMPDEST POP PUSH1 0x4 PUSH3 0xE2 DUP3 DUP3 PUSH3 0x52C JUMP JUMPDEST POP PUSH3 0xF4 SWAP2 POP DUP4 SWAP1 POP PUSH1 0x5 PUSH3 0x2B6 JUMP JUMPDEST PUSH2 0x120 MSTORE PUSH3 0x105 DUP2 PUSH1 0x6 PUSH3 0x2B6 JUMP JUMPDEST PUSH2 0x140 MSTORE DUP2 MLOAD PUSH1 0x20 DUP1 DUP5 ADD SWAP2 SWAP1 SWAP2 KECCAK256 PUSH1 0xE0 MSTORE DUP2 MLOAD SWAP1 DUP3 ADD KECCAK256 PUSH2 0x100 MSTORE CHAINID PUSH1 0xA0 MSTORE PUSH3 0x193 PUSH1 0xE0 MLOAD PUSH2 0x100 MLOAD PUSH1 0x40 DUP1 MLOAD PUSH32 0x8B73C3C69BB8FE3D512ECC4CF759CC79239F7B179B0FFACAA9A75D522B39400F PUSH1 0x20 DUP3 ADD MSTORE SWAP1 DUP2 ADD SWAP3 SWAP1 SWAP3 MSTORE PUSH1 0x60 DUP3 ADD MSTORE CHAINID PUSH1 0x80 DUP3 ADD MSTORE ADDRESS PUSH1 0xA0 DUP3 ADD MSTORE PUSH1 0x0 SWAP1 PUSH1 0xC0 ADD PUSH1 0x40 MLOAD PUSH1 0x20 DUP2 DUP4 SUB SUB DUP2 MSTORE SWAP1 PUSH1 0x40 MSTORE DUP1 MLOAD SWAP1 PUSH1 0x20 ADD KECCAK256 SWAP1 POP SWAP1 JUMP JUMPDEST PUSH1 0x80 MSTORE POP POP ADDRESS PUSH1 0xC0 MSTORE POP PUSH3 0x1AA PUSH1 0x0 DUP7 PUSH3 0x2EF JUMP JUMPDEST POP PUSH3 0x1D7 PUSH32 0x9F2DF0FED2C77648DE5860A4CC508CD0818C85B8B8A1AB4CEEEF8D981C8956A6 DUP6 PUSH3 0x2EF JUMP JUMPDEST POP PUSH3 0x204 PUSH32 0x65D7A28E3265B37A6474929F336521B332C1681B933F6CB9F3376673440D862A DUP5 PUSH3 0x2EF JUMP JUMPDEST POP PUSH3 0x231 PUSH32 0x442A94F1A1FAC79AF32856AF2A64F63648CFA2EF3B98610A5BB7CBEC4CEE6985 DUP4 PUSH3 0x2EF JUMP JUMPDEST POP PUSH3 0x25E PUSH32 0x6C0757DC3E6B28B2580C03FD9E96C274ACF4F99D91FBEC9B418FA1D70604FF1C DUP7 PUSH3 0x2EF JUMP JUMPDEST POP PUSH1 0xB DUP2 SWAP1 SSTORE PUSH3 0x26E PUSH3 0x3A1 JUMP JUMPDEST PUSH1 0xD SSTORE POP POP PUSH1 0xF DUP1 SLOAD PUSH1 0x1 PUSH1 0x1 PUSH1 0xA0 SHL SUB NOT AND PUSH1 0x1 PUSH1 0x1 PUSH1 0xA0 SHL SUB SWAP5 SWAP1 SWAP5 AND SWAP4 SWAP1 SWAP4 OR SWAP1 SWAP3 SSTORE POP POP ADDRESS PUSH1 0x0 SWAP1 DUP2 MSTORE PUSH1 0x10 PUSH1 0x20 MSTORE PUSH1 0x40 SWAP1 KECCAK256 DUP1 SLOAD PUSH1 0xFF NOT AND PUSH1 0x1 OR SWAP1 SSTORE PUSH3 0x690 JUMP JUMPDEST PUSH1 0x0 PUSH1 0x20 DUP4 MLOAD LT ISZERO PUSH3 0x2D6 JUMPI PUSH3 0x2CE DUP4 PUSH3 0x3B7 JUMP JUMPDEST SWAP1 POP PUSH3 0x2E9 JUMP JUMPDEST DUP2 PUSH3 0x2E3 DUP5 DUP3 PUSH3 0x52C JUMP JUMPDEST POP PUSH1 0xFF SWAP1 POP JUMPDEST SWAP3 SWAP2 POP POP JUMP JUMPDEST PUSH1 0x0 DUP3 DUP2 MSTORE PUSH1 0x9 PUSH1 0x20 SWAP1 DUP2 MSTORE PUSH1 0x40 DUP1 DUP4 KECCAK256 PUSH1 0x1 PUSH1 0x1 PUSH1 0xA0 SHL SUB DUP6 AND DUP5 MSTORE SWAP1 SWAP2 MSTORE DUP2 KECCAK256 SLOAD PUSH1 0xFF AND PUSH3 0x398 JUMPI PUSH1 0x0 DUP4 DUP2 MSTORE PUSH1 0x9 PUSH1 0x20 SWAP1 DUP2 MSTORE PUSH1 0x40 DUP1 DUP4 KECCAK256 PUSH1 0x1 PUSH1 0x1 PUSH1 0xA0 SHL SUB DUP7 AND DUP5 MSTORE SWAP1 SWAP2 MSTORE SWAP1 KECCAK256 DUP1 SLOAD PUSH1 0xFF NOT AND PUSH1 0x1 OR SWAP1 SSTORE PUSH3 0x34F CALLER SWAP1 JUMP JUMPDEST PUSH1 0x1 PUSH1 0x1 PUSH1 0xA0 SHL SUB AND DUP3 PUSH1 0x1 PUSH1 0x1 PUSH1 0xA0 SHL SUB AND DUP5 PUSH32 0x2F8788117E7EFF1D82E926EC794901D17C78024A50270940304540A733656F0D PUSH1 0x40 MLOAD PUSH1 0x40 MLOAD DUP1 SWAP2 SUB SWAP1 LOG4 POP PUSH1 0x1 PUSH3 0x2E9 JUMP JUMPDEST POP PUSH1 0x0 PUSH3 0x2E9 JUMP JUMPDEST PUSH1 0x0 PUSH3 0x3B2 PUSH3 0x15180 TIMESTAMP PUSH3 0x5F8 JUMP JUMPDEST SWAP1 POP SWAP1 JUMP JUMPDEST PUSH1 0x0 DUP1 DUP3 SWAP1 POP PUSH1 0x1F DUP2 MLOAD GT ISZERO PUSH3 0x3EE JUMPI DUP3 PUSH1 0x40 MLOAD PUSH4 0x305A27A9 PUSH1 0xE0 SHL DUP2 MSTORE PUSH1 0x4 ADD PUSH3 0x3E5 SWAP2 SWAP1 PUSH3 0x61B JUMP JUMPDEST PUSH1 0x40 MLOAD DUP1 SWAP2 SUB SWAP1 REVERT JUMPDEST DUP1 MLOAD PUSH3 0x3FB DUP3 PUSH3 0x66B JUMP JUMPDEST OR SWAP4 SWAP3 POP POP POP JUMP JUMPDEST DUP1 MLOAD PUSH1 0x1 PUSH1 0x1 PUSH1 0xA0 SHL SUB DUP2 AND DUP2 EQ PUSH3 0x41B JUMPI PUSH1 0x0 DUP1 REVERT JUMPDEST SWAP2 SWAP1 POP JUMP JUMPDEST PUSH1 0x0 DUP1 PUSH1 0x0 DUP1 PUSH1 0x0 PUSH1 0xA0 DUP7 DUP9 SUB SLT ISZERO PUSH3 0x439 JUMPI PUSH1 0x0 DUP1 REVERT JUMPDEST PUSH3 0x444 DUP7 PUSH3 0x403 JUMP JUMPDEST SWAP5 POP PUSH3 0x454 PUSH1 0x20 DUP8 ADD PUSH3 0x403 JUMP JUMPDEST SWAP4 POP PUSH3 0x464 PUSH1 0x40 DUP8 ADD PUSH3 0x403 JUMP JUMPDEST SWAP3 POP PUSH3 0x474 PUSH1 0x60 DUP8 ADD PUSH3 0x403 JUMP JUMPDEST SWAP2 POP PUSH1 0x80 DUP7 ADD MLOAD SWAP1 POP SWAP3 SWAP6 POP SWAP3 SWAP6 SWAP1 SWAP4 POP JUMP JUMPDEST PUSH4 0x4E487B71 PUSH1 0xE0 SHL PUSH1 0x0 MSTORE PUSH1 0x41 PUSH1 0x4 MSTORE PUSH1 0x24 PUSH1 0x0 REVERT JUMPDEST PUSH1 0x1 DUP2 DUP2 SHR SWAP1 DUP3 AND DUP1 PUSH3 0x4B2 JUMPI PUSH1 0x7F DUP3 AND SWAP2 POP JUMPDEST PUSH1 0x20 DUP3 LT DUP2 SUB PUSH3 0x4D3 JUMPI PUSH4 0x4E487B71 PUSH1 0xE0 SHL PUSH1 0x0 MSTORE PUSH1 0x22 PUSH1 0x4 MSTORE PUSH1 0x24 PUSH1 0x0 REVERT JUMPDEST POP SWAP2 SWAP1 POP JUMP JUMPDEST PUSH1 0x1F DUP3 GT ISZERO PUSH3 0x527 JUMPI PUSH1 0x0 DUP2 DUP2 MSTORE PUSH1 0x20 DUP2 KECCAK256 PUSH1 0x1F DUP6 ADD PUSH1 0x5 SHR DUP2 ADD PUSH1 0x20 DUP7 LT ISZERO PUSH3 0x502 JUMPI POP DUP1 JUMPDEST PUSH1 0x1F DUP6 ADD PUSH1 0x5 SHR DUP3 ADD SWAP2 POP JUMPDEST DUP2 DUP2 LT ISZERO PUSH3 0x523 JUMPI DUP3 DUP2 SSTORE PUSH1 0x1 ADD PUSH3 0x50E JUMP JUMPDEST POP POP POP JUMPDEST POP POP POP JUMP JUMPDEST DUP2 MLOAD PUSH1 0x1 PUSH1 0x1 PUSH1 0x40 SHL SUB DUP2 GT ISZERO PUSH3 0x548 JUMPI PUSH3 0x548 PUSH3 0x487 JUMP JUMPDEST PUSH3 0x560 DUP2 PUSH3 0x559 DUP5 SLOAD PUSH3 0x49D JUMP JUMPDEST DUP5 PUSH3 0x4D9 JUMP JUMPDEST PUSH1 0x20 DUP1 PUSH1 0x1F DUP4 GT PUSH1 0x1 DUP2 EQ PUSH3 0x598 JUMPI PUSH1 0x0 DUP5 ISZERO PUSH3 0x57F JUMPI POP DUP6 DUP4 ADD MLOAD JUMPDEST PUSH1 0x0 NOT PUSH1 0x3 DUP7 SWAP1 SHL SHR NOT AND PUSH1 0x1 DUP6 SWAP1 SHL OR DUP6 SSTORE PUSH3 0x523 JUMP JUMPDEST PUSH1 0x0 DUP6 DUP2 MSTORE PUSH1 0x20 DUP2 KECCAK256 PUSH1 0x1F NOT DUP7 AND SWAP2 JUMPDEST DUP3 DUP2 LT ISZERO PUSH3 0x5C9 JUMPI DUP9 DUP7 ADD MLOAD DUP3 SSTORE SWAP5 DUP5 ADD SWAP5 PUSH1 0x1 SWAP1 SWAP2 ADD SWAP1 DUP5 ADD PUSH3 0x5A8 JUMP JUMPDEST POP DUP6 DUP3 LT ISZERO PUSH3 0x5E8 JUMPI DUP8 DUP6 ADD MLOAD PUSH1 0x0 NOT PUSH1 0x3 DUP9 SWAP1 SHL PUSH1 0xF8 AND SHR NOT AND DUP2 SSTORE JUMPDEST POP POP POP POP POP PUSH1 0x1 SWAP1 DUP2 SHL ADD SWAP1 SSTORE POP JUMP JUMPDEST PUSH1 0x0 DUP3 PUSH3 0x616 JUMPI PUSH4 0x4E487B71 PUSH1 0xE0 SHL PUSH1 0x0 MSTORE PUSH1 0x12 PUSH1 0x4 MSTORE PUSH1 0x24 PUSH1 0x0 REVERT JUMPDEST POP DIV SWAP1 JUMP JUMPDEST PUSH1 0x0 PUSH1 0x20 DUP1 DUP4 MSTORE DUP4 MLOAD DUP1 DUP3 DUP6 ADD MSTORE PUSH1 0x0 JUMPDEST DUP2 DUP2 LT ISZERO PUSH3 0x64A JUMPI DUP6 DUP2 ADD DUP4 ADD MLOAD DUP6 DUP3 ADD PUSH1 0x40 ADD MSTORE DUP3 ADD PUSH3 0x62C JUMP JUMPDEST POP PUSH1 0x0 PUSH1 0x40 DUP3 DUP7 ADD ADD MSTORE PUSH1 0x40 PUSH1 0x1F NOT PUSH1 0x1F DUP4 ADD AND DUP6 ADD ADD SWAP3 POP POP POP SWAP3 SWAP2 POP POP JUMP JUMPDEST DUP1 MLOAD PUSH1 0x20 DUP1 DUP4 ADD MLOAD SWAP2 SWAP1 DUP2 LT ISZERO PUSH3 0x4D3 JUMPI PUSH1 0x0 NOT PUSH1 0x20 SWAP2 SWAP1 SWAP2 SUB PUSH1 0x3 SHL SHL AND SWAP2 SWAP1 POP JUMP JUMPDEST PUSH1 0x80 MLOAD PUSH1 0xA0 MLOAD PUSH1 0xC0 MLOAD PUSH1 0xE0 MLOAD PUSH2 0x100 MLOAD PUSH2 0x120 MLOAD PUSH2 0x140 MLOAD PUSH2 0x25E1 PUSH3 0x6EB PUSH1 0x0 CODECOPY PUSH1 0x0 PUSH2 0x18DC ADD MSTORE PUSH1 0x0 PUSH2 0x18AF ADD MSTORE PUSH1 0x0 PUSH2 0x166D ADD MSTORE PUSH1 0x0 PUSH2 0x1645 ADD MSTORE PUSH1 0x0 PUSH2 0x15A0 ADD MSTORE PUSH1 0x0 PUSH2 0x15CA ADD MSTORE PUSH1 0x0 PUSH2 0x15F4 ADD MSTORE PUSH2 0x25E1 PUSH1 0x0 RETURN INVALID PUSH1 0x80 PUSH1 0x40 MSTORE CALLVALUE DUP1 ISZERO PUSH2 0x10 JUMPI PUSH1 0x0 DUP1 REVERT JUMPDEST POP PUSH1 0x4 CALLDATASIZE LT PUSH2 0x35D JUMPI PUSH1 0x0 CALLDATALOAD PUSH1 0xE0 SHR DUP1 PUSH4 0x8EBFC796 GT PUSH2 0x1D3 JUMPI DUP1 PUSH4 0xD505ACCF GT PUSH2 0x104 JUMPI DUP1 PUSH4 0xDD62ED3E GT PUSH2 0xA2 JUMPI DUP1 PUSH4 0xE94A0102 GT PUSH2 0x7C JUMPI DUP1 PUSH4 0xE94A0102 EQ PUSH2 0x7A7 JUMPI DUP1 PUSH4 0xEF55BEC6 EQ PUSH2 0x7D5 JUMPI DUP1 PUSH4 0xFB83A664 EQ PUSH2 0x7E8 JUMPI DUP1 PUSH4 0xFE575A87 EQ PUSH2 0x7F1 JUMPI PUSH1 0x0 DUP1 REVERT JUMPDEST DUP1 PUSH4 0xDD62ED3E EQ PUSH2 0x734 JUMPI DUP1 PUSH4 0xE3EE160E EQ PUSH2 0x76D JUMPI DUP1 PUSH4 0xE63AB1E9 EQ PUSH2 0x780 JUMPI PUSH1 0x0 DUP1 REVERT JUMPDEST DUP1 PUSH4 0xD55BE8C6 GT PUSH2 0xDE JUMPI DUP1 PUSH4 0xD55BE8C6 EQ PUSH2 0x6E9 JUMPI DUP1 PUSH4 0xD87A2993 EQ PUSH2 0x6F1 JUMPI DUP1 PUSH4 0xD89135CD EQ PUSH2 0x704 JUMPI DUP1 PUSH4 0xD9169487 EQ PUSH2 0x70D JUMPI PUSH1 0x0 DUP1 REVERT JUMPDEST DUP1 PUSH4 0xD505ACCF EQ PUSH2 0x69C JUMPI DUP1 PUSH4 0xD5391393 EQ PUSH2 0x6AF JUMPI DUP1 PUSH4 0xD547741F EQ PUSH2 0x6D6 JUMPI PUSH1 0x0 DUP1 REVERT JUMPDEST DUP1 PUSH4 0xA217FDDF GT PUSH2 0x171 JUMPI DUP1 PUSH4 0xA9059CBB GT PUSH2 0x14B JUMPI DUP1 PUSH4 0xA9059CBB EQ PUSH2 0x643 JUMPI DUP1 PUSH4 0xB780595B EQ PUSH2 0x656 JUMPI DUP1 PUSH4 0xC415B95C EQ PUSH2 0x669 JUMPI DUP1 PUSH4 0xC8BE015E EQ PUSH2 0x694 JUMPI PUSH1 0x0 DUP1 REVERT JUMPDEST DUP1 PUSH4 0xA217FDDF EQ PUSH2 0x61F JUMPI DUP1 PUSH4 0xA2309FF8 EQ PUSH2 0x627 JUMPI DUP1 PUSH4 0xA42DCE80 EQ PUSH2 0x630 JUMPI PUSH1 0x0 DUP1 REVERT JUMPDEST DUP1 PUSH4 0x9358928B GT PUSH2 0x1AD JUMPI DUP1 PUSH4 0x9358928B EQ PUSH2 0x5DF JUMPI DUP1 PUSH4 0x95D89B41 EQ PUSH2 0x5E7 JUMPI DUP1 PUSH4 0x9DE8D982 EQ PUSH2 0x5EF JUMPI DUP1 PUSH4 0xA0CC6A68 EQ PUSH2 0x5F8 JUMPI PUSH1 0x0 DUP1 REVERT JUMPDEST DUP1 PUSH4 0x8EBFC796 EQ PUSH2 0x5A6 JUMPI DUP1 PUSH4 0x8F02BB5B EQ PUSH2 0x5B9 JUMPI DUP1 PUSH4 0x91D14854 EQ PUSH2 0x5CC JUMPI PUSH1 0x0 DUP1 REVERT JUMPDEST DUP1 PUSH4 0x36568ABE GT PUSH2 0x2AD JUMPI DUP1 PUSH4 0x5DE78D7A GT PUSH2 0x24B JUMPI DUP1 PUSH4 0x7ECEBE00 GT PUSH2 0x225 JUMPI DUP1 PUSH4 0x7ECEBE00 EQ PUSH2 0x549 JUMPI DUP1 PUSH4 0x7F2EECC3 EQ PUSH2 0x55C JUMPI DUP1 PUSH4 0x8456CB59 EQ PUSH2 0x583 JUMPI DUP1 PUSH4 0x84B0196E EQ PUSH2 0x58B JUMPI PUSH1 0x0 DUP1 REVERT JUMPDEST DUP1 PUSH4 0x5DE78D7A EQ PUSH2 0x504 JUMPI DUP1 PUSH4 0x70A08231 EQ PUSH2 0x50D JUMPI DUP1 PUSH4 0x79CC6790 EQ PUSH2 0x536 JUMPI PUSH1 0x0 DUP1 REVERT JUMPDEST DUP1 PUSH4 0x40C10F19 GT PUSH2 0x287 JUMPI DUP1 PUSH4 0x40C10F19 EQ PUSH2 0x4C0 JUMPI DUP1 PUSH4 0x42966C68 EQ PUSH2 0x4D3 JUMPI DUP1 PUSH4 0x48B8691C EQ PUSH2 0x4E6 JUMPI DUP1 PUSH4 0x5C975ABB EQ PUSH2 0x4F9 JUMPI PUSH1 0x0 DUP1 REVERT JUMPDEST DUP1 PUSH4 0x36568ABE EQ PUSH2 0x482 JUMPI DUP1 PUSH4 0x3F4218E0 EQ PUSH2 0x495 JUMPI DUP1 PUSH4 0x3F4BA83A EQ PUSH2 0x4B8 JUMPI PUSH1 0x0 DUP1 REVERT JUMPDEST DUP1 PUSH4 0x18160DDD GT PUSH2 0x31A JUMPI DUP1 PUSH4 0x2832BCB5 GT PUSH2 0x2F4 JUMPI DUP1 PUSH4 0x2832BCB5 EQ PUSH2 0x44F JUMPI DUP1 PUSH4 0x2F2FF15D EQ PUSH2 0x458 JUMPI DUP1 PUSH4 0x313CE567 EQ PUSH2 0x46B JUMPI DUP1 PUSH4 0x3644E515 EQ PUSH2 0x47A JUMPI PUSH1 0x0 DUP1 REVERT JUMPDEST DUP1 PUSH4 0x18160DDD EQ PUSH2 0x411 JUMPI DUP1 PUSH4 0x23B872DD EQ PUSH2 0x419 JUMPI DUP1 PUSH4 0x248A9CA3 EQ PUSH2 0x42C JUMPI PUSH1 0x0 DUP1 REVERT JUMPDEST DUP1 PUSH4 0x1FFC9A7 EQ PUSH2 0x362 JUMPI DUP1 PUSH4 0x5DB2F41 EQ PUSH2 0x38A JUMPI DUP1 PUSH4 0x62D3BD7 EQ PUSH2 0x3AD JUMPI DUP1 PUSH4 0x6FDDE03 EQ PUSH2 0x3D4 JUMPI DUP1 PUSH4 0x95EA7B3 EQ PUSH2 0x3E9 JUMPI DUP1 PUSH4 0x153B0D1E EQ PUSH2 0x3FC JUMPI JUMPDEST PUSH1 0x0 DUP1 REVERT JUMPDEST PUSH2 0x375 PUSH2 0x370 CALLDATASIZE PUSH1 0x4 PUSH2 0x20EE JUMP JUMPDEST PUSH2 0x814 JUMP JUMPDEST PUSH1 0x40 MLOAD SWAP1 ISZERO ISZERO DUP2 MSTORE PUSH1 0x20 ADD JUMPDEST PUSH1 0x40 MLOAD DUP1 SWAP2 SUB SWAP1 RETURN JUMPDEST PUSH2 0x39F PUSH1 0x0 DUP1 MLOAD PUSH1 0x20 PUSH2 0x258C DUP4 CODECOPY DUP2 MLOAD SWAP2 MSTORE DUP2 JUMP JUMPDEST PUSH1 0x40 MLOAD SWAP1 DUP2 MSTORE PUSH1 0x20 ADD PUSH2 0x381 JUMP JUMPDEST PUSH2 0x39F PUSH32 0x442A94F1A1FAC79AF32856AF2A64F63648CFA2EF3B98610A5BB7CBEC4CEE6985 DUP2 JUMP JUMPDEST PUSH2 0x3DC PUSH2 0x84B JUMP JUMPDEST PUSH1 0x40 MLOAD PUSH2 0x381 SWAP2 SWAP1 PUSH2 0x2165 JUMP JUMPDEST PUSH2 0x375 PUSH2 0x3F7 CALLDATASIZE PUSH1 0x4 PUSH2 0x2194 JUMP JUMPDEST PUSH2 0x8DD JUMP JUMPDEST PUSH2 0x40F PUSH2 0x40A CALLDATASIZE PUSH1 0x4 PUSH2 0x21BE JUMP JUMPDEST PUSH2 0x8F5 JUMP JUMPDEST STOP JUMPDEST PUSH1 0x2 SLOAD PUSH2 0x39F JUMP JUMPDEST PUSH2 0x375 PUSH2 0x427 CALLDATASIZE PUSH1 0x4 PUSH2 0x21FA JUMP JUMPDEST PUSH2 0x980 JUMP JUMPDEST PUSH2 0x39F PUSH2 0x43A CALLDATASIZE PUSH1 0x4 PUSH2 0x2236 JUMP JUMPDEST PUSH1 0x0 SWAP1 DUP2 MSTORE PUSH1 0x9 PUSH1 0x20 MSTORE PUSH1 0x40 SWAP1 KECCAK256 PUSH1 0x1 ADD SLOAD SWAP1 JUMP JUMPDEST PUSH2 0x39F PUSH1 0xB SLOAD DUP2 JUMP JUMPDEST PUSH2 0x40F PUSH2 0x466 CALLDATASIZE PUSH1 0x4 PUSH2 0x224F JUMP JUMPDEST PUSH2 0x9A4 JUMP JUMPDEST PUSH1 0x40 MLOAD PUSH1 0x6 DUP2 MSTORE PUSH1 0x20 ADD PUSH2 0x381 JUMP JUMPDEST PUSH2 0x39F PUSH2 0x9CF JUMP JUMPDEST PUSH2 0x40F PUSH2 0x490 CALLDATASIZE PUSH1 0x4 PUSH2 0x224F JUMP JUMPDEST PUSH2 0x9DE JUMP JUMPDEST PUSH2 0x375 PUSH2 0x4A3 CALLDATASIZE PUSH1 0x4 PUSH2 0x227B JUMP JUMPDEST PUSH1 0x10 PUSH1 0x20 MSTORE PUSH1 0x0 SWAP1 DUP2 MSTORE PUSH1 0x40 SWAP1 KECCAK256 SLOAD PUSH1 0xFF AND DUP2 JUMP JUMPDEST PUSH2 0x40F PUSH2 0xA16 JUMP JUMPDEST PUSH2 0x40F PUSH2 0x4CE CALLDATASIZE PUSH1 0x4 PUSH2 0x2194 JUMP JUMPDEST PUSH2 0xA4B JUMP JUMPDEST PUSH2 0x40F PUSH2 0x4E1 CALLDATASIZE PUSH1 0x4 PUSH2 0x2236 JUMP JUMPDEST PUSH2 0xB65 JUMP JUMPDEST PUSH2 0x40F PUSH2 0x4F4 CALLDATASIZE PUSH1 0x4 PUSH2 0x224F JUMP JUMPDEST PUSH2 0xB6F JUMP JUMPDEST PUSH1 0x8 SLOAD PUSH1 0xFF AND PUSH2 0x375 JUMP JUMPDEST PUSH2 0x39F PUSH1 0xE SLOAD DUP2 JUMP JUMPDEST PUSH2 0x39F PUSH2 0x51B CALLDATASIZE PUSH1 0x4 PUSH2 0x227B JUMP JUMPDEST PUSH1 0x1 PUSH1 0x1 PUSH1 0xA0 SHL SUB AND PUSH1 0x0 SWAP1 DUP2 MSTORE PUSH1 0x20 DUP2 SWAP1 MSTORE PUSH1 0x40 SWAP1 KECCAK256 SLOAD SWAP1 JUMP JUMPDEST PUSH2 0x40F PUSH2 0x544 CALLDATASIZE PUSH1 0x4 PUSH2 0x2194 JUMP JUMPDEST PUSH2 0xC2A JUMP JUMPDEST PUSH2 0x39F PUSH2 0x557 CALLDATASIZE PUSH1 0x4 PUSH2 0x227B JUMP JUMPDEST PUSH2 0xC43 JUMP JUMPDEST PUSH2 0x39F PUSH32 0xD099CC98EF71107A616C4F0F941F04C322D8E254FE26B3C6668DB87AAE413DE8 DUP2 JUMP JUMPDEST PUSH2 0x40F PUSH2 0xC61 JUMP JUMPDEST PUSH2 0x593 PUSH2 0xC93 JUMP JUMPDEST PUSH1 0x40 MLOAD PUSH2 0x381 SWAP8 SWAP7 SWAP6 SWAP5 SWAP4 SWAP3 SWAP2 SWAP1 PUSH2 0x2296 JUMP JUMPDEST PUSH2 0x40F PUSH2 0x5B4 CALLDATASIZE PUSH1 0x4 PUSH2 0x21BE JUMP JUMPDEST PUSH2 0xCD9 JUMP JUMPDEST PUSH2 0x40F PUSH2 0x5C7 CALLDATASIZE PUSH1 0x4 PUSH2 0x2236 JUMP JUMPDEST PUSH2 0xD49 JUMP JUMPDEST PUSH2 0x375 PUSH2 0x5DA CALLDATASIZE PUSH1 0x4 PUSH2 0x224F JUMP JUMPDEST PUSH2 0xDD4 JUMP JUMPDEST PUSH2 0x39F PUSH2 0xDFF JUMP JUMPDEST PUSH2 0x3DC PUSH2 0xE11 JUMP JUMPDEST PUSH2 0x39F PUSH1 0xD SLOAD DUP2 JUMP JUMPDEST PUSH2 0x39F PUSH32 0x7C7C6CDB67A18743F49EC6FA9B35F50D52ED05CBED4CC592E13B44501C1A2267 DUP2 JUMP JUMPDEST PUSH2 0x39F PUSH1 0x0 DUP2 JUMP JUMPDEST PUSH2 0x39F PUSH1 0x11 SLOAD DUP2 JUMP JUMPDEST PUSH2 0x40F PUSH2 0x63E CALLDATASIZE PUSH1 0x4 PUSH2 0x227B JUMP JUMPDEST PUSH2 0xE20 JUMP JUMPDEST PUSH2 0x375 PUSH2 0x651 CALLDATASIZE PUSH1 0x4 PUSH2 0x2194 JUMP JUMPDEST PUSH2 0xEB9 JUMP JUMPDEST PUSH2 0x40F PUSH2 0x664 CALLDATASIZE PUSH1 0x4 PUSH2 0x2236 JUMP JUMPDEST PUSH2 0xEC7 JUMP JUMPDEST PUSH1 0xF SLOAD PUSH2 0x67C SWAP1 PUSH1 0x1 PUSH1 0x1 PUSH1 0xA0 SHL SUB AND DUP2 JUMP JUMPDEST PUSH1 0x40 MLOAD PUSH1 0x1 PUSH1 0x1 PUSH1 0xA0 SHL SUB SWAP1 SWAP2 AND DUP2 MSTORE PUSH1 0x20 ADD PUSH2 0x381 JUMP JUMPDEST PUSH2 0x39F PUSH2 0xF10 JUMP JUMPDEST PUSH2 0x40F PUSH2 0x6AA CALLDATASIZE PUSH1 0x4 PUSH2 0x233D JUMP JUMPDEST PUSH2 0xF69 JUMP JUMPDEST PUSH2 0x39F PUSH32 0x9F2DF0FED2C77648DE5860A4CC508CD0818C85B8B8A1AB4CEEEF8D981C8956A6 DUP2 JUMP JUMPDEST PUSH2 0x40F PUSH2 0x6E4 CALLDATASIZE PUSH1 0x4 PUSH2 0x224F JUMP JUMPDEST PUSH2 0x10A3 JUMP JUMPDEST PUSH2 0x39F PUSH1 0x32 DUP2 JUMP JUMPDEST PUSH2 0x40F PUSH2 0x6FF CALLDATASIZE PUSH1 0x4 PUSH2 0x23A7 JUMP JUMPDEST PUSH2 0x10C8 JUMP JUMPDEST PUSH2 0x39F PUSH1 0x12 SLOAD DUP2 JUMP JUMPDEST PUSH2 0x39F PUSH32 0x158B0A9EDF7A828AAD02F63CD515C68EF2F50BA807396F6D12842833A1597429 DUP2 JUMP JUMPDEST PUSH2 0x39F PUSH2 0x742 CALLDATASIZE PUSH1 0x4 PUSH2 0x23E2 JUMP JUMPDEST PUSH1 0x1 PUSH1 0x1 PUSH1 0xA0 SHL SUB SWAP2 DUP3 AND PUSH1 0x0 SWAP1 DUP2 MSTORE PUSH1 0x1 PUSH1 0x20 SWAP1 DUP2 MSTORE PUSH1 0x40 DUP1 DUP4 KECCAK256 SWAP4 SWAP1 SWAP5 AND DUP3 MSTORE SWAP2 SWAP1 SWAP2 MSTORE KECCAK256 SLOAD SWAP1 JUMP JUMPDEST PUSH2 0x40F PUSH2 0x77B CALLDATASIZE PUSH1 0x4 PUSH2 0x240C JUMP JUMPDEST PUSH2 0x11C5 JUMP JUMPDEST PUSH2 0x39F PUSH32 0x65D7A28E3265B37A6474929F336521B332C1681B933F6CB9F3376673440D862A DUP2 JUMP JUMPDEST PUSH2 0x375 PUSH2 0x7B5 CALLDATASIZE PUSH1 0x4 PUSH2 0x2194 JUMP JUMPDEST PUSH1 0x13 PUSH1 0x20 SWAP1 DUP2 MSTORE PUSH1 0x0 SWAP3 DUP4 MSTORE PUSH1 0x40 DUP1 DUP5 KECCAK256 SWAP1 SWAP2 MSTORE SWAP1 DUP3 MSTORE SWAP1 KECCAK256 SLOAD PUSH1 0xFF AND DUP2 JUMP JUMPDEST PUSH2 0x40F PUSH2 0x7E3 CALLDATASIZE PUSH1 0x4 PUSH2 0x240C JUMP JUMPDEST PUSH2 0x1319 JUMP JUMPDEST PUSH2 0x39F PUSH1 0xC SLOAD DUP2 JUMP JUMPDEST PUSH2 0x375 PUSH2 0x7FF CALLDATASIZE PUSH1 0x4 PUSH2 0x227B JUMP JUMPDEST PUSH1 0xA PUSH1 0x20 MSTORE PUSH1 0x0 SWAP1 DUP2 MSTORE PUSH1 0x40 SWAP1 KECCAK256 SLOAD PUSH1 0xFF AND DUP2 JUMP JUMPDEST PUSH1 0x0 PUSH1 0x1 PUSH1 0x1 PUSH1 0xE0 SHL SUB NOT DUP3 AND PUSH4 0x7965DB0B PUSH1 0xE0 SHL EQ DUP1 PUSH2 0x845 JUMPI POP PUSH4 0x1FFC9A7 PUSH1 0xE0 SHL PUSH1 0x1 PUSH1 0x1 PUSH1 0xE0 SHL SUB NOT DUP4 AND EQ JUMPDEST SWAP3 SWAP2 POP POP JUMP JUMPDEST PUSH1 0x60 PUSH1 0x3 DUP1 SLOAD PUSH2 0x85A SWAP1 PUSH2 0x248A JUMP JUMPDEST DUP1 PUSH1 0x1F ADD PUSH1 0x20 DUP1 SWAP2 DIV MUL PUSH1 0x20 ADD PUSH1 0x40 MLOAD SWAP1 DUP2 ADD PUSH1 0x40 MSTORE DUP1 SWAP3 SWAP2 SWAP1 DUP2 DUP2 MSTORE PUSH1 0x20 ADD DUP3 DUP1 SLOAD PUSH2 0x886 SWAP1 PUSH2 0x248A JUMP JUMPDEST DUP1 ISZERO PUSH2 0x8D3 JUMPI DUP1 PUSH1 0x1F LT PUSH2 0x8A8 JUMPI PUSH2 0x100 DUP1 DUP4 SLOAD DIV MUL DUP4 MSTORE SWAP2 PUSH1 0x20 ADD SWAP2 PUSH2 0x8D3 JUMP JUMPDEST DUP3 ADD SWAP2 SWAP1 PUSH1 0x0 MSTORE PUSH1 0x20 PUSH1 0x0 KECCAK256 SWAP1 JUMPDEST DUP2 SLOAD DUP2 MSTORE SWAP1 PUSH1 0x1 ADD SWAP1 PUSH1 0x20 ADD DUP1 DUP4 GT PUSH2 0x8B6 JUMPI DUP3 SWAP1 SUB PUSH1 0x1F AND DUP3 ADD SWAP2 JUMPDEST POP POP POP POP POP SWAP1 POP SWAP1 JUMP JUMPDEST PUSH1 0x0 CALLER PUSH2 0x8EB DUP2 DUP6 DUP6 PUSH2 0x1410 JUMP JUMPDEST POP PUSH1 0x1 SWAP4 SWAP3 POP POP POP JUMP JUMPDEST PUSH32 0x442A94F1A1FAC79AF32856AF2A64F63648CFA2EF3B98610A5BB7CBEC4CEE6985 PUSH2 0x91F DUP2 PUSH2 0x141D JUMP JUMPDEST PUSH1 0x1 PUSH1 0x1 PUSH1 0xA0 SHL SUB DUP4 AND PUSH1 0x0 DUP2 DUP2 MSTORE PUSH1 0xA PUSH1 0x20 SWAP1 DUP2 MSTORE PUSH1 0x40 SWAP2 DUP3 SWAP1 KECCAK256 DUP1 SLOAD PUSH1 0xFF NOT AND DUP7 ISZERO ISZERO SWAP1 DUP2 OR SWAP1 SWAP2 SSTORE SWAP2 MLOAD SWAP2 DUP3 MSTORE PUSH32 0x6A12B3DF6CBA4203BD7FD06B816789F87DE8C594299AED5717AE070FAC781BAC SWAP2 ADD JUMPDEST PUSH1 0x40 MLOAD DUP1 SWAP2 SUB SWAP1 LOG2 POP POP POP JUMP JUMPDEST PUSH1 0x0 CALLER PUSH2 0x98E DUP6 DUP3 DUP6 PUSH2 0x1427 JUMP JUMPDEST PUSH2 0x999 DUP6 DUP6 DUP6 PUSH2 0x14A0 JUMP JUMPDEST POP PUSH1 0x1 SWAP5 SWAP4 POP POP POP POP JUMP JUMPDEST PUSH1 0x0 DUP3 DUP2 MSTORE PUSH1 0x9 PUSH1 0x20 MSTORE PUSH1 0x40 SWAP1 KECCAK256 PUSH1 0x1 ADD SLOAD PUSH2 0x9BF DUP2 PUSH2 0x141D JUMP JUMPDEST PUSH2 0x9C9 DUP4 DUP4 PUSH2 0x14FF JUMP JUMPDEST POP POP POP POP JUMP JUMPDEST PUSH1 0x0 PUSH2 0x9D9 PUSH2 0x1593 JUMP JUMPDEST SWAP1 POP SWAP1 JUMP JUMPDEST PUSH1 0x1 PUSH1 0x1 PUSH1 0xA0 SHL SUB DUP2 AND CALLER EQ PUSH2 0xA07 JUMPI PUSH1 0x40 MLOAD PUSH4 0x334BD919 PUSH1 0xE1 SHL DUP2 MSTORE PUSH1 0x4 ADD PUSH1 0x40 MLOAD DUP1 SWAP2 SUB SWAP1 REVERT JUMPDEST PUSH2 0xA11 DUP3 DUP3 PUSH2 0x16BE JUMP JUMPDEST POP POP POP JUMP JUMPDEST PUSH32 0x65D7A28E3265B37A6474929F336521B332C1681B933F6CB9F3376673440D862A PUSH2 0xA40 DUP2 PUSH2 0x141D JUMP JUMPDEST PUSH2 0xA48 PUSH2 0x172B JUMP JUMPDEST POP JUMP JUMPDEST PUSH32 0x9F2DF0FED2C77648DE5860A4CC508CD0818C85B8B8A1AB4CEEEF8D981C8956A6 PUSH2 0xA75 DUP2 PUSH2 0x141D JUMP JUMPDEST PUSH2 0xA7D PUSH2 0x177D JUMP JUMPDEST DUP2 PUSH1 0x0 SUB PUSH2 0xA9E JUMPI PUSH1 0x40 MLOAD PUSH4 0x162908E3 PUSH1 0xE1 SHL DUP2 MSTORE PUSH1 0x4 ADD PUSH1 0x40 MLOAD DUP1 SWAP2 SUB SWAP1 REVERT JUMPDEST PUSH1 0x1 PUSH1 0x1 PUSH1 0xA0 SHL SUB DUP4 AND PUSH2 0xAC5 JUMPI PUSH1 0x40 MLOAD PUSH4 0x4E469669 PUSH1 0xE1 SHL DUP2 MSTORE PUSH1 0x4 ADD PUSH1 0x40 MLOAD DUP1 SWAP2 SUB SWAP1 REVERT JUMPDEST PUSH2 0xACD PUSH2 0x17A3 JUMP JUMPDEST PUSH1 0x0 PUSH1 0xB SLOAD GT DUP1 ISZERO PUSH2 0xAED JUMPI POP PUSH1 0xB SLOAD DUP3 PUSH1 0xC SLOAD PUSH2 0xAEB SWAP2 SWAP1 PUSH2 0x24DA JUMP JUMPDEST GT JUMPDEST ISZERO PUSH2 0xB2A JUMPI DUP2 PUSH1 0xC SLOAD PUSH1 0xB SLOAD PUSH2 0xB03 SWAP2 SWAP1 PUSH2 0x24ED JUMP JUMPDEST PUSH1 0x40 MLOAD PUSH4 0x45A89487 PUSH1 0xE0 SHL DUP2 MSTORE PUSH1 0x4 DUP2 ADD SWAP3 SWAP1 SWAP3 MSTORE PUSH1 0x24 DUP3 ADD MSTORE PUSH1 0x44 ADD JUMPDEST PUSH1 0x40 MLOAD DUP1 SWAP2 SUB SWAP1 REVERT JUMPDEST DUP2 PUSH1 0xC PUSH1 0x0 DUP3 DUP3 SLOAD PUSH2 0xB3C SWAP2 SWAP1 PUSH2 0x24DA JUMP JUMPDEST SWAP3 POP POP DUP2 SWAP1 SSTORE POP DUP2 PUSH1 0x11 PUSH1 0x0 DUP3 DUP3 SLOAD PUSH2 0xB55 SWAP2 SWAP1 PUSH2 0x24DA JUMP JUMPDEST SWAP1 SWAP2 SSTORE POP PUSH2 0xA11 SWAP1 POP DUP4 DUP4 PUSH2 0x17FF JUMP JUMPDEST PUSH2 0xA48 CALLER DUP3 PUSH2 0x1835 JUMP JUMPDEST PUSH2 0xB77 PUSH2 0x177D JUMP JUMPDEST DUP2 PUSH1 0x0 SUB PUSH2 0xB98 JUMPI PUSH1 0x40 MLOAD PUSH4 0x162908E3 PUSH1 0xE1 SHL DUP2 MSTORE PUSH1 0x4 ADD PUSH1 0x40 MLOAD DUP1 SWAP2 SUB SWAP1 REVERT JUMPDEST PUSH1 0x1 PUSH1 0x1 PUSH1 0xA0 SHL SUB DUP2 AND PUSH2 0xBBF JUMPI PUSH1 0x40 MLOAD PUSH4 0x4E469669 PUSH1 0xE1 SHL DUP2 MSTORE PUSH1 0x4 ADD PUSH1 0x40 MLOAD DUP1 SWAP2 SUB SWAP1 REVERT JUMPDEST DUP2 PUSH1 0x12 PUSH1 0x0 DUP3 DUP3 SLOAD PUSH2 0xBD1 SWAP2 SWAP1 PUSH2 0x24DA JUMP JUMPDEST SWAP1 SWAP2 SSTORE POP PUSH2 0xBE1 SWAP1 POP CALLER DUP4 PUSH2 0x1835 JUMP JUMPDEST PUSH1 0x40 DUP1 MLOAD DUP4 DUP2 MSTORE TIMESTAMP PUSH1 0x20 DUP3 ADD MSTORE PUSH1 0x1 PUSH1 0x1 PUSH1 0xA0 SHL SUB DUP4 AND SWAP2 CALLER SWAP2 PUSH32 0xF19E38D400B780173D91580D23AD02EF9617F12FBE127581A9DD6736BC3214EF SWAP2 ADD PUSH1 0x40 MLOAD DUP1 SWAP2 SUB SWAP1 LOG3 POP POP JUMP JUMPDEST PUSH2 0xC35 DUP3 CALLER DUP4 PUSH2 0x1427 JUMP JUMPDEST PUSH2 0xC3F DUP3 DUP3 PUSH2 0x1835 JUMP JUMPDEST POP POP JUMP JUMPDEST PUSH1 0x1 PUSH1 0x1 PUSH1 0xA0 SHL SUB DUP2 AND PUSH1 0x0 SWAP1 DUP2 MSTORE PUSH1 0x7 PUSH1 0x20 MSTORE PUSH1 0x40 DUP2 KECCAK256 SLOAD PUSH2 0x845 JUMP JUMPDEST PUSH32 0x65D7A28E3265B37A6474929F336521B332C1681B933F6CB9F3376673440D862A PUSH2 0xC8B DUP2 PUSH2 0x141D JUMP JUMPDEST PUSH2 0xA48 PUSH2 0x186B JUMP JUMPDEST PUSH1 0x0 PUSH1 0x60 DUP1 PUSH1 0x0 DUP1 PUSH1 0x0 PUSH1 0x60 PUSH2 0xCA7 PUSH2 0x18A8 JUMP JUMPDEST PUSH2 0xCAF PUSH2 0x18D5 JUMP JUMPDEST PUSH1 0x40 DUP1 MLOAD PUSH1 0x0 DUP1 DUP3 MSTORE PUSH1 0x20 DUP3 ADD SWAP1 SWAP3 MSTORE PUSH1 0xF PUSH1 0xF8 SHL SWAP12 SWAP4 SWAP11 POP SWAP2 SWAP9 POP CHAINID SWAP8 POP ADDRESS SWAP7 POP SWAP5 POP SWAP3 POP SWAP1 POP JUMP JUMPDEST PUSH1 0x0 DUP1 MLOAD PUSH1 0x20 PUSH2 0x258C DUP4 CODECOPY DUP2 MLOAD SWAP2 MSTORE PUSH2 0xCF1 DUP2 PUSH2 0x141D JUMP JUMPDEST PUSH1 0x1 PUSH1 0x1 PUSH1 0xA0 SHL SUB DUP4 AND PUSH1 0x0 DUP2 DUP2 MSTORE PUSH1 0x10 PUSH1 0x20 SWAP1 DUP2 MSTORE PUSH1 0x40 SWAP2 DUP3 SWAP1 KECCAK256 DUP1 SLOAD PUSH1 0xFF NOT AND DUP7 ISZERO ISZERO SWAP1 DUP2 OR SWAP1 SWAP2 SSTORE SWAP2 MLOAD SWAP2 DUP3 MSTORE PUSH32 0x4D5771454588F51370A8A2E7E151354B6DE0DC3159B14821B4AD76BC04C28BC7 SWAP2 ADD PUSH2 0x973 JUMP JUMPDEST PUSH1 0x0 DUP1 MLOAD PUSH1 0x20 PUSH2 0x258C DUP4 CODECOPY DUP2 MLOAD SWAP2 MSTORE PUSH2 0xD61 DUP2 PUSH2 0x141D JUMP JUMPDEST PUSH1 0x32 DUP3 GT ISZERO PUSH2 0xD8D JUMPI PUSH1 0x40 MLOAD PUSH4 0x73AB8935 PUSH1 0xE1 SHL DUP2 MSTORE PUSH1 0x4 DUP2 ADD DUP4 SWAP1 MSTORE PUSH1 0x32 PUSH1 0x24 DUP3 ADD MSTORE PUSH1 0x44 ADD PUSH2 0xB21 JUMP JUMPDEST PUSH1 0xE DUP1 SLOAD SWAP1 DUP4 SWAP1 SSTORE PUSH1 0x40 DUP1 MLOAD DUP3 DUP2 MSTORE PUSH1 0x20 DUP2 ADD DUP6 SWAP1 MSTORE PUSH32 0x940334A9F5C76529AD9447AC490C2073B06D880209383A3D3E4B0ECAB72A0D99 SWAP2 ADD JUMPDEST PUSH1 0x40 MLOAD DUP1 SWAP2 SUB SWAP1 LOG1 POP POP POP JUMP JUMPDEST PUSH1 0x0 SWAP2 DUP3 MSTORE PUSH1 0x9 PUSH1 0x20 SWAP1 DUP2 MSTORE PUSH1 0x40 DUP1 DUP5 KECCAK256 PUSH1 0x1 PUSH1 0x1 PUSH1 0xA0 SHL SUB SWAP4 SWAP1 SWAP4 AND DUP5 MSTORE SWAP2 SWAP1 MSTORE SWAP1 KECCAK256 SLOAD PUSH1 0xFF AND SWAP1 JUMP JUMPDEST PUSH1 0x0 PUSH1 0x12 SLOAD PUSH1 0x11 SLOAD PUSH2 0x9D9 SWAP2 SWAP1 PUSH2 0x24ED JUMP JUMPDEST PUSH1 0x60 PUSH1 0x4 DUP1 SLOAD PUSH2 0x85A SWAP1 PUSH2 0x248A JUMP JUMPDEST PUSH1 0x0 DUP1 MLOAD PUSH1 0x20 PUSH2 0x258C DUP4 CODECOPY DUP2 MLOAD SWAP2 MSTORE PUSH2 0xE38 DUP2 PUSH2 0x141D JUMP JUMPDEST PUSH1 0x1 PUSH1 0x1 PUSH1 0xA0 SHL SUB DUP3 AND PUSH2 0xE5F JUMPI PUSH1 0x40 MLOAD PUSH4 0xBB0BAC99 PUSH1 0xE0 SHL DUP2 MSTORE PUSH1 0x4 ADD PUSH1 0x40 MLOAD DUP1 SWAP2 SUB SWAP1 REVERT JUMPDEST PUSH1 0xF DUP1 SLOAD PUSH1 0x1 PUSH1 0x1 PUSH1 0xA0 SHL SUB DUP5 DUP2 AND PUSH1 0x1 PUSH1 0x1 PUSH1 0xA0 SHL SUB NOT DUP4 AND DUP2 OR SWAP1 SWAP4 SSTORE PUSH1 0x40 DUP1 MLOAD SWAP2 SWAP1 SWAP3 AND DUP1 DUP3 MSTORE PUSH1 0x20 DUP3 ADD SWAP4 SWAP1 SWAP4 MSTORE PUSH32 0x5D16AD41BAEB009CD23EB8F6C7CDE5C2E0CD5ACF4A33926AB488875C37C37F38 SWAP2 ADD PUSH2 0xDC7 JUMP JUMPDEST PUSH1 0x0 CALLER PUSH2 0x8EB DUP2 DUP6 DUP6 PUSH2 0x14A0 JUMP JUMPDEST PUSH1 0x0 PUSH2 0xED2 DUP2 PUSH2 0x141D JUMP JUMPDEST PUSH1 0xB DUP1 SLOAD SWAP1 DUP4 SWAP1 SSTORE PUSH1 0x40 DUP1 MLOAD DUP3 DUP2 MSTORE PUSH1 0x20 DUP2 ADD DUP6 SWAP1 MSTORE PUSH32 0x2EE37CE64C711D861D1CB02D76A95D30E47A90E2DB87AB5D7E4584D16D7DC6E4 SWAP2 ADD PUSH2 0xDC7 JUMP JUMPDEST PUSH1 0x0 PUSH1 0xB SLOAD PUSH1 0x0 SUB PUSH2 0xF23 JUMPI POP PUSH1 0x0 NOT SWAP1 JUMP JUMPDEST PUSH1 0x0 PUSH2 0xF2D PUSH2 0x1902 JUMP JUMPDEST SWAP1 POP PUSH1 0xD SLOAD DUP2 EQ PUSH2 0xF40 JUMPI POP POP PUSH1 0xB SLOAD SWAP1 JUMP JUMPDEST PUSH1 0xB SLOAD PUSH1 0xC SLOAD LT PUSH2 0xF53 JUMPI PUSH1 0x0 SWAP2 POP POP SWAP1 JUMP JUMPDEST PUSH1 0xC SLOAD PUSH1 0xB SLOAD PUSH2 0xF63 SWAP2 SWAP1 PUSH2 0x24ED JUMP JUMPDEST SWAP2 POP POP SWAP1 JUMP JUMPDEST DUP4 TIMESTAMP GT ISZERO PUSH2 0xF8D JUMPI PUSH1 0x40 MLOAD PUSH4 0x313C8981 PUSH1 0xE1 SHL DUP2 MSTORE PUSH1 0x4 DUP2 ADD DUP6 SWAP1 MSTORE PUSH1 0x24 ADD PUSH2 0xB21 JUMP JUMPDEST PUSH1 0x0 PUSH32 0x6E71EDAE12B1B97F4D1F60370FEF10105FA2FAAE0126114A169C64845D6126C9 DUP9 DUP9 DUP9 PUSH2 0xFDA DUP13 PUSH1 0x1 PUSH1 0x1 PUSH1 0xA0 SHL SUB AND PUSH1 0x0 SWAP1 DUP2 MSTORE PUSH1 0x7 PUSH1 0x20 MSTORE PUSH1 0x40 SWAP1 KECCAK256 DUP1 SLOAD PUSH1 0x1 DUP2 ADD SWAP1 SWAP2 SSTORE SWAP1 JUMP JUMPDEST PUSH1 0x40 DUP1 MLOAD PUSH1 0x20 DUP2 ADD SWAP7 SWAP1 SWAP7 MSTORE PUSH1 0x1 PUSH1 0x1 PUSH1 0xA0 SHL SUB SWAP5 DUP6 AND SWAP1 DUP7 ADD MSTORE SWAP3 SWAP1 SWAP2 AND PUSH1 0x60 DUP5 ADD MSTORE PUSH1 0x80 DUP4 ADD MSTORE PUSH1 0xA0 DUP3 ADD MSTORE PUSH1 0xC0 DUP2 ADD DUP7 SWAP1 MSTORE PUSH1 0xE0 ADD PUSH1 0x40 MLOAD PUSH1 0x20 DUP2 DUP4 SUB SUB DUP2 MSTORE SWAP1 PUSH1 0x40 MSTORE DUP1 MLOAD SWAP1 PUSH1 0x20 ADD KECCAK256 SWAP1 POP PUSH1 0x0 PUSH2 0x1035 DUP3 PUSH2 0x1911 JUMP JUMPDEST SWAP1 POP PUSH1 0x0 PUSH2 0x1045 DUP3 DUP8 DUP8 DUP8 PUSH2 0x193E JUMP JUMPDEST SWAP1 POP DUP10 PUSH1 0x1 PUSH1 0x1 PUSH1 0xA0 SHL SUB AND DUP2 PUSH1 0x1 PUSH1 0x1 PUSH1 0xA0 SHL SUB AND EQ PUSH2 0x108C JUMPI PUSH1 0x40 MLOAD PUSH4 0x25C00723 PUSH1 0xE1 SHL DUP2 MSTORE PUSH1 0x1 PUSH1 0x1 PUSH1 0xA0 SHL SUB DUP1 DUP4 AND PUSH1 0x4 DUP4 ADD MSTORE DUP12 AND PUSH1 0x24 DUP3 ADD MSTORE PUSH1 0x44 ADD PUSH2 0xB21 JUMP JUMPDEST PUSH2 0x1097 DUP11 DUP11 DUP11 PUSH2 0x1410 JUMP JUMPDEST POP POP POP POP POP POP POP POP POP POP JUMP JUMPDEST PUSH1 0x0 DUP3 DUP2 MSTORE PUSH1 0x9 PUSH1 0x20 MSTORE PUSH1 0x40 SWAP1 KECCAK256 PUSH1 0x1 ADD SLOAD PUSH2 0x10BE DUP2 PUSH2 0x141D JUMP JUMPDEST PUSH2 0x9C9 DUP4 DUP4 PUSH2 0x16BE JUMP JUMPDEST CALLER PUSH1 0x0 SWAP1 DUP2 MSTORE PUSH1 0x13 PUSH1 0x20 SWAP1 DUP2 MSTORE PUSH1 0x40 DUP1 DUP4 KECCAK256 DUP8 DUP5 MSTORE SWAP1 SWAP2 MSTORE SWAP1 KECCAK256 SLOAD PUSH1 0xFF AND ISZERO PUSH2 0x110D JUMPI PUSH1 0x40 MLOAD PUSH4 0xD309466D PUSH1 0xE0 SHL DUP2 MSTORE CALLER PUSH1 0x4 DUP3 ADD MSTORE PUSH1 0x24 DUP2 ADD DUP6 SWAP1 MSTORE PUSH1 0x44 ADD PUSH2 0xB21 JUMP JUMPDEST PUSH1 0x40 DUP1 MLOAD PUSH32 0x158B0A9EDF7A828AAD02F63CD515C68EF2F50BA807396F6D12842833A1597429 PUSH1 0x20 DUP3 ADD MSTORE CALLER SWAP2 DUP2 ADD SWAP2 SWAP1 SWAP2 MSTORE PUSH1 0x60 DUP2 ADD DUP6 SWAP1 MSTORE PUSH1 0x0 SWAP1 PUSH1 0x80 ADD PUSH1 0x40 MLOAD PUSH1 0x20 DUP2 DUP4 SUB SUB DUP2 MSTORE SWAP1 PUSH1 0x40 MSTORE DUP1 MLOAD SWAP1 PUSH1 0x20 ADD KECCAK256 SWAP1 POP PUSH2 0x1171 CALLER DUP3 DUP7 DUP7 DUP7 PUSH2 0x196C JUMP JUMPDEST CALLER PUSH1 0x0 DUP2 DUP2 MSTORE PUSH1 0x13 PUSH1 0x20 SWAP1 DUP2 MSTORE PUSH1 0x40 DUP1 DUP4 KECCAK256 DUP10 DUP5 MSTORE SWAP1 SWAP2 MSTORE DUP1 DUP3 KECCAK256 DUP1 SLOAD PUSH1 0xFF NOT AND PUSH1 0x1 OR SWAP1 SSTORE MLOAD DUP8 SWAP3 SWAP2 PUSH32 0x1CDD46FF242716CDAA72D159D339A485B3438398348D68F09D7C8C0A59353D81 SWAP2 LOG3 POP POP POP POP POP JUMP JUMPDEST PUSH2 0x11CD PUSH2 0x177D JUMP JUMPDEST DUP6 TIMESTAMP GT ISZERO DUP1 PUSH2 0x11DC JUMPI POP DUP5 TIMESTAMP LT ISZERO JUMPDEST ISZERO PUSH2 0x11FD JUMPI PUSH1 0x40 MLOAD PUSH4 0x3D91B05F PUSH1 0xE0 SHL DUP2 MSTORE PUSH1 0x4 DUP2 ADD DUP7 SWAP1 MSTORE PUSH1 0x24 ADD PUSH2 0xB21 JUMP JUMPDEST PUSH1 0x1 PUSH1 0x1 PUSH1 0xA0 SHL SUB DUP10 AND PUSH1 0x0 SWAP1 DUP2 MSTORE PUSH1 0x13 PUSH1 0x20 SWAP1 DUP2 MSTORE PUSH1 0x40 DUP1 DUP4 KECCAK256 DUP8 DUP5 MSTORE SWAP1 SWAP2 MSTORE SWAP1 KECCAK256 SLOAD PUSH1 0xFF AND ISZERO PUSH2 0x1254 JUMPI PUSH1 0x40 MLOAD PUSH4 0xD309466D PUSH1 0xE0 SHL DUP2 MSTORE PUSH1 0x1 PUSH1 0x1 PUSH1 0xA0 SHL SUB DUP11 AND PUSH1 0x4 DUP3 ADD MSTORE PUSH1 0x24 DUP2 ADD DUP6 SWAP1 MSTORE PUSH1 0x44 ADD PUSH2 0xB21 JUMP JUMPDEST PUSH1 0x0 PUSH32 0x7C7C6CDB67A18743F49EC6FA9B35F50D52ED05CBED4CC592E13B44501C1A2267 DUP11 DUP11 DUP11 DUP11 DUP11 DUP11 PUSH1 0x40 MLOAD PUSH1 0x20 ADD PUSH2 0x1293 SWAP8 SWAP7 SWAP6 SWAP5 SWAP4 SWAP3 SWAP2 SWAP1 PUSH2 0x2500 JUMP JUMPDEST PUSH1 0x40 MLOAD PUSH1 0x20 DUP2 DUP4 SUB SUB DUP2 MSTORE SWAP1 PUSH1 0x40 MSTORE DUP1 MLOAD SWAP1 PUSH1 0x20 ADD KECCAK256 SWAP1 POP PUSH2 0x12B8 DUP11 DUP3 DUP7 DUP7 DUP7 PUSH2 0x196C JUMP JUMPDEST PUSH1 0x1 PUSH1 0x1 PUSH1 0xA0 SHL SUB DUP11 AND PUSH1 0x0 DUP2 DUP2 MSTORE PUSH1 0x13 PUSH1 0x20 SWAP1 DUP2 MSTORE PUSH1 0x40 DUP1 DUP4 KECCAK256 DUP10 DUP5 MSTORE SWAP1 SWAP2 MSTORE DUP1 DUP3 KECCAK256 DUP1 SLOAD PUSH1 0xFF NOT AND PUSH1 0x1 OR SWAP1 SSTORE MLOAD DUP8 SWAP3 SWAP2 PUSH32 0x98DE503528EE59B575EF0C0A2576A82497BFC029A5685B209E9EC333479B10A5 SWAP2 LOG3 PUSH2 0x1097 DUP11 DUP11 DUP11 PUSH2 0x14A0 JUMP JUMPDEST PUSH2 0x1321 PUSH2 0x177D JUMP JUMPDEST PUSH1 0x1 PUSH1 0x1 PUSH1 0xA0 SHL SUB DUP9 AND CALLER EQ PUSH2 0x134A JUMPI PUSH1 0x40 MLOAD PUSH4 0x476D419 PUSH1 0xE0 SHL DUP2 MSTORE PUSH1 0x4 ADD PUSH1 0x40 MLOAD DUP1 SWAP2 SUB SWAP1 REVERT JUMPDEST DUP6 TIMESTAMP GT ISZERO DUP1 PUSH2 0x1359 JUMPI POP DUP5 TIMESTAMP LT ISZERO JUMPDEST ISZERO PUSH2 0x137A JUMPI PUSH1 0x40 MLOAD PUSH4 0x3D91B05F PUSH1 0xE0 SHL DUP2 MSTORE PUSH1 0x4 DUP2 ADD DUP7 SWAP1 MSTORE PUSH1 0x24 ADD PUSH2 0xB21 JUMP JUMPDEST PUSH1 0x1 PUSH1 0x1 PUSH1 0xA0 SHL SUB DUP10 AND PUSH1 0x0 SWAP1 DUP2 MSTORE PUSH1 0x13 PUSH1 0x20 SWAP1 DUP2 MSTORE PUSH1 0x40 DUP1 DUP4 KECCAK256 DUP8 DUP5 MSTORE SWAP1 SWAP2 MSTORE SWAP1 KECCAK256 SLOAD PUSH1 0xFF AND ISZERO PUSH2 0x13D1 JUMPI PUSH1 0x40 MLOAD PUSH4 0xD309466D PUSH1 0xE0 SHL DUP2 MSTORE PUSH1 0x1 PUSH1 0x1 PUSH1 0xA0 SHL SUB DUP11 AND PUSH1 0x4 DUP3 ADD MSTORE PUSH1 0x24 DUP2 ADD DUP6 SWAP1 MSTORE PUSH1 0x44 ADD PUSH2 0xB21 JUMP JUMPDEST PUSH1 0x0 PUSH32 0xD099CC98EF71107A616C4F0F941F04C322D8E254FE26B3C6668DB87AAE413DE8 DUP11 DUP11 DUP11 DUP11 DUP11 DUP11 PUSH1 0x40 MLOAD PUSH1 0x20 ADD PUSH2 0x1293 SWAP8 SWAP7 SWAP6 SWAP5 SWAP4 SWAP3 SWAP2 SWAP1 PUSH2 0x2500 JUMP JUMPDEST PUSH2 0xA11 DUP4 DUP4 DUP4 PUSH1 0x1 PUSH2 0x1A2B JUMP JUMPDEST PUSH2 0xA48 DUP2 CALLER PUSH2 0x1B00 JUMP JUMPDEST PUSH1 0x1 PUSH1 0x1 PUSH1 0xA0 SHL SUB DUP4 DUP2 AND PUSH1 0x0 SWAP1 DUP2 MSTORE PUSH1 0x1 PUSH1 0x20 SWAP1 DUP2 MSTORE PUSH1 0x40 DUP1 DUP4 KECCAK256 SWAP4 DUP7 AND DUP4 MSTORE SWAP3 SWAP1 MSTORE KECCAK256 SLOAD PUSH1 0x0 NOT DUP2 LT ISZERO PUSH2 0x9C9 JUMPI DUP2 DUP2 LT ISZERO PUSH2 0x1491 JUMPI PUSH1 0x40 MLOAD PUSH4 0x7DC7A0D9 PUSH1 0xE1 SHL DUP2 MSTORE PUSH1 0x1 PUSH1 0x1 PUSH1 0xA0 SHL SUB DUP5 AND PUSH1 0x4 DUP3 ADD MSTORE PUSH1 0x24 DUP2 ADD DUP3 SWAP1 MSTORE PUSH1 0x44 DUP2 ADD DUP4 SWAP1 MSTORE PUSH1 0x64 ADD PUSH2 0xB21 JUMP JUMPDEST PUSH2 0x9C9 DUP5 DUP5 DUP5 DUP5 SUB PUSH1 0x0 PUSH2 0x1A2B JUMP JUMPDEST PUSH1 0x1 PUSH1 0x1 PUSH1 0xA0 SHL SUB DUP4 AND PUSH2 0x14CA JUMPI PUSH1 0x40 MLOAD PUSH4 0x4B637E8F PUSH1 0xE1 SHL DUP2 MSTORE PUSH1 0x0 PUSH1 0x4 DUP3 ADD MSTORE PUSH1 0x24 ADD PUSH2 0xB21 JUMP JUMPDEST PUSH1 0x1 PUSH1 0x1 PUSH1 0xA0 SHL SUB DUP3 AND PUSH2 0x14F4 JUMPI PUSH1 0x40 MLOAD PUSH4 0xEC442F05 PUSH1 0xE0 SHL DUP2 MSTORE PUSH1 0x0 PUSH1 0x4 DUP3 ADD MSTORE PUSH1 0x24 ADD PUSH2 0xB21 JUMP JUMPDEST PUSH2 0xA11 DUP4 DUP4 DUP4 PUSH2 0x1B39 JUMP JUMPDEST PUSH1 0x0 PUSH2 0x150B DUP4 DUP4 PUSH2 0xDD4 JUMP JUMPDEST PUSH2 0x158B JUMPI PUSH1 0x0 DUP4 DUP2 MSTORE PUSH1 0x9 PUSH1 0x20 SWAP1 DUP2 MSTORE PUSH1 0x40 DUP1 DUP4 KECCAK256 PUSH1 0x1 PUSH1 0x1 PUSH1 0xA0 SHL SUB DUP7 AND DUP5 MSTORE SWAP1 SWAP2 MSTORE SWAP1 KECCAK256 DUP1 SLOAD PUSH1 0xFF NOT AND PUSH1 0x1 OR SWAP1 SSTORE PUSH2 0x1543 CALLER SWAP1 JUMP JUMPDEST PUSH1 0x1 PUSH1 0x1 PUSH1 0xA0 SHL SUB AND DUP3 PUSH1 0x1 PUSH1 0x1 PUSH1 0xA0 SHL SUB AND DUP5 PUSH32 0x2F8788117E7EFF1D82E926EC794901D17C78024A50270940304540A733656F0D PUSH1 0x40 MLOAD PUSH1 0x40 MLOAD DUP1 SWAP2 SUB SWAP1 LOG4 POP PUSH1 0x1 PUSH2 0x845 JUMP JUMPDEST POP PUSH1 0x0 PUSH2 0x845 JUMP JUMPDEST PUSH1 0x0 ADDRESS PUSH1 0x1 PUSH1 0x1 PUSH1 0xA0 SHL SUB PUSH32 0x0 AND EQ DUP1 ISZERO PUSH2 0x15EC JUMPI POP PUSH32 0x0 CHAINID EQ JUMPDEST ISZERO PUSH2 0x1616 JUMPI POP PUSH32 0x0 SWAP1 JUMP JUMPDEST PUSH2 0x9D9 PUSH1 0x40 DUP1 MLOAD PUSH32 0x8B73C3C69BB8FE3D512ECC4CF759CC79239F7B179B0FFACAA9A75D522B39400F PUSH1 0x20 DUP3 ADD MSTORE PUSH32 0x0 SWAP2 DUP2 ADD SWAP2 SWAP1 SWAP2 MSTORE PUSH32 0x0 PUSH1 0x60 DUP3 ADD MSTORE CHAINID PUSH1 0x80 DUP3 ADD MSTORE ADDRESS PUSH1 0xA0 DUP3 ADD MSTORE PUSH1 0x0 SWAP1 PUSH1 0xC0 ADD PUSH1 0x40 MLOAD PUSH1 0x20 DUP2 DUP4 SUB SUB DUP2 MSTORE SWAP1 PUSH1 0x40 MSTORE DUP1 MLOAD SWAP1 PUSH1 0x20 ADD KECCAK256 SWAP1 POP SWAP1 JUMP JUMPDEST PUSH1 0x0 PUSH2 0x16CA DUP4 DUP4 PUSH2 0xDD4 JUMP JUMPDEST ISZERO PUSH2 0x158B JUMPI PUSH1 0x0 DUP4 DUP2 MSTORE PUSH1 0x9 PUSH1 0x20 SWAP1 DUP2 MSTORE PUSH1 0x40 DUP1 DUP4 KECCAK256 PUSH1 0x1 PUSH1 0x1 PUSH1 0xA0 SHL SUB DUP7 AND DUP1 DUP6 MSTORE SWAP3 MSTORE DUP1 DUP4 KECCAK256 DUP1 SLOAD PUSH1 0xFF NOT AND SWAP1 SSTORE MLOAD CALLER SWAP3 DUP7 SWAP2 PUSH32 0xF6391F5C32D9C69D2A47EA670B442974B53935D1EDC7FD64EB21E047A839171B SWAP2 SWAP1 LOG4 POP PUSH1 0x1 PUSH2 0x845 JUMP JUMPDEST PUSH2 0x1733 PUSH2 0x1CF4 JUMP JUMPDEST PUSH1 0x8 DUP1 SLOAD PUSH1 0xFF NOT AND SWAP1 SSTORE PUSH32 0x5DB9EE0A495BF2E6FF9C91A7834C1BA4FDD244A5E8AA4E537BD38AEAE4B073AA CALLER JUMPDEST PUSH1 0x40 MLOAD PUSH1 0x1 PUSH1 0x1 PUSH1 0xA0 SHL SUB SWAP1 SWAP2 AND DUP2 MSTORE PUSH1 0x20 ADD PUSH1 0x40 MLOAD DUP1 SWAP2 SUB SWAP1 LOG1 JUMP JUMPDEST PUSH1 0x8 SLOAD PUSH1 0xFF AND ISZERO PUSH2 0x17A1 JUMPI PUSH1 0x40 MLOAD PUSH4 0xD93C0665 PUSH1 0xE0 SHL DUP2 MSTORE PUSH1 0x4 ADD PUSH1 0x40 MLOAD DUP1 SWAP2 SUB SWAP1 REVERT JUMPDEST JUMP JUMPDEST PUSH1 0x0 PUSH2 0x17AD PUSH2 0x1902 JUMP JUMPDEST SWAP1 POP PUSH1 0xD SLOAD DUP2 EQ PUSH2 0xA48 JUMPI PUSH1 0xC SLOAD PUSH1 0x40 DUP1 MLOAD DUP4 DUP2 MSTORE PUSH1 0x20 DUP2 ADD SWAP3 SWAP1 SWAP3 MSTORE PUSH32 0x3ADC352B84186F0229522A6C80C6EE84884462BE6B35023B7CD2E65ECEFBD9A3 SWAP2 ADD PUSH1 0x40 MLOAD DUP1 SWAP2 SUB SWAP1 LOG1 PUSH1 0x0 PUSH1 0xC SSTORE PUSH1 0xD SSTORE JUMP JUMPDEST PUSH1 0x1 PUSH1 0x1 PUSH1 0xA0 SHL SUB DUP3 AND PUSH2 0x1829 JUMPI PUSH1 0x40 MLOAD PUSH4 0xEC442F05 PUSH1 0xE0 SHL DUP2 MSTORE PUSH1 0x0 PUSH1 0x4 DUP3 ADD MSTORE PUSH1 0x24 ADD PUSH2 0xB21 JUMP JUMPDEST PUSH2 0xC3F PUSH1 0x0 DUP4 DUP4 PUSH2 0x1B39 JUMP JUMPDEST PUSH1 0x1 PUSH1 0x1 PUSH1 0xA0 SHL SUB DUP3 AND PUSH2 0x185F JUMPI PUSH1 0x40 MLOAD PUSH4 0x4B637E8F PUSH1 0xE1 SHL DUP2 MSTORE PUSH1 0x0 PUSH1 0x4 DUP3 ADD MSTORE PUSH1 0x24 ADD PUSH2 0xB21 JUMP JUMPDEST PUSH2 0xC3F DUP3 PUSH1 0x0 DUP4 PUSH2 0x1B39 JUMP JUMPDEST PUSH2 0x1873 PUSH2 0x177D JUMP JUMPDEST PUSH1 0x8 DUP1 SLOAD PUSH1 0xFF NOT AND PUSH1 0x1 OR SWAP1 SSTORE PUSH32 0x62E78CEA01BEE320CD4E420270B5EA74000D11B0C9F74754EBDBFC544B05A258 PUSH2 0x1760 CALLER SWAP1 JUMP JUMPDEST PUSH1 0x60 PUSH2 0x9D9 PUSH32 0x0 PUSH1 0x5 PUSH2 0x1D17 JUMP JUMPDEST PUSH1 0x60 PUSH2 0x9D9 PUSH32 0x0 PUSH1 0x6 PUSH2 0x1D17 JUMP JUMPDEST PUSH1 0x0 PUSH2 0x9D9 PUSH3 0x15180 TIMESTAMP PUSH2 0x253C JUMP JUMPDEST PUSH1 0x0 PUSH2 0x845 PUSH2 0x191E PUSH2 0x1593 JUMP JUMPDEST DUP4 PUSH1 0x40 MLOAD PUSH2 0x1901 PUSH1 0xF0 SHL DUP2 MSTORE PUSH1 0x2 DUP2 ADD SWAP3 SWAP1 SWAP3 MSTORE PUSH1 0x22 DUP3 ADD MSTORE PUSH1 0x42 SWAP1 KECCAK256 SWAP1 JUMP JUMPDEST PUSH1 0x0 DUP1 PUSH1 0x0 DUP1 PUSH2 0x1950 DUP9 DUP9 DUP9 DUP9 PUSH2 0x1DC2 JUMP JUMPDEST SWAP3 POP SWAP3 POP SWAP3 POP PUSH2 0x1960 DUP3 DUP3 PUSH2 0x1E91 JUMP JUMPDEST POP SWAP1 SWAP7 SWAP6 POP POP POP POP POP POP JUMP JUMPDEST PUSH1 0x0 PUSH2 0x1977 DUP6 PUSH2 0x1911 JUMP JUMPDEST PUSH1 0x40 DUP1 MLOAD PUSH1 0x0 DUP1 DUP3 MSTORE PUSH1 0x20 DUP3 ADD DUP1 DUP5 MSTORE DUP5 SWAP1 MSTORE PUSH1 0xFF DUP9 AND SWAP3 DUP3 ADD SWAP3 SWAP1 SWAP3 MSTORE PUSH1 0x60 DUP2 ADD DUP7 SWAP1 MSTORE PUSH1 0x80 DUP2 ADD DUP6 SWAP1 MSTORE SWAP2 SWAP3 POP SWAP1 PUSH1 0x1 SWAP1 PUSH1 0xA0 ADD PUSH1 0x20 PUSH1 0x40 MLOAD PUSH1 0x20 DUP2 SUB SWAP1 DUP1 DUP5 SUB SWAP1 DUP6 GAS STATICCALL ISZERO DUP1 ISZERO PUSH2 0x19CF JUMPI RETURNDATASIZE PUSH1 0x0 DUP1 RETURNDATACOPY RETURNDATASIZE PUSH1 0x0 REVERT JUMPDEST POP POP PUSH1 0x40 MLOAD PUSH1 0x1F NOT ADD MLOAD SWAP2 POP POP PUSH1 0x1 PUSH1 0x1 PUSH1 0xA0 SHL SUB DUP2 AND ISZERO DUP1 PUSH2 0x1A04 JUMPI POP DUP7 PUSH1 0x1 PUSH1 0x1 PUSH1 0xA0 SHL SUB AND DUP2 PUSH1 0x1 PUSH1 0x1 PUSH1 0xA0 SHL SUB AND EQ ISZERO JUMPDEST ISZERO PUSH2 0x1A22 JUMPI PUSH1 0x40 MLOAD PUSH4 0x8BAA579F PUSH1 0xE0 SHL DUP2 MSTORE PUSH1 0x4 ADD PUSH1 0x40 MLOAD DUP1 SWAP2 SUB SWAP1 REVERT JUMPDEST POP POP POP POP POP POP POP JUMP JUMPDEST PUSH1 0x1 PUSH1 0x1 PUSH1 0xA0 SHL SUB DUP5 AND PUSH2 0x1A55 JUMPI PUSH1 0x40 MLOAD PUSH4 0xE602DF05 PUSH1 0xE0 SHL DUP2 MSTORE PUSH1 0x0 PUSH1 0x4 DUP3 ADD MSTORE PUSH1 0x24 ADD PUSH2 0xB21 JUMP JUMPDEST PUSH1 0x1 PUSH1 0x1 PUSH1 0xA0 SHL SUB DUP4 AND PUSH2 0x1A7F JUMPI PUSH1 0x40 MLOAD PUSH4 0x4A1406B1 PUSH1 0xE1 SHL DUP2 MSTORE PUSH1 0x0 PUSH1 0x4 DUP3 ADD MSTORE PUSH1 0x24 ADD PUSH2 0xB21 JUMP JUMPDEST PUSH1 0x1 PUSH1 0x1 PUSH1 0xA0 SHL SUB DUP1 DUP6 AND PUSH1 0x0 SWAP1 DUP2 MSTORE PUSH1 0x1 PUSH1 0x20 SWAP1 DUP2 MSTORE PUSH1 0x40 DUP1 DUP4 KECCAK256 SWAP4 DUP8 AND DUP4 MSTORE SWAP3 SWAP1 MSTORE KECCAK256 DUP3 SWAP1 SSTORE DUP1 ISZERO PUSH2 0x9C9 JUMPI DUP3 PUSH1 0x1 PUSH1 0x1 PUSH1 0xA0 SHL SUB AND DUP5 PUSH1 0x1 PUSH1 0x1 PUSH1 0xA0 SHL SUB AND PUSH32 0x8C5BE1E5EBEC7D5BD14F71427D1E84F3DD0314C0F7B2291E5B200AC8C7C3B925 DUP5 PUSH1 0x40 MLOAD PUSH2 0x1AF2 SWAP2 DUP2 MSTORE PUSH1 0x20 ADD SWAP1 JUMP JUMPDEST PUSH1 0x40 MLOAD DUP1 SWAP2 SUB SWAP1 LOG3 POP POP POP POP JUMP JUMPDEST PUSH2 0x1B0A DUP3 DUP3 PUSH2 0xDD4 JUMP JUMPDEST PUSH2 0xC3F JUMPI PUSH1 0x40 MLOAD PUSH4 0xE2517D3F PUSH1 0xE0 SHL DUP2 MSTORE PUSH1 0x1 PUSH1 0x1 PUSH1 0xA0 SHL SUB DUP3 AND PUSH1 0x4 DUP3 ADD MSTORE PUSH1 0x24 DUP2 ADD DUP4 SWAP1 MSTORE PUSH1 0x44 ADD PUSH2 0xB21 JUMP JUMPDEST PUSH1 0x1 PUSH1 0x1 PUSH1 0xA0 SHL SUB DUP4 AND PUSH1 0x0 SWAP1 DUP2 MSTORE PUSH1 0xA PUSH1 0x20 MSTORE PUSH1 0x40 SWAP1 KECCAK256 SLOAD PUSH1 0xFF AND ISZERO PUSH2 0x1B7E JUMPI PUSH1 0x40 MLOAD PUSH4 0x578F3E13 PUSH1 0xE0 SHL DUP2 MSTORE PUSH1 0x1 PUSH1 0x1 PUSH1 0xA0 SHL SUB DUP5 AND PUSH1 0x4 DUP3 ADD MSTORE PUSH1 0x24 ADD PUSH2 0xB21 JUMP JUMPDEST PUSH1 0x1 PUSH1 0x1 PUSH1 0xA0 SHL SUB DUP3 AND PUSH1 0x0 SWAP1 DUP2 MSTORE PUSH1 0xA PUSH1 0x20 MSTORE PUSH1 0x40 SWAP1 KECCAK256 SLOAD PUSH1 0xFF AND ISZERO PUSH2 0x1BC3 JUMPI PUSH1 0x40 MLOAD PUSH4 0x32E38AF3 PUSH1 0xE2 SHL DUP2 MSTORE PUSH1 0x1 PUSH1 0x1 PUSH1 0xA0 SHL SUB DUP4 AND PUSH1 0x4 DUP3 ADD MSTORE PUSH1 0x24 ADD PUSH2 0xB21 JUMP JUMPDEST PUSH1 0x0 DUP1 PUSH1 0xE SLOAD GT DUP1 ISZERO PUSH2 0x1BDE JUMPI POP PUSH1 0x1 PUSH1 0x1 PUSH1 0xA0 SHL SUB DUP5 AND ISZERO ISZERO JUMPDEST DUP1 ISZERO PUSH2 0x1BF2 JUMPI POP PUSH1 0x1 PUSH1 0x1 PUSH1 0xA0 SHL SUB DUP4 AND ISZERO ISZERO JUMPDEST DUP1 ISZERO PUSH2 0x1C17 JUMPI POP PUSH1 0x1 PUSH1 0x1 PUSH1 0xA0 SHL SUB DUP5 AND PUSH1 0x0 SWAP1 DUP2 MSTORE PUSH1 0x10 PUSH1 0x20 MSTORE PUSH1 0x40 SWAP1 KECCAK256 SLOAD PUSH1 0xFF AND ISZERO JUMPDEST DUP1 ISZERO PUSH2 0x1C3C JUMPI POP PUSH1 0x1 PUSH1 0x1 PUSH1 0xA0 SHL SUB DUP4 AND PUSH1 0x0 SWAP1 DUP2 MSTORE PUSH1 0x10 PUSH1 0x20 MSTORE PUSH1 0x40 SWAP1 KECCAK256 SLOAD PUSH1 0xFF AND ISZERO JUMPDEST DUP1 ISZERO PUSH2 0x1C52 JUMPI POP PUSH1 0xF SLOAD PUSH1 0x1 PUSH1 0x1 PUSH1 0xA0 SHL SUB AND ISZERO ISZERO JUMPDEST ISZERO PUSH2 0x1CE0 JUMPI PUSH2 0x2710 PUSH1 0xE SLOAD DUP4 PUSH2 0x1C68 SWAP2 SWAP1 PUSH2 0x255E JUMP JUMPDEST PUSH2 0x1C72 SWAP2 SWAP1 PUSH2 0x253C JUMP JUMPDEST SWAP1 POP DUP1 ISZERO PUSH2 0x1CE0 JUMPI PUSH1 0xF SLOAD PUSH2 0x1C92 SWAP1 DUP6 SWAP1 PUSH1 0x1 PUSH1 0x1 PUSH1 0xA0 SHL SUB AND DUP4 PUSH2 0x1F4A JUMP JUMPDEST DUP3 PUSH1 0x1 PUSH1 0x1 PUSH1 0xA0 SHL SUB AND DUP5 PUSH1 0x1 PUSH1 0x1 PUSH1 0xA0 SHL SUB AND PUSH32 0xF228DE527FC1B9843BAAC03B9A04565473A263375950E63435D4138464386F46 DUP4 PUSH1 0x40 MLOAD PUSH2 0x1CD7 SWAP2 DUP2 MSTORE PUSH1 0x20 ADD SWAP1 JUMP JUMPDEST PUSH1 0x40 MLOAD DUP1 SWAP2 SUB SWAP1 LOG3 JUMPDEST PUSH2 0x9C9 DUP5 DUP5 PUSH2 0x1CEF DUP5 DUP7 PUSH2 0x24ED JUMP JUMPDEST PUSH2 0x1F4A JUMP JUMPDEST PUSH1 0x8 SLOAD PUSH1 0xFF AND PUSH2 0x17A1 JUMPI PUSH1 0x40 MLOAD PUSH4 0x8DFC202B PUSH1 0xE0 SHL DUP2 MSTORE PUSH1 0x4 ADD PUSH1 0x40 MLOAD DUP1 SWAP2 SUB SWAP1 REVERT JUMPDEST PUSH1 0x60 PUSH1 0xFF DUP4 EQ PUSH2 0x1D31 JUMPI PUSH2 0x1D2A DUP4 PUSH2 0x1F5D JUMP JUMPDEST SWAP1 POP PUSH2 0x845 JUMP JUMPDEST DUP2 DUP1 SLOAD PUSH2 0x1D3D SWAP1 PUSH2 0x248A JUMP JUMPDEST DUP1 PUSH1 0x1F ADD PUSH1 0x20 DUP1 SWAP2 DIV MUL PUSH1 0x20 ADD PUSH1 0x40 MLOAD SWAP1 DUP2 ADD PUSH1 0x40 MSTORE DUP1 SWAP3 SWAP2 SWAP1 DUP2 DUP2 MSTORE PUSH1 0x20 ADD DUP3 DUP1 SLOAD PUSH2 0x1D69 SWAP1 PUSH2 0x248A JUMP JUMPDEST DUP1 ISZERO PUSH2 0x1DB6 JUMPI DUP1 PUSH1 0x1F LT PUSH2 0x1D8B JUMPI PUSH2 0x100 DUP1 DUP4 SLOAD DIV MUL DUP4 MSTORE SWAP2 PUSH1 0x20 ADD SWAP2 PUSH2 0x1DB6 JUMP JUMPDEST DUP3 ADD SWAP2 SWAP1 PUSH1 0x0 MSTORE PUSH1 0x20 PUSH1 0x0 KECCAK256 SWAP1 JUMPDEST DUP2 SLOAD DUP2 MSTORE SWAP1 PUSH1 0x1 ADD SWAP1 PUSH1 0x20 ADD DUP1 DUP4 GT PUSH2 0x1D99 JUMPI DUP3 SWAP1 SUB PUSH1 0x1F AND DUP3 ADD SWAP2 JUMPDEST POP POP POP POP POP SWAP1 POP PUSH2 0x845 JUMP JUMPDEST PUSH1 0x0 DUP1 DUP1 PUSH32 0x7FFFFFFFFFFFFFFFFFFFFFFFFFFFFFFF5D576E7357A4501DDFE92F46681B20A0 DUP5 GT ISZERO PUSH2 0x1DFD JUMPI POP PUSH1 0x0 SWAP2 POP PUSH1 0x3 SWAP1 POP DUP3 PUSH2 0x1E87 JUMP JUMPDEST PUSH1 0x40 DUP1 MLOAD PUSH1 0x0 DUP1 DUP3 MSTORE PUSH1 0x20 DUP3 ADD DUP1 DUP5 MSTORE DUP11 SWAP1 MSTORE PUSH1 0xFF DUP10 AND SWAP3 DUP3 ADD SWAP3 SWAP1 SWAP3 MSTORE PUSH1 0x60 DUP2 ADD DUP8 SWAP1 MSTORE PUSH1 0x80 DUP2 ADD DUP7 SWAP1 MSTORE PUSH1 0x1 SWAP1 PUSH1 0xA0 ADD PUSH1 0x20 PUSH1 0x40 MLOAD PUSH1 0x20 DUP2 SUB SWAP1 DUP1 DUP5 SUB SWAP1 DUP6 GAS STATICCALL ISZERO DUP1 ISZERO PUSH2 0x1E51 JUMPI RETURNDATASIZE PUSH1 0x0 DUP1 RETURNDATACOPY RETURNDATASIZE PUSH1 0x0 REVERT JUMPDEST POP POP PUSH1 0x40 MLOAD PUSH1 0x1F NOT ADD MLOAD SWAP2 POP POP PUSH1 0x1 PUSH1 0x1 PUSH1 0xA0 SHL SUB DUP2 AND PUSH2 0x1E7D JUMPI POP PUSH1 0x0 SWAP3 POP PUSH1 0x1 SWAP2 POP DUP3 SWAP1 POP PUSH2 0x1E87 JUMP JUMPDEST SWAP3 POP PUSH1 0x0 SWAP2 POP DUP2 SWAP1 POP JUMPDEST SWAP5 POP SWAP5 POP SWAP5 SWAP2 POP POP JUMP JUMPDEST PUSH1 0x0 DUP3 PUSH1 0x3 DUP2 GT ISZERO PUSH2 0x1EA5 JUMPI PUSH2 0x1EA5 PUSH2 0x2575 JUMP JUMPDEST SUB PUSH2 0x1EAE JUMPI POP POP JUMP JUMPDEST PUSH1 0x1 DUP3 PUSH1 0x3 DUP2 GT ISZERO PUSH2 0x1EC2 JUMPI PUSH2 0x1EC2 PUSH2 0x2575 JUMP JUMPDEST SUB PUSH2 0x1EE0 JUMPI PUSH1 0x40 MLOAD PUSH4 0xF645EEDF PUSH1 0xE0 SHL DUP2 MSTORE PUSH1 0x4 ADD PUSH1 0x40 MLOAD DUP1 SWAP2 SUB SWAP1 REVERT JUMPDEST PUSH1 0x2 DUP3 PUSH1 0x3 DUP2 GT ISZERO PUSH2 0x1EF4 JUMPI PUSH2 0x1EF4 PUSH2 0x2575 JUMP JUMPDEST SUB PUSH2 0x1F15 JUMPI PUSH1 0x40 MLOAD PUSH4 0xFCE698F7 PUSH1 0xE0 SHL DUP2 MSTORE PUSH1 0x4 DUP2 ADD DUP3 SWAP1 MSTORE PUSH1 0x24 ADD PUSH2 0xB21 JUMP JUMPDEST PUSH1 0x3 DUP3 PUSH1 0x3 DUP2 GT ISZERO PUSH2 0x1F29 JUMPI PUSH2 0x1F29 PUSH2 0x2575 JUMP JUMPDEST SUB PUSH2 0xC3F JUMPI PUSH1 0x40 MLOAD PUSH4 0x35E2F383 PUSH1 0xE2 SHL DUP2 MSTORE PUSH1 0x4 DUP2 ADD DUP3 SWAP1 MSTORE PUSH1 0x24 ADD PUSH2 0xB21 JUMP JUMPDEST PUSH2 0x1F52 PUSH2 0x177D JUMP JUMPDEST PUSH2 0xA11 DUP4 DUP4 DUP4 PUSH2 0x1F9C JUMP JUMPDEST PUSH1 0x60 PUSH1 0x0 PUSH2 0x1F6A DUP4 PUSH2 0x20C6 JUMP JUMPDEST PUSH1 0x40 DUP1 MLOAD PUSH1 0x20 DUP1 DUP3 MSTORE DUP2 DUP4 ADD SWAP1 SWAP3 MSTORE SWAP2 SWAP3 POP PUSH1 0x0 SWAP2 SWAP1 PUSH1 0x20 DUP3 ADD DUP2 DUP1 CALLDATASIZE DUP4 CALLDATACOPY POP POP POP SWAP2 DUP3 MSTORE POP PUSH1 0x20 DUP2 ADD SWAP3 SWAP1 SWAP3 MSTORE POP SWAP1 JUMP JUMPDEST PUSH1 0x1 PUSH1 0x1 PUSH1 0xA0 SHL SUB DUP4 AND PUSH2 0x1FC7 JUMPI DUP1 PUSH1 0x2 PUSH1 0x0 DUP3 DUP3 SLOAD PUSH2 0x1FBC SWAP2 SWAP1 PUSH2 0x24DA JUMP JUMPDEST SWAP1 SWAP2 SSTORE POP PUSH2 0x2039 SWAP1 POP JUMP JUMPDEST PUSH1 0x1 PUSH1 0x1 PUSH1 0xA0 SHL SUB DUP4 AND PUSH1 0x0 SWAP1 DUP2 MSTORE PUSH1 0x20 DUP2 SWAP1 MSTORE PUSH1 0x40 SWAP1 KECCAK256 SLOAD DUP2 DUP2 LT ISZERO PUSH2 0x201A JUMPI PUSH1 0x40 MLOAD PUSH4 0x391434E3 PUSH1 0xE2 SHL DUP2 MSTORE PUSH1 0x1 PUSH1 0x1 PUSH1 0xA0 SHL SUB DUP6 AND PUSH1 0x4 DUP3 ADD MSTORE PUSH1 0x24 DUP2 ADD DUP3 SWAP1 MSTORE PUSH1 0x44 DUP2 ADD DUP4 SWAP1 MSTORE PUSH1 0x64 ADD PUSH2 0xB21 JUMP JUMPDEST PUSH1 0x1 PUSH1 0x1 PUSH1 0xA0 SHL SUB DUP5 AND PUSH1 0x0 SWAP1 DUP2 MSTORE PUSH1 0x20 DUP2 SWAP1 MSTORE PUSH1 0x40 SWAP1 KECCAK256 SWAP1 DUP3 SWAP1 SUB SWAP1 SSTORE JUMPDEST PUSH1 0x1 PUSH1 0x1 PUSH1 0xA0 SHL SUB DUP3 AND PUSH2 0x2055 JUMPI PUSH1 0x2 DUP1 SLOAD DUP3 SWAP1 SUB SWAP1 SSTORE PUSH2 0x2074 JUMP JUMPDEST PUSH1 0x1 PUSH1 0x1 PUSH1 0xA0 SHL SUB DUP3 AND PUSH1 0x0 SWAP1 DUP2 MSTORE PUSH1 0x20 DUP2 SWAP1 MSTORE PUSH1 0x40 SWAP1 KECCAK256 DUP1 SLOAD DUP3 ADD SWAP1 SSTORE JUMPDEST DUP2 PUSH1 0x1 PUSH1 0x1 PUSH1 0xA0 SHL SUB AND DUP4 PUSH1 0x1 PUSH1 0x1 PUSH1 0xA0 SHL SUB AND PUSH32 0xDDF252AD1BE2C89B69C2B068FC378DAA952BA7F163C4A11628F55A4DF523B3EF DUP4 PUSH1 0x40 MLOAD PUSH2 0x20B9 SWAP2 DUP2 MSTORE PUSH1 0x20 ADD SWAP1 JUMP JUMPDEST PUSH1 0x40 MLOAD DUP1 SWAP2 SUB SWAP1 LOG3 POP POP POP JUMP JUMPDEST PUSH1 0x0 PUSH1 0xFF DUP3 AND PUSH1 0x1F DUP2 GT ISZERO PUSH2 0x845 JUMPI PUSH1 0x40 MLOAD PUSH4 0x2CD44AC3 PUSH1 0xE2 SHL DUP2 MSTORE PUSH1 0x4 ADD PUSH1 0x40 MLOAD DUP1 SWAP2 SUB SWAP1 REVERT JUMPDEST PUSH1 0x0 PUSH1 0x20 DUP3 DUP5 SUB SLT ISZERO PUSH2 0x2100 JUMPI PUSH1 0x0 DUP1 REVERT JUMPDEST DUP2 CALLDATALOAD PUSH1 0x1 PUSH1 0x1 PUSH1 0xE0 SHL SUB NOT DUP2 AND DUP2 EQ PUSH2 0x2118 JUMPI PUSH1 0x0 DUP1 REVERT JUMPDEST SWAP4 SWAP3 POP POP POP JUMP JUMPDEST PUSH1 0x0 DUP2 MLOAD DUP1 DUP5 MSTORE PUSH1 0x0 JUMPDEST DUP2 DUP2 LT ISZERO PUSH2 0x2145 JUMPI PUSH1 0x20 DUP2 DUP6 ADD DUP2 ADD MLOAD DUP7 DUP4 ADD DUP3 ADD MSTORE ADD PUSH2 0x2129 JUMP JUMPDEST POP PUSH1 0x0 PUSH1 0x20 DUP3 DUP7 ADD ADD MSTORE PUSH1 0x20 PUSH1 0x1F NOT PUSH1 0x1F DUP4 ADD AND DUP6 ADD ADD SWAP2 POP POP SWAP3 SWAP2 POP POP JUMP JUMPDEST PUSH1 0x20 DUP2 MSTORE PUSH1 0x0 PUSH2 0x2118 PUSH1 0x20 DUP4 ADD DUP5 PUSH2 0x211F JUMP JUMPDEST DUP1 CALLDATALOAD PUSH1 0x1 PUSH1 0x1 PUSH1 0xA0 SHL SUB DUP2 AND DUP2 EQ PUSH2 0x218F JUMPI PUSH1 0x0 DUP1 REVERT JUMPDEST SWAP2 SWAP1 POP JUMP JUMPDEST PUSH1 0x0 DUP1 PUSH1 0x40 DUP4 DUP6 SUB SLT ISZERO PUSH2 0x21A7 JUMPI PUSH1 0x0 DUP1 REVERT JUMPDEST PUSH2 0x21B0 DUP4 PUSH2 0x2178 JUMP JUMPDEST SWAP5 PUSH1 0x20 SWAP4 SWAP1 SWAP4 ADD CALLDATALOAD SWAP4 POP POP POP JUMP JUMPDEST PUSH1 0x0 DUP1 PUSH1 0x40 DUP4 DUP6 SUB SLT ISZERO PUSH2 0x21D1 JUMPI PUSH1 0x0 DUP1 REVERT JUMPDEST PUSH2 0x21DA DUP4 PUSH2 0x2178 JUMP JUMPDEST SWAP2 POP PUSH1 0x20 DUP4 ADD CALLDATALOAD DUP1 ISZERO ISZERO DUP2 EQ PUSH2 0x21EF JUMPI PUSH1 0x0 DUP1 REVERT JUMPDEST DUP1 SWAP2 POP POP SWAP3 POP SWAP3 SWAP1 POP JUMP JUMPDEST PUSH1 0x0 DUP1 PUSH1 0x0 PUSH1 0x60 DUP5 DUP7 SUB SLT ISZERO PUSH2 0x220F JUMPI PUSH1 0x0 DUP1 REVERT JUMPDEST PUSH2 0x2218 DUP5 PUSH2 0x2178 JUMP JUMPDEST SWAP3 POP PUSH2 0x2226 PUSH1 0x20 DUP6 ADD PUSH2 0x2178 JUMP JUMPDEST SWAP2 POP PUSH1 0x40 DUP5 ADD CALLDATALOAD SWAP1 POP SWAP3 POP SWAP3 POP SWAP3 JUMP JUMPDEST PUSH1 0x0 PUSH1 0x20 DUP3 DUP5 SUB SLT ISZERO PUSH2 0x2248 JUMPI PUSH1 0x0 DUP1 REVERT JUMPDEST POP CALLDATALOAD SWAP2 SWAP1 POP JUMP JUMPDEST PUSH1 0x0 DUP1 PUSH1 0x40 DUP4 DUP6 SUB SLT ISZERO PUSH2 0x2262 JUMPI PUSH1 0x0 DUP1 REVERT JUMPDEST DUP3 CALLDATALOAD SWAP2 POP PUSH2 0x2272 PUSH1 0x20 DUP5 ADD PUSH2 0x2178 JUMP JUMPDEST SWAP1 POP SWAP3 POP SWAP3 SWAP1 POP JUMP JUMPDEST PUSH1 0x0 PUSH1 0x20 DUP3 DUP5 SUB SLT ISZERO PUSH2 0x228D JUMPI PUSH1 0x0 DUP1 REVERT JUMPDEST PUSH2 0x2118 DUP3 PUSH2 0x2178 JUMP JUMPDEST PUSH1 0xFF PUSH1 0xF8 SHL DUP9 AND DUP2 MSTORE PUSH1 0x0 PUSH1 0x20 PUSH1 0xE0 DUP2 DUP5 ADD MSTORE PUSH2 0x22B6 PUSH1 0xE0 DUP5 ADD DUP11 PUSH2 0x211F JUMP JUMPDEST DUP4 DUP2 SUB PUSH1 0x40 DUP6 ADD MSTORE PUSH2 0x22C8 DUP2 DUP11 PUSH2 0x211F JUMP JUMPDEST PUSH1 0x60 DUP6 ADD DUP10 SWAP1 MSTORE PUSH1 0x1 PUSH1 0x1 PUSH1 0xA0 SHL SUB DUP9 AND PUSH1 0x80 DUP7 ADD MSTORE PUSH1 0xA0 DUP6 ADD DUP8 SWAP1 MSTORE DUP5 DUP2 SUB PUSH1 0xC0 DUP7 ADD MSTORE DUP6 MLOAD DUP1 DUP3 MSTORE DUP4 DUP8 ADD SWAP3 POP SWAP1 DUP4 ADD SWAP1 PUSH1 0x0 JUMPDEST DUP2 DUP2 LT ISZERO PUSH2 0x231A JUMPI DUP4 MLOAD DUP4 MSTORE SWAP3 DUP5 ADD SWAP3 SWAP2 DUP5 ADD SWAP2 PUSH1 0x1 ADD PUSH2 0x22FE JUMP JUMPDEST POP SWAP1 SWAP13 SWAP12 POP POP POP POP POP POP POP POP POP POP POP POP JUMP JUMPDEST DUP1 CALLDATALOAD PUSH1 0xFF DUP2 AND DUP2 EQ PUSH2 0x218F JUMPI PUSH1 0x0 DUP1 REVERT JUMPDEST PUSH1 0x0 DUP1 PUSH1 0x0 DUP1 PUSH1 0x0 DUP1 PUSH1 0x0 PUSH1 0xE0 DUP9 DUP11 SUB SLT ISZERO PUSH2 0x2358 JUMPI PUSH1 0x0 DUP1 REVERT JUMPDEST PUSH2 0x2361 DUP9 PUSH2 0x2178 JUMP JUMPDEST SWAP7 POP PUSH2 0x236F PUSH1 0x20 DUP10 ADD PUSH2 0x2178 JUMP JUMPDEST SWAP6 POP PUSH1 0x40 DUP9 ADD CALLDATALOAD SWAP5 POP PUSH1 0x60 DUP9 ADD CALLDATALOAD SWAP4 POP PUSH2 0x238B PUSH1 0x80 DUP10 ADD PUSH2 0x232C JUMP JUMPDEST SWAP3 POP PUSH1 0xA0 DUP9 ADD CALLDATALOAD SWAP2 POP PUSH1 0xC0 DUP9 ADD CALLDATALOAD SWAP1 POP SWAP3 SWAP6 SWAP9 SWAP2 SWAP5 SWAP8 POP SWAP3 SWAP6 POP JUMP JUMPDEST PUSH1 0x0 DUP1 PUSH1 0x0 DUP1 PUSH1 0x80 DUP6 DUP8 SUB SLT ISZERO PUSH2 0x23BD JUMPI PUSH1 0x0 DUP1 REVERT JUMPDEST DUP5 CALLDATALOAD SWAP4 POP PUSH2 0x23CD PUSH1 0x20 DUP7 ADD PUSH2 0x232C JUMP JUMPDEST SWAP4 SWAP7 SWAP4 SWAP6 POP POP POP POP PUSH1 0x40 DUP3 ADD CALLDATALOAD SWAP2 PUSH1 0x60 ADD CALLDATALOAD SWAP1 JUMP JUMPDEST PUSH1 0x0 DUP1 PUSH1 0x40 DUP4 DUP6 SUB SLT ISZERO PUSH2 0x23F5 JUMPI PUSH1 0x0 DUP1 REVERT JUMPDEST PUSH2 0x23FE DUP4 PUSH2 0x2178 JUMP JUMPDEST SWAP2 POP PUSH2 0x2272 PUSH1 0x20 DUP5 ADD PUSH2 0x2178 JUMP JUMPDEST PUSH1 0x0 DUP1 PUSH1 0x0 DUP1 PUSH1 0x0 DUP1 PUSH1 0x0 DUP1 PUSH1 0x0 PUSH2 0x120 DUP11 DUP13 SUB SLT ISZERO PUSH2 0x242B JUMPI PUSH1 0x0 DUP1 REVERT JUMPDEST PUSH2 0x2434 DUP11 PUSH2 0x2178 JUMP JUMPDEST SWAP9 POP PUSH2 0x2442 PUSH1 0x20 DUP12 ADD PUSH2 0x2178 JUMP JUMPDEST SWAP8 POP PUSH1 0x40 DUP11 ADD CALLDATALOAD SWAP7 POP PUSH1 0x60 DUP11 ADD CALLDATALOAD SWAP6 POP PUSH1 0x80 DUP11 ADD CALLDATALOAD SWAP5 POP PUSH1 0xA0 DUP11 ADD CALLDATALOAD SWAP4 POP PUSH2 0x246C PUSH1 0xC0 DUP12 ADD PUSH2 0x232C JUMP JUMPDEST SWAP3 POP PUSH1 0xE0 DUP11 ADD CALLDATALOAD SWAP2 POP PUSH2 0x100 DUP11 ADD CALLDATALOAD SWAP1 POP SWAP3 SWAP6 SWAP9 POP SWAP3 SWAP6 SWAP9 POP SWAP3 SWAP6 SWAP9 JUMP JUMPDEST PUSH1 0x1 DUP2 DUP2 SHR SWAP1 DUP3 AND DUP1 PUSH2 0x249E JUMPI PUSH1 0x7F DUP3 AND SWAP2 POP JUMPDEST PUSH1 0x20 DUP3 LT DUP2 SUB PUSH2 0x24BE JUMPI PUSH4 0x4E487B71 PUSH1 0xE0 SHL PUSH1 0x0 MSTORE PUSH1 0x22 PUSH1 0x4 MSTORE PUSH1 0x24 PUSH1 0x0 REVERT JUMPDEST POP SWAP2 SWAP1 POP JUMP JUMPDEST PUSH4 0x4E487B71 PUSH1 0xE0 SHL PUSH1 0x0 MSTORE PUSH1 0x11 PUSH1 0x4 MSTORE PUSH1 0x24 PUSH1 0x0 REVERT JUMPDEST DUP1 DUP3 ADD DUP1 DUP3 GT ISZERO PUSH2 0x845 JUMPI PUSH2 0x845 PUSH2 0x24C4 JUMP JUMPDEST DUP2 DUP2 SUB DUP2 DUP2 GT ISZERO PUSH2 0x845 JUMPI PUSH2 0x845 PUSH2 0x24C4 JUMP JUMPDEST SWAP7 DUP8 MSTORE PUSH1 0x1 PUSH1 0x1 PUSH1 0xA0 SHL SUB SWAP6 DUP7 AND PUSH1 0x20 DUP9 ADD MSTORE SWAP4 SWAP1 SWAP5 AND PUSH1 0x40 DUP7 ADD MSTORE PUSH1 0x60 DUP6 ADD SWAP2 SWAP1 SWAP2 MSTORE PUSH1 0x80 DUP5 ADD MSTORE PUSH1 0xA0 DUP4 ADD SWAP2 SWAP1 SWAP2 MSTORE PUSH1 0xC0 DUP3 ADD MSTORE PUSH1 0xE0 ADD SWAP1 JUMP JUMPDEST PUSH1 0x0 DUP3 PUSH2 0x2559 JUMPI PUSH4 0x4E487B71 PUSH1 0xE0 SHL PUSH1 0x0 MSTORE PUSH1 0x12 PUSH1 0x4 MSTORE PUSH1 0x24 PUSH1 0x0 REVERT JUMPDEST POP DIV SWAP1 JUMP JUMPDEST DUP1 DUP3 MUL DUP2 ISZERO DUP3 DUP3 DIV DUP5 EQ OR PUSH2 0x845 JUMPI PUSH2 0x845 PUSH2 0x24C4 JUMP JUMPDEST PUSH4 0x4E487B71 PUSH1 0xE0 SHL PUSH1 0x0 MSTORE PUSH1 0x21 PUSH1 0x4 MSTORE PUSH1 0x24 PUSH1 0x0 REVERT INVALID PUSH13 0x757DC3E6B28B2580C03FD9E96 0xC2 PUSH21 0xACF4F99D91FBEC9B418FA1D70604FF1CA264697066 PUSH20 0x58221220CEA2F752EF90222E2592633561D80730 MSTORE8 ORIGIN 0xDA 0xF8 0xBE NOT MOD 0xAC 0xB1 DUP14 PUSH2 0xDD1E 0xE8 LOG0 DUP4 PUSH5 0x736F6C6343 STOP ADDMOD EQ STOP CALLER "},"methodIdentifiers":{"CANCEL_AUTHORIZATION_TYPEHASH()":"d9169487","COMPLIANCE_ROLE()":"062d3bd7","DEFAULT_ADMIN_ROLE()":"a217fddf","DOMAIN_SEPARATOR()":"3644e515","FEE_MANAGER_ROLE()":"05db2f41","MAX_FEE_BPS()":"d55be8c6","MINTER_ROLE()":"d5391393","PAUSER_ROLE()":"e63ab1e9","RECEIVE_WITH_AUTHORIZATION_TYPEHASH()":"7f2eecc3","TRANSFER_WITH_AUTHORIZATION_TYPEHASH()":"a0cc6a68","allowance(address,address)":"dd62ed3e","approve(address,uint256)":"095ea7b3","authorizationState(address,bytes32)":"e94a0102","balanceOf(address)":"70a08231","burn(uint256)":"42966c68","burnAndRedeem(uint256,address)":"48b8691c","burnFrom(address,uint256)":"79cc6790","cancelAuthorization(bytes32,uint8,bytes32,bytes32)":"d87a2993","circulatingSupply()":"9358928b","currentDayMinted()":"fb83a664","dailyMintCap()":"2832bcb5","decimals()":"313ce567","eip712Domain()":"84b0196e","feeCollector()":"c415b95c","getRoleAdmin(bytes32)":"248a9ca3","grantRole(bytes32,address)":"2f2ff15d","hasRole(bytes32,address)":"91d14854","isBlacklisted(address)":"fe575a87","isFeeExempt(address)":"3f4218e0","lastMintResetDay()":"9de8d982","mint(address,uint256)":"40c10f19","name()":"06fdde03","nonces(address)":"7ecebe00","pause()":"8456cb59","paused()":"5c975abb","permit(address,address,uint256,uint256,uint8,bytes32,bytes32)":"d505accf","receiveWithAuthorization(address,address,uint256,uint256,uint256,bytes32,uint8,bytes32,bytes32)":"ef55bec6","remainingDailyMint()":"c8be015e","renounceRole(bytes32,address)":"36568abe","revokeRole(bytes32,address)":"d547741f","setBlacklist(address,bool)":"153b0d1e","setDailyMintCap(uint256)":"b780595b","setFeeCollector(address)":"a42dce80","setFeeExempt(address,bool)":"8ebfc796","setTransferFee(uint256)":"8f02bb5b","supportsInterface(bytes4)":"01ffc9a7","symbol()":"95d89b41","totalBurned()":"d89135cd","totalMinted()":"a2309ff8","totalSupply()":"18160ddd","transfer(address,uint256)":"a9059cbb","transferFeeBps()":"5de78d7a","transferFrom(address,address,uint256)":"23b872dd","transferWithAuthorization(address,address,uint256,uint256,uint256,bytes32,uint8,bytes32,bytes32)":"e3ee160e","unpause()":"3f4ba83a"}}}}}