{"contracts/tron/TronPaymentSplitter.sol":{"TronPaymentSplitter":{"abi":[{"inputs":[{"internalType":"address","name":"_owner","type":"address"},{"internalType":"address[]","name":"_supportedTokens","type":"address[]"}],"stateMutability":"nonpayable","type":"constructor"},{"inputs":[],"name":"AlreadyPaused","type":"error"},{"inputs":[],"name":"AlreadyUnpaused","type":"error"},{"inputs":[{"internalType":"uint256","name":"amount","type":"uint256"},{"internalType":"uint256","name":"minimum","type":"uint256"}],"name":"AmountBelowMinimum","type":"error"},{"inputs":[],"name":"BeneficiaryNotFound","type":"error"},{"inputs":[{"internalType":"uint256","name":"required","type":"uint256"},{"internalType":"uint256","name":"available","type":"uint256"}],"name":"InsufficientAllowance","type":"error"},{"inputs":[{"internalType":"uint256","name":"required","type":"uint256"},{"internalType":"uint256","name":"available","type":"uint256"}],"name":"InsufficientBalance","type":"error"},{"inputs":[],"name":"InvalidAddress","type":"error"},{"inputs":[],"name":"InvalidAmount","type":"error"},{"inputs":[],"name":"InvalidFixedAmount","type":"error"},{"inputs":[],"name":"InvalidPercentage","type":"error"},{"inputs":[],"name":"InvalidSplitId","type":"error"},{"inputs":[],"name":"InvalidSplitMode","type":"error"},{"inputs":[],"name":"OwnerOnly","type":"error"},{"inputs":[],"name":"PercentageOverflow","type":"error"},{"inputs":[],"name":"RecipientExpected","type":"error"},{"inputs":[{"internalType":"address","name":"token","type":"address"}],"name":"SafeERC20FailedOperation","type":"error"},{"inputs":[],"name":"SplitNotFound","type":"error"},{"anonymous":false,"inputs":[{"indexed":true,"internalType":"uint256","name":"splitId","type":"uint256"},{"indexed":true,"internalType":"address","name":"beneficiary","type":"address"},{"indexed":false,"internalType":"uint256","name":"percentage","type":"uint256"},{"indexed":false,"internalType":"uint256","name":"fixedAmount","type":"uint256"}],"name":"BeneficiaryAdded","type":"event"},{"anonymous":false,"inputs":[{"indexed":true,"internalType":"uint256","name":"splitId","type":"uint256"},{"indexed":true,"internalType":"address","name":"beneficiary","type":"address"}],"name":"BeneficiaryRemoved","type":"event"},{"anonymous":false,"inputs":[{"indexed":true,"internalType":"uint256","name":"splitId","type":"uint256"},{"indexed":true,"internalType":"address","name":"beneficiary","type":"address"},{"indexed":false,"internalType":"uint256","name":"newPercentage","type":"uint256"},{"indexed":false,"internalType":"uint256","name":"newFixedAmount","type":"uint256"}],"name":"BeneficiaryUpdated","type":"event"},{"anonymous":false,"inputs":[{"indexed":true,"internalType":"address","name":"beneficiary","type":"address"},{"indexed":true,"internalType":"address","name":"token","type":"address"},{"indexed":false,"internalType":"uint256","name":"amount","type":"uint256"}],"name":"Claimed","type":"event"},{"anonymous":false,"inputs":[{"indexed":true,"internalType":"uint256","name":"splitId","type":"uint256"},{"indexed":false,"internalType":"uint256","name":"oldMinAmount","type":"uint256"},{"indexed":false,"internalType":"uint256","name":"newMinAmount","type":"uint256"}],"name":"MinAmountUpdated","type":"event"},{"anonymous":false,"inputs":[{"indexed":true,"internalType":"uint256","name":"splitId","type":"uint256"},{"indexed":true,"internalType":"address","name":"token","type":"address"},{"indexed":false,"internalType":"enum TronPaymentSplitter.SplitMode","name":"mode","type":"uint8"},{"indexed":false,"internalType":"uint256","name":"createdAt","type":"uint256"}],"name":"SplitCreated","type":"event"},{"anonymous":false,"inputs":[{"indexed":true,"internalType":"uint256","name":"splitId","type":"uint256"},{"indexed":true,"internalType":"address","name":"token","type":"address"},{"indexed":false,"internalType":"uint256","name":"totalAmount","type":"uint256"},{"indexed":false,"internalType":"uint256","name":"beneficiaryCount","type":"uint256"},{"indexed":false,"internalType":"uint256","name":"timestamp","type":"uint256"}],"name":"SplitExecuted","type":"event"},{"anonymous":false,"inputs":[{"indexed":true,"internalType":"uint256","name":"splitId","type":"uint256"},{"indexed":false,"internalType":"enum TronPaymentSplitter.SplitMode","name":"oldMode","type":"uint8"},{"indexed":false,"internalType":"enum TronPaymentSplitter.SplitMode","name":"newMode","type":"uint8"}],"name":"SplitModeUpdated","type":"event"},{"anonymous":false,"inputs":[{"indexed":true,"internalType":"uint256","name":"splitId","type":"uint256"}],"name":"SplitPaused","type":"event"},{"anonymous":false,"inputs":[{"indexed":true,"internalType":"uint256","name":"splitId","type":"uint256"}],"name":"SplitUnpaused","type":"event"},{"anonymous":false,"inputs":[{"indexed":true,"internalType":"address","name":"token","type":"address"},{"indexed":true,"internalType":"address","name":"to","type":"address"},{"indexed":false,"internalType":"uint256","name":"amount","type":"uint256"}],"name":"TokenWithdrawn","type":"event"},{"inputs":[{"internalType":"uint256","name":"splitId","type":"uint256"},{"components":[{"internalType":"address","name":"account","type":"address"},{"internalType":"uint256","name":"percentage","type":"uint256"},{"internalType":"uint256","name":"fixedAmount","type":"uint256"},{"internalType":"uint256","name":"tier","type":"uint256"}],"internalType":"struct TronPaymentSplitter.Beneficiary","name":"beneficiary","type":"tuple"}],"name":"addBeneficiary","outputs":[],"stateMutability":"nonpayable","type":"function"},{"inputs":[{"internalType":"address","name":"token","type":"address"}],"name":"addSupportedToken","outputs":[],"stateMutability":"nonpayable","type":"function"},{"inputs":[{"internalType":"uint256","name":"","type":"uint256"},{"internalType":"address","name":"","type":"address"}],"name":"beneficiaryBalances","outputs":[{"internalType":"uint256","name":"","type":"uint256"}],"stateMutability":"view","type":"function"},{"inputs":[{"internalType":"uint256","name":"splitId","type":"uint256"},{"internalType":"uint256","name":"amount","type":"uint256"}],"name":"calculateDistribution","outputs":[{"internalType":"uint256[]","name":"shares","type":"uint256[]"}],"stateMutability":"view","type":"function"},{"inputs":[{"internalType":"address","name":"token","type":"address"},{"internalType":"enum TronPaymentSplitter.SplitMode","name":"mode","type":"uint8"},{"internalType":"uint256","name":"minAmount","type":"uint256"},{"components":[{"internalType":"address","name":"account","type":"address"},{"internalType":"uint256","name":"percentage","type":"uint256"},{"internalType":"uint256","name":"fixedAmount","type":"uint256"},{"internalType":"uint256","name":"tier","type":"uint256"}],"internalType":"struct TronPaymentSplitter.Beneficiary[]","name":"beneficiaries","type":"tuple[]"}],"name":"createSplit","outputs":[{"internalType":"uint256","name":"splitId","type":"uint256"}],"stateMutability":"nonpayable","type":"function"},{"inputs":[{"internalType":"uint256","name":"splitId","type":"uint256"},{"internalType":"uint256","name":"amount","type":"uint256"}],"name":"executeSplit","outputs":[],"stateMutability":"nonpayable","type":"function"},{"inputs":[{"internalType":"uint256","name":"splitId","type":"uint256"}],"name":"getBeneficiaries","outputs":[{"internalType":"address[]","name":"accounts","type":"address[]"},{"internalType":"uint256[]","name":"percentages","type":"uint256[]"},{"internalType":"uint256[]","name":"fixedAmounts","type":"uint256[]"},{"internalType":"uint256[]","name":"tiers","type":"uint256[]"}],"stateMutability":"view","type":"function"},{"inputs":[{"internalType":"uint256","name":"splitId","type":"uint256"}],"name":"getSplit","outputs":[{"internalType":"address","name":"token","type":"address"},{"internalType":"enum TronPaymentSplitter.SplitMode","name":"mode","type":"uint8"},{"internalType":"uint256","name":"minAmount","type":"uint256"},{"internalType":"bool","name":"paused","type":"bool"},{"internalType":"uint256","name":"beneficiaryCount","type":"uint256"},{"internalType":"uint256","name":"createdAt","type":"uint256"},{"internalType":"uint256","name":"lastExecuted","type":"uint256"},{"internalType":"uint256","name":"totalReceived","type":"uint256"},{"internalType":"uint256","name":"totalDistributed","type":"uint256"}],"stateMutability":"view","type":"function"},{"inputs":[{"internalType":"address","name":"token","type":"address"}],"name":"getTokenBalance","outputs":[{"internalType":"uint256","name":"balance","type":"uint256"}],"stateMutability":"view","type":"function"},{"inputs":[{"internalType":"address","name":"token","type":"address"}],"name":"isTokenSupported","outputs":[{"internalType":"bool","name":"supported","type":"bool"}],"stateMutability":"view","type":"function"},{"inputs":[],"name":"nextSplitId","outputs":[{"internalType":"uint256","name":"","type":"uint256"}],"stateMutability":"view","type":"function"},{"inputs":[],"name":"owner","outputs":[{"internalType":"address","name":"","type":"address"}],"stateMutability":"view","type":"function"},{"inputs":[{"internalType":"uint256","name":"splitId","type":"uint256"}],"name":"pauseSplit","outputs":[],"stateMutability":"nonpayable","type":"function"},{"inputs":[{"internalType":"uint256","name":"splitId","type":"uint256"},{"internalType":"address","name":"beneficiaryAddress","type":"address"}],"name":"removeBeneficiary","outputs":[],"stateMutability":"nonpayable","type":"function"},{"inputs":[{"internalType":"address","name":"token","type":"address"}],"name":"removeSupportedToken","outputs":[],"stateMutability":"nonpayable","type":"function"},{"inputs":[{"internalType":"uint256","name":"","type":"uint256"}],"name":"splits","outputs":[{"internalType":"address","name":"token","type":"address"},{"internalType":"enum TronPaymentSplitter.SplitMode","name":"mode","type":"uint8"},{"internalType":"uint256","name":"minAmount","type":"uint256"},{"internalType":"bool","name":"paused","type":"bool"},{"internalType":"uint256","name":"createdAt","type":"uint256"},{"internalType":"uint256","name":"lastExecuted","type":"uint256"},{"internalType":"uint256","name":"totalReceived","type":"uint256"},{"internalType":"uint256","name":"totalDistributed","type":"uint256"}],"stateMutability":"view","type":"function"},{"inputs":[{"internalType":"address","name":"","type":"address"}],"name":"supportedTokens","outputs":[{"internalType":"bool","name":"","type":"bool"}],"stateMutability":"view","type":"function"},{"inputs":[{"internalType":"uint256","name":"","type":"uint256"},{"internalType":"address","name":"","type":"address"},{"internalType":"address","name":"","type":"address"}],"name":"tokenBalances","outputs":[{"internalType":"uint256","name":"","type":"uint256"}],"stateMutability":"view","type":"function"},{"inputs":[{"internalType":"uint256","name":"splitId","type":"uint256"}],"name":"unpauseSplit","outputs":[],"stateMutability":"nonpayable","type":"function"},{"inputs":[{"internalType":"uint256","name":"splitId","type":"uint256"},{"internalType":"address","name":"beneficiaryAddress","type":"address"},{"internalType":"uint256","name":"newPercentage","type":"uint256"},{"internalType":"uint256","name":"newFixedAmount","type":"uint256"}],"name":"updateBeneficiary","outputs":[],"stateMutability":"nonpayable","type":"function"},{"inputs":[{"internalType":"uint256","name":"splitId","type":"uint256"},{"internalType":"uint256","name":"newMinAmount","type":"uint256"}],"name":"updateMinAmount","outputs":[],"stateMutability":"nonpayable","type":"function"},{"inputs":[{"internalType":"address","name":"newOwner","type":"address"}],"name":"updateOwner","outputs":[],"stateMutability":"nonpayable","type":"function"},{"inputs":[{"internalType":"uint256","name":"splitId","type":"uint256"},{"internalType":"enum TronPaymentSplitter.SplitMode","name":"newMode","type":"uint8"}],"name":"updateSplitMode","outputs":[],"stateMutability":"nonpayable","type":"function"},{"inputs":[{"internalType":"address","name":"token","type":"address"},{"internalType":"address","name":"to","type":"address"},{"internalType":"uint256","name":"amount","type":"uint256"}],"name":"withdrawToken","outputs":[],"stateMutability":"nonpayable","type":"function"}],"evm":{"bytecode":{"linkReferences":{},"object":"60806040523480156200001157600080fd5b5060405162002a1a38038062002a1a833981016040819052620000349162000150565b6001600160a01b0382166200005c5760405163e6c4247b60e01b815260040160405180910390fd5b600280546001600160a01b0319166001600160a01b0384161790556001805560005b8151811015620001145760008282815181106200009f576200009f62000239565b6020026020010151905060006001600160a01b0316816001600160a01b031603620000dd5760405163e6c4247b60e01b815260040160405180910390fd5b6001600160a01b03166000908152600360205260409020805460ff19166001179055806200010b816200024f565b9150506200007e565b50505062000277565b80516001600160a01b03811681146200013557600080fd5b919050565b634e487b7160e01b600052604160045260246000fd5b600080604083850312156200016457600080fd5b6200016f836200011d565b602084810151919350906001600160401b03808211156200018f57600080fd5b818601915086601f830112620001a457600080fd5b815181811115620001b957620001b96200013a565b8060051b604051601f19603f83011681018181108582111715620001e157620001e16200013a565b6040529182528482019250838101850191898311156200020057600080fd5b938501935b82851015620002295762000219856200011d565b8452938501939285019262000205565b8096505050505050509250929050565b634e487b7160e01b600052603260045260246000fd5b6000600182016200027057634e487b7160e01b600052601160045260246000fd5b5060010190565b61279380620002876000396000f3fe608060405234801561001057600080fd5b50600436106101585760003560e01c806374265dd4116100c3578063884c30061161007c578063884c30061461034b5780638da5cb5b146103bc578063a326707c146103e7578063d5c6f21e14610418578063df04abab1461042b578063e44dea6d1461043457600080fd5b806374265dd4146102b057806375151b63146102c3578063752033db146102ef5780637631919014610302578063783804d914610315578063880cdc311461033857600080fd5b80633aecd0e3116101155780633aecd0e3146101e45780633d2d07e2146101f7578063466252df14610222578063514a68101461024257806368c4ac261461026a5780636d69fcaf1461029d57600080fd5b806301e336671461015d57806304e5cba714610172578063211876901461018557806323de4fcd146101985780632b015aa0146101be5780632f8428a4146101d1575b600080fd5b61017061016b36600461215f565b610447565b005b6101706101803660046121aa565b6105be565b6101706101933660046121d6565b61068d565b6101ab6101a63660046122a1565b610755565b6040519081526020015b60405180910390f35b6101706101cc36600461237e565b61098a565b6101706101df3660046123a0565b610a27565b6101ab6101f23660046123db565b610baf565b6101ab6102053660046123fd565b600460209081526000928352604080842090915290825290205481565b61023561023036600461237e565b610c20565b6040516101b5919061245b565b6102556102503660046121d6565b610f5d565b6040516101b5999897969594939291906124a6565b61028d6102783660046123db565b60036020526000908152604090205460ff1681565b60405190151581526020016101b5565b6101706102ab3660046123db565b610ff2565b6101706102be36600461237e565b611068565b61028d6102d13660046123db565b6001600160a01b031660009081526003602052604090205460ff1690565b6101706102fd3660046121d6565b611295565b6101706103103660046123db565b611359565b6103286103233660046121d6565b6113a5565b6040516101b594939291906124fb565b6101706103463660046123db565b6116a1565b6103a86103593660046121d6565b60006020819052908152604090208054600282015460038301546004840154600585015460068601546007909601546001600160a01b03861696600160a01b90960460ff908116969416939088565b6040516101b5989796959493929190612585565b6002546103cf906001600160a01b031681565b6040516001600160a01b0390911681526020016101b5565b6101ab6103f53660046125d4565b600560209081526000938452604080852082529284528284209052825290205481565b6101706104263660046123fd565b611715565b6101ab60015481565b610170610442366004612610565b611917565b6002546001600160a01b0316331461047257604051630b2db9b760e31b815260040160405180910390fd5b6001600160a01b0382166104995760405163e6c4247b60e01b815260040160405180910390fd5b806000036104ba5760405163162908e360e11b815260040160405180910390fd5b6040516370a0823160e01b81523060048201526000906001600160a01b038516906370a0823190602401602060405180830381865afa158015610501573d6000803e3d6000fd5b505050506040513d601f19601f820116820180604052508101906105259190612634565b9050818110156105575760405163cf47918160e01b815260048101839052602481018290526044015b60405180910390fd5b61056b6001600160a01b03851684846119cd565b826001600160a01b0316846001600160a01b03167f8210728e7c071f615b840ee026032693858fbcd5e5359e67e438c890f59e5620846040516105b091815260200190565b60405180910390a350505050565b6002546001600160a01b031633146105e957604051630b2db9b760e31b815260040160405180910390fd5b81600154811061060c57604051630b3b6f4f60e01b815260040160405180910390fd5b60008381526020819052604090208054600160a01b80820460ff16928592909160ff60a01b19909116908360028111156106485761064861246e565b0217905550837f04f9d6f9be02ea7c8c92791d0bd1f70428c83a18ab2d35a7cacbf74cba9d2a16828560405161067f92919061264d565b60405180910390a250505050565b6002546001600160a01b031633146106b857604051630b2db9b760e31b815260040160405180910390fd5b8060015481106106db57604051630b3b6f4f60e01b815260040160405180910390fd5b60008281526020819052604090206003015460ff161561070e57604051631785c68160e01b815260040160405180910390fd5b600082815260208190526040808220600301805460ff191660011790555183917f28a605a7190db2f6842cc4046796099f13684a2b4a96b5da3cff3a5394641b8091a25050565b6002546000906001600160a01b0316331461078357604051630b2db9b760e31b815260040160405180910390fd5b6001600160a01b0385166107aa5760405163e6c4247b60e01b815260040160405180910390fd5b6001600160a01b03851660009081526003602052604090205460ff166107e35760405163937b509960e01b815260040160405180910390fd5b600180549060006107f38361267e565b90915550600081815260208190526040902080546001600160a01b0388166001600160a01b031982168117835592935086926001600160a81b031990911617600160a01b8360028111156108495761084961246e565b021790555060008181526020819052604081206002810185905560038101805460ff19169055426004909101555b82518110156108b5576108a38284838151811061089657610896612697565b6020026020010151611a31565b806108ad8161267e565b915050610877565b5060008460028111156108ca576108ca61246e565b0361093e576000805b8351811015610919578381815181106108ee576108ee612697565b6020026020010151602001518261090591906126ad565b9150806109118161267e565b9150506108d3565b50806127101461093c57604051637be654fd60e01b815260040160405180910390fd5b505b846001600160a01b0316817f0a95cdb8c5f0da807c95b158f15b9eccb52743192b17aa50c1a4380dffdce738864260405161097a9291906126c0565b60405180910390a3949350505050565b6002546001600160a01b031633146109b557604051630b2db9b760e31b815260040160405180910390fd5b8160015481106109d857604051630b3b6f4f60e01b815260040160405180910390fd5b6000838152602081815260409182902060020180549085905582518181529182018590529185917fec2fd73281b40a065a579fc0c74fbfb83380c2ba36c8f8a1d2a78913dd106c92910161067f565b6002546001600160a01b03163314610a5257604051630b2db9b760e31b815260040160405180910390fd5b836001548110610a7557604051630b3b6f4f60e01b815260040160405180910390fd5b600085815260208190526040812090805b6001830154811015610b4157866001600160a01b0316836001018281548110610ab157610ab1612697565b60009182526020909120600490910201546001600160a01b031603610b2f5785836001018281548110610ae657610ae6612697565b90600052602060002090600402016001018190555084836001018281548110610b1157610b11612697565b90600052602060002090600402016002018190555060019150610b41565b80610b398161267e565b915050610a86565b5080610b605760405163694f351f60e01b815260040160405180910390fd5b60408051868152602081018690526001600160a01b0388169189917fc320a614a2c14cc75f355094325e38d0069093b2d0707c0a5a3ac36f48940c6f910160405180910390a350505050505050565b6040516370a0823160e01b81523060048201526000906001600160a01b038316906370a0823190602401602060405180830381865afa158015610bf6573d6000803e3d6000fd5b505050506040513d601f19601f82011682018060405250810190610c1a9190612634565b92915050565b6060826001548110610c4557604051630b3b6f4f60e01b815260040160405180910390fd5b600084815260208190526040902060018101548067ffffffffffffffff811115610c7157610c716121ef565b604051908082528060200260200182016040528015610c9a578160200160208202803683370190505b50935060008254600160a01b900460ff166002811115610cbc57610cbc61246e565b03610d405760005b81811015610d3a57612710836001018281548110610ce457610ce4612697565b90600052602060002090600402016001015487610d0191906126db565b610d0b91906126f2565b858281518110610d1d57610d1d612697565b602090810291909101015280610d328161267e565b915050610cc4565b50610f54565b60018254600160a01b900460ff166002811115610d5f57610d5f61246e565b03610e7f576000805b82811015610db657836001018181548110610d8557610d85612697565b90600052602060002090600402016002015482610da291906126ad565b915080610dae8161267e565b915050610d68565b50858111610d3a5760005b82811015610e1f57836001018181548110610dde57610dde612697565b906000526020600020906004020160020154868281518110610e0257610e02612697565b602090810291909101015280610e178161267e565b915050610dc1565b506000610e2c8288612714565b9050600081118015610e3e5750600083115b15610e78578086610e50600186612714565b81518110610e6057610e60612697565b60200260200101818151610e7491906126ad565b9052505b5050610f54565b6000805b82811015610ed157836001018181548110610ea057610ea0612697565b90600052602060002090600402016003015482610ebd91906126ad565b915080610ec98161267e565b915050610e83565b5060005b82811015610f51578115610f3f5781846001018281548110610ef957610ef9612697565b90600052602060002090600402016003015488610f1691906126db565b610f2091906126f2565b868281518110610f3257610f32612697565b6020026020010181815250505b80610f498161267e565b915050610ed5565b50505b50505092915050565b6000806000806000806000806000896001548110610f8e57604051630b3b6f4f60e01b815260040160405180910390fd5b505050600097885250505060208590525050604090922080546002820154600383015460018401546004850154600586015460068701546007909701546001600160a01b0387169a60ff600160a01b90980488169a50959850959093169591949093565b6002546001600160a01b0316331461101d57604051630b2db9b760e31b815260040160405180910390fd5b6001600160a01b0381166110445760405163e6c4247b60e01b815260040160405180910390fd5b6001600160a01b03166000908152600360205260409020805460ff19166001179055565b81600154811061108b57604051630b3b6f4f60e01b815260040160405180910390fd5b6000838152602081905260409020600381015460ff16156110bf57604051631785c68160e01b815260040160405180910390fd5b80600201548310156110f457600281015460405163180cb56f60e11b815261054e918591600401918252602082015260400190565b80546040516370a0823160e01b81523360048201526001600160a01b039091169060009082906370a0823190602401602060405180830381865afa158015611140573d6000803e3d6000fd5b505050506040513d601f19601f820116820180604052508101906111649190612634565b9050848110156111915760405163cf47918160e01b8152600481018690526024810182905260440161054e565b604051636eb1769f60e11b81523360048201523060248201526000906001600160a01b0384169063dd62ed3e90604401602060405180830381865afa1580156111de573d6000803e3d6000fd5b505050506040513d601f19601f820116820180604052508101906112029190612634565b90508581101561122f5760405163054365bb60e31b8152600481018790526024810182905260440161054e565b6112446001600160a01b038416333089611b43565b61124f878588611b82565b4284600501819055508584600601600082825461126c91906126ad565b925050819055508584600701600082825461128791906126ad565b909155505050505050505050565b6002546001600160a01b031633146112c057604051630b2db9b760e31b815260040160405180910390fd5b8060015481106112e357604051630b3b6f4f60e01b815260040160405180910390fd5b60008281526020819052604090206003015460ff16611315576040516398b904cd60e01b815260040160405180910390fd5b600082815260208190526040808220600301805460ff191690555183917f1964894ad0f9dafae106660d89eb02a2672a727a43f55d1fb5c368b196f8c5a691a25050565b6002546001600160a01b0316331461138457604051630b2db9b760e31b815260040160405180910390fd5b6001600160a01b03166000908152600360205260409020805460ff19169055565b6060806060808460015481106113ce57604051630b3b6f4f60e01b815260040160405180910390fd5b60008681526020818152604080832060010180548251818502810185019093528083529192909190849084015b82821015611458576000848152602090819020604080516080810182526004860290920180546001600160a01b031683526001808201548486015260028201549284019290925260030154606083015290835290920191016113fb565b505082519293508291505067ffffffffffffffff81111561147b5761147b6121ef565b6040519080825280602002602001820160405280156114a4578160200160208202803683370190505b5096508067ffffffffffffffff8111156114c0576114c06121ef565b6040519080825280602002602001820160405280156114e9578160200160208202803683370190505b5095508067ffffffffffffffff811115611505576115056121ef565b60405190808252806020026020018201604052801561152e578160200160208202803683370190505b5094508067ffffffffffffffff81111561154a5761154a6121ef565b604051908082528060200260200182016040528015611573578160200160208202803683370190505b50935060005b818110156116965782818151811061159357611593612697565b6020026020010151600001518882815181106115b1576115b1612697565b60200260200101906001600160a01b031690816001600160a01b0316815250508281815181106115e3576115e3612697565b60200260200101516020015187828151811061160157611601612697565b60200260200101818152505082818151811061161f5761161f612697565b60200260200101516040015186828151811061163d5761163d612697565b60200260200101818152505082818151811061165b5761165b612697565b60200260200101516060015185828151811061167957611679612697565b60209081029190910101528061168e8161267e565b915050611579565b505050509193509193565b6002546001600160a01b031633146116cc57604051630b2db9b760e31b815260040160405180910390fd5b6001600160a01b0381166116f35760405163e6c4247b60e01b815260040160405180910390fd5b600280546001600160a01b0319166001600160a01b0392909216919091179055565b6002546001600160a01b0316331461174057604051630b2db9b760e31b815260040160405180910390fd5b81600154811061176357604051630b3b6f4f60e01b815260040160405180910390fd5b600083815260208190526040812090805b60018301548110156118bb57846001600160a01b031683600101828154811061179f5761179f612697565b60009182526020909120600490910201546001600160a01b0316036118a9576001808401805490916117d091612714565b815481106117e0576117e0612697565b906000526020600020906004020183600101828154811061180357611803612697565b60009182526020909120825460049092020180546001600160a01b0319166001600160a01b0390921691909117815560018083015481830155600280840154908301556003928301549290910191909155830180548061186557611865612727565b60008281526020812060046000199093019283020180546001600160a01b0319168155600181810183905560028201839055600390910191909155915591506118bb565b806118b38161267e565b915050611774565b50806118da5760405163694f351f60e01b815260040160405180910390fd5b6040516001600160a01b0385169086907f5762beedde4a2e20565516ecad294b3f516382c2ec8d5660bd218cc9012f533890600090a35050505050565b6002546001600160a01b0316331461194257604051630b2db9b760e31b815260040160405180910390fd5b81600154811061196557604051630b3b6f4f60e01b815260040160405180910390fd5b61196f8383611a31565b81600001516001600160a01b0316837f73db93c2a2d5a9c15e4b2dee46e8b6503419145cad0bdbce8b16e58c8ed137b7846020015185604001516040516119c0929190918252602082015260400190565b60405180910390a3505050565b6040516001600160a01b03838116602483015260448201839052611a2c91859182169063a9059cbb906064015b604051602081830303815290604052915060e01b6020820180516001600160e01b0383818316178352505050506120d2565b505050565b80516001600160a01b0316611a595760405163e6c4247b60e01b815260040160405180910390fd5b6000828152602081905260408120905b6001820154811015611ae25782600001516001600160a01b0316826001018281548110611a9857611a98612697565b60009182526020909120600490910201546001600160a01b031603611ad05760405163694f351f60e01b815260040160405180910390fd5b80611ada8161267e565b915050611a69565b506001908101805480830182556000918252602091829020845160049092020180546001600160a01b0319166001600160a01b0390921691909117815590830151918101919091556040820151600282015560609091015160039091015550565b6040516001600160a01b038481166024830152838116604483015260648201839052611b7c9186918216906323b872dd906084016119fa565b50505050565b600182015460008354600160a01b900460ff166002811115611ba657611ba661246e565b03611ca45760005b81811015611c9e576000846001018281548110611bcd57611bcd612697565b6000918252602080832060408051608081018252600490940290910180546001600160a01b03168452600181015492840183905260028101549184019190915260030154606083015290925061271090611c2790876126db565b611c3191906126f2565b90508015611c895781518654611c53916001600160a01b0390911690836119cd565b855482516040518381526001600160a01b03928316929091169060008051602061273e8339815191529060200160405180910390a35b50508080611c969061267e565b915050611bae565b50612082565b60018354600160a01b900460ff166002811115611cc357611cc361246e565b03611f2a57600082815b83811015611d5a576000866001018281548110611cec57611cec612697565b600091825260209182902060408051608081018252600490930290910180546001600160a01b03168352600181015493830193909352600283015490820181905260039092015460608201529150611d4490856126ad565b9350508080611d529061267e565b915050611ccd565b5083821115611d865760405163cf47918160e01b8152600481018390526024810185905260440161054e565b60005b83811015611e8a576000866001018281548110611da857611da8612697565b600091825260209182902060408051608081018252600490930290910180546001600160a01b0316835260018101549383019390935260028301549082018190526003909201546060820152915015801590611e08575082816040015111155b15611e7757805160408201518854611e2b926001600160a01b03909116916119cd565b6040810151611e3a9084612714565b8754825160408085015190519081529295506001600160a01b039182169291169060008051602061273e8339815191529060200160405180910390a35b5080611e828161267e565b915050611d89565b50600081118015611e9b5750600083115b15611f2357600085600101600185611eb39190612714565b81548110611ec357611ec3612697565b600091825260209091206004909102015486546001600160a01b039182169250611eef911682846119cd565b85546040518381526001600160a01b039182169183169060008051602061273e8339815191529060200160405180910390a3505b5050612082565b6000805b82811015611f7c57846001018181548110611f4b57611f4b612697565b90600052602060002090600402016003015482611f6891906126ad565b915080611f748161267e565b915050611f2e565b5060005b8281101561207f576000856001018281548110611f9f57611f9f612697565b6000918252602080832060408051608081018252600490940290910180546001600160a01b031684526001810154928401929092526002820154908301526003015460608201529150839003611ff5575061207f565b60008382606001518761200891906126db565b61201291906126f2565b9050801561206a5781518754612034916001600160a01b0390911690836119cd565b865482516040518381526001600160a01b03928316929091169060008051602061273e8339815191529060200160405180910390a35b505080806120779061267e565b915050611f80565b50505b8254604080518481526020810184905242918101919091526001600160a01b039091169085907ffb4c08e7084c15346c40a683d976a6ae205f4e06146d9122619cccdc75c3481d906060016105b0565b600080602060008451602086016000885af1806120f5576040513d6000823e3d81fd5b50506000513d9150811561210d57806001141561211a565b6001600160a01b0384163b155b15611b7c57604051635274afe760e01b81526001600160a01b038516600482015260240161054e565b80356001600160a01b038116811461215a57600080fd5b919050565b60008060006060848603121561217457600080fd5b61217d84612143565b925061218b60208501612143565b9150604084013590509250925092565b80356003811061215a57600080fd5b600080604083850312156121bd57600080fd5b823591506121cd6020840161219b565b90509250929050565b6000602082840312156121e857600080fd5b5035919050565b634e487b7160e01b600052604160045260246000fd5b604051601f8201601f1916810167ffffffffffffffff8111828210171561222e5761222e6121ef565b604052919050565b60006080828403121561224857600080fd5b6040516080810181811067ffffffffffffffff8211171561226b5761226b6121ef565b60405290508061227a83612143565b81526020830135602082015260408301356040820152606083013560608201525092915050565b60008060008060808086880312156122b857600080fd5b6122c186612143565b945060206122d081880161219b565b945060408701359350606087013567ffffffffffffffff808211156122f457600080fd5b818901915089601f83011261230857600080fd5b81358181111561231a5761231a6121ef565b612328848260051b01612205565b818152848101925060079190911b83018401908b82111561234857600080fd5b928401925b8184101561236e5761235f8c85612236565b8352928501929184019161234d565b989b979a50959850505050505050565b6000806040838503121561239157600080fd5b50508035926020909101359150565b600080600080608085870312156123b657600080fd5b843593506123c660208601612143565b93969395505050506040820135916060013590565b6000602082840312156123ed57600080fd5b6123f682612143565b9392505050565b6000806040838503121561241057600080fd5b823591506121cd60208401612143565b600081518084526020808501945080840160005b8381101561245057815187529582019590820190600101612434565b509495945050505050565b6020815260006123f66020830184612420565b634e487b7160e01b600052602160045260246000fd5b600381106124a257634e487b7160e01b600052602160045260246000fd5b9052565b6001600160a01b038a16815261012081016124c4602083018b612484565b60408201989098529515156060870152608086019490945260a085019290925260c084015260e08301526101009091015292915050565b6080808252855190820181905260009060209060a0840190828901845b8281101561253d5781516001600160a01b031684529284019290840190600101612518565b505050838103828501526125518188612420565b91505082810360408401526125668186612420565b9050828103606084015261257a8185612420565b979650505050505050565b6001600160a01b038916815261010081016125a3602083018a612484565b60408201979097529415156060860152608085019390935260a084019190915260c083015260e09091015292915050565b6000806000606084860312156125e957600080fd5b833592506125f960208501612143565b915061260760408501612143565b90509250925092565b60008060a0838503121561262357600080fd5b823591506121cd8460208501612236565b60006020828403121561264657600080fd5b5051919050565b6040810161265b8285612484565b6123f66020830184612484565b634e487b7160e01b600052601160045260246000fd5b60006001820161269057612690612668565b5060010190565b634e487b7160e01b600052603260045260246000fd5b80820180821115610c1a57610c1a612668565b604081016126ce8285612484565b8260208301529392505050565b8082028115828204841417610c1a57610c1a612668565b60008261270f57634e487b7160e01b600052601260045260246000fd5b500490565b81810381811115610c1a57610c1a612668565b634e487b7160e01b600052603160045260246000fdfef7a40077ff7a04c7e61f6f26fb13774259ddf1b6bce9ecf26a8276cdd3992683a2646970667358221220fb517ca3a92a8c39293517a8336fd3f2b1d3dd68d33bd4accb96ca0aab89830c64736f6c63430008140033","opcodes":"PUSH1 0x80 PUSH1 0x40 MSTORE CALLVALUE DUP1 ISZERO PUSH3 0x11 JUMPI PUSH1 0x0 DUP1 REVERT JUMPDEST POP PUSH1 0x40 MLOAD PUSH3 0x2A1A CODESIZE SUB DUP1 PUSH3 0x2A1A DUP4 CODECOPY DUP2 ADD PUSH1 0x40 DUP2 SWAP1 MSTORE PUSH3 0x34 SWAP2 PUSH3 0x150 JUMP JUMPDEST PUSH1 0x1 PUSH1 0x1 PUSH1 0xA0 SHL SUB DUP3 AND PUSH3 0x5C JUMPI PUSH1 0x40 MLOAD PUSH4 0xE6C4247B PUSH1 0xE0 SHL DUP2 MSTORE PUSH1 0x4 ADD PUSH1 0x40 MLOAD DUP1 SWAP2 SUB SWAP1 REVERT JUMPDEST PUSH1 0x2 DUP1 SLOAD PUSH1 0x1 PUSH1 0x1 PUSH1 0xA0 SHL SUB NOT AND PUSH1 0x1 PUSH1 0x1 PUSH1 0xA0 SHL SUB DUP5 AND OR SWAP1 SSTORE PUSH1 0x1 DUP1 SSTORE PUSH1 0x0 JUMPDEST DUP2 MLOAD DUP2 LT ISZERO PUSH3 0x114 JUMPI PUSH1 0x0 DUP3 DUP3 DUP2 MLOAD DUP2 LT PUSH3 0x9F JUMPI PUSH3 0x9F PUSH3 0x239 JUMP JUMPDEST PUSH1 0x20 MUL PUSH1 0x20 ADD ADD MLOAD SWAP1 POP PUSH1 0x0 PUSH1 0x1 PUSH1 0x1 PUSH1 0xA0 SHL SUB AND DUP2 PUSH1 0x1 PUSH1 0x1 PUSH1 0xA0 SHL SUB AND SUB PUSH3 0xDD JUMPI PUSH1 0x40 MLOAD PUSH4 0xE6C4247B PUSH1 0xE0 SHL DUP2 MSTORE PUSH1 0x4 ADD PUSH1 0x40 MLOAD DUP1 SWAP2 SUB SWAP1 REVERT JUMPDEST PUSH1 0x1 PUSH1 0x1 PUSH1 0xA0 SHL SUB AND PUSH1 0x0 SWAP1 DUP2 MSTORE PUSH1 0x3 PUSH1 0x20 MSTORE PUSH1 0x40 SWAP1 KECCAK256 DUP1 SLOAD PUSH1 0xFF NOT AND PUSH1 0x1 OR SWAP1 SSTORE DUP1 PUSH3 0x10B DUP2 PUSH3 0x24F JUMP JUMPDEST SWAP2 POP POP PUSH3 0x7E JUMP JUMPDEST POP POP POP PUSH3 0x277 JUMP JUMPDEST DUP1 MLOAD PUSH1 0x1 PUSH1 0x1 PUSH1 0xA0 SHL SUB DUP2 AND DUP2 EQ PUSH3 0x135 JUMPI PUSH1 0x0 DUP1 REVERT JUMPDEST SWAP2 SWAP1 POP JUMP JUMPDEST PUSH4 0x4E487B71 PUSH1 0xE0 SHL PUSH1 0x0 MSTORE PUSH1 0x41 PUSH1 0x4 MSTORE PUSH1 0x24 PUSH1 0x0 REVERT JUMPDEST PUSH1 0x0 DUP1 PUSH1 0x40 DUP4 DUP6 SUB SLT ISZERO PUSH3 0x164 JUMPI PUSH1 0x0 DUP1 REVERT JUMPDEST PUSH3 0x16F DUP4 PUSH3 0x11D JUMP JUMPDEST PUSH1 0x20 DUP5 DUP2 ADD MLOAD SWAP2 SWAP4 POP SWAP1 PUSH1 0x1 PUSH1 0x1 PUSH1 0x40 SHL SUB DUP1 DUP3 GT ISZERO PUSH3 0x18F JUMPI PUSH1 0x0 DUP1 REVERT JUMPDEST DUP2 DUP7 ADD SWAP2 POP DUP7 PUSH1 0x1F DUP4 ADD SLT PUSH3 0x1A4 JUMPI PUSH1 0x0 DUP1 REVERT JUMPDEST DUP2 MLOAD DUP2 DUP2 GT ISZERO PUSH3 0x1B9 JUMPI PUSH3 0x1B9 PUSH3 0x13A JUMP JUMPDEST DUP1 PUSH1 0x5 SHL PUSH1 0x40 MLOAD PUSH1 0x1F NOT PUSH1 0x3F DUP4 ADD AND DUP2 ADD DUP2 DUP2 LT DUP6 DUP3 GT OR ISZERO PUSH3 0x1E1 JUMPI PUSH3 0x1E1 PUSH3 0x13A JUMP JUMPDEST PUSH1 0x40 MSTORE SWAP2 DUP3 MSTORE DUP5 DUP3 ADD SWAP3 POP DUP4 DUP2 ADD DUP6 ADD SWAP2 DUP10 DUP4 GT ISZERO PUSH3 0x200 JUMPI PUSH1 0x0 DUP1 REVERT JUMPDEST SWAP4 DUP6 ADD SWAP4 JUMPDEST DUP3 DUP6 LT ISZERO PUSH3 0x229 JUMPI PUSH3 0x219 DUP6 PUSH3 0x11D JUMP JUMPDEST DUP5 MSTORE SWAP4 DUP6 ADD SWAP4 SWAP3 DUP6 ADD SWAP3 PUSH3 0x205 JUMP JUMPDEST DUP1 SWAP7 POP POP POP POP POP POP POP SWAP3 POP SWAP3 SWAP1 POP JUMP JUMPDEST PUSH4 0x4E487B71 PUSH1 0xE0 SHL PUSH1 0x0 MSTORE PUSH1 0x32 PUSH1 0x4 MSTORE PUSH1 0x24 PUSH1 0x0 REVERT JUMPDEST PUSH1 0x0 PUSH1 0x1 DUP3 ADD PUSH3 0x270 JUMPI PUSH4 0x4E487B71 PUSH1 0xE0 SHL PUSH1 0x0 MSTORE PUSH1 0x11 PUSH1 0x4 MSTORE PUSH1 0x24 PUSH1 0x0 REVERT JUMPDEST POP PUSH1 0x1 ADD SWAP1 JUMP JUMPDEST PUSH2 0x2793 DUP1 PUSH3 0x287 PUSH1 0x0 CODECOPY PUSH1 0x0 RETURN INVALID PUSH1 0x80 PUSH1 0x40 MSTORE CALLVALUE DUP1 ISZERO PUSH2 0x10 JUMPI PUSH1 0x0 DUP1 REVERT JUMPDEST POP PUSH1 0x4 CALLDATASIZE LT PUSH2 0x158 JUMPI PUSH1 0x0 CALLDATALOAD PUSH1 0xE0 SHR DUP1 PUSH4 0x74265DD4 GT PUSH2 0xC3 JUMPI DUP1 PUSH4 0x884C3006 GT PUSH2 0x7C JUMPI DUP1 PUSH4 0x884C3006 EQ PUSH2 0x34B JUMPI DUP1 PUSH4 0x8DA5CB5B EQ PUSH2 0x3BC JUMPI DUP1 PUSH4 0xA326707C EQ PUSH2 0x3E7 JUMPI DUP1 PUSH4 0xD5C6F21E EQ PUSH2 0x418 JUMPI DUP1 PUSH4 0xDF04ABAB EQ PUSH2 0x42B JUMPI DUP1 PUSH4 0xE44DEA6D EQ PUSH2 0x434 JUMPI PUSH1 0x0 DUP1 REVERT JUMPDEST DUP1 PUSH4 0x74265DD4 EQ PUSH2 0x2B0 JUMPI DUP1 PUSH4 0x75151B63 EQ PUSH2 0x2C3 JUMPI DUP1 PUSH4 0x752033DB EQ PUSH2 0x2EF JUMPI DUP1 PUSH4 0x76319190 EQ PUSH2 0x302 JUMPI DUP1 PUSH4 0x783804D9 EQ PUSH2 0x315 JUMPI DUP1 PUSH4 0x880CDC31 EQ PUSH2 0x338 JUMPI PUSH1 0x0 DUP1 REVERT JUMPDEST DUP1 PUSH4 0x3AECD0E3 GT PUSH2 0x115 JUMPI DUP1 PUSH4 0x3AECD0E3 EQ PUSH2 0x1E4 JUMPI DUP1 PUSH4 0x3D2D07E2 EQ PUSH2 0x1F7 JUMPI DUP1 PUSH4 0x466252DF EQ PUSH2 0x222 JUMPI DUP1 PUSH4 0x514A6810 EQ PUSH2 0x242 JUMPI DUP1 PUSH4 0x68C4AC26 EQ PUSH2 0x26A JUMPI DUP1 PUSH4 0x6D69FCAF EQ PUSH2 0x29D JUMPI PUSH1 0x0 DUP1 REVERT JUMPDEST DUP1 PUSH4 0x1E33667 EQ PUSH2 0x15D JUMPI DUP1 PUSH4 0x4E5CBA7 EQ PUSH2 0x172 JUMPI DUP1 PUSH4 0x21187690 EQ PUSH2 0x185 JUMPI DUP1 PUSH4 0x23DE4FCD EQ PUSH2 0x198 JUMPI DUP1 PUSH4 0x2B015AA0 EQ PUSH2 0x1BE JUMPI DUP1 PUSH4 0x2F8428A4 EQ PUSH2 0x1D1 JUMPI JUMPDEST PUSH1 0x0 DUP1 REVERT JUMPDEST PUSH2 0x170 PUSH2 0x16B CALLDATASIZE PUSH1 0x4 PUSH2 0x215F JUMP JUMPDEST PUSH2 0x447 JUMP JUMPDEST STOP JUMPDEST PUSH2 0x170 PUSH2 0x180 CALLDATASIZE PUSH1 0x4 PUSH2 0x21AA JUMP JUMPDEST PUSH2 0x5BE JUMP JUMPDEST PUSH2 0x170 PUSH2 0x193 CALLDATASIZE PUSH1 0x4 PUSH2 0x21D6 JUMP JUMPDEST PUSH2 0x68D JUMP JUMPDEST PUSH2 0x1AB PUSH2 0x1A6 CALLDATASIZE PUSH1 0x4 PUSH2 0x22A1 JUMP JUMPDEST PUSH2 0x755 JUMP JUMPDEST PUSH1 0x40 MLOAD SWAP1 DUP2 MSTORE PUSH1 0x20 ADD JUMPDEST PUSH1 0x40 MLOAD DUP1 SWAP2 SUB SWAP1 RETURN JUMPDEST PUSH2 0x170 PUSH2 0x1CC CALLDATASIZE PUSH1 0x4 PUSH2 0x237E JUMP JUMPDEST PUSH2 0x98A JUMP JUMPDEST PUSH2 0x170 PUSH2 0x1DF CALLDATASIZE PUSH1 0x4 PUSH2 0x23A0 JUMP JUMPDEST PUSH2 0xA27 JUMP JUMPDEST PUSH2 0x1AB PUSH2 0x1F2 CALLDATASIZE PUSH1 0x4 PUSH2 0x23DB JUMP JUMPDEST PUSH2 0xBAF JUMP JUMPDEST PUSH2 0x1AB PUSH2 0x205 CALLDATASIZE PUSH1 0x4 PUSH2 0x23FD JUMP JUMPDEST PUSH1 0x4 PUSH1 0x20 SWAP1 DUP2 MSTORE PUSH1 0x0 SWAP3 DUP4 MSTORE PUSH1 0x40 DUP1 DUP5 KECCAK256 SWAP1 SWAP2 MSTORE SWAP1 DUP3 MSTORE SWAP1 KECCAK256 SLOAD DUP2 JUMP JUMPDEST PUSH2 0x235 PUSH2 0x230 CALLDATASIZE PUSH1 0x4 PUSH2 0x237E JUMP JUMPDEST PUSH2 0xC20 JUMP JUMPDEST PUSH1 0x40 MLOAD PUSH2 0x1B5 SWAP2 SWAP1 PUSH2 0x245B JUMP JUMPDEST PUSH2 0x255 PUSH2 0x250 CALLDATASIZE PUSH1 0x4 PUSH2 0x21D6 JUMP JUMPDEST PUSH2 0xF5D JUMP JUMPDEST PUSH1 0x40 MLOAD PUSH2 0x1B5 SWAP10 SWAP9 SWAP8 SWAP7 SWAP6 SWAP5 SWAP4 SWAP3 SWAP2 SWAP1 PUSH2 0x24A6 JUMP JUMPDEST PUSH2 0x28D PUSH2 0x278 CALLDATASIZE PUSH1 0x4 PUSH2 0x23DB JUMP JUMPDEST PUSH1 0x3 PUSH1 0x20 MSTORE PUSH1 0x0 SWAP1 DUP2 MSTORE PUSH1 0x40 SWAP1 KECCAK256 SLOAD PUSH1 0xFF AND DUP2 JUMP JUMPDEST PUSH1 0x40 MLOAD SWAP1 ISZERO ISZERO DUP2 MSTORE PUSH1 0x20 ADD PUSH2 0x1B5 JUMP JUMPDEST PUSH2 0x170 PUSH2 0x2AB CALLDATASIZE PUSH1 0x4 PUSH2 0x23DB JUMP JUMPDEST PUSH2 0xFF2 JUMP JUMPDEST PUSH2 0x170 PUSH2 0x2BE CALLDATASIZE PUSH1 0x4 PUSH2 0x237E JUMP JUMPDEST PUSH2 0x1068 JUMP JUMPDEST PUSH2 0x28D PUSH2 0x2D1 CALLDATASIZE PUSH1 0x4 PUSH2 0x23DB JUMP JUMPDEST PUSH1 0x1 PUSH1 0x1 PUSH1 0xA0 SHL SUB AND PUSH1 0x0 SWAP1 DUP2 MSTORE PUSH1 0x3 PUSH1 0x20 MSTORE PUSH1 0x40 SWAP1 KECCAK256 SLOAD PUSH1 0xFF AND SWAP1 JUMP JUMPDEST PUSH2 0x170 PUSH2 0x2FD CALLDATASIZE PUSH1 0x4 PUSH2 0x21D6 JUMP JUMPDEST PUSH2 0x1295 JUMP JUMPDEST PUSH2 0x170 PUSH2 0x310 CALLDATASIZE PUSH1 0x4 PUSH2 0x23DB JUMP JUMPDEST PUSH2 0x1359 JUMP JUMPDEST PUSH2 0x328 PUSH2 0x323 CALLDATASIZE PUSH1 0x4 PUSH2 0x21D6 JUMP JUMPDEST PUSH2 0x13A5 JUMP JUMPDEST PUSH1 0x40 MLOAD PUSH2 0x1B5 SWAP5 SWAP4 SWAP3 SWAP2 SWAP1 PUSH2 0x24FB JUMP JUMPDEST PUSH2 0x170 PUSH2 0x346 CALLDATASIZE PUSH1 0x4 PUSH2 0x23DB JUMP JUMPDEST PUSH2 0x16A1 JUMP JUMPDEST PUSH2 0x3A8 PUSH2 0x359 CALLDATASIZE PUSH1 0x4 PUSH2 0x21D6 JUMP JUMPDEST PUSH1 0x0 PUSH1 0x20 DUP2 SWAP1 MSTORE SWAP1 DUP2 MSTORE PUSH1 0x40 SWAP1 KECCAK256 DUP1 SLOAD PUSH1 0x2 DUP3 ADD SLOAD PUSH1 0x3 DUP4 ADD SLOAD PUSH1 0x4 DUP5 ADD SLOAD PUSH1 0x5 DUP6 ADD SLOAD PUSH1 0x6 DUP7 ADD SLOAD PUSH1 0x7 SWAP1 SWAP7 ADD SLOAD PUSH1 0x1 PUSH1 0x1 PUSH1 0xA0 SHL SUB DUP7 AND SWAP7 PUSH1 0x1 PUSH1 0xA0 SHL SWAP1 SWAP7 DIV PUSH1 0xFF SWAP1 DUP2 AND SWAP7 SWAP5 AND SWAP4 SWAP1 DUP9 JUMP JUMPDEST PUSH1 0x40 MLOAD PUSH2 0x1B5 SWAP9 SWAP8 SWAP7 SWAP6 SWAP5 SWAP4 SWAP3 SWAP2 SWAP1 PUSH2 0x2585 JUMP JUMPDEST PUSH1 0x2 SLOAD PUSH2 0x3CF SWAP1 PUSH1 0x1 PUSH1 0x1 PUSH1 0xA0 SHL SUB AND DUP2 JUMP JUMPDEST PUSH1 0x40 MLOAD PUSH1 0x1 PUSH1 0x1 PUSH1 0xA0 SHL SUB SWAP1 SWAP2 AND DUP2 MSTORE PUSH1 0x20 ADD PUSH2 0x1B5 JUMP JUMPDEST PUSH2 0x1AB PUSH2 0x3F5 CALLDATASIZE PUSH1 0x4 PUSH2 0x25D4 JUMP JUMPDEST PUSH1 0x5 PUSH1 0x20 SWAP1 DUP2 MSTORE PUSH1 0x0 SWAP4 DUP5 MSTORE PUSH1 0x40 DUP1 DUP6 KECCAK256 DUP3 MSTORE SWAP3 DUP5 MSTORE DUP3 DUP5 KECCAK256 SWAP1 MSTORE DUP3 MSTORE SWAP1 KECCAK256 SLOAD DUP2 JUMP JUMPDEST PUSH2 0x170 PUSH2 0x426 CALLDATASIZE PUSH1 0x4 PUSH2 0x23FD JUMP JUMPDEST PUSH2 0x1715 JUMP JUMPDEST PUSH2 0x1AB PUSH1 0x1 SLOAD DUP2 JUMP JUMPDEST PUSH2 0x170 PUSH2 0x442 CALLDATASIZE PUSH1 0x4 PUSH2 0x2610 JUMP JUMPDEST PUSH2 0x1917 JUMP JUMPDEST PUSH1 0x2 SLOAD PUSH1 0x1 PUSH1 0x1 PUSH1 0xA0 SHL SUB AND CALLER EQ PUSH2 0x472 JUMPI PUSH1 0x40 MLOAD PUSH4 0xB2DB9B7 PUSH1 0xE3 SHL DUP2 MSTORE PUSH1 0x4 ADD PUSH1 0x40 MLOAD DUP1 SWAP2 SUB SWAP1 REVERT JUMPDEST PUSH1 0x1 PUSH1 0x1 PUSH1 0xA0 SHL SUB DUP3 AND PUSH2 0x499 JUMPI PUSH1 0x40 MLOAD PUSH4 0xE6C4247B PUSH1 0xE0 SHL DUP2 MSTORE PUSH1 0x4 ADD PUSH1 0x40 MLOAD DUP1 SWAP2 SUB SWAP1 REVERT JUMPDEST DUP1 PUSH1 0x0 SUB PUSH2 0x4BA JUMPI PUSH1 0x40 MLOAD PUSH4 0x162908E3 PUSH1 0xE1 SHL DUP2 MSTORE PUSH1 0x4 ADD PUSH1 0x40 MLOAD DUP1 SWAP2 SUB SWAP1 REVERT JUMPDEST PUSH1 0x40 MLOAD PUSH4 0x70A08231 PUSH1 0xE0 SHL DUP2 MSTORE ADDRESS PUSH1 0x4 DUP3 ADD MSTORE PUSH1 0x0 SWAP1 PUSH1 0x1 PUSH1 0x1 PUSH1 0xA0 SHL SUB DUP6 AND SWAP1 PUSH4 0x70A08231 SWAP1 PUSH1 0x24 ADD PUSH1 0x20 PUSH1 0x40 MLOAD DUP1 DUP4 SUB DUP2 DUP7 GAS STATICCALL ISZERO DUP1 ISZERO PUSH2 0x501 JUMPI RETURNDATASIZE PUSH1 0x0 DUP1 RETURNDATACOPY RETURNDATASIZE PUSH1 0x0 REVERT JUMPDEST POP POP POP POP PUSH1 0x40 MLOAD RETURNDATASIZE PUSH1 0x1F NOT PUSH1 0x1F DUP3 ADD AND DUP3 ADD DUP1 PUSH1 0x40 MSTORE POP DUP2 ADD SWAP1 PUSH2 0x525 SWAP2 SWAP1 PUSH2 0x2634 JUMP JUMPDEST SWAP1 POP DUP2 DUP2 LT ISZERO PUSH2 0x557 JUMPI PUSH1 0x40 MLOAD PUSH4 0xCF479181 PUSH1 0xE0 SHL DUP2 MSTORE PUSH1 0x4 DUP2 ADD DUP4 SWAP1 MSTORE PUSH1 0x24 DUP2 ADD DUP3 SWAP1 MSTORE PUSH1 0x44 ADD JUMPDEST PUSH1 0x40 MLOAD DUP1 SWAP2 SUB SWAP1 REVERT JUMPDEST PUSH2 0x56B PUSH1 0x1 PUSH1 0x1 PUSH1 0xA0 SHL SUB DUP6 AND DUP5 DUP5 PUSH2 0x19CD JUMP JUMPDEST DUP3 PUSH1 0x1 PUSH1 0x1 PUSH1 0xA0 SHL SUB AND DUP5 PUSH1 0x1 PUSH1 0x1 PUSH1 0xA0 SHL SUB AND PUSH32 0x8210728E7C071F615B840EE026032693858FBCD5E5359E67E438C890F59E5620 DUP5 PUSH1 0x40 MLOAD PUSH2 0x5B0 SWAP2 DUP2 MSTORE PUSH1 0x20 ADD SWAP1 JUMP JUMPDEST PUSH1 0x40 MLOAD DUP1 SWAP2 SUB SWAP1 LOG3 POP POP POP POP JUMP JUMPDEST PUSH1 0x2 SLOAD PUSH1 0x1 PUSH1 0x1 PUSH1 0xA0 SHL SUB AND CALLER EQ PUSH2 0x5E9 JUMPI PUSH1 0x40 MLOAD PUSH4 0xB2DB9B7 PUSH1 0xE3 SHL DUP2 MSTORE PUSH1 0x4 ADD PUSH1 0x40 MLOAD DUP1 SWAP2 SUB SWAP1 REVERT JUMPDEST DUP2 PUSH1 0x1 SLOAD DUP2 LT PUSH2 0x60C JUMPI PUSH1 0x40 MLOAD PUSH4 0xB3B6F4F PUSH1 0xE0 SHL DUP2 MSTORE PUSH1 0x4 ADD PUSH1 0x40 MLOAD DUP1 SWAP2 SUB SWAP1 REVERT JUMPDEST PUSH1 0x0 DUP4 DUP2 MSTORE PUSH1 0x20 DUP2 SWAP1 MSTORE PUSH1 0x40 SWAP1 KECCAK256 DUP1 SLOAD PUSH1 0x1 PUSH1 0xA0 SHL DUP1 DUP3 DIV PUSH1 0xFF AND SWAP3 DUP6 SWAP3 SWAP1 SWAP2 PUSH1 0xFF PUSH1 0xA0 SHL NOT SWAP1 SWAP2 AND SWAP1 DUP4 PUSH1 0x2 DUP2 GT ISZERO PUSH2 0x648 JUMPI PUSH2 0x648 PUSH2 0x246E JUMP JUMPDEST MUL OR SWAP1 SSTORE POP DUP4 PUSH32 0x4F9D6F9BE02EA7C8C92791D0BD1F70428C83A18AB2D35A7CACBF74CBA9D2A16 DUP3 DUP6 PUSH1 0x40 MLOAD PUSH2 0x67F SWAP3 SWAP2 SWAP1 PUSH2 0x264D JUMP JUMPDEST PUSH1 0x40 MLOAD DUP1 SWAP2 SUB SWAP1 LOG2 POP POP POP POP JUMP JUMPDEST PUSH1 0x2 SLOAD PUSH1 0x1 PUSH1 0x1 PUSH1 0xA0 SHL SUB AND CALLER EQ PUSH2 0x6B8 JUMPI PUSH1 0x40 MLOAD PUSH4 0xB2DB9B7 PUSH1 0xE3 SHL DUP2 MSTORE PUSH1 0x4 ADD PUSH1 0x40 MLOAD DUP1 SWAP2 SUB SWAP1 REVERT JUMPDEST DUP1 PUSH1 0x1 SLOAD DUP2 LT PUSH2 0x6DB JUMPI PUSH1 0x40 MLOAD PUSH4 0xB3B6F4F PUSH1 0xE0 SHL DUP2 MSTORE PUSH1 0x4 ADD PUSH1 0x40 MLOAD DUP1 SWAP2 SUB SWAP1 REVERT JUMPDEST PUSH1 0x0 DUP3 DUP2 MSTORE PUSH1 0x20 DUP2 SWAP1 MSTORE PUSH1 0x40 SWAP1 KECCAK256 PUSH1 0x3 ADD SLOAD PUSH1 0xFF AND ISZERO PUSH2 0x70E JUMPI PUSH1 0x40 MLOAD PUSH4 0x1785C681 PUSH1 0xE0 SHL DUP2 MSTORE PUSH1 0x4 ADD PUSH1 0x40 MLOAD DUP1 SWAP2 SUB SWAP1 REVERT JUMPDEST PUSH1 0x0 DUP3 DUP2 MSTORE PUSH1 0x20 DUP2 SWAP1 MSTORE PUSH1 0x40 DUP1 DUP3 KECCAK256 PUSH1 0x3 ADD DUP1 SLOAD PUSH1 0xFF NOT AND PUSH1 0x1 OR SWAP1 SSTORE MLOAD DUP4 SWAP2 PUSH32 0x28A605A7190DB2F6842CC4046796099F13684A2B4A96B5DA3CFF3A5394641B80 SWAP2 LOG2 POP POP JUMP JUMPDEST PUSH1 0x2 SLOAD PUSH1 0x0 SWAP1 PUSH1 0x1 PUSH1 0x1 PUSH1 0xA0 SHL SUB AND CALLER EQ PUSH2 0x783 JUMPI PUSH1 0x40 MLOAD PUSH4 0xB2DB9B7 PUSH1 0xE3 SHL DUP2 MSTORE PUSH1 0x4 ADD PUSH1 0x40 MLOAD DUP1 SWAP2 SUB SWAP1 REVERT JUMPDEST PUSH1 0x1 PUSH1 0x1 PUSH1 0xA0 SHL SUB DUP6 AND PUSH2 0x7AA JUMPI PUSH1 0x40 MLOAD PUSH4 0xE6C4247B PUSH1 0xE0 SHL DUP2 MSTORE PUSH1 0x4 ADD PUSH1 0x40 MLOAD DUP1 SWAP2 SUB SWAP1 REVERT JUMPDEST PUSH1 0x1 PUSH1 0x1 PUSH1 0xA0 SHL SUB DUP6 AND PUSH1 0x0 SWAP1 DUP2 MSTORE PUSH1 0x3 PUSH1 0x20 MSTORE PUSH1 0x40 SWAP1 KECCAK256 SLOAD PUSH1 0xFF AND PUSH2 0x7E3 JUMPI PUSH1 0x40 MLOAD PUSH4 0x937B5099 PUSH1 0xE0 SHL DUP2 MSTORE PUSH1 0x4 ADD PUSH1 0x40 MLOAD DUP1 SWAP2 SUB SWAP1 REVERT JUMPDEST PUSH1 0x1 DUP1 SLOAD SWAP1 PUSH1 0x0 PUSH2 0x7F3 DUP4 PUSH2 0x267E JUMP JUMPDEST SWAP1 SWAP2 SSTORE POP PUSH1 0x0 DUP2 DUP2 MSTORE PUSH1 0x20 DUP2 SWAP1 MSTORE PUSH1 0x40 SWAP1 KECCAK256 DUP1 SLOAD PUSH1 0x1 PUSH1 0x1 PUSH1 0xA0 SHL SUB DUP9 AND PUSH1 0x1 PUSH1 0x1 PUSH1 0xA0 SHL SUB NOT DUP3 AND DUP2 OR DUP4 SSTORE SWAP3 SWAP4 POP DUP7 SWAP3 PUSH1 0x1 PUSH1 0x1 PUSH1 0xA8 SHL SUB NOT SWAP1 SWAP2 AND OR PUSH1 0x1 PUSH1 0xA0 SHL DUP4 PUSH1 0x2 DUP2 GT ISZERO PUSH2 0x849 JUMPI PUSH2 0x849 PUSH2 0x246E JUMP JUMPDEST MUL OR SWAP1 SSTORE POP PUSH1 0x0 DUP2 DUP2 MSTORE PUSH1 0x20 DUP2 SWAP1 MSTORE PUSH1 0x40 DUP2 KECCAK256 PUSH1 0x2 DUP2 ADD DUP6 SWAP1 SSTORE PUSH1 0x3 DUP2 ADD DUP1 SLOAD PUSH1 0xFF NOT AND SWAP1 SSTORE TIMESTAMP PUSH1 0x4 SWAP1 SWAP2 ADD SSTORE JUMPDEST DUP3 MLOAD DUP2 LT ISZERO PUSH2 0x8B5 JUMPI PUSH2 0x8A3 DUP3 DUP5 DUP4 DUP2 MLOAD DUP2 LT PUSH2 0x896 JUMPI PUSH2 0x896 PUSH2 0x2697 JUMP JUMPDEST PUSH1 0x20 MUL PUSH1 0x20 ADD ADD MLOAD PUSH2 0x1A31 JUMP JUMPDEST DUP1 PUSH2 0x8AD DUP2 PUSH2 0x267E JUMP JUMPDEST SWAP2 POP POP PUSH2 0x877 JUMP JUMPDEST POP PUSH1 0x0 DUP5 PUSH1 0x2 DUP2 GT ISZERO PUSH2 0x8CA JUMPI PUSH2 0x8CA PUSH2 0x246E JUMP JUMPDEST SUB PUSH2 0x93E JUMPI PUSH1 0x0 DUP1 JUMPDEST DUP4 MLOAD DUP2 LT ISZERO PUSH2 0x919 JUMPI DUP4 DUP2 DUP2 MLOAD DUP2 LT PUSH2 0x8EE JUMPI PUSH2 0x8EE PUSH2 0x2697 JUMP JUMPDEST PUSH1 0x20 MUL PUSH1 0x20 ADD ADD MLOAD PUSH1 0x20 ADD MLOAD DUP3 PUSH2 0x905 SWAP2 SWAP1 PUSH2 0x26AD JUMP JUMPDEST SWAP2 POP DUP1 PUSH2 0x911 DUP2 PUSH2 0x267E JUMP JUMPDEST SWAP2 POP POP PUSH2 0x8D3 JUMP JUMPDEST POP DUP1 PUSH2 0x2710 EQ PUSH2 0x93C JUMPI PUSH1 0x40 MLOAD PUSH4 0x7BE654FD PUSH1 0xE0 SHL DUP2 MSTORE PUSH1 0x4 ADD PUSH1 0x40 MLOAD DUP1 SWAP2 SUB SWAP1 REVERT JUMPDEST POP JUMPDEST DUP5 PUSH1 0x1 PUSH1 0x1 PUSH1 0xA0 SHL SUB AND DUP2 PUSH32 0xA95CDB8C5F0DA807C95B158F15B9ECCB52743192B17AA50C1A4380DFFDCE738 DUP7 TIMESTAMP PUSH1 0x40 MLOAD PUSH2 0x97A SWAP3 SWAP2 SWAP1 PUSH2 0x26C0 JUMP JUMPDEST PUSH1 0x40 MLOAD DUP1 SWAP2 SUB SWAP1 LOG3 SWAP5 SWAP4 POP POP POP POP JUMP JUMPDEST PUSH1 0x2 SLOAD PUSH1 0x1 PUSH1 0x1 PUSH1 0xA0 SHL SUB AND CALLER EQ PUSH2 0x9B5 JUMPI PUSH1 0x40 MLOAD PUSH4 0xB2DB9B7 PUSH1 0xE3 SHL DUP2 MSTORE PUSH1 0x4 ADD PUSH1 0x40 MLOAD DUP1 SWAP2 SUB SWAP1 REVERT JUMPDEST DUP2 PUSH1 0x1 SLOAD DUP2 LT PUSH2 0x9D8 JUMPI PUSH1 0x40 MLOAD PUSH4 0xB3B6F4F PUSH1 0xE0 SHL DUP2 MSTORE PUSH1 0x4 ADD PUSH1 0x40 MLOAD DUP1 SWAP2 SUB SWAP1 REVERT JUMPDEST PUSH1 0x0 DUP4 DUP2 MSTORE PUSH1 0x20 DUP2 DUP2 MSTORE PUSH1 0x40 SWAP2 DUP3 SWAP1 KECCAK256 PUSH1 0x2 ADD DUP1 SLOAD SWAP1 DUP6 SWAP1 SSTORE DUP3 MLOAD DUP2 DUP2 MSTORE SWAP2 DUP3 ADD DUP6 SWAP1 MSTORE SWAP2 DUP6 SWAP2 PUSH32 0xEC2FD73281B40A065A579FC0C74FBFB83380C2BA36C8F8A1D2A78913DD106C92 SWAP2 ADD PUSH2 0x67F JUMP JUMPDEST PUSH1 0x2 SLOAD PUSH1 0x1 PUSH1 0x1 PUSH1 0xA0 SHL SUB AND CALLER EQ PUSH2 0xA52 JUMPI PUSH1 0x40 MLOAD PUSH4 0xB2DB9B7 PUSH1 0xE3 SHL DUP2 MSTORE PUSH1 0x4 ADD PUSH1 0x40 MLOAD DUP1 SWAP2 SUB SWAP1 REVERT JUMPDEST DUP4 PUSH1 0x1 SLOAD DUP2 LT PUSH2 0xA75 JUMPI PUSH1 0x40 MLOAD PUSH4 0xB3B6F4F PUSH1 0xE0 SHL DUP2 MSTORE PUSH1 0x4 ADD PUSH1 0x40 MLOAD DUP1 SWAP2 SUB SWAP1 REVERT JUMPDEST PUSH1 0x0 DUP6 DUP2 MSTORE PUSH1 0x20 DUP2 SWAP1 MSTORE PUSH1 0x40 DUP2 KECCAK256 SWAP1 DUP1 JUMPDEST PUSH1 0x1 DUP4 ADD SLOAD DUP2 LT ISZERO PUSH2 0xB41 JUMPI DUP7 PUSH1 0x1 PUSH1 0x1 PUSH1 0xA0 SHL SUB AND DUP4 PUSH1 0x1 ADD DUP3 DUP2 SLOAD DUP2 LT PUSH2 0xAB1 JUMPI PUSH2 0xAB1 PUSH2 0x2697 JUMP JUMPDEST PUSH1 0x0 SWAP2 DUP3 MSTORE PUSH1 0x20 SWAP1 SWAP2 KECCAK256 PUSH1 0x4 SWAP1 SWAP2 MUL ADD SLOAD PUSH1 0x1 PUSH1 0x1 PUSH1 0xA0 SHL SUB AND SUB PUSH2 0xB2F JUMPI DUP6 DUP4 PUSH1 0x1 ADD DUP3 DUP2 SLOAD DUP2 LT PUSH2 0xAE6 JUMPI PUSH2 0xAE6 PUSH2 0x2697 JUMP JUMPDEST SWAP1 PUSH1 0x0 MSTORE PUSH1 0x20 PUSH1 0x0 KECCAK256 SWAP1 PUSH1 0x4 MUL ADD PUSH1 0x1 ADD DUP2 SWAP1 SSTORE POP DUP5 DUP4 PUSH1 0x1 ADD DUP3 DUP2 SLOAD DUP2 LT PUSH2 0xB11 JUMPI PUSH2 0xB11 PUSH2 0x2697 JUMP JUMPDEST SWAP1 PUSH1 0x0 MSTORE PUSH1 0x20 PUSH1 0x0 KECCAK256 SWAP1 PUSH1 0x4 MUL ADD PUSH1 0x2 ADD DUP2 SWAP1 SSTORE POP PUSH1 0x1 SWAP2 POP PUSH2 0xB41 JUMP JUMPDEST DUP1 PUSH2 0xB39 DUP2 PUSH2 0x267E JUMP JUMPDEST SWAP2 POP POP PUSH2 0xA86 JUMP JUMPDEST POP DUP1 PUSH2 0xB60 JUMPI PUSH1 0x40 MLOAD PUSH4 0x694F351F PUSH1 0xE0 SHL DUP2 MSTORE PUSH1 0x4 ADD PUSH1 0x40 MLOAD DUP1 SWAP2 SUB SWAP1 REVERT JUMPDEST PUSH1 0x40 DUP1 MLOAD DUP7 DUP2 MSTORE PUSH1 0x20 DUP2 ADD DUP7 SWAP1 MSTORE PUSH1 0x1 PUSH1 0x1 PUSH1 0xA0 SHL SUB DUP9 AND SWAP2 DUP10 SWAP2 PUSH32 0xC320A614A2C14CC75F355094325E38D0069093B2D0707C0A5A3AC36F48940C6F SWAP2 ADD PUSH1 0x40 MLOAD DUP1 SWAP2 SUB SWAP1 LOG3 POP POP POP POP POP POP POP JUMP JUMPDEST PUSH1 0x40 MLOAD PUSH4 0x70A08231 PUSH1 0xE0 SHL DUP2 MSTORE ADDRESS PUSH1 0x4 DUP3 ADD MSTORE PUSH1 0x0 SWAP1 PUSH1 0x1 PUSH1 0x1 PUSH1 0xA0 SHL SUB DUP4 AND SWAP1 PUSH4 0x70A08231 SWAP1 PUSH1 0x24 ADD PUSH1 0x20 PUSH1 0x40 MLOAD DUP1 DUP4 SUB DUP2 DUP7 GAS STATICCALL ISZERO DUP1 ISZERO PUSH2 0xBF6 JUMPI RETURNDATASIZE PUSH1 0x0 DUP1 RETURNDATACOPY RETURNDATASIZE PUSH1 0x0 REVERT JUMPDEST POP POP POP POP PUSH1 0x40 MLOAD RETURNDATASIZE PUSH1 0x1F NOT PUSH1 0x1F DUP3 ADD AND DUP3 ADD DUP1 PUSH1 0x40 MSTORE POP DUP2 ADD SWAP1 PUSH2 0xC1A SWAP2 SWAP1 PUSH2 0x2634 JUMP JUMPDEST SWAP3 SWAP2 POP POP JUMP JUMPDEST PUSH1 0x60 DUP3 PUSH1 0x1 SLOAD DUP2 LT PUSH2 0xC45 JUMPI PUSH1 0x40 MLOAD PUSH4 0xB3B6F4F PUSH1 0xE0 SHL DUP2 MSTORE PUSH1 0x4 ADD PUSH1 0x40 MLOAD DUP1 SWAP2 SUB SWAP1 REVERT JUMPDEST PUSH1 0x0 DUP5 DUP2 MSTORE PUSH1 0x20 DUP2 SWAP1 MSTORE PUSH1 0x40 SWAP1 KECCAK256 PUSH1 0x1 DUP2 ADD SLOAD DUP1 PUSH8 0xFFFFFFFFFFFFFFFF DUP2 GT ISZERO PUSH2 0xC71 JUMPI PUSH2 0xC71 PUSH2 0x21EF JUMP JUMPDEST PUSH1 0x40 MLOAD SWAP1 DUP1 DUP3 MSTORE DUP1 PUSH1 0x20 MUL PUSH1 0x20 ADD DUP3 ADD PUSH1 0x40 MSTORE DUP1 ISZERO PUSH2 0xC9A JUMPI DUP2 PUSH1 0x20 ADD PUSH1 0x20 DUP3 MUL DUP1 CALLDATASIZE DUP4 CALLDATACOPY ADD SWAP1 POP JUMPDEST POP SWAP4 POP PUSH1 0x0 DUP3 SLOAD PUSH1 0x1 PUSH1 0xA0 SHL SWAP1 DIV PUSH1 0xFF AND PUSH1 0x2 DUP2 GT ISZERO PUSH2 0xCBC JUMPI PUSH2 0xCBC PUSH2 0x246E JUMP JUMPDEST SUB PUSH2 0xD40 JUMPI PUSH1 0x0 JUMPDEST DUP2 DUP2 LT ISZERO PUSH2 0xD3A JUMPI PUSH2 0x2710 DUP4 PUSH1 0x1 ADD DUP3 DUP2 SLOAD DUP2 LT PUSH2 0xCE4 JUMPI PUSH2 0xCE4 PUSH2 0x2697 JUMP JUMPDEST SWAP1 PUSH1 0x0 MSTORE PUSH1 0x20 PUSH1 0x0 KECCAK256 SWAP1 PUSH1 0x4 MUL ADD PUSH1 0x1 ADD SLOAD DUP8 PUSH2 0xD01 SWAP2 SWAP1 PUSH2 0x26DB JUMP JUMPDEST PUSH2 0xD0B SWAP2 SWAP1 PUSH2 0x26F2 JUMP JUMPDEST DUP6 DUP3 DUP2 MLOAD DUP2 LT PUSH2 0xD1D JUMPI PUSH2 0xD1D PUSH2 0x2697 JUMP JUMPDEST PUSH1 0x20 SWAP1 DUP2 MUL SWAP2 SWAP1 SWAP2 ADD ADD MSTORE DUP1 PUSH2 0xD32 DUP2 PUSH2 0x267E JUMP JUMPDEST SWAP2 POP POP PUSH2 0xCC4 JUMP JUMPDEST POP PUSH2 0xF54 JUMP JUMPDEST PUSH1 0x1 DUP3 SLOAD PUSH1 0x1 PUSH1 0xA0 SHL SWAP1 DIV PUSH1 0xFF AND PUSH1 0x2 DUP2 GT ISZERO PUSH2 0xD5F JUMPI PUSH2 0xD5F PUSH2 0x246E JUMP JUMPDEST SUB PUSH2 0xE7F JUMPI PUSH1 0x0 DUP1 JUMPDEST DUP3 DUP2 LT ISZERO PUSH2 0xDB6 JUMPI DUP4 PUSH1 0x1 ADD DUP2 DUP2 SLOAD DUP2 LT PUSH2 0xD85 JUMPI PUSH2 0xD85 PUSH2 0x2697 JUMP JUMPDEST SWAP1 PUSH1 0x0 MSTORE PUSH1 0x20 PUSH1 0x0 KECCAK256 SWAP1 PUSH1 0x4 MUL ADD PUSH1 0x2 ADD SLOAD DUP3 PUSH2 0xDA2 SWAP2 SWAP1 PUSH2 0x26AD JUMP JUMPDEST SWAP2 POP DUP1 PUSH2 0xDAE DUP2 PUSH2 0x267E JUMP JUMPDEST SWAP2 POP POP PUSH2 0xD68 JUMP JUMPDEST POP DUP6 DUP2 GT PUSH2 0xD3A JUMPI PUSH1 0x0 JUMPDEST DUP3 DUP2 LT ISZERO PUSH2 0xE1F JUMPI DUP4 PUSH1 0x1 ADD DUP2 DUP2 SLOAD DUP2 LT PUSH2 0xDDE JUMPI PUSH2 0xDDE PUSH2 0x2697 JUMP JUMPDEST SWAP1 PUSH1 0x0 MSTORE PUSH1 0x20 PUSH1 0x0 KECCAK256 SWAP1 PUSH1 0x4 MUL ADD PUSH1 0x2 ADD SLOAD DUP7 DUP3 DUP2 MLOAD DUP2 LT PUSH2 0xE02 JUMPI PUSH2 0xE02 PUSH2 0x2697 JUMP JUMPDEST PUSH1 0x20 SWAP1 DUP2 MUL SWAP2 SWAP1 SWAP2 ADD ADD MSTORE DUP1 PUSH2 0xE17 DUP2 PUSH2 0x267E JUMP JUMPDEST SWAP2 POP POP PUSH2 0xDC1 JUMP JUMPDEST POP PUSH1 0x0 PUSH2 0xE2C DUP3 DUP9 PUSH2 0x2714 JUMP JUMPDEST SWAP1 POP PUSH1 0x0 DUP2 GT DUP1 ISZERO PUSH2 0xE3E JUMPI POP PUSH1 0x0 DUP4 GT JUMPDEST ISZERO PUSH2 0xE78 JUMPI DUP1 DUP7 PUSH2 0xE50 PUSH1 0x1 DUP7 PUSH2 0x2714 JUMP JUMPDEST DUP2 MLOAD DUP2 LT PUSH2 0xE60 JUMPI PUSH2 0xE60 PUSH2 0x2697 JUMP JUMPDEST PUSH1 0x20 MUL PUSH1 0x20 ADD ADD DUP2 DUP2 MLOAD PUSH2 0xE74 SWAP2 SWAP1 PUSH2 0x26AD JUMP JUMPDEST SWAP1 MSTORE POP JUMPDEST POP POP PUSH2 0xF54 JUMP JUMPDEST PUSH1 0x0 DUP1 JUMPDEST DUP3 DUP2 LT ISZERO PUSH2 0xED1 JUMPI DUP4 PUSH1 0x1 ADD DUP2 DUP2 SLOAD DUP2 LT PUSH2 0xEA0 JUMPI PUSH2 0xEA0 PUSH2 0x2697 JUMP JUMPDEST SWAP1 PUSH1 0x0 MSTORE PUSH1 0x20 PUSH1 0x0 KECCAK256 SWAP1 PUSH1 0x4 MUL ADD PUSH1 0x3 ADD SLOAD DUP3 PUSH2 0xEBD SWAP2 SWAP1 PUSH2 0x26AD JUMP JUMPDEST SWAP2 POP DUP1 PUSH2 0xEC9 DUP2 PUSH2 0x267E JUMP JUMPDEST SWAP2 POP POP PUSH2 0xE83 JUMP JUMPDEST POP PUSH1 0x0 JUMPDEST DUP3 DUP2 LT ISZERO PUSH2 0xF51 JUMPI DUP2 ISZERO PUSH2 0xF3F JUMPI DUP2 DUP5 PUSH1 0x1 ADD DUP3 DUP2 SLOAD DUP2 LT PUSH2 0xEF9 JUMPI PUSH2 0xEF9 PUSH2 0x2697 JUMP JUMPDEST SWAP1 PUSH1 0x0 MSTORE PUSH1 0x20 PUSH1 0x0 KECCAK256 SWAP1 PUSH1 0x4 MUL ADD PUSH1 0x3 ADD SLOAD DUP9 PUSH2 0xF16 SWAP2 SWAP1 PUSH2 0x26DB JUMP JUMPDEST PUSH2 0xF20 SWAP2 SWAP1 PUSH2 0x26F2 JUMP JUMPDEST DUP7 DUP3 DUP2 MLOAD DUP2 LT PUSH2 0xF32 JUMPI PUSH2 0xF32 PUSH2 0x2697 JUMP JUMPDEST PUSH1 0x20 MUL PUSH1 0x20 ADD ADD DUP2 DUP2 MSTORE POP POP JUMPDEST DUP1 PUSH2 0xF49 DUP2 PUSH2 0x267E JUMP JUMPDEST SWAP2 POP POP PUSH2 0xED5 JUMP JUMPDEST POP POP JUMPDEST POP POP POP SWAP3 SWAP2 POP POP JUMP JUMPDEST PUSH1 0x0 DUP1 PUSH1 0x0 DUP1 PUSH1 0x0 DUP1 PUSH1 0x0 DUP1 PUSH1 0x0 DUP10 PUSH1 0x1 SLOAD DUP2 LT PUSH2 0xF8E JUMPI PUSH1 0x40 MLOAD PUSH4 0xB3B6F4F PUSH1 0xE0 SHL DUP2 MSTORE PUSH1 0x4 ADD PUSH1 0x40 MLOAD DUP1 SWAP2 SUB SWAP1 REVERT JUMPDEST POP POP POP PUSH1 0x0 SWAP8 DUP9 MSTORE POP POP POP PUSH1 0x20 DUP6 SWAP1 MSTORE POP POP PUSH1 0x40 SWAP1 SWAP3 KECCAK256 DUP1 SLOAD PUSH1 0x2 DUP3 ADD SLOAD PUSH1 0x3 DUP4 ADD SLOAD PUSH1 0x1 DUP5 ADD SLOAD PUSH1 0x4 DUP6 ADD SLOAD PUSH1 0x5 DUP7 ADD SLOAD PUSH1 0x6 DUP8 ADD SLOAD PUSH1 0x7 SWAP1 SWAP8 ADD SLOAD PUSH1 0x1 PUSH1 0x1 PUSH1 0xA0 SHL SUB DUP8 AND SWAP11 PUSH1 0xFF PUSH1 0x1 PUSH1 0xA0 SHL SWAP1 SWAP9 DIV DUP9 AND SWAP11 POP SWAP6 SWAP9 POP SWAP6 SWAP1 SWAP4 AND SWAP6 SWAP2 SWAP5 SWAP1 SWAP4 JUMP JUMPDEST PUSH1 0x2 SLOAD PUSH1 0x1 PUSH1 0x1 PUSH1 0xA0 SHL SUB AND CALLER EQ PUSH2 0x101D JUMPI PUSH1 0x40 MLOAD PUSH4 0xB2DB9B7 PUSH1 0xE3 SHL DUP2 MSTORE PUSH1 0x4 ADD PUSH1 0x40 MLOAD DUP1 SWAP2 SUB SWAP1 REVERT JUMPDEST PUSH1 0x1 PUSH1 0x1 PUSH1 0xA0 SHL SUB DUP2 AND PUSH2 0x1044 JUMPI PUSH1 0x40 MLOAD PUSH4 0xE6C4247B PUSH1 0xE0 SHL DUP2 MSTORE PUSH1 0x4 ADD PUSH1 0x40 MLOAD DUP1 SWAP2 SUB SWAP1 REVERT JUMPDEST PUSH1 0x1 PUSH1 0x1 PUSH1 0xA0 SHL SUB AND PUSH1 0x0 SWAP1 DUP2 MSTORE PUSH1 0x3 PUSH1 0x20 MSTORE PUSH1 0x40 SWAP1 KECCAK256 DUP1 SLOAD PUSH1 0xFF NOT AND PUSH1 0x1 OR SWAP1 SSTORE JUMP JUMPDEST DUP2 PUSH1 0x1 SLOAD DUP2 LT PUSH2 0x108B JUMPI PUSH1 0x40 MLOAD PUSH4 0xB3B6F4F PUSH1 0xE0 SHL DUP2 MSTORE PUSH1 0x4 ADD PUSH1 0x40 MLOAD DUP1 SWAP2 SUB SWAP1 REVERT JUMPDEST PUSH1 0x0 DUP4 DUP2 MSTORE PUSH1 0x20 DUP2 SWAP1 MSTORE PUSH1 0x40 SWAP1 KECCAK256 PUSH1 0x3 DUP2 ADD SLOAD PUSH1 0xFF AND ISZERO PUSH2 0x10BF JUMPI PUSH1 0x40 MLOAD PUSH4 0x1785C681 PUSH1 0xE0 SHL DUP2 MSTORE PUSH1 0x4 ADD PUSH1 0x40 MLOAD DUP1 SWAP2 SUB SWAP1 REVERT JUMPDEST DUP1 PUSH1 0x2 ADD SLOAD DUP4 LT ISZERO PUSH2 0x10F4 JUMPI PUSH1 0x2 DUP2 ADD SLOAD PUSH1 0x40 MLOAD PUSH4 0x180CB56F PUSH1 0xE1 SHL DUP2 MSTORE PUSH2 0x54E SWAP2 DUP6 SWAP2 PUSH1 0x4 ADD SWAP2 DUP3 MSTORE PUSH1 0x20 DUP3 ADD MSTORE PUSH1 0x40 ADD SWAP1 JUMP JUMPDEST DUP1 SLOAD PUSH1 0x40 MLOAD PUSH4 0x70A08231 PUSH1 0xE0 SHL DUP2 MSTORE CALLER PUSH1 0x4 DUP3 ADD MSTORE PUSH1 0x1 PUSH1 0x1 PUSH1 0xA0 SHL SUB SWAP1 SWAP2 AND SWAP1 PUSH1 0x0 SWAP1 DUP3 SWAP1 PUSH4 0x70A08231 SWAP1 PUSH1 0x24 ADD PUSH1 0x20 PUSH1 0x40 MLOAD DUP1 DUP4 SUB DUP2 DUP7 GAS STATICCALL ISZERO DUP1 ISZERO PUSH2 0x1140 JUMPI RETURNDATASIZE PUSH1 0x0 DUP1 RETURNDATACOPY RETURNDATASIZE PUSH1 0x0 REVERT JUMPDEST POP POP POP POP PUSH1 0x40 MLOAD RETURNDATASIZE PUSH1 0x1F NOT PUSH1 0x1F DUP3 ADD AND DUP3 ADD DUP1 PUSH1 0x40 MSTORE POP DUP2 ADD SWAP1 PUSH2 0x1164 SWAP2 SWAP1 PUSH2 0x2634 JUMP JUMPDEST SWAP1 POP DUP5 DUP2 LT ISZERO PUSH2 0x1191 JUMPI PUSH1 0x40 MLOAD PUSH4 0xCF479181 PUSH1 0xE0 SHL DUP2 MSTORE PUSH1 0x4 DUP2 ADD DUP7 SWAP1 MSTORE PUSH1 0x24 DUP2 ADD DUP3 SWAP1 MSTORE PUSH1 0x44 ADD PUSH2 0x54E JUMP JUMPDEST PUSH1 0x40 MLOAD PUSH4 0x6EB1769F PUSH1 0xE1 SHL DUP2 MSTORE CALLER PUSH1 0x4 DUP3 ADD MSTORE ADDRESS PUSH1 0x24 DUP3 ADD MSTORE PUSH1 0x0 SWAP1 PUSH1 0x1 PUSH1 0x1 PUSH1 0xA0 SHL SUB DUP5 AND SWAP1 PUSH4 0xDD62ED3E SWAP1 PUSH1 0x44 ADD PUSH1 0x20 PUSH1 0x40 MLOAD DUP1 DUP4 SUB DUP2 DUP7 GAS STATICCALL ISZERO DUP1 ISZERO PUSH2 0x11DE JUMPI RETURNDATASIZE PUSH1 0x0 DUP1 RETURNDATACOPY RETURNDATASIZE PUSH1 0x0 REVERT JUMPDEST POP POP POP POP PUSH1 0x40 MLOAD RETURNDATASIZE PUSH1 0x1F NOT PUSH1 0x1F DUP3 ADD AND DUP3 ADD DUP1 PUSH1 0x40 MSTORE POP DUP2 ADD SWAP1 PUSH2 0x1202 SWAP2 SWAP1 PUSH2 0x2634 JUMP JUMPDEST SWAP1 POP DUP6 DUP2 LT ISZERO PUSH2 0x122F JUMPI PUSH1 0x40 MLOAD PUSH4 0x54365BB PUSH1 0xE3 SHL DUP2 MSTORE PUSH1 0x4 DUP2 ADD DUP8 SWAP1 MSTORE PUSH1 0x24 DUP2 ADD DUP3 SWAP1 MSTORE PUSH1 0x44 ADD PUSH2 0x54E JUMP JUMPDEST PUSH2 0x1244 PUSH1 0x1 PUSH1 0x1 PUSH1 0xA0 SHL SUB DUP5 AND CALLER ADDRESS DUP10 PUSH2 0x1B43 JUMP JUMPDEST PUSH2 0x124F DUP8 DUP6 DUP9 PUSH2 0x1B82 JUMP JUMPDEST TIMESTAMP DUP5 PUSH1 0x5 ADD DUP2 SWAP1 SSTORE POP DUP6 DUP5 PUSH1 0x6 ADD PUSH1 0x0 DUP3 DUP3 SLOAD PUSH2 0x126C SWAP2 SWAP1 PUSH2 0x26AD JUMP JUMPDEST SWAP3 POP POP DUP2 SWAP1 SSTORE POP DUP6 DUP5 PUSH1 0x7 ADD PUSH1 0x0 DUP3 DUP3 SLOAD PUSH2 0x1287 SWAP2 SWAP1 PUSH2 0x26AD JUMP JUMPDEST SWAP1 SWAP2 SSTORE POP POP POP POP POP POP POP POP POP JUMP JUMPDEST PUSH1 0x2 SLOAD PUSH1 0x1 PUSH1 0x1 PUSH1 0xA0 SHL SUB AND CALLER EQ PUSH2 0x12C0 JUMPI PUSH1 0x40 MLOAD PUSH4 0xB2DB9B7 PUSH1 0xE3 SHL DUP2 MSTORE PUSH1 0x4 ADD PUSH1 0x40 MLOAD DUP1 SWAP2 SUB SWAP1 REVERT JUMPDEST DUP1 PUSH1 0x1 SLOAD DUP2 LT PUSH2 0x12E3 JUMPI PUSH1 0x40 MLOAD PUSH4 0xB3B6F4F PUSH1 0xE0 SHL DUP2 MSTORE PUSH1 0x4 ADD PUSH1 0x40 MLOAD DUP1 SWAP2 SUB SWAP1 REVERT JUMPDEST PUSH1 0x0 DUP3 DUP2 MSTORE PUSH1 0x20 DUP2 SWAP1 MSTORE PUSH1 0x40 SWAP1 KECCAK256 PUSH1 0x3 ADD SLOAD PUSH1 0xFF AND PUSH2 0x1315 JUMPI PUSH1 0x40 MLOAD PUSH4 0x98B904CD PUSH1 0xE0 SHL DUP2 MSTORE PUSH1 0x4 ADD PUSH1 0x40 MLOAD DUP1 SWAP2 SUB SWAP1 REVERT JUMPDEST PUSH1 0x0 DUP3 DUP2 MSTORE PUSH1 0x20 DUP2 SWAP1 MSTORE PUSH1 0x40 DUP1 DUP3 KECCAK256 PUSH1 0x3 ADD DUP1 SLOAD PUSH1 0xFF NOT AND SWAP1 SSTORE MLOAD DUP4 SWAP2 PUSH32 0x1964894AD0F9DAFAE106660D89EB02A2672A727A43F55D1FB5C368B196F8C5A6 SWAP2 LOG2 POP POP JUMP JUMPDEST PUSH1 0x2 SLOAD PUSH1 0x1 PUSH1 0x1 PUSH1 0xA0 SHL SUB AND CALLER EQ PUSH2 0x1384 JUMPI PUSH1 0x40 MLOAD PUSH4 0xB2DB9B7 PUSH1 0xE3 SHL DUP2 MSTORE PUSH1 0x4 ADD PUSH1 0x40 MLOAD DUP1 SWAP2 SUB SWAP1 REVERT JUMPDEST PUSH1 0x1 PUSH1 0x1 PUSH1 0xA0 SHL SUB AND PUSH1 0x0 SWAP1 DUP2 MSTORE PUSH1 0x3 PUSH1 0x20 MSTORE PUSH1 0x40 SWAP1 KECCAK256 DUP1 SLOAD PUSH1 0xFF NOT AND SWAP1 SSTORE JUMP JUMPDEST PUSH1 0x60 DUP1 PUSH1 0x60 DUP1 DUP5 PUSH1 0x1 SLOAD DUP2 LT PUSH2 0x13CE JUMPI PUSH1 0x40 MLOAD PUSH4 0xB3B6F4F PUSH1 0xE0 SHL DUP2 MSTORE PUSH1 0x4 ADD PUSH1 0x40 MLOAD DUP1 SWAP2 SUB SWAP1 REVERT JUMPDEST PUSH1 0x0 DUP7 DUP2 MSTORE PUSH1 0x20 DUP2 DUP2 MSTORE PUSH1 0x40 DUP1 DUP4 KECCAK256 PUSH1 0x1 ADD DUP1 SLOAD DUP3 MLOAD DUP2 DUP6 MUL DUP2 ADD DUP6 ADD SWAP1 SWAP4 MSTORE DUP1 DUP4 MSTORE SWAP2 SWAP3 SWAP1 SWAP2 SWAP1 DUP5 SWAP1 DUP5 ADD JUMPDEST DUP3 DUP3 LT ISZERO PUSH2 0x1458 JUMPI PUSH1 0x0 DUP5 DUP2 MSTORE PUSH1 0x20 SWAP1 DUP2 SWAP1 KECCAK256 PUSH1 0x40 DUP1 MLOAD PUSH1 0x80 DUP2 ADD DUP3 MSTORE PUSH1 0x4 DUP7 MUL SWAP1 SWAP3 ADD DUP1 SLOAD PUSH1 0x1 PUSH1 0x1 PUSH1 0xA0 SHL SUB AND DUP4 MSTORE PUSH1 0x1 DUP1 DUP3 ADD SLOAD DUP5 DUP7 ADD MSTORE PUSH1 0x2 DUP3 ADD SLOAD SWAP3 DUP5 ADD SWAP3 SWAP1 SWAP3 MSTORE PUSH1 0x3 ADD SLOAD PUSH1 0x60 DUP4 ADD MSTORE SWAP1 DUP4 MSTORE SWAP1 SWAP3 ADD SWAP2 ADD PUSH2 0x13FB JUMP JUMPDEST POP POP DUP3 MLOAD SWAP3 SWAP4 POP DUP3 SWAP2 POP POP PUSH8 0xFFFFFFFFFFFFFFFF DUP2 GT ISZERO PUSH2 0x147B JUMPI PUSH2 0x147B PUSH2 0x21EF JUMP JUMPDEST PUSH1 0x40 MLOAD SWAP1 DUP1 DUP3 MSTORE DUP1 PUSH1 0x20 MUL PUSH1 0x20 ADD DUP3 ADD PUSH1 0x40 MSTORE DUP1 ISZERO PUSH2 0x14A4 JUMPI DUP2 PUSH1 0x20 ADD PUSH1 0x20 DUP3 MUL DUP1 CALLDATASIZE DUP4 CALLDATACOPY ADD SWAP1 POP JUMPDEST POP SWAP7 POP DUP1 PUSH8 0xFFFFFFFFFFFFFFFF DUP2 GT ISZERO PUSH2 0x14C0 JUMPI PUSH2 0x14C0 PUSH2 0x21EF JUMP JUMPDEST PUSH1 0x40 MLOAD SWAP1 DUP1 DUP3 MSTORE DUP1 PUSH1 0x20 MUL PUSH1 0x20 ADD DUP3 ADD PUSH1 0x40 MSTORE DUP1 ISZERO PUSH2 0x14E9 JUMPI DUP2 PUSH1 0x20 ADD PUSH1 0x20 DUP3 MUL DUP1 CALLDATASIZE DUP4 CALLDATACOPY ADD SWAP1 POP JUMPDEST POP SWAP6 POP DUP1 PUSH8 0xFFFFFFFFFFFFFFFF DUP2 GT ISZERO PUSH2 0x1505 JUMPI PUSH2 0x1505 PUSH2 0x21EF JUMP JUMPDEST PUSH1 0x40 MLOAD SWAP1 DUP1 DUP3 MSTORE DUP1 PUSH1 0x20 MUL PUSH1 0x20 ADD DUP3 ADD PUSH1 0x40 MSTORE DUP1 ISZERO PUSH2 0x152E JUMPI DUP2 PUSH1 0x20 ADD PUSH1 0x20 DUP3 MUL DUP1 CALLDATASIZE DUP4 CALLDATACOPY ADD SWAP1 POP JUMPDEST POP SWAP5 POP DUP1 PUSH8 0xFFFFFFFFFFFFFFFF DUP2 GT ISZERO PUSH2 0x154A JUMPI PUSH2 0x154A PUSH2 0x21EF JUMP JUMPDEST PUSH1 0x40 MLOAD SWAP1 DUP1 DUP3 MSTORE DUP1 PUSH1 0x20 MUL PUSH1 0x20 ADD DUP3 ADD PUSH1 0x40 MSTORE DUP1 ISZERO PUSH2 0x1573 JUMPI DUP2 PUSH1 0x20 ADD PUSH1 0x20 DUP3 MUL DUP1 CALLDATASIZE DUP4 CALLDATACOPY ADD SWAP1 POP JUMPDEST POP SWAP4 POP PUSH1 0x0 JUMPDEST DUP2 DUP2 LT ISZERO PUSH2 0x1696 JUMPI DUP3 DUP2 DUP2 MLOAD DUP2 LT PUSH2 0x1593 JUMPI PUSH2 0x1593 PUSH2 0x2697 JUMP JUMPDEST PUSH1 0x20 MUL PUSH1 0x20 ADD ADD MLOAD PUSH1 0x0 ADD MLOAD DUP9 DUP3 DUP2 MLOAD DUP2 LT PUSH2 0x15B1 JUMPI PUSH2 0x15B1 PUSH2 0x2697 JUMP JUMPDEST PUSH1 0x20 MUL PUSH1 0x20 ADD ADD SWAP1 PUSH1 0x1 PUSH1 0x1 PUSH1 0xA0 SHL SUB AND SWAP1 DUP2 PUSH1 0x1 PUSH1 0x1 PUSH1 0xA0 SHL SUB AND DUP2 MSTORE POP POP DUP3 DUP2 DUP2 MLOAD DUP2 LT PUSH2 0x15E3 JUMPI PUSH2 0x15E3 PUSH2 0x2697 JUMP JUMPDEST PUSH1 0x20 MUL PUSH1 0x20 ADD ADD MLOAD PUSH1 0x20 ADD MLOAD DUP8 DUP3 DUP2 MLOAD DUP2 LT PUSH2 0x1601 JUMPI PUSH2 0x1601 PUSH2 0x2697 JUMP JUMPDEST PUSH1 0x20 MUL PUSH1 0x20 ADD ADD DUP2 DUP2 MSTORE POP POP DUP3 DUP2 DUP2 MLOAD DUP2 LT PUSH2 0x161F JUMPI PUSH2 0x161F PUSH2 0x2697 JUMP JUMPDEST PUSH1 0x20 MUL PUSH1 0x20 ADD ADD MLOAD PUSH1 0x40 ADD MLOAD DUP7 DUP3 DUP2 MLOAD DUP2 LT PUSH2 0x163D JUMPI PUSH2 0x163D PUSH2 0x2697 JUMP JUMPDEST PUSH1 0x20 MUL PUSH1 0x20 ADD ADD DUP2 DUP2 MSTORE POP POP DUP3 DUP2 DUP2 MLOAD DUP2 LT PUSH2 0x165B JUMPI PUSH2 0x165B PUSH2 0x2697 JUMP JUMPDEST PUSH1 0x20 MUL PUSH1 0x20 ADD ADD MLOAD PUSH1 0x60 ADD MLOAD DUP6 DUP3 DUP2 MLOAD DUP2 LT PUSH2 0x1679 JUMPI PUSH2 0x1679 PUSH2 0x2697 JUMP JUMPDEST PUSH1 0x20 SWAP1 DUP2 MUL SWAP2 SWAP1 SWAP2 ADD ADD MSTORE DUP1 PUSH2 0x168E DUP2 PUSH2 0x267E JUMP JUMPDEST SWAP2 POP POP PUSH2 0x1579 JUMP JUMPDEST POP POP POP POP SWAP2 SWAP4 POP SWAP2 SWAP4 JUMP JUMPDEST PUSH1 0x2 SLOAD PUSH1 0x1 PUSH1 0x1 PUSH1 0xA0 SHL SUB AND CALLER EQ PUSH2 0x16CC JUMPI PUSH1 0x40 MLOAD PUSH4 0xB2DB9B7 PUSH1 0xE3 SHL DUP2 MSTORE PUSH1 0x4 ADD PUSH1 0x40 MLOAD DUP1 SWAP2 SUB SWAP1 REVERT JUMPDEST PUSH1 0x1 PUSH1 0x1 PUSH1 0xA0 SHL SUB DUP2 AND PUSH2 0x16F3 JUMPI PUSH1 0x40 MLOAD PUSH4 0xE6C4247B PUSH1 0xE0 SHL DUP2 MSTORE PUSH1 0x4 ADD PUSH1 0x40 MLOAD DUP1 SWAP2 SUB SWAP1 REVERT JUMPDEST PUSH1 0x2 DUP1 SLOAD PUSH1 0x1 PUSH1 0x1 PUSH1 0xA0 SHL SUB NOT AND PUSH1 0x1 PUSH1 0x1 PUSH1 0xA0 SHL SUB SWAP3 SWAP1 SWAP3 AND SWAP2 SWAP1 SWAP2 OR SWAP1 SSTORE JUMP JUMPDEST PUSH1 0x2 SLOAD PUSH1 0x1 PUSH1 0x1 PUSH1 0xA0 SHL SUB AND CALLER EQ PUSH2 0x1740 JUMPI PUSH1 0x40 MLOAD PUSH4 0xB2DB9B7 PUSH1 0xE3 SHL DUP2 MSTORE PUSH1 0x4 ADD PUSH1 0x40 MLOAD DUP1 SWAP2 SUB SWAP1 REVERT JUMPDEST DUP2 PUSH1 0x1 SLOAD DUP2 LT PUSH2 0x1763 JUMPI PUSH1 0x40 MLOAD PUSH4 0xB3B6F4F PUSH1 0xE0 SHL DUP2 MSTORE PUSH1 0x4 ADD PUSH1 0x40 MLOAD DUP1 SWAP2 SUB SWAP1 REVERT JUMPDEST PUSH1 0x0 DUP4 DUP2 MSTORE PUSH1 0x20 DUP2 SWAP1 MSTORE PUSH1 0x40 DUP2 KECCAK256 SWAP1 DUP1 JUMPDEST PUSH1 0x1 DUP4 ADD SLOAD DUP2 LT ISZERO PUSH2 0x18BB JUMPI DUP5 PUSH1 0x1 PUSH1 0x1 PUSH1 0xA0 SHL SUB AND DUP4 PUSH1 0x1 ADD DUP3 DUP2 SLOAD DUP2 LT PUSH2 0x179F JUMPI PUSH2 0x179F PUSH2 0x2697 JUMP JUMPDEST PUSH1 0x0 SWAP2 DUP3 MSTORE PUSH1 0x20 SWAP1 SWAP2 KECCAK256 PUSH1 0x4 SWAP1 SWAP2 MUL ADD SLOAD PUSH1 0x1 PUSH1 0x1 PUSH1 0xA0 SHL SUB AND SUB PUSH2 0x18A9 JUMPI PUSH1 0x1 DUP1 DUP5 ADD DUP1 SLOAD SWAP1 SWAP2 PUSH2 0x17D0 SWAP2 PUSH2 0x2714 JUMP JUMPDEST DUP2 SLOAD DUP2 LT PUSH2 0x17E0 JUMPI PUSH2 0x17E0 PUSH2 0x2697 JUMP JUMPDEST SWAP1 PUSH1 0x0 MSTORE PUSH1 0x20 PUSH1 0x0 KECCAK256 SWAP1 PUSH1 0x4 MUL ADD DUP4 PUSH1 0x1 ADD DUP3 DUP2 SLOAD DUP2 LT PUSH2 0x1803 JUMPI PUSH2 0x1803 PUSH2 0x2697 JUMP JUMPDEST PUSH1 0x0 SWAP2 DUP3 MSTORE PUSH1 0x20 SWAP1 SWAP2 KECCAK256 DUP3 SLOAD PUSH1 0x4 SWAP1 SWAP3 MUL ADD DUP1 SLOAD PUSH1 0x1 PUSH1 0x1 PUSH1 0xA0 SHL SUB NOT AND PUSH1 0x1 PUSH1 0x1 PUSH1 0xA0 SHL SUB SWAP1 SWAP3 AND SWAP2 SWAP1 SWAP2 OR DUP2 SSTORE PUSH1 0x1 DUP1 DUP4 ADD SLOAD DUP2 DUP4 ADD SSTORE PUSH1 0x2 DUP1 DUP5 ADD SLOAD SWAP1 DUP4 ADD SSTORE PUSH1 0x3 SWAP3 DUP4 ADD SLOAD SWAP3 SWAP1 SWAP2 ADD SWAP2 SWAP1 SWAP2 SSTORE DUP4 ADD DUP1 SLOAD DUP1 PUSH2 0x1865 JUMPI PUSH2 0x1865 PUSH2 0x2727 JUMP JUMPDEST PUSH1 0x0 DUP3 DUP2 MSTORE PUSH1 0x20 DUP2 KECCAK256 PUSH1 0x4 PUSH1 0x0 NOT SWAP1 SWAP4 ADD SWAP3 DUP4 MUL ADD DUP1 SLOAD PUSH1 0x1 PUSH1 0x1 PUSH1 0xA0 SHL SUB NOT AND DUP2 SSTORE PUSH1 0x1 DUP2 DUP2 ADD DUP4 SWAP1 SSTORE PUSH1 0x2 DUP3 ADD DUP4 SWAP1 SSTORE PUSH1 0x3 SWAP1 SWAP2 ADD SWAP2 SWAP1 SWAP2 SSTORE SWAP2 SSTORE SWAP2 POP PUSH2 0x18BB JUMP JUMPDEST DUP1 PUSH2 0x18B3 DUP2 PUSH2 0x267E JUMP JUMPDEST SWAP2 POP POP PUSH2 0x1774 JUMP JUMPDEST POP DUP1 PUSH2 0x18DA JUMPI PUSH1 0x40 MLOAD PUSH4 0x694F351F PUSH1 0xE0 SHL DUP2 MSTORE PUSH1 0x4 ADD PUSH1 0x40 MLOAD DUP1 SWAP2 SUB SWAP1 REVERT JUMPDEST PUSH1 0x40 MLOAD PUSH1 0x1 PUSH1 0x1 PUSH1 0xA0 SHL SUB DUP6 AND SWAP1 DUP7 SWAP1 PUSH32 0x5762BEEDDE4A2E20565516ECAD294B3F516382C2EC8D5660BD218CC9012F5338 SWAP1 PUSH1 0x0 SWAP1 LOG3 POP POP POP POP POP JUMP JUMPDEST PUSH1 0x2 SLOAD PUSH1 0x1 PUSH1 0x1 PUSH1 0xA0 SHL SUB AND CALLER EQ PUSH2 0x1942 JUMPI PUSH1 0x40 MLOAD PUSH4 0xB2DB9B7 PUSH1 0xE3 SHL DUP2 MSTORE PUSH1 0x4 ADD PUSH1 0x40 MLOAD DUP1 SWAP2 SUB SWAP1 REVERT JUMPDEST DUP2 PUSH1 0x1 SLOAD DUP2 LT PUSH2 0x1965 JUMPI PUSH1 0x40 MLOAD PUSH4 0xB3B6F4F PUSH1 0xE0 SHL DUP2 MSTORE PUSH1 0x4 ADD PUSH1 0x40 MLOAD DUP1 SWAP2 SUB SWAP1 REVERT JUMPDEST PUSH2 0x196F DUP4 DUP4 PUSH2 0x1A31 JUMP JUMPDEST DUP2 PUSH1 0x0 ADD MLOAD PUSH1 0x1 PUSH1 0x1 PUSH1 0xA0 SHL SUB AND DUP4 PUSH32 0x73DB93C2A2D5A9C15E4B2DEE46E8B6503419145CAD0BDBCE8B16E58C8ED137B7 DUP5 PUSH1 0x20 ADD MLOAD DUP6 PUSH1 0x40 ADD MLOAD PUSH1 0x40 MLOAD PUSH2 0x19C0 SWAP3 SWAP2 SWAP1 SWAP2 DUP3 MSTORE PUSH1 0x20 DUP3 ADD MSTORE PUSH1 0x40 ADD SWAP1 JUMP JUMPDEST PUSH1 0x40 MLOAD DUP1 SWAP2 SUB SWAP1 LOG3 POP POP POP JUMP JUMPDEST PUSH1 0x40 MLOAD PUSH1 0x1 PUSH1 0x1 PUSH1 0xA0 SHL SUB DUP4 DUP2 AND PUSH1 0x24 DUP4 ADD MSTORE PUSH1 0x44 DUP3 ADD DUP4 SWAP1 MSTORE PUSH2 0x1A2C SWAP2 DUP6 SWAP2 DUP3 AND SWAP1 PUSH4 0xA9059CBB SWAP1 PUSH1 0x64 ADD JUMPDEST PUSH1 0x40 MLOAD PUSH1 0x20 DUP2 DUP4 SUB SUB DUP2 MSTORE SWAP1 PUSH1 0x40 MSTORE SWAP2 POP PUSH1 0xE0 SHL PUSH1 0x20 DUP3 ADD DUP1 MLOAD PUSH1 0x1 PUSH1 0x1 PUSH1 0xE0 SHL SUB DUP4 DUP2 DUP4 AND OR DUP4 MSTORE POP POP POP POP PUSH2 0x20D2 JUMP JUMPDEST POP POP POP JUMP JUMPDEST DUP1 MLOAD PUSH1 0x1 PUSH1 0x1 PUSH1 0xA0 SHL SUB AND PUSH2 0x1A59 JUMPI PUSH1 0x40 MLOAD PUSH4 0xE6C4247B PUSH1 0xE0 SHL DUP2 MSTORE PUSH1 0x4 ADD PUSH1 0x40 MLOAD DUP1 SWAP2 SUB SWAP1 REVERT JUMPDEST PUSH1 0x0 DUP3 DUP2 MSTORE PUSH1 0x20 DUP2 SWAP1 MSTORE PUSH1 0x40 DUP2 KECCAK256 SWAP1 JUMPDEST PUSH1 0x1 DUP3 ADD SLOAD DUP2 LT ISZERO PUSH2 0x1AE2 JUMPI DUP3 PUSH1 0x0 ADD MLOAD PUSH1 0x1 PUSH1 0x1 PUSH1 0xA0 SHL SUB AND DUP3 PUSH1 0x1 ADD DUP3 DUP2 SLOAD DUP2 LT PUSH2 0x1A98 JUMPI PUSH2 0x1A98 PUSH2 0x2697 JUMP JUMPDEST PUSH1 0x0 SWAP2 DUP3 MSTORE PUSH1 0x20 SWAP1 SWAP2 KECCAK256 PUSH1 0x4 SWAP1 SWAP2 MUL ADD SLOAD PUSH1 0x1 PUSH1 0x1 PUSH1 0xA0 SHL SUB AND SUB PUSH2 0x1AD0 JUMPI PUSH1 0x40 MLOAD PUSH4 0x694F351F PUSH1 0xE0 SHL DUP2 MSTORE PUSH1 0x4 ADD PUSH1 0x40 MLOAD DUP1 SWAP2 SUB SWAP1 REVERT JUMPDEST DUP1 PUSH2 0x1ADA DUP2 PUSH2 0x267E JUMP JUMPDEST SWAP2 POP POP PUSH2 0x1A69 JUMP JUMPDEST POP PUSH1 0x1 SWAP1 DUP2 ADD DUP1 SLOAD DUP1 DUP4 ADD DUP3 SSTORE PUSH1 0x0 SWAP2 DUP3 MSTORE PUSH1 0x20 SWAP2 DUP3 SWAP1 KECCAK256 DUP5 MLOAD PUSH1 0x4 SWAP1 SWAP3 MUL ADD DUP1 SLOAD PUSH1 0x1 PUSH1 0x1 PUSH1 0xA0 SHL SUB NOT AND PUSH1 0x1 PUSH1 0x1 PUSH1 0xA0 SHL SUB SWAP1 SWAP3 AND SWAP2 SWAP1 SWAP2 OR DUP2 SSTORE SWAP1 DUP4 ADD MLOAD SWAP2 DUP2 ADD SWAP2 SWAP1 SWAP2 SSTORE PUSH1 0x40 DUP3 ADD MLOAD PUSH1 0x2 DUP3 ADD SSTORE PUSH1 0x60 SWAP1 SWAP2 ADD MLOAD PUSH1 0x3 SWAP1 SWAP2 ADD SSTORE POP JUMP JUMPDEST PUSH1 0x40 MLOAD PUSH1 0x1 PUSH1 0x1 PUSH1 0xA0 SHL SUB DUP5 DUP2 AND PUSH1 0x24 DUP4 ADD MSTORE DUP4 DUP2 AND PUSH1 0x44 DUP4 ADD MSTORE PUSH1 0x64 DUP3 ADD DUP4 SWAP1 MSTORE PUSH2 0x1B7C SWAP2 DUP7 SWAP2 DUP3 AND SWAP1 PUSH4 0x23B872DD SWAP1 PUSH1 0x84 ADD PUSH2 0x19FA JUMP JUMPDEST POP POP POP POP JUMP JUMPDEST PUSH1 0x1 DUP3 ADD SLOAD PUSH1 0x0 DUP4 SLOAD PUSH1 0x1 PUSH1 0xA0 SHL SWAP1 DIV PUSH1 0xFF AND PUSH1 0x2 DUP2 GT ISZERO PUSH2 0x1BA6 JUMPI PUSH2 0x1BA6 PUSH2 0x246E JUMP JUMPDEST SUB PUSH2 0x1CA4 JUMPI PUSH1 0x0 JUMPDEST DUP2 DUP2 LT ISZERO PUSH2 0x1C9E JUMPI PUSH1 0x0 DUP5 PUSH1 0x1 ADD DUP3 DUP2 SLOAD DUP2 LT PUSH2 0x1BCD JUMPI PUSH2 0x1BCD PUSH2 0x2697 JUMP JUMPDEST PUSH1 0x0 SWAP2 DUP3 MSTORE PUSH1 0x20 DUP1 DUP4 KECCAK256 PUSH1 0x40 DUP1 MLOAD PUSH1 0x80 DUP2 ADD DUP3 MSTORE PUSH1 0x4 SWAP1 SWAP5 MUL SWAP1 SWAP2 ADD DUP1 SLOAD PUSH1 0x1 PUSH1 0x1 PUSH1 0xA0 SHL SUB AND DUP5 MSTORE PUSH1 0x1 DUP2 ADD SLOAD SWAP3 DUP5 ADD DUP4 SWAP1 MSTORE PUSH1 0x2 DUP2 ADD SLOAD SWAP2 DUP5 ADD SWAP2 SWAP1 SWAP2 MSTORE PUSH1 0x3 ADD SLOAD PUSH1 0x60 DUP4 ADD MSTORE SWAP1 SWAP3 POP PUSH2 0x2710 SWAP1 PUSH2 0x1C27 SWAP1 DUP8 PUSH2 0x26DB JUMP JUMPDEST PUSH2 0x1C31 SWAP2 SWAP1 PUSH2 0x26F2 JUMP JUMPDEST SWAP1 POP DUP1 ISZERO PUSH2 0x1C89 JUMPI DUP2 MLOAD DUP7 SLOAD PUSH2 0x1C53 SWAP2 PUSH1 0x1 PUSH1 0x1 PUSH1 0xA0 SHL SUB SWAP1 SWAP2 AND SWAP1 DUP4 PUSH2 0x19CD JUMP JUMPDEST DUP6 SLOAD DUP3 MLOAD PUSH1 0x40 MLOAD DUP4 DUP2 MSTORE PUSH1 0x1 PUSH1 0x1 PUSH1 0xA0 SHL SUB SWAP3 DUP4 AND SWAP3 SWAP1 SWAP2 AND SWAP1 PUSH1 0x0 DUP1 MLOAD PUSH1 0x20 PUSH2 0x273E DUP4 CODECOPY DUP2 MLOAD SWAP2 MSTORE SWAP1 PUSH1 0x20 ADD PUSH1 0x40 MLOAD DUP1 SWAP2 SUB SWAP1 LOG3 JUMPDEST POP POP DUP1 DUP1 PUSH2 0x1C96 SWAP1 PUSH2 0x267E JUMP JUMPDEST SWAP2 POP POP PUSH2 0x1BAE JUMP JUMPDEST POP PUSH2 0x2082 JUMP JUMPDEST PUSH1 0x1 DUP4 SLOAD PUSH1 0x1 PUSH1 0xA0 SHL SWAP1 DIV PUSH1 0xFF AND PUSH1 0x2 DUP2 GT ISZERO PUSH2 0x1CC3 JUMPI PUSH2 0x1CC3 PUSH2 0x246E JUMP JUMPDEST SUB PUSH2 0x1F2A JUMPI PUSH1 0x0 DUP3 DUP2 JUMPDEST DUP4 DUP2 LT ISZERO PUSH2 0x1D5A JUMPI PUSH1 0x0 DUP7 PUSH1 0x1 ADD DUP3 DUP2 SLOAD DUP2 LT PUSH2 0x1CEC JUMPI PUSH2 0x1CEC PUSH2 0x2697 JUMP JUMPDEST PUSH1 0x0 SWAP2 DUP3 MSTORE PUSH1 0x20 SWAP2 DUP3 SWAP1 KECCAK256 PUSH1 0x40 DUP1 MLOAD PUSH1 0x80 DUP2 ADD DUP3 MSTORE PUSH1 0x4 SWAP1 SWAP4 MUL SWAP1 SWAP2 ADD DUP1 SLOAD PUSH1 0x1 PUSH1 0x1 PUSH1 0xA0 SHL SUB AND DUP4 MSTORE PUSH1 0x1 DUP2 ADD SLOAD SWAP4 DUP4 ADD SWAP4 SWAP1 SWAP4 MSTORE PUSH1 0x2 DUP4 ADD SLOAD SWAP1 DUP3 ADD DUP2 SWAP1 MSTORE PUSH1 0x3 SWAP1 SWAP3 ADD SLOAD PUSH1 0x60 DUP3 ADD MSTORE SWAP2 POP PUSH2 0x1D44 SWAP1 DUP6 PUSH2 0x26AD JUMP JUMPDEST SWAP4 POP POP DUP1 DUP1 PUSH2 0x1D52 SWAP1 PUSH2 0x267E JUMP JUMPDEST SWAP2 POP POP PUSH2 0x1CCD JUMP JUMPDEST POP DUP4 DUP3 GT ISZERO PUSH2 0x1D86 JUMPI PUSH1 0x40 MLOAD PUSH4 0xCF479181 PUSH1 0xE0 SHL DUP2 MSTORE PUSH1 0x4 DUP2 ADD DUP4 SWAP1 MSTORE PUSH1 0x24 DUP2 ADD DUP6 SWAP1 MSTORE PUSH1 0x44 ADD PUSH2 0x54E JUMP JUMPDEST PUSH1 0x0 JUMPDEST DUP4 DUP2 LT ISZERO PUSH2 0x1E8A JUMPI PUSH1 0x0 DUP7 PUSH1 0x1 ADD DUP3 DUP2 SLOAD DUP2 LT PUSH2 0x1DA8 JUMPI PUSH2 0x1DA8 PUSH2 0x2697 JUMP JUMPDEST PUSH1 0x0 SWAP2 DUP3 MSTORE PUSH1 0x20 SWAP2 DUP3 SWAP1 KECCAK256 PUSH1 0x40 DUP1 MLOAD PUSH1 0x80 DUP2 ADD DUP3 MSTORE PUSH1 0x4 SWAP1 SWAP4 MUL SWAP1 SWAP2 ADD DUP1 SLOAD PUSH1 0x1 PUSH1 0x1 PUSH1 0xA0 SHL SUB AND DUP4 MSTORE PUSH1 0x1 DUP2 ADD SLOAD SWAP4 DUP4 ADD SWAP4 SWAP1 SWAP4 MSTORE PUSH1 0x2 DUP4 ADD SLOAD SWAP1 DUP3 ADD DUP2 SWAP1 MSTORE PUSH1 0x3 SWAP1 SWAP3 ADD SLOAD PUSH1 0x60 DUP3 ADD MSTORE SWAP2 POP ISZERO DUP1 ISZERO SWAP1 PUSH2 0x1E08 JUMPI POP DUP3 DUP2 PUSH1 0x40 ADD MLOAD GT ISZERO JUMPDEST ISZERO PUSH2 0x1E77 JUMPI DUP1 MLOAD PUSH1 0x40 DUP3 ADD MLOAD DUP9 SLOAD PUSH2 0x1E2B SWAP3 PUSH1 0x1 PUSH1 0x1 PUSH1 0xA0 SHL SUB SWAP1 SWAP2 AND SWAP2 PUSH2 0x19CD JUMP JUMPDEST PUSH1 0x40 DUP2 ADD MLOAD PUSH2 0x1E3A SWAP1 DUP5 PUSH2 0x2714 JUMP JUMPDEST DUP8 SLOAD DUP3 MLOAD PUSH1 0x40 DUP1 DUP6 ADD MLOAD SWAP1 MLOAD SWAP1 DUP2 MSTORE SWAP3 SWAP6 POP PUSH1 0x1 PUSH1 0x1 PUSH1 0xA0 SHL SUB SWAP2 DUP3 AND SWAP3 SWAP2 AND SWAP1 PUSH1 0x0 DUP1 MLOAD PUSH1 0x20 PUSH2 0x273E DUP4 CODECOPY DUP2 MLOAD SWAP2 MSTORE SWAP1 PUSH1 0x20 ADD PUSH1 0x40 MLOAD DUP1 SWAP2 SUB SWAP1 LOG3 JUMPDEST POP DUP1 PUSH2 0x1E82 DUP2 PUSH2 0x267E JUMP JUMPDEST SWAP2 POP POP PUSH2 0x1D89 JUMP JUMPDEST POP PUSH1 0x0 DUP2 GT DUP1 ISZERO PUSH2 0x1E9B JUMPI POP PUSH1 0x0 DUP4 GT JUMPDEST ISZERO PUSH2 0x1F23 JUMPI PUSH1 0x0 DUP6 PUSH1 0x1 ADD PUSH1 0x1 DUP6 PUSH2 0x1EB3 SWAP2 SWAP1 PUSH2 0x2714 JUMP JUMPDEST DUP2 SLOAD DUP2 LT PUSH2 0x1EC3 JUMPI PUSH2 0x1EC3 PUSH2 0x2697 JUMP JUMPDEST PUSH1 0x0 SWAP2 DUP3 MSTORE PUSH1 0x20 SWAP1 SWAP2 KECCAK256 PUSH1 0x4 SWAP1 SWAP2 MUL ADD SLOAD DUP7 SLOAD PUSH1 0x1 PUSH1 0x1 PUSH1 0xA0 SHL SUB SWAP2 DUP3 AND SWAP3 POP PUSH2 0x1EEF SWAP2 AND DUP3 DUP5 PUSH2 0x19CD JUMP JUMPDEST DUP6 SLOAD PUSH1 0x40 MLOAD DUP4 DUP2 MSTORE PUSH1 0x1 PUSH1 0x1 PUSH1 0xA0 SHL SUB SWAP2 DUP3 AND SWAP2 DUP4 AND SWAP1 PUSH1 0x0 DUP1 MLOAD PUSH1 0x20 PUSH2 0x273E DUP4 CODECOPY DUP2 MLOAD SWAP2 MSTORE SWAP1 PUSH1 0x20 ADD PUSH1 0x40 MLOAD DUP1 SWAP2 SUB SWAP1 LOG3 POP JUMPDEST POP POP PUSH2 0x2082 JUMP JUMPDEST PUSH1 0x0 DUP1 JUMPDEST DUP3 DUP2 LT ISZERO PUSH2 0x1F7C JUMPI DUP5 PUSH1 0x1 ADD DUP2 DUP2 SLOAD DUP2 LT PUSH2 0x1F4B JUMPI PUSH2 0x1F4B PUSH2 0x2697 JUMP JUMPDEST SWAP1 PUSH1 0x0 MSTORE PUSH1 0x20 PUSH1 0x0 KECCAK256 SWAP1 PUSH1 0x4 MUL ADD PUSH1 0x3 ADD SLOAD DUP3 PUSH2 0x1F68 SWAP2 SWAP1 PUSH2 0x26AD JUMP JUMPDEST SWAP2 POP DUP1 PUSH2 0x1F74 DUP2 PUSH2 0x267E JUMP JUMPDEST SWAP2 POP POP PUSH2 0x1F2E JUMP JUMPDEST POP PUSH1 0x0 JUMPDEST DUP3 DUP2 LT ISZERO PUSH2 0x207F JUMPI PUSH1 0x0 DUP6 PUSH1 0x1 ADD DUP3 DUP2 SLOAD DUP2 LT PUSH2 0x1F9F JUMPI PUSH2 0x1F9F PUSH2 0x2697 JUMP JUMPDEST PUSH1 0x0 SWAP2 DUP3 MSTORE PUSH1 0x20 DUP1 DUP4 KECCAK256 PUSH1 0x40 DUP1 MLOAD PUSH1 0x80 DUP2 ADD DUP3 MSTORE PUSH1 0x4 SWAP1 SWAP5 MUL SWAP1 SWAP2 ADD DUP1 SLOAD PUSH1 0x1 PUSH1 0x1 PUSH1 0xA0 SHL SUB AND DUP5 MSTORE PUSH1 0x1 DUP2 ADD SLOAD SWAP3 DUP5 ADD SWAP3 SWAP1 SWAP3 MSTORE PUSH1 0x2 DUP3 ADD SLOAD SWAP1 DUP4 ADD MSTORE PUSH1 0x3 ADD SLOAD PUSH1 0x60 DUP3 ADD MSTORE SWAP2 POP DUP4 SWAP1 SUB PUSH2 0x1FF5 JUMPI POP PUSH2 0x207F JUMP JUMPDEST PUSH1 0x0 DUP4 DUP3 PUSH1 0x60 ADD MLOAD DUP8 PUSH2 0x2008 SWAP2 SWAP1 PUSH2 0x26DB JUMP JUMPDEST PUSH2 0x2012 SWAP2 SWAP1 PUSH2 0x26F2 JUMP JUMPDEST SWAP1 POP DUP1 ISZERO PUSH2 0x206A JUMPI DUP2 MLOAD DUP8 SLOAD PUSH2 0x2034 SWAP2 PUSH1 0x1 PUSH1 0x1 PUSH1 0xA0 SHL SUB SWAP1 SWAP2 AND SWAP1 DUP4 PUSH2 0x19CD JUMP JUMPDEST DUP7 SLOAD DUP3 MLOAD PUSH1 0x40 MLOAD DUP4 DUP2 MSTORE PUSH1 0x1 PUSH1 0x1 PUSH1 0xA0 SHL SUB SWAP3 DUP4 AND SWAP3 SWAP1 SWAP2 AND SWAP1 PUSH1 0x0 DUP1 MLOAD PUSH1 0x20 PUSH2 0x273E DUP4 CODECOPY DUP2 MLOAD SWAP2 MSTORE SWAP1 PUSH1 0x20 ADD PUSH1 0x40 MLOAD DUP1 SWAP2 SUB SWAP1 LOG3 JUMPDEST POP POP DUP1 DUP1 PUSH2 0x2077 SWAP1 PUSH2 0x267E JUMP JUMPDEST SWAP2 POP POP PUSH2 0x1F80 JUMP JUMPDEST POP POP JUMPDEST DUP3 SLOAD PUSH1 0x40 DUP1 MLOAD DUP5 DUP2 MSTORE PUSH1 0x20 DUP2 ADD DUP5 SWAP1 MSTORE TIMESTAMP SWAP2 DUP2 ADD SWAP2 SWAP1 SWAP2 MSTORE PUSH1 0x1 PUSH1 0x1 PUSH1 0xA0 SHL SUB SWAP1 SWAP2 AND SWAP1 DUP6 SWAP1 PUSH32 0xFB4C08E7084C15346C40A683D976A6AE205F4E06146D9122619CCCDC75C3481D SWAP1 PUSH1 0x60 ADD PUSH2 0x5B0 JUMP JUMPDEST PUSH1 0x0 DUP1 PUSH1 0x20 PUSH1 0x0 DUP5 MLOAD PUSH1 0x20 DUP7 ADD PUSH1 0x0 DUP9 GAS CALL DUP1 PUSH2 0x20F5 JUMPI PUSH1 0x40 MLOAD RETURNDATASIZE PUSH1 0x0 DUP3 RETURNDATACOPY RETURNDATASIZE DUP2 REVERT JUMPDEST POP POP PUSH1 0x0 MLOAD RETURNDATASIZE SWAP2 POP DUP2 ISZERO PUSH2 0x210D JUMPI DUP1 PUSH1 0x1 EQ ISZERO PUSH2 0x211A JUMP JUMPDEST PUSH1 0x1 PUSH1 0x1 PUSH1 0xA0 SHL SUB DUP5 AND EXTCODESIZE ISZERO JUMPDEST ISZERO PUSH2 0x1B7C JUMPI PUSH1 0x40 MLOAD PUSH4 0x5274AFE7 PUSH1 0xE0 SHL DUP2 MSTORE PUSH1 0x1 PUSH1 0x1 PUSH1 0xA0 SHL SUB DUP6 AND PUSH1 0x4 DUP3 ADD MSTORE PUSH1 0x24 ADD PUSH2 0x54E JUMP JUMPDEST DUP1 CALLDATALOAD PUSH1 0x1 PUSH1 0x1 PUSH1 0xA0 SHL SUB DUP2 AND DUP2 EQ PUSH2 0x215A JUMPI PUSH1 0x0 DUP1 REVERT JUMPDEST SWAP2 SWAP1 POP JUMP JUMPDEST PUSH1 0x0 DUP1 PUSH1 0x0 PUSH1 0x60 DUP5 DUP7 SUB SLT ISZERO PUSH2 0x2174 JUMPI PUSH1 0x0 DUP1 REVERT JUMPDEST PUSH2 0x217D DUP5 PUSH2 0x2143 JUMP JUMPDEST SWAP3 POP PUSH2 0x218B PUSH1 0x20 DUP6 ADD PUSH2 0x2143 JUMP JUMPDEST SWAP2 POP PUSH1 0x40 DUP5 ADD CALLDATALOAD SWAP1 POP SWAP3 POP SWAP3 POP SWAP3 JUMP JUMPDEST DUP1 CALLDATALOAD PUSH1 0x3 DUP2 LT PUSH2 0x215A JUMPI PUSH1 0x0 DUP1 REVERT JUMPDEST PUSH1 0x0 DUP1 PUSH1 0x40 DUP4 DUP6 SUB SLT ISZERO PUSH2 0x21BD JUMPI PUSH1 0x0 DUP1 REVERT JUMPDEST DUP3 CALLDATALOAD SWAP2 POP PUSH2 0x21CD PUSH1 0x20 DUP5 ADD PUSH2 0x219B JUMP JUMPDEST SWAP1 POP SWAP3 POP SWAP3 SWAP1 POP JUMP JUMPDEST PUSH1 0x0 PUSH1 0x20 DUP3 DUP5 SUB SLT ISZERO PUSH2 0x21E8 JUMPI PUSH1 0x0 DUP1 REVERT JUMPDEST POP CALLDATALOAD SWAP2 SWAP1 POP JUMP JUMPDEST PUSH4 0x4E487B71 PUSH1 0xE0 SHL PUSH1 0x0 MSTORE PUSH1 0x41 PUSH1 0x4 MSTORE PUSH1 0x24 PUSH1 0x0 REVERT JUMPDEST PUSH1 0x40 MLOAD PUSH1 0x1F DUP3 ADD PUSH1 0x1F NOT AND DUP2 ADD PUSH8 0xFFFFFFFFFFFFFFFF DUP2 GT DUP3 DUP3 LT OR ISZERO PUSH2 0x222E JUMPI PUSH2 0x222E PUSH2 0x21EF JUMP JUMPDEST PUSH1 0x40 MSTORE SWAP2 SWAP1 POP JUMP JUMPDEST PUSH1 0x0 PUSH1 0x80 DUP3 DUP5 SUB SLT ISZERO PUSH2 0x2248 JUMPI PUSH1 0x0 DUP1 REVERT JUMPDEST PUSH1 0x40 MLOAD PUSH1 0x80 DUP2 ADD DUP2 DUP2 LT PUSH8 0xFFFFFFFFFFFFFFFF DUP3 GT OR ISZERO PUSH2 0x226B JUMPI PUSH2 0x226B PUSH2 0x21EF JUMP JUMPDEST PUSH1 0x40 MSTORE SWAP1 POP DUP1 PUSH2 0x227A DUP4 PUSH2 0x2143 JUMP JUMPDEST DUP2 MSTORE PUSH1 0x20 DUP4 ADD CALLDATALOAD PUSH1 0x20 DUP3 ADD MSTORE PUSH1 0x40 DUP4 ADD CALLDATALOAD PUSH1 0x40 DUP3 ADD MSTORE PUSH1 0x60 DUP4 ADD CALLDATALOAD PUSH1 0x60 DUP3 ADD MSTORE POP SWAP3 SWAP2 POP POP JUMP JUMPDEST PUSH1 0x0 DUP1 PUSH1 0x0 DUP1 PUSH1 0x80 DUP1 DUP7 DUP9 SUB SLT ISZERO PUSH2 0x22B8 JUMPI PUSH1 0x0 DUP1 REVERT JUMPDEST PUSH2 0x22C1 DUP7 PUSH2 0x2143 JUMP JUMPDEST SWAP5 POP PUSH1 0x20 PUSH2 0x22D0 DUP2 DUP9 ADD PUSH2 0x219B JUMP JUMPDEST SWAP5 POP PUSH1 0x40 DUP8 ADD CALLDATALOAD SWAP4 POP PUSH1 0x60 DUP8 ADD CALLDATALOAD PUSH8 0xFFFFFFFFFFFFFFFF DUP1 DUP3 GT ISZERO PUSH2 0x22F4 JUMPI PUSH1 0x0 DUP1 REVERT JUMPDEST DUP2 DUP10 ADD SWAP2 POP DUP10 PUSH1 0x1F DUP4 ADD SLT PUSH2 0x2308 JUMPI PUSH1 0x0 DUP1 REVERT JUMPDEST DUP2 CALLDATALOAD DUP2 DUP2 GT ISZERO PUSH2 0x231A JUMPI PUSH2 0x231A PUSH2 0x21EF JUMP JUMPDEST PUSH2 0x2328 DUP5 DUP3 PUSH1 0x5 SHL ADD PUSH2 0x2205 JUMP JUMPDEST DUP2 DUP2 MSTORE DUP5 DUP2 ADD SWAP3 POP PUSH1 0x7 SWAP2 SWAP1 SWAP2 SHL DUP4 ADD DUP5 ADD SWAP1 DUP12 DUP3 GT ISZERO PUSH2 0x2348 JUMPI PUSH1 0x0 DUP1 REVERT JUMPDEST SWAP3 DUP5 ADD SWAP3 JUMPDEST DUP2 DUP5 LT ISZERO PUSH2 0x236E JUMPI PUSH2 0x235F DUP13 DUP6 PUSH2 0x2236 JUMP JUMPDEST DUP4 MSTORE SWAP3 DUP6 ADD SWAP3 SWAP2 DUP5 ADD SWAP2 PUSH2 0x234D JUMP JUMPDEST SWAP9 SWAP12 SWAP8 SWAP11 POP SWAP6 SWAP9 POP POP POP POP POP POP POP JUMP JUMPDEST PUSH1 0x0 DUP1 PUSH1 0x40 DUP4 DUP6 SUB SLT ISZERO PUSH2 0x2391 JUMPI PUSH1 0x0 DUP1 REVERT JUMPDEST POP POP DUP1 CALLDATALOAD SWAP3 PUSH1 0x20 SWAP1 SWAP2 ADD CALLDATALOAD SWAP2 POP JUMP JUMPDEST PUSH1 0x0 DUP1 PUSH1 0x0 DUP1 PUSH1 0x80 DUP6 DUP8 SUB SLT ISZERO PUSH2 0x23B6 JUMPI PUSH1 0x0 DUP1 REVERT JUMPDEST DUP5 CALLDATALOAD SWAP4 POP PUSH2 0x23C6 PUSH1 0x20 DUP7 ADD PUSH2 0x2143 JUMP JUMPDEST SWAP4 SWAP7 SWAP4 SWAP6 POP POP POP POP PUSH1 0x40 DUP3 ADD CALLDATALOAD SWAP2 PUSH1 0x60 ADD CALLDATALOAD SWAP1 JUMP JUMPDEST PUSH1 0x0 PUSH1 0x20 DUP3 DUP5 SUB SLT ISZERO PUSH2 0x23ED JUMPI PUSH1 0x0 DUP1 REVERT JUMPDEST PUSH2 0x23F6 DUP3 PUSH2 0x2143 JUMP JUMPDEST SWAP4 SWAP3 POP POP POP JUMP JUMPDEST PUSH1 0x0 DUP1 PUSH1 0x40 DUP4 DUP6 SUB SLT ISZERO PUSH2 0x2410 JUMPI PUSH1 0x0 DUP1 REVERT JUMPDEST DUP3 CALLDATALOAD SWAP2 POP PUSH2 0x21CD PUSH1 0x20 DUP5 ADD PUSH2 0x2143 JUMP JUMPDEST PUSH1 0x0 DUP2 MLOAD DUP1 DUP5 MSTORE PUSH1 0x20 DUP1 DUP6 ADD SWAP5 POP DUP1 DUP5 ADD PUSH1 0x0 JUMPDEST DUP4 DUP2 LT ISZERO PUSH2 0x2450 JUMPI DUP2 MLOAD DUP8 MSTORE SWAP6 DUP3 ADD SWAP6 SWAP1 DUP3 ADD SWAP1 PUSH1 0x1 ADD PUSH2 0x2434 JUMP JUMPDEST POP SWAP5 SWAP6 SWAP5 POP POP POP POP POP JUMP JUMPDEST PUSH1 0x20 DUP2 MSTORE PUSH1 0x0 PUSH2 0x23F6 PUSH1 0x20 DUP4 ADD DUP5 PUSH2 0x2420 JUMP JUMPDEST PUSH4 0x4E487B71 PUSH1 0xE0 SHL PUSH1 0x0 MSTORE PUSH1 0x21 PUSH1 0x4 MSTORE PUSH1 0x24 PUSH1 0x0 REVERT JUMPDEST PUSH1 0x3 DUP2 LT PUSH2 0x24A2 JUMPI PUSH4 0x4E487B71 PUSH1 0xE0 SHL PUSH1 0x0 MSTORE PUSH1 0x21 PUSH1 0x4 MSTORE PUSH1 0x24 PUSH1 0x0 REVERT JUMPDEST SWAP1 MSTORE JUMP JUMPDEST PUSH1 0x1 PUSH1 0x1 PUSH1 0xA0 SHL SUB DUP11 AND DUP2 MSTORE PUSH2 0x120 DUP2 ADD PUSH2 0x24C4 PUSH1 0x20 DUP4 ADD DUP12 PUSH2 0x2484 JUMP JUMPDEST PUSH1 0x40 DUP3 ADD SWAP9 SWAP1 SWAP9 MSTORE SWAP6 ISZERO ISZERO PUSH1 0x60 DUP8 ADD MSTORE PUSH1 0x80 DUP7 ADD SWAP5 SWAP1 SWAP5 MSTORE PUSH1 0xA0 DUP6 ADD SWAP3 SWAP1 SWAP3 MSTORE PUSH1 0xC0 DUP5 ADD MSTORE PUSH1 0xE0 DUP4 ADD MSTORE PUSH2 0x100 SWAP1 SWAP2 ADD MSTORE SWAP3 SWAP2 POP POP JUMP JUMPDEST PUSH1 0x80 DUP1 DUP3 MSTORE DUP6 MLOAD SWAP1 DUP3 ADD DUP2 SWAP1 MSTORE PUSH1 0x0 SWAP1 PUSH1 0x20 SWAP1 PUSH1 0xA0 DUP5 ADD SWAP1 DUP3 DUP10 ADD DUP5 JUMPDEST DUP3 DUP2 LT ISZERO PUSH2 0x253D JUMPI DUP2 MLOAD PUSH1 0x1 PUSH1 0x1 PUSH1 0xA0 SHL SUB AND DUP5 MSTORE SWAP3 DUP5 ADD SWAP3 SWAP1 DUP5 ADD SWAP1 PUSH1 0x1 ADD PUSH2 0x2518 JUMP JUMPDEST POP POP POP DUP4 DUP2 SUB DUP3 DUP6 ADD MSTORE PUSH2 0x2551 DUP2 DUP9 PUSH2 0x2420 JUMP JUMPDEST SWAP2 POP POP DUP3 DUP2 SUB PUSH1 0x40 DUP5 ADD MSTORE PUSH2 0x2566 DUP2 DUP7 PUSH2 0x2420 JUMP JUMPDEST SWAP1 POP DUP3 DUP2 SUB PUSH1 0x60 DUP5 ADD MSTORE PUSH2 0x257A DUP2 DUP6 PUSH2 0x2420 JUMP JUMPDEST SWAP8 SWAP7 POP POP POP POP POP POP POP JUMP JUMPDEST PUSH1 0x1 PUSH1 0x1 PUSH1 0xA0 SHL SUB DUP10 AND DUP2 MSTORE PUSH2 0x100 DUP2 ADD PUSH2 0x25A3 PUSH1 0x20 DUP4 ADD DUP11 PUSH2 0x2484 JUMP JUMPDEST PUSH1 0x40 DUP3 ADD SWAP8 SWAP1 SWAP8 MSTORE SWAP5 ISZERO ISZERO PUSH1 0x60 DUP7 ADD MSTORE PUSH1 0x80 DUP6 ADD SWAP4 SWAP1 SWAP4 MSTORE PUSH1 0xA0 DUP5 ADD SWAP2 SWAP1 SWAP2 MSTORE PUSH1 0xC0 DUP4 ADD MSTORE PUSH1 0xE0 SWAP1 SWAP2 ADD MSTORE SWAP3 SWAP2 POP POP JUMP JUMPDEST PUSH1 0x0 DUP1 PUSH1 0x0 PUSH1 0x60 DUP5 DUP7 SUB SLT ISZERO PUSH2 0x25E9 JUMPI PUSH1 0x0 DUP1 REVERT JUMPDEST DUP4 CALLDATALOAD SWAP3 POP PUSH2 0x25F9 PUSH1 0x20 DUP6 ADD PUSH2 0x2143 JUMP JUMPDEST SWAP2 POP PUSH2 0x2607 PUSH1 0x40 DUP6 ADD PUSH2 0x2143 JUMP JUMPDEST SWAP1 POP SWAP3 POP SWAP3 POP SWAP3 JUMP JUMPDEST PUSH1 0x0 DUP1 PUSH1 0xA0 DUP4 DUP6 SUB SLT ISZERO PUSH2 0x2623 JUMPI PUSH1 0x0 DUP1 REVERT JUMPDEST DUP3 CALLDATALOAD SWAP2 POP PUSH2 0x21CD DUP5 PUSH1 0x20 DUP6 ADD PUSH2 0x2236 JUMP JUMPDEST PUSH1 0x0 PUSH1 0x20 DUP3 DUP5 SUB SLT ISZERO PUSH2 0x2646 JUMPI PUSH1 0x0 DUP1 REVERT JUMPDEST POP MLOAD SWAP2 SWAP1 POP JUMP JUMPDEST PUSH1 0x40 DUP2 ADD PUSH2 0x265B DUP3 DUP6 PUSH2 0x2484 JUMP JUMPDEST PUSH2 0x23F6 PUSH1 0x20 DUP4 ADD DUP5 PUSH2 0x2484 JUMP JUMPDEST PUSH4 0x4E487B71 PUSH1 0xE0 SHL PUSH1 0x0 MSTORE PUSH1 0x11 PUSH1 0x4 MSTORE PUSH1 0x24 PUSH1 0x0 REVERT JUMPDEST PUSH1 0x0 PUSH1 0x1 DUP3 ADD PUSH2 0x2690 JUMPI PUSH2 0x2690 PUSH2 0x2668 JUMP JUMPDEST POP PUSH1 0x1 ADD SWAP1 JUMP JUMPDEST PUSH4 0x4E487B71 PUSH1 0xE0 SHL PUSH1 0x0 MSTORE PUSH1 0x32 PUSH1 0x4 MSTORE PUSH1 0x24 PUSH1 0x0 REVERT JUMPDEST DUP1 DUP3 ADD DUP1 DUP3 GT ISZERO PUSH2 0xC1A JUMPI PUSH2 0xC1A PUSH2 0x2668 JUMP JUMPDEST PUSH1 0x40 DUP2 ADD PUSH2 0x26CE DUP3 DUP6 PUSH2 0x2484 JUMP JUMPDEST DUP3 PUSH1 0x20 DUP4 ADD MSTORE SWAP4 SWAP3 POP POP POP JUMP JUMPDEST DUP1 DUP3 MUL DUP2 ISZERO DUP3 DUP3 DIV DUP5 EQ OR PUSH2 0xC1A JUMPI PUSH2 0xC1A PUSH2 0x2668 JUMP JUMPDEST PUSH1 0x0 DUP3 PUSH2 0x270F JUMPI PUSH4 0x4E487B71 PUSH1 0xE0 SHL PUSH1 0x0 MSTORE PUSH1 0x12 PUSH1 0x4 MSTORE PUSH1 0x24 PUSH1 0x0 REVERT JUMPDEST POP DIV SWAP1 JUMP JUMPDEST DUP2 DUP2 SUB DUP2 DUP2 GT ISZERO PUSH2 0xC1A JUMPI PUSH2 0xC1A PUSH2 0x2668 JUMP JUMPDEST PUSH4 0x4E487B71 PUSH1 0xE0 SHL PUSH1 0x0 MSTORE PUSH1 0x31 PUSH1 0x4 MSTORE PUSH1 0x24 PUSH1 0x0 REVERT INVALID 0xF7 LOG4 STOP PUSH24 0xFF7A04C7E61F6F26FB13774259DDF1B6BCE9ECF26A8276CD 0xD3 SWAP10 0x26 DUP4 LOG2 PUSH5 0x6970667358 0x22 SLT KECCAK256 0xFB MLOAD PUSH29 0xA3A92A8C39293517A8336FD3F2B1D3DD68D33BD4ACCB96CA0AAB89830C PUSH5 0x736F6C6343 STOP ADDMOD EQ STOP CALLER "},"methodIdentifiers":{"addBeneficiary(uint256,(address,uint256,uint256,uint256))":"e44dea6d","addSupportedToken(address)":"6d69fcaf","beneficiaryBalances(uint256,address)":"3d2d07e2","calculateDistribution(uint256,uint256)":"466252df","createSplit(address,uint8,uint256,(address,uint256,uint256,uint256)[])":"23de4fcd","executeSplit(uint256,uint256)":"74265dd4","getBeneficiaries(uint256)":"783804d9","getSplit(uint256)":"514a6810","getTokenBalance(address)":"3aecd0e3","isTokenSupported(address)":"75151b63","nextSplitId()":"df04abab","owner()":"8da5cb5b","pauseSplit(uint256)":"21187690","removeBeneficiary(uint256,address)":"d5c6f21e","removeSupportedToken(address)":"76319190","splits(uint256)":"884c3006","supportedTokens(address)":"68c4ac26","tokenBalances(uint256,address,address)":"a326707c","unpauseSplit(uint256)":"752033db","updateBeneficiary(uint256,address,uint256,uint256)":"2f8428a4","updateMinAmount(uint256,uint256)":"2b015aa0","updateOwner(address)":"880cdc31","updateSplitMode(uint256,uint8)":"04e5cba7","withdrawToken(address,address,uint256)":"01e33667"}}}}}