{"contracts/BatchTransfer.sol":{"BatchTransfer":{"abi":[{"inputs":[{"internalType":"address","name":"_feeCollector","type":"address"}],"stateMutability":"nonpayable","type":"constructor"},{"inputs":[{"internalType":"address","name":"owner","type":"address"}],"name":"OwnableInvalidOwner","type":"error"},{"inputs":[{"internalType":"address","name":"account","type":"address"}],"name":"OwnableUnauthorizedAccount","type":"error"},{"inputs":[],"name":"ReentrancyGuardReentrantCall","type":"error"},{"anonymous":false,"inputs":[{"indexed":true,"internalType":"address","name":"token","type":"address"},{"indexed":true,"internalType":"address","name":"sender","type":"address"},{"indexed":false,"internalType":"uint256","name":"recipientCount","type":"uint256"},{"indexed":false,"internalType":"uint256","name":"totalAmount","type":"uint256"},{"indexed":false,"internalType":"uint256","name":"timestamp","type":"uint256"}],"name":"BatchTransferCompleted","type":"event"},{"anonymous":false,"inputs":[{"indexed":true,"internalType":"address","name":"token","type":"address"},{"indexed":true,"internalType":"address","name":"sender","type":"address"},{"indexed":false,"internalType":"uint256","name":"feeAmount","type":"uint256"}],"name":"FeeCollected","type":"event"},{"anonymous":false,"inputs":[{"indexed":true,"internalType":"address","name":"previousOwner","type":"address"},{"indexed":true,"internalType":"address","name":"newOwner","type":"address"}],"name":"OwnershipTransferred","type":"event"},{"anonymous":false,"inputs":[{"indexed":true,"internalType":"address","name":"recipient","type":"address"},{"indexed":false,"internalType":"uint256","name":"amount","type":"uint256"},{"indexed":false,"internalType":"string","name":"reason","type":"string"}],"name":"TransferFailed","type":"event"},{"inputs":[{"internalType":"address","name":"token","type":"address"},{"internalType":"address[]","name":"recipients","type":"address[]"},{"internalType":"uint256[]","name":"amounts","type":"uint256[]"}],"name":"batchTransfer","outputs":[{"internalType":"uint256","name":"successCount","type":"uint256"}],"stateMutability":"nonpayable","type":"function"},{"inputs":[{"internalType":"address","name":"token","type":"address"},{"internalType":"address[]","name":"recipients","type":"address[]"},{"internalType":"uint256","name":"amount","type":"uint256"}],"name":"batchTransferEqual","outputs":[{"internalType":"uint256","name":"successCount","type":"uint256"}],"stateMutability":"nonpayable","type":"function"},{"inputs":[{"internalType":"uint256[]","name":"amounts","type":"uint256[]"}],"name":"calculateTotalRequired","outputs":[{"internalType":"uint256","name":"totalRequired","type":"uint256"},{"internalType":"uint256","name":"feeAmount","type":"uint256"}],"stateMutability":"view","type":"function"},{"inputs":[{"internalType":"address","name":"token","type":"address"},{"internalType":"uint256","name":"amount","type":"uint256"}],"name":"emergencyWithdraw","outputs":[],"stateMutability":"nonpayable","type":"function"},{"inputs":[],"name":"feeCollector","outputs":[{"internalType":"address","name":"","type":"address"}],"stateMutability":"view","type":"function"},{"inputs":[],"name":"getStats","outputs":[{"internalType":"uint256","name":"batchesProcessed","type":"uint256"},{"internalType":"uint256","name":"recipientsServed","type":"uint256"},{"internalType":"uint16","name":"currentFee","type":"uint16"},{"internalType":"uint256","name":"currentMaxBatch","type":"uint256"}],"stateMutability":"view","type":"function"},{"inputs":[],"name":"maxBatchSize","outputs":[{"internalType":"uint256","name":"","type":"uint256"}],"stateMutability":"view","type":"function"},{"inputs":[],"name":"owner","outputs":[{"internalType":"address","name":"","type":"address"}],"stateMutability":"view","type":"function"},{"inputs":[],"name":"platformFeeBps","outputs":[{"internalType":"uint16","name":"","type":"uint16"}],"stateMutability":"view","type":"function"},{"inputs":[],"name":"renounceOwnership","outputs":[],"stateMutability":"nonpayable","type":"function"},{"inputs":[{"internalType":"address","name":"newCollector","type":"address"}],"name":"setFeeCollector","outputs":[],"stateMutability":"nonpayable","type":"function"},{"inputs":[{"internalType":"uint256","name":"newMaxSize","type":"uint256"}],"name":"setMaxBatchSize","outputs":[],"stateMutability":"nonpayable","type":"function"},{"inputs":[{"internalType":"uint16","name":"newFeeBps","type":"uint16"}],"name":"setPlatformFee","outputs":[],"stateMutability":"nonpayable","type":"function"},{"inputs":[],"name":"totalBatchesProcessed","outputs":[{"internalType":"uint256","name":"","type":"uint256"}],"stateMutability":"view","type":"function"},{"inputs":[],"name":"totalRecipientsServed","outputs":[{"internalType":"uint256","name":"","type":"uint256"}],"stateMutability":"view","type":"function"},{"inputs":[{"internalType":"address","name":"newOwner","type":"address"}],"name":"transferOwnership","outputs":[],"stateMutability":"nonpayable","type":"function"}],"evm":{"bytecode":{"linkReferences":{},"object":"60806040526002805461ffff1916905560c860035534801561002057600080fd5b50604051620016a1380380620016a183398101604081905261004191610149565b338061006857604051631e4fbdf760e01b8152600060048201526024015b60405180910390fd5b610071816100f9565b50600180556001600160a01b0381166100cc5760405162461bcd60e51b815260206004820152601560248201527f496e76616c69642066656520636f6c6c6563746f720000000000000000000000604482015260640161005f565b600280546001600160a01b03909216620100000262010000600160b01b0319909216919091179055610179565b600080546001600160a01b038381166001600160a01b0319831681178455604051919092169283917f8be0079c531659141344cd1fd0a4f28419497f9722a3daafe3b4186f6b6457e09190a35050565b60006020828403121561015b57600080fd5b81516001600160a01b038116811461017257600080fd5b9392505050565b61151880620001896000396000f3fe608060405234801561001057600080fd5b50600436106101005760003560e01c806395ccea6711610097578063c59d484711610066578063c59d484714610224578063f2fde38b14610259578063f465edcb1461026c578063faa2e25a1461027557600080fd5b806395ccea67146101bd578063a42dce80146101d0578063b3254c60146101e3578063c415b95c1461020b57600080fd5b80632b26a6bf116100d35780632b26a6bf146101685780635cbc742c1461017d578063715018a6146101905780638da5cb5b1461019857600080fd5b80631239ec8c1461010557806322dcd13e1461012b5780632588be291461014c5780632913daa01461015f575b600080fd5b610118610113366004611283565b61027e565b6040519081526020015b60405180910390f35b6002546101399061ffff1681565b60405161ffff9091168152602001610122565b61011861015a366004611304565b610926565b61011860035481565b61017b61017636600461135e565b610ecb565b005b61017b61018b366004611377565b610f25565b61017b610f8a565b6000546001600160a01b03165b6040516001600160a01b039091168152602001610122565b61017b6101cb3660046113a2565b610f9e565b61017b6101de3660046113cc565b61103d565b6101f66101f13660046113e7565b6110b9565b60408051928352602083019190915201610122565b6002546101a5906201000090046001600160a01b031681565b60045460055460025460035460408051948552602085019390935261ffff909116918301919091526060820152608001610122565b61017b6102673660046113cc565b611136565b61011860055481565b61011860045481565b6000610288611174565b8382146102ce5760405162461bcd60e51b815260206004820152600f60248201526e098cadccee8d040dad2e6dac2e8c6d608b1b60448201526064015b60405180910390fd5b8361030e5760405162461bcd60e51b815260206004820152601060248201526f456d70747920726563697069656e747360801b60448201526064016102c5565b6003548411156103525760405162461bcd60e51b815260206004820152600f60248201526e426174636820746f6f206c6172676560881b60448201526064016102c5565b6001600160a01b0386166103985760405162461bcd60e51b815260206004820152600d60248201526c24b73b30b634b2103a37b5b2b760991b60448201526064016102c5565b856000805b848110156104a95760008888838181106103b9576103b9611429565b90506020020160208101906103ce91906113cc565b6001600160a01b0316036104185760405162461bcd60e51b8152602060048201526011602482015270125b9d985b1a59081c9958da5c1a595b9d607a1b60448201526064016102c5565b600086868381811061042c5761042c611429565b90506020020135116104715760405162461bcd60e51b815260206004820152600e60248201526d125b9d985b1a5908185b5bdd5b9d60921b60448201526064016102c5565b85858281811061048357610483611429565b90506020020135826104959190611455565b9150806104a18161146e565b91505061039d565b5060025460009061ffff161561051857600254612710906104ce9061ffff1684611487565b6104d8919061149e565b90508181106105185760405162461bcd60e51b815260206004820152600c60248201526b08ccaca40e8dede40d0d2ced60a31b60448201526064016102c5565b60006105248284611455565b6040516323b872dd60e01b8152336004820152306024820152604481018290529091506001600160a01b038516906323b872dd906064016020604051808303816000875af115801561057a573d6000803e3d6000fd5b505050506040513d601f19601f8201168201806040525081019061059e91906114c0565b6105ea5760405162461bcd60e51b815260206004820152601b60248201527f5472616e7366657220746f20636f6e7472616374206661696c6564000000000060448201526064016102c5565b81156106f05760025460405163a9059cbb60e01b8152620100009091046001600160a01b0390811660048301526024820184905285169063a9059cbb906044016020604051808303816000875af1158015610649573d6000803e3d6000fd5b505050506040513d601f19601f8201168201806040525081019061066d91906114c0565b6106af5760405162461bcd60e51b8152602060048201526013602482015272119959481d1c985b9cd9995c8819985a5b1959606a1b60448201526064016102c5565b60405182815233906001600160a01b038c16907ff228de527fc1b9843baac03b9a04565473a263375950e63435d4138464386f469060200160405180910390a35b6000945060005b88811015610897576000856001600160a01b031663a9059cbb8c8c8581811061072257610722611429565b905060200201602081019061073791906113cc565b8b8b8681811061074957610749611429565b6040516001600160e01b031960e087901b1681526001600160a01b03909416600485015260200291909101356024830152506044016020604051808303816000875af115801561079d573d6000803e3d6000fd5b505050506040513d601f19601f820116820180604052508101906107c191906114c0565b905080156107db57866107d38161146e565b975050610884565b8a8a838181106107ed576107ed611429565b905060200201602081019061080291906113cc565b6001600160a01b03167f32bd04fba17e3a4e042de2ca40e007e3f7478948cb07937b3e2059d4be9486e08a8a8581811061083e5761083e611429565b9050602002013560405161087b918152604060208201819052600f908201526e151c985b9cd9995c8819985a5b1959608a1b606082015260800190565b60405180910390a25b508061088f8161146e565b9150506106f7565b50600480549060006108a88361146e565b919050555084600560008282546108bf9190611455565b909155505060408051868152602081018590524281830152905133916001600160a01b038d16917fe9bd9106489d3c6e2ee07c57a400b137918c252ff582d349fffaef2d9354f53a9181900360600190a35050505061091d60018055565b95945050505050565b6000610930611174565b826109705760405162461bcd60e51b815260206004820152601060248201526f456d70747920726563697069656e747360801b60448201526064016102c5565b6003548311156109b45760405162461bcd60e51b815260206004820152600f60248201526e426174636820746f6f206c6172676560881b60448201526064016102c5565b6001600160a01b0385166109fa5760405162461bcd60e51b815260206004820152600d60248201526c24b73b30b634b2103a37b5b2b760991b60448201526064016102c5565b60008211610a3b5760405162461bcd60e51b815260206004820152600e60248201526d125b9d985b1a5908185b5bdd5b9d60921b60448201526064016102c5565b846000610a488585611487565b60025490915060009061ffff1615610a7c5760025461271090610a6f9061ffff1684611487565b610a79919061149e565b90505b6000610a888284611455565b6040516323b872dd60e01b8152336004820152306024820152604481018290529091506001600160a01b038516906323b872dd906064016020604051808303816000875af1158015610ade573d6000803e3d6000fd5b505050506040513d601f19601f82011682018060405250810190610b0291906114c0565b610b4e5760405162461bcd60e51b815260206004820152601b60248201527f5472616e7366657220746f20636f6e7472616374206661696c6564000000000060448201526064016102c5565b8115610c545760025460405163a9059cbb60e01b8152620100009091046001600160a01b0390811660048301526024820184905285169063a9059cbb906044016020604051808303816000875af1158015610bad573d6000803e3d6000fd5b505050506040513d601f19601f82011682018060405250810190610bd191906114c0565b610c135760405162461bcd60e51b8152602060048201526013602482015272119959481d1c985b9cd9995c8819985a5b1959606a1b60448201526064016102c5565b60405182815233906001600160a01b038b16907ff228de527fc1b9843baac03b9a04565473a263375950e63435d4138464386f469060200160405180910390a35b6000945060005b87811015610e3d576000898983818110610c7757610c77611429565b9050602002016020810190610c8c91906113cc565b6001600160a01b031603610cd65760405162461bcd60e51b8152602060048201526011602482015270125b9d985b1a59081c9958da5c1a595b9d607a1b60448201526064016102c5565b6000856001600160a01b031663a9059cbb8b8b85818110610cf957610cf9611429565b9050602002016020810190610d0e91906113cc565b6040516001600160e01b031960e084901b1681526001600160a01b039091166004820152602481018b90526044016020604051808303816000875af1158015610d5b573d6000803e3d6000fd5b505050506040513d601f19601f82011682018060405250810190610d7f91906114c0565b90508015610d995786610d918161146e565b975050610e2a565b898983818110610dab57610dab611429565b9050602002016020810190610dc091906113cc565b6001600160a01b03167f32bd04fba17e3a4e042de2ca40e007e3f7478948cb07937b3e2059d4be9486e089604051610e21918152604060208201819052600f908201526e151c985b9cd9995c8819985a5b1959608a1b606082015260800190565b60405180910390a25b5080610e358161146e565b915050610c5b565b5060048054906000610e4e8361146e565b91905055508460056000828254610e659190611455565b909155505060408051868152602081018590524281830152905133916001600160a01b038c16917fe9bd9106489d3c6e2ee07c57a400b137918c252ff582d349fffaef2d9354f53a9181900360600190a350505050610ec360018055565b949350505050565b610ed361119e565b600081118015610ee557506101f48111155b610f205760405162461bcd60e51b815260206004820152600c60248201526b496e76616c69642073697a6560a01b60448201526064016102c5565b600355565b610f2d61119e565b6101f48161ffff161115610f725760405162461bcd60e51b815260206004820152600c60248201526b08ccaca40e8dede40d0d2ced60a31b60448201526064016102c5565b6002805461ffff191661ffff92909216919091179055565b610f9261119e565b610f9c60006111cb565b565b610fa661119e565b816001600160a01b031663a9059cbb610fc76000546001600160a01b031690565b6040516001600160e01b031960e084901b1681526001600160a01b039091166004820152602481018490526044016020604051808303816000875af1158015611014573d6000803e3d6000fd5b505050506040513d601f19601f8201168201806040525081019061103891906114c0565b505050565b61104561119e565b6001600160a01b03811661108f5760405162461bcd60e51b815260206004820152601160248201527024b73b30b634b21031b7b63632b1ba37b960791b60448201526064016102c5565b600280546001600160a01b03909216620100000262010000600160b01b0319909216919091179055565b6000806000805b84811015611100578585828181106110da576110da611429565b90506020020135826110ec9190611455565b9150806110f88161146e565b9150506110c0565b50600254612710906111169061ffff1683611487565b611120919061149e565b915061112c8282611455565b9250509250929050565b61113e61119e565b6001600160a01b03811661116857604051631e4fbdf760e01b8152600060048201526024016102c5565b611171816111cb565b50565b60026001540361119757604051633ee5aeb560e01b815260040160405180910390fd5b6002600155565b6000546001600160a01b03163314610f9c5760405163118cdaa760e01b81523360048201526024016102c5565b600080546001600160a01b038381166001600160a01b0319831681178455604051919092169283917f8be0079c531659141344cd1fd0a4f28419497f9722a3daafe3b4186f6b6457e09190a35050565b80356001600160a01b038116811461123257600080fd5b919050565b60008083601f84011261124957600080fd5b50813567ffffffffffffffff81111561126157600080fd5b6020830191508360208260051b850101111561127c57600080fd5b9250929050565b60008060008060006060868803121561129b57600080fd5b6112a48661121b565b9450602086013567ffffffffffffffff808211156112c157600080fd5b6112cd89838a01611237565b909650945060408801359150808211156112e657600080fd5b506112f388828901611237565b969995985093965092949392505050565b6000806000806060858703121561131a57600080fd5b6113238561121b565b9350602085013567ffffffffffffffff81111561133f57600080fd5b61134b87828801611237565b9598909750949560400135949350505050565b60006020828403121561137057600080fd5b5035919050565b60006020828403121561138957600080fd5b813561ffff8116811461139b57600080fd5b9392505050565b600080604083850312156113b557600080fd5b6113be8361121b565b946020939093013593505050565b6000602082840312156113de57600080fd5b61139b8261121b565b600080602083850312156113fa57600080fd5b823567ffffffffffffffff81111561141157600080fd5b61141d85828601611237565b90969095509350505050565b634e487b7160e01b600052603260045260246000fd5b634e487b7160e01b600052601160045260246000fd5b808201808211156114685761146861143f565b92915050565b6000600182016114805761148061143f565b5060010190565b80820281158282048414176114685761146861143f565b6000826114bb57634e487b7160e01b600052601260045260246000fd5b500490565b6000602082840312156114d257600080fd5b8151801515811461139b57600080fdfea26469706673582212200c0c03b7a49dd11c0ee0a7e040c27ea243b38ba73842593cad83a2e62615cb3c64736f6c63430008140033","opcodes":"PUSH1 0x80 PUSH1 0x40 MSTORE PUSH1 0x2 DUP1 SLOAD PUSH2 0xFFFF NOT AND SWAP1 SSTORE PUSH1 0xC8 PUSH1 0x3 SSTORE CALLVALUE DUP1 ISZERO PUSH2 0x20 JUMPI PUSH1 0x0 DUP1 REVERT JUMPDEST POP PUSH1 0x40 MLOAD PUSH3 0x16A1 CODESIZE SUB DUP1 PUSH3 0x16A1 DUP4 CODECOPY DUP2 ADD PUSH1 0x40 DUP2 SWAP1 MSTORE PUSH2 0x41 SWAP2 PUSH2 0x149 JUMP JUMPDEST CALLER DUP1 PUSH2 0x68 JUMPI PUSH1 0x40 MLOAD PUSH4 0x1E4FBDF7 PUSH1 0xE0 SHL DUP2 MSTORE PUSH1 0x0 PUSH1 0x4 DUP3 ADD MSTORE PUSH1 0x24 ADD JUMPDEST PUSH1 0x40 MLOAD DUP1 SWAP2 SUB SWAP1 REVERT JUMPDEST PUSH2 0x71 DUP2 PUSH2 0xF9 JUMP JUMPDEST POP PUSH1 0x1 DUP1 SSTORE PUSH1 0x1 PUSH1 0x1 PUSH1 0xA0 SHL SUB DUP2 AND PUSH2 0xCC JUMPI PUSH1 0x40 MLOAD PUSH3 0x461BCD PUSH1 0xE5 SHL DUP2 MSTORE PUSH1 0x20 PUSH1 0x4 DUP3 ADD MSTORE PUSH1 0x15 PUSH1 0x24 DUP3 ADD MSTORE PUSH32 0x496E76616C69642066656520636F6C6C6563746F720000000000000000000000 PUSH1 0x44 DUP3 ADD MSTORE PUSH1 0x64 ADD PUSH2 0x5F JUMP JUMPDEST PUSH1 0x2 DUP1 SLOAD PUSH1 0x1 PUSH1 0x1 PUSH1 0xA0 SHL SUB SWAP1 SWAP3 AND PUSH3 0x10000 MUL PUSH3 0x10000 PUSH1 0x1 PUSH1 0xB0 SHL SUB NOT SWAP1 SWAP3 AND SWAP2 SWAP1 SWAP2 OR SWAP1 SSTORE PUSH2 0x179 JUMP JUMPDEST PUSH1 0x0 DUP1 SLOAD PUSH1 0x1 PUSH1 0x1 PUSH1 0xA0 SHL SUB DUP4 DUP2 AND PUSH1 0x1 PUSH1 0x1 PUSH1 0xA0 SHL SUB NOT DUP4 AND DUP2 OR DUP5 SSTORE PUSH1 0x40 MLOAD SWAP2 SWAP1 SWAP3 AND SWAP3 DUP4 SWAP2 PUSH32 0x8BE0079C531659141344CD1FD0A4F28419497F9722A3DAAFE3B4186F6B6457E0 SWAP2 SWAP1 LOG3 POP POP JUMP JUMPDEST PUSH1 0x0 PUSH1 0x20 DUP3 DUP5 SUB SLT ISZERO PUSH2 0x15B JUMPI PUSH1 0x0 DUP1 REVERT JUMPDEST DUP2 MLOAD PUSH1 0x1 PUSH1 0x1 PUSH1 0xA0 SHL SUB DUP2 AND DUP2 EQ PUSH2 0x172 JUMPI PUSH1 0x0 DUP1 REVERT JUMPDEST SWAP4 SWAP3 POP POP POP JUMP JUMPDEST PUSH2 0x1518 DUP1 PUSH3 0x189 PUSH1 0x0 CODECOPY PUSH1 0x0 RETURN INVALID PUSH1 0x80 PUSH1 0x40 MSTORE CALLVALUE DUP1 ISZERO PUSH2 0x10 JUMPI PUSH1 0x0 DUP1 REVERT JUMPDEST POP PUSH1 0x4 CALLDATASIZE LT PUSH2 0x100 JUMPI PUSH1 0x0 CALLDATALOAD PUSH1 0xE0 SHR DUP1 PUSH4 0x95CCEA67 GT PUSH2 0x97 JUMPI DUP1 PUSH4 0xC59D4847 GT PUSH2 0x66 JUMPI DUP1 PUSH4 0xC59D4847 EQ PUSH2 0x224 JUMPI DUP1 PUSH4 0xF2FDE38B EQ PUSH2 0x259 JUMPI DUP1 PUSH4 0xF465EDCB EQ PUSH2 0x26C JUMPI DUP1 PUSH4 0xFAA2E25A EQ PUSH2 0x275 JUMPI PUSH1 0x0 DUP1 REVERT JUMPDEST DUP1 PUSH4 0x95CCEA67 EQ PUSH2 0x1BD JUMPI DUP1 PUSH4 0xA42DCE80 EQ PUSH2 0x1D0 JUMPI DUP1 PUSH4 0xB3254C60 EQ PUSH2 0x1E3 JUMPI DUP1 PUSH4 0xC415B95C EQ PUSH2 0x20B JUMPI PUSH1 0x0 DUP1 REVERT JUMPDEST DUP1 PUSH4 0x2B26A6BF GT PUSH2 0xD3 JUMPI DUP1 PUSH4 0x2B26A6BF EQ PUSH2 0x168 JUMPI DUP1 PUSH4 0x5CBC742C EQ PUSH2 0x17D JUMPI DUP1 PUSH4 0x715018A6 EQ PUSH2 0x190 JUMPI DUP1 PUSH4 0x8DA5CB5B EQ PUSH2 0x198 JUMPI PUSH1 0x0 DUP1 REVERT JUMPDEST DUP1 PUSH4 0x1239EC8C EQ PUSH2 0x105 JUMPI DUP1 PUSH4 0x22DCD13E EQ PUSH2 0x12B JUMPI DUP1 PUSH4 0x2588BE29 EQ PUSH2 0x14C JUMPI DUP1 PUSH4 0x2913DAA0 EQ PUSH2 0x15F JUMPI JUMPDEST PUSH1 0x0 DUP1 REVERT JUMPDEST PUSH2 0x118 PUSH2 0x113 CALLDATASIZE PUSH1 0x4 PUSH2 0x1283 JUMP JUMPDEST PUSH2 0x27E JUMP JUMPDEST PUSH1 0x40 MLOAD SWAP1 DUP2 MSTORE PUSH1 0x20 ADD JUMPDEST PUSH1 0x40 MLOAD DUP1 SWAP2 SUB SWAP1 RETURN JUMPDEST PUSH1 0x2 SLOAD PUSH2 0x139 SWAP1 PUSH2 0xFFFF AND DUP2 JUMP JUMPDEST PUSH1 0x40 MLOAD PUSH2 0xFFFF SWAP1 SWAP2 AND DUP2 MSTORE PUSH1 0x20 ADD PUSH2 0x122 JUMP JUMPDEST PUSH2 0x118 PUSH2 0x15A CALLDATASIZE PUSH1 0x4 PUSH2 0x1304 JUMP JUMPDEST PUSH2 0x926 JUMP JUMPDEST PUSH2 0x118 PUSH1 0x3 SLOAD DUP2 JUMP JUMPDEST PUSH2 0x17B PUSH2 0x176 CALLDATASIZE PUSH1 0x4 PUSH2 0x135E JUMP JUMPDEST PUSH2 0xECB JUMP JUMPDEST STOP JUMPDEST PUSH2 0x17B PUSH2 0x18B CALLDATASIZE PUSH1 0x4 PUSH2 0x1377 JUMP JUMPDEST PUSH2 0xF25 JUMP JUMPDEST PUSH2 0x17B PUSH2 0xF8A JUMP JUMPDEST PUSH1 0x0 SLOAD PUSH1 0x1 PUSH1 0x1 PUSH1 0xA0 SHL SUB AND JUMPDEST PUSH1 0x40 MLOAD PUSH1 0x1 PUSH1 0x1 PUSH1 0xA0 SHL SUB SWAP1 SWAP2 AND DUP2 MSTORE PUSH1 0x20 ADD PUSH2 0x122 JUMP JUMPDEST PUSH2 0x17B PUSH2 0x1CB CALLDATASIZE PUSH1 0x4 PUSH2 0x13A2 JUMP JUMPDEST PUSH2 0xF9E JUMP JUMPDEST PUSH2 0x17B PUSH2 0x1DE CALLDATASIZE PUSH1 0x4 PUSH2 0x13CC JUMP JUMPDEST PUSH2 0x103D JUMP JUMPDEST PUSH2 0x1F6 PUSH2 0x1F1 CALLDATASIZE PUSH1 0x4 PUSH2 0x13E7 JUMP JUMPDEST PUSH2 0x10B9 JUMP JUMPDEST PUSH1 0x40 DUP1 MLOAD SWAP3 DUP4 MSTORE PUSH1 0x20 DUP4 ADD SWAP2 SWAP1 SWAP2 MSTORE ADD PUSH2 0x122 JUMP JUMPDEST PUSH1 0x2 SLOAD PUSH2 0x1A5 SWAP1 PUSH3 0x10000 SWAP1 DIV PUSH1 0x1 PUSH1 0x1 PUSH1 0xA0 SHL SUB AND DUP2 JUMP JUMPDEST PUSH1 0x4 SLOAD PUSH1 0x5 SLOAD PUSH1 0x2 SLOAD PUSH1 0x3 SLOAD PUSH1 0x40 DUP1 MLOAD SWAP5 DUP6 MSTORE PUSH1 0x20 DUP6 ADD SWAP4 SWAP1 SWAP4 MSTORE PUSH2 0xFFFF SWAP1 SWAP2 AND SWAP2 DUP4 ADD SWAP2 SWAP1 SWAP2 MSTORE PUSH1 0x60 DUP3 ADD MSTORE PUSH1 0x80 ADD PUSH2 0x122 JUMP JUMPDEST PUSH2 0x17B PUSH2 0x267 CALLDATASIZE PUSH1 0x4 PUSH2 0x13CC JUMP JUMPDEST PUSH2 0x1136 JUMP JUMPDEST PUSH2 0x118 PUSH1 0x5 SLOAD DUP2 JUMP JUMPDEST PUSH2 0x118 PUSH1 0x4 SLOAD DUP2 JUMP JUMPDEST PUSH1 0x0 PUSH2 0x288 PUSH2 0x1174 JUMP JUMPDEST DUP4 DUP3 EQ PUSH2 0x2CE JUMPI PUSH1 0x40 MLOAD PUSH3 0x461BCD PUSH1 0xE5 SHL DUP2 MSTORE PUSH1 0x20 PUSH1 0x4 DUP3 ADD MSTORE PUSH1 0xF PUSH1 0x24 DUP3 ADD MSTORE PUSH15 0x98CADCCEE8D040DAD2E6DAC2E8C6D PUSH1 0x8B SHL PUSH1 0x44 DUP3 ADD MSTORE PUSH1 0x64 ADD JUMPDEST PUSH1 0x40 MLOAD DUP1 SWAP2 SUB SWAP1 REVERT JUMPDEST DUP4 PUSH2 0x30E JUMPI PUSH1 0x40 MLOAD PUSH3 0x461BCD PUSH1 0xE5 SHL DUP2 MSTORE PUSH1 0x20 PUSH1 0x4 DUP3 ADD MSTORE PUSH1 0x10 PUSH1 0x24 DUP3 ADD MSTORE PUSH16 0x456D70747920726563697069656E7473 PUSH1 0x80 SHL PUSH1 0x44 DUP3 ADD MSTORE PUSH1 0x64 ADD PUSH2 0x2C5 JUMP JUMPDEST PUSH1 0x3 SLOAD DUP5 GT ISZERO PUSH2 0x352 JUMPI PUSH1 0x40 MLOAD PUSH3 0x461BCD PUSH1 0xE5 SHL DUP2 MSTORE PUSH1 0x20 PUSH1 0x4 DUP3 ADD MSTORE PUSH1 0xF PUSH1 0x24 DUP3 ADD MSTORE PUSH15 0x426174636820746F6F206C61726765 PUSH1 0x88 SHL PUSH1 0x44 DUP3 ADD MSTORE PUSH1 0x64 ADD PUSH2 0x2C5 JUMP JUMPDEST PUSH1 0x1 PUSH1 0x1 PUSH1 0xA0 SHL SUB DUP7 AND PUSH2 0x398 JUMPI PUSH1 0x40 MLOAD PUSH3 0x461BCD PUSH1 0xE5 SHL DUP2 MSTORE PUSH1 0x20 PUSH1 0x4 DUP3 ADD MSTORE PUSH1 0xD PUSH1 0x24 DUP3 ADD MSTORE PUSH13 0x24B73B30B634B2103A37B5B2B7 PUSH1 0x99 SHL PUSH1 0x44 DUP3 ADD MSTORE PUSH1 0x64 ADD PUSH2 0x2C5 JUMP JUMPDEST DUP6 PUSH1 0x0 DUP1 JUMPDEST DUP5 DUP2 LT ISZERO PUSH2 0x4A9 JUMPI PUSH1 0x0 DUP9 DUP9 DUP4 DUP2 DUP2 LT PUSH2 0x3B9 JUMPI PUSH2 0x3B9 PUSH2 0x1429 JUMP JUMPDEST SWAP1 POP PUSH1 0x20 MUL ADD PUSH1 0x20 DUP2 ADD SWAP1 PUSH2 0x3CE SWAP2 SWAP1 PUSH2 0x13CC JUMP JUMPDEST PUSH1 0x1 PUSH1 0x1 PUSH1 0xA0 SHL SUB AND SUB PUSH2 0x418 JUMPI PUSH1 0x40 MLOAD PUSH3 0x461BCD PUSH1 0xE5 SHL DUP2 MSTORE PUSH1 0x20 PUSH1 0x4 DUP3 ADD MSTORE PUSH1 0x11 PUSH1 0x24 DUP3 ADD MSTORE PUSH17 0x125B9D985B1A59081C9958DA5C1A595B9D PUSH1 0x7A SHL PUSH1 0x44 DUP3 ADD MSTORE PUSH1 0x64 ADD PUSH2 0x2C5 JUMP JUMPDEST PUSH1 0x0 DUP7 DUP7 DUP4 DUP2 DUP2 LT PUSH2 0x42C JUMPI PUSH2 0x42C PUSH2 0x1429 JUMP JUMPDEST SWAP1 POP PUSH1 0x20 MUL ADD CALLDATALOAD GT PUSH2 0x471 JUMPI PUSH1 0x40 MLOAD PUSH3 0x461BCD PUSH1 0xE5 SHL DUP2 MSTORE PUSH1 0x20 PUSH1 0x4 DUP3 ADD MSTORE PUSH1 0xE PUSH1 0x24 DUP3 ADD MSTORE PUSH14 0x125B9D985B1A5908185B5BDD5B9D PUSH1 0x92 SHL PUSH1 0x44 DUP3 ADD MSTORE PUSH1 0x64 ADD PUSH2 0x2C5 JUMP JUMPDEST DUP6 DUP6 DUP3 DUP2 DUP2 LT PUSH2 0x483 JUMPI PUSH2 0x483 PUSH2 0x1429 JUMP JUMPDEST SWAP1 POP PUSH1 0x20 MUL ADD CALLDATALOAD DUP3 PUSH2 0x495 SWAP2 SWAP1 PUSH2 0x1455 JUMP JUMPDEST SWAP2 POP DUP1 PUSH2 0x4A1 DUP2 PUSH2 0x146E JUMP JUMPDEST SWAP2 POP POP PUSH2 0x39D JUMP JUMPDEST POP PUSH1 0x2 SLOAD PUSH1 0x0 SWAP1 PUSH2 0xFFFF AND ISZERO PUSH2 0x518 JUMPI PUSH1 0x2 SLOAD PUSH2 0x2710 SWAP1 PUSH2 0x4CE SWAP1 PUSH2 0xFFFF AND DUP5 PUSH2 0x1487 JUMP JUMPDEST PUSH2 0x4D8 SWAP2 SWAP1 PUSH2 0x149E JUMP JUMPDEST SWAP1 POP DUP2 DUP2 LT PUSH2 0x518 JUMPI PUSH1 0x40 MLOAD PUSH3 0x461BCD PUSH1 0xE5 SHL DUP2 MSTORE PUSH1 0x20 PUSH1 0x4 DUP3 ADD MSTORE PUSH1 0xC PUSH1 0x24 DUP3 ADD MSTORE PUSH12 0x8CCACA40E8DEDE40D0D2CED PUSH1 0xA3 SHL PUSH1 0x44 DUP3 ADD MSTORE PUSH1 0x64 ADD PUSH2 0x2C5 JUMP JUMPDEST PUSH1 0x0 PUSH2 0x524 DUP3 DUP5 PUSH2 0x1455 JUMP JUMPDEST PUSH1 0x40 MLOAD PUSH4 0x23B872DD PUSH1 0xE0 SHL DUP2 MSTORE CALLER PUSH1 0x4 DUP3 ADD MSTORE ADDRESS PUSH1 0x24 DUP3 ADD MSTORE PUSH1 0x44 DUP2 ADD DUP3 SWAP1 MSTORE SWAP1 SWAP2 POP PUSH1 0x1 PUSH1 0x1 PUSH1 0xA0 SHL SUB DUP6 AND SWAP1 PUSH4 0x23B872DD SWAP1 PUSH1 0x64 ADD PUSH1 0x20 PUSH1 0x40 MLOAD DUP1 DUP4 SUB DUP2 PUSH1 0x0 DUP8 GAS CALL ISZERO DUP1 ISZERO PUSH2 0x57A JUMPI RETURNDATASIZE PUSH1 0x0 DUP1 RETURNDATACOPY RETURNDATASIZE PUSH1 0x0 REVERT JUMPDEST POP POP POP POP PUSH1 0x40 MLOAD RETURNDATASIZE PUSH1 0x1F NOT PUSH1 0x1F DUP3 ADD AND DUP3 ADD DUP1 PUSH1 0x40 MSTORE POP DUP2 ADD SWAP1 PUSH2 0x59E SWAP2 SWAP1 PUSH2 0x14C0 JUMP JUMPDEST PUSH2 0x5EA JUMPI PUSH1 0x40 MLOAD PUSH3 0x461BCD PUSH1 0xE5 SHL DUP2 MSTORE PUSH1 0x20 PUSH1 0x4 DUP3 ADD MSTORE PUSH1 0x1B PUSH1 0x24 DUP3 ADD MSTORE PUSH32 0x5472616E7366657220746F20636F6E7472616374206661696C65640000000000 PUSH1 0x44 DUP3 ADD MSTORE PUSH1 0x64 ADD PUSH2 0x2C5 JUMP JUMPDEST DUP2 ISZERO PUSH2 0x6F0 JUMPI PUSH1 0x2 SLOAD PUSH1 0x40 MLOAD PUSH4 0xA9059CBB PUSH1 0xE0 SHL DUP2 MSTORE PUSH3 0x10000 SWAP1 SWAP2 DIV PUSH1 0x1 PUSH1 0x1 PUSH1 0xA0 SHL SUB SWAP1 DUP2 AND PUSH1 0x4 DUP4 ADD MSTORE PUSH1 0x24 DUP3 ADD DUP5 SWAP1 MSTORE DUP6 AND SWAP1 PUSH4 0xA9059CBB SWAP1 PUSH1 0x44 ADD PUSH1 0x20 PUSH1 0x40 MLOAD DUP1 DUP4 SUB DUP2 PUSH1 0x0 DUP8 GAS CALL ISZERO DUP1 ISZERO PUSH2 0x649 JUMPI RETURNDATASIZE PUSH1 0x0 DUP1 RETURNDATACOPY RETURNDATASIZE PUSH1 0x0 REVERT JUMPDEST POP POP POP POP PUSH1 0x40 MLOAD RETURNDATASIZE PUSH1 0x1F NOT PUSH1 0x1F DUP3 ADD AND DUP3 ADD DUP1 PUSH1 0x40 MSTORE POP DUP2 ADD SWAP1 PUSH2 0x66D SWAP2 SWAP1 PUSH2 0x14C0 JUMP JUMPDEST PUSH2 0x6AF JUMPI PUSH1 0x40 MLOAD PUSH3 0x461BCD PUSH1 0xE5 SHL DUP2 MSTORE PUSH1 0x20 PUSH1 0x4 DUP3 ADD MSTORE PUSH1 0x13 PUSH1 0x24 DUP3 ADD MSTORE PUSH19 0x119959481D1C985B9CD9995C8819985A5B1959 PUSH1 0x6A SHL PUSH1 0x44 DUP3 ADD MSTORE PUSH1 0x64 ADD PUSH2 0x2C5 JUMP JUMPDEST PUSH1 0x40 MLOAD DUP3 DUP2 MSTORE CALLER SWAP1 PUSH1 0x1 PUSH1 0x1 PUSH1 0xA0 SHL SUB DUP13 AND SWAP1 PUSH32 0xF228DE527FC1B9843BAAC03B9A04565473A263375950E63435D4138464386F46 SWAP1 PUSH1 0x20 ADD PUSH1 0x40 MLOAD DUP1 SWAP2 SUB SWAP1 LOG3 JUMPDEST PUSH1 0x0 SWAP5 POP PUSH1 0x0 JUMPDEST DUP9 DUP2 LT ISZERO PUSH2 0x897 JUMPI PUSH1 0x0 DUP6 PUSH1 0x1 PUSH1 0x1 PUSH1 0xA0 SHL SUB AND PUSH4 0xA9059CBB DUP13 DUP13 DUP6 DUP2 DUP2 LT PUSH2 0x722 JUMPI PUSH2 0x722 PUSH2 0x1429 JUMP JUMPDEST SWAP1 POP PUSH1 0x20 MUL ADD PUSH1 0x20 DUP2 ADD SWAP1 PUSH2 0x737 SWAP2 SWAP1 PUSH2 0x13CC JUMP JUMPDEST DUP12 DUP12 DUP7 DUP2 DUP2 LT PUSH2 0x749 JUMPI PUSH2 0x749 PUSH2 0x1429 JUMP JUMPDEST PUSH1 0x40 MLOAD PUSH1 0x1 PUSH1 0x1 PUSH1 0xE0 SHL SUB NOT PUSH1 0xE0 DUP8 SWAP1 SHL AND DUP2 MSTORE PUSH1 0x1 PUSH1 0x1 PUSH1 0xA0 SHL SUB SWAP1 SWAP5 AND PUSH1 0x4 DUP6 ADD MSTORE PUSH1 0x20 MUL SWAP2 SWAP1 SWAP2 ADD CALLDATALOAD PUSH1 0x24 DUP4 ADD MSTORE POP PUSH1 0x44 ADD PUSH1 0x20 PUSH1 0x40 MLOAD DUP1 DUP4 SUB DUP2 PUSH1 0x0 DUP8 GAS CALL ISZERO DUP1 ISZERO PUSH2 0x79D JUMPI RETURNDATASIZE PUSH1 0x0 DUP1 RETURNDATACOPY RETURNDATASIZE PUSH1 0x0 REVERT JUMPDEST POP POP POP POP PUSH1 0x40 MLOAD RETURNDATASIZE PUSH1 0x1F NOT PUSH1 0x1F DUP3 ADD AND DUP3 ADD DUP1 PUSH1 0x40 MSTORE POP DUP2 ADD SWAP1 PUSH2 0x7C1 SWAP2 SWAP1 PUSH2 0x14C0 JUMP JUMPDEST SWAP1 POP DUP1 ISZERO PUSH2 0x7DB JUMPI DUP7 PUSH2 0x7D3 DUP2 PUSH2 0x146E JUMP JUMPDEST SWAP8 POP POP PUSH2 0x884 JUMP JUMPDEST DUP11 DUP11 DUP4 DUP2 DUP2 LT PUSH2 0x7ED JUMPI PUSH2 0x7ED PUSH2 0x1429 JUMP JUMPDEST SWAP1 POP PUSH1 0x20 MUL ADD PUSH1 0x20 DUP2 ADD SWAP1 PUSH2 0x802 SWAP2 SWAP1 PUSH2 0x13CC JUMP JUMPDEST PUSH1 0x1 PUSH1 0x1 PUSH1 0xA0 SHL SUB AND PUSH32 0x32BD04FBA17E3A4E042DE2CA40E007E3F7478948CB07937B3E2059D4BE9486E0 DUP11 DUP11 DUP6 DUP2 DUP2 LT PUSH2 0x83E JUMPI PUSH2 0x83E PUSH2 0x1429 JUMP JUMPDEST SWAP1 POP PUSH1 0x20 MUL ADD CALLDATALOAD PUSH1 0x40 MLOAD PUSH2 0x87B SWAP2 DUP2 MSTORE PUSH1 0x40 PUSH1 0x20 DUP3 ADD DUP2 SWAP1 MSTORE PUSH1 0xF SWAP1 DUP3 ADD MSTORE PUSH15 0x151C985B9CD9995C8819985A5B1959 PUSH1 0x8A SHL PUSH1 0x60 DUP3 ADD MSTORE PUSH1 0x80 ADD SWAP1 JUMP JUMPDEST PUSH1 0x40 MLOAD DUP1 SWAP2 SUB SWAP1 LOG2 JUMPDEST POP DUP1 PUSH2 0x88F DUP2 PUSH2 0x146E JUMP JUMPDEST SWAP2 POP POP PUSH2 0x6F7 JUMP JUMPDEST POP PUSH1 0x4 DUP1 SLOAD SWAP1 PUSH1 0x0 PUSH2 0x8A8 DUP4 PUSH2 0x146E JUMP JUMPDEST SWAP2 SWAP1 POP SSTORE POP DUP5 PUSH1 0x5 PUSH1 0x0 DUP3 DUP3 SLOAD PUSH2 0x8BF SWAP2 SWAP1 PUSH2 0x1455 JUMP JUMPDEST SWAP1 SWAP2 SSTORE POP POP PUSH1 0x40 DUP1 MLOAD DUP7 DUP2 MSTORE PUSH1 0x20 DUP2 ADD DUP6 SWAP1 MSTORE TIMESTAMP DUP2 DUP4 ADD MSTORE SWAP1 MLOAD CALLER SWAP2 PUSH1 0x1 PUSH1 0x1 PUSH1 0xA0 SHL SUB DUP14 AND SWAP2 PUSH32 0xE9BD9106489D3C6E2EE07C57A400B137918C252FF582D349FFFAEF2D9354F53A SWAP2 DUP2 SWAP1 SUB PUSH1 0x60 ADD SWAP1 LOG3 POP POP POP POP PUSH2 0x91D PUSH1 0x1 DUP1 SSTORE JUMP JUMPDEST SWAP6 SWAP5 POP POP POP POP POP JUMP JUMPDEST PUSH1 0x0 PUSH2 0x930 PUSH2 0x1174 JUMP JUMPDEST DUP3 PUSH2 0x970 JUMPI PUSH1 0x40 MLOAD PUSH3 0x461BCD PUSH1 0xE5 SHL DUP2 MSTORE PUSH1 0x20 PUSH1 0x4 DUP3 ADD MSTORE PUSH1 0x10 PUSH1 0x24 DUP3 ADD MSTORE PUSH16 0x456D70747920726563697069656E7473 PUSH1 0x80 SHL PUSH1 0x44 DUP3 ADD MSTORE PUSH1 0x64 ADD PUSH2 0x2C5 JUMP JUMPDEST PUSH1 0x3 SLOAD DUP4 GT ISZERO PUSH2 0x9B4 JUMPI PUSH1 0x40 MLOAD PUSH3 0x461BCD PUSH1 0xE5 SHL DUP2 MSTORE PUSH1 0x20 PUSH1 0x4 DUP3 ADD MSTORE PUSH1 0xF PUSH1 0x24 DUP3 ADD MSTORE PUSH15 0x426174636820746F6F206C61726765 PUSH1 0x88 SHL PUSH1 0x44 DUP3 ADD MSTORE PUSH1 0x64 ADD PUSH2 0x2C5 JUMP JUMPDEST PUSH1 0x1 PUSH1 0x1 PUSH1 0xA0 SHL SUB DUP6 AND PUSH2 0x9FA JUMPI PUSH1 0x40 MLOAD PUSH3 0x461BCD PUSH1 0xE5 SHL DUP2 MSTORE PUSH1 0x20 PUSH1 0x4 DUP3 ADD MSTORE PUSH1 0xD PUSH1 0x24 DUP3 ADD MSTORE PUSH13 0x24B73B30B634B2103A37B5B2B7 PUSH1 0x99 SHL PUSH1 0x44 DUP3 ADD MSTORE PUSH1 0x64 ADD PUSH2 0x2C5 JUMP JUMPDEST PUSH1 0x0 DUP3 GT PUSH2 0xA3B JUMPI PUSH1 0x40 MLOAD PUSH3 0x461BCD PUSH1 0xE5 SHL DUP2 MSTORE PUSH1 0x20 PUSH1 0x4 DUP3 ADD MSTORE PUSH1 0xE PUSH1 0x24 DUP3 ADD MSTORE PUSH14 0x125B9D985B1A5908185B5BDD5B9D PUSH1 0x92 SHL PUSH1 0x44 DUP3 ADD MSTORE PUSH1 0x64 ADD PUSH2 0x2C5 JUMP JUMPDEST DUP5 PUSH1 0x0 PUSH2 0xA48 DUP6 DUP6 PUSH2 0x1487 JUMP JUMPDEST PUSH1 0x2 SLOAD SWAP1 SWAP2 POP PUSH1 0x0 SWAP1 PUSH2 0xFFFF AND ISZERO PUSH2 0xA7C JUMPI PUSH1 0x2 SLOAD PUSH2 0x2710 SWAP1 PUSH2 0xA6F SWAP1 PUSH2 0xFFFF AND DUP5 PUSH2 0x1487 JUMP JUMPDEST PUSH2 0xA79 SWAP2 SWAP1 PUSH2 0x149E JUMP JUMPDEST SWAP1 POP JUMPDEST PUSH1 0x0 PUSH2 0xA88 DUP3 DUP5 PUSH2 0x1455 JUMP JUMPDEST PUSH1 0x40 MLOAD PUSH4 0x23B872DD PUSH1 0xE0 SHL DUP2 MSTORE CALLER PUSH1 0x4 DUP3 ADD MSTORE ADDRESS PUSH1 0x24 DUP3 ADD MSTORE PUSH1 0x44 DUP2 ADD DUP3 SWAP1 MSTORE SWAP1 SWAP2 POP PUSH1 0x1 PUSH1 0x1 PUSH1 0xA0 SHL SUB DUP6 AND SWAP1 PUSH4 0x23B872DD SWAP1 PUSH1 0x64 ADD PUSH1 0x20 PUSH1 0x40 MLOAD DUP1 DUP4 SUB DUP2 PUSH1 0x0 DUP8 GAS CALL ISZERO DUP1 ISZERO PUSH2 0xADE JUMPI RETURNDATASIZE PUSH1 0x0 DUP1 RETURNDATACOPY RETURNDATASIZE PUSH1 0x0 REVERT JUMPDEST POP POP POP POP PUSH1 0x40 MLOAD RETURNDATASIZE PUSH1 0x1F NOT PUSH1 0x1F DUP3 ADD AND DUP3 ADD DUP1 PUSH1 0x40 MSTORE POP DUP2 ADD SWAP1 PUSH2 0xB02 SWAP2 SWAP1 PUSH2 0x14C0 JUMP JUMPDEST PUSH2 0xB4E JUMPI PUSH1 0x40 MLOAD PUSH3 0x461BCD PUSH1 0xE5 SHL DUP2 MSTORE PUSH1 0x20 PUSH1 0x4 DUP3 ADD MSTORE PUSH1 0x1B PUSH1 0x24 DUP3 ADD MSTORE PUSH32 0x5472616E7366657220746F20636F6E7472616374206661696C65640000000000 PUSH1 0x44 DUP3 ADD MSTORE PUSH1 0x64 ADD PUSH2 0x2C5 JUMP JUMPDEST DUP2 ISZERO PUSH2 0xC54 JUMPI PUSH1 0x2 SLOAD PUSH1 0x40 MLOAD PUSH4 0xA9059CBB PUSH1 0xE0 SHL DUP2 MSTORE PUSH3 0x10000 SWAP1 SWAP2 DIV PUSH1 0x1 PUSH1 0x1 PUSH1 0xA0 SHL SUB SWAP1 DUP2 AND PUSH1 0x4 DUP4 ADD MSTORE PUSH1 0x24 DUP3 ADD DUP5 SWAP1 MSTORE DUP6 AND SWAP1 PUSH4 0xA9059CBB SWAP1 PUSH1 0x44 ADD PUSH1 0x20 PUSH1 0x40 MLOAD DUP1 DUP4 SUB DUP2 PUSH1 0x0 DUP8 GAS CALL ISZERO DUP1 ISZERO PUSH2 0xBAD JUMPI RETURNDATASIZE PUSH1 0x0 DUP1 RETURNDATACOPY RETURNDATASIZE PUSH1 0x0 REVERT JUMPDEST POP POP POP POP PUSH1 0x40 MLOAD RETURNDATASIZE PUSH1 0x1F NOT PUSH1 0x1F DUP3 ADD AND DUP3 ADD DUP1 PUSH1 0x40 MSTORE POP DUP2 ADD SWAP1 PUSH2 0xBD1 SWAP2 SWAP1 PUSH2 0x14C0 JUMP JUMPDEST PUSH2 0xC13 JUMPI PUSH1 0x40 MLOAD PUSH3 0x461BCD PUSH1 0xE5 SHL DUP2 MSTORE PUSH1 0x20 PUSH1 0x4 DUP3 ADD MSTORE PUSH1 0x13 PUSH1 0x24 DUP3 ADD MSTORE PUSH19 0x119959481D1C985B9CD9995C8819985A5B1959 PUSH1 0x6A SHL PUSH1 0x44 DUP3 ADD MSTORE PUSH1 0x64 ADD PUSH2 0x2C5 JUMP JUMPDEST PUSH1 0x40 MLOAD DUP3 DUP2 MSTORE CALLER SWAP1 PUSH1 0x1 PUSH1 0x1 PUSH1 0xA0 SHL SUB DUP12 AND SWAP1 PUSH32 0xF228DE527FC1B9843BAAC03B9A04565473A263375950E63435D4138464386F46 SWAP1 PUSH1 0x20 ADD PUSH1 0x40 MLOAD DUP1 SWAP2 SUB SWAP1 LOG3 JUMPDEST PUSH1 0x0 SWAP5 POP PUSH1 0x0 JUMPDEST DUP8 DUP2 LT ISZERO PUSH2 0xE3D JUMPI PUSH1 0x0 DUP10 DUP10 DUP4 DUP2 DUP2 LT PUSH2 0xC77 JUMPI PUSH2 0xC77 PUSH2 0x1429 JUMP JUMPDEST SWAP1 POP PUSH1 0x20 MUL ADD PUSH1 0x20 DUP2 ADD SWAP1 PUSH2 0xC8C SWAP2 SWAP1 PUSH2 0x13CC JUMP JUMPDEST PUSH1 0x1 PUSH1 0x1 PUSH1 0xA0 SHL SUB AND SUB PUSH2 0xCD6 JUMPI PUSH1 0x40 MLOAD PUSH3 0x461BCD PUSH1 0xE5 SHL DUP2 MSTORE PUSH1 0x20 PUSH1 0x4 DUP3 ADD MSTORE PUSH1 0x11 PUSH1 0x24 DUP3 ADD MSTORE PUSH17 0x125B9D985B1A59081C9958DA5C1A595B9D PUSH1 0x7A SHL PUSH1 0x44 DUP3 ADD MSTORE PUSH1 0x64 ADD PUSH2 0x2C5 JUMP JUMPDEST PUSH1 0x0 DUP6 PUSH1 0x1 PUSH1 0x1 PUSH1 0xA0 SHL SUB AND PUSH4 0xA9059CBB DUP12 DUP12 DUP6 DUP2 DUP2 LT PUSH2 0xCF9 JUMPI PUSH2 0xCF9 PUSH2 0x1429 JUMP JUMPDEST SWAP1 POP PUSH1 0x20 MUL ADD PUSH1 0x20 DUP2 ADD SWAP1 PUSH2 0xD0E SWAP2 SWAP1 PUSH2 0x13CC JUMP JUMPDEST PUSH1 0x40 MLOAD PUSH1 0x1 PUSH1 0x1 PUSH1 0xE0 SHL SUB NOT PUSH1 0xE0 DUP5 SWAP1 SHL AND DUP2 MSTORE PUSH1 0x1 PUSH1 0x1 PUSH1 0xA0 SHL SUB SWAP1 SWAP2 AND PUSH1 0x4 DUP3 ADD MSTORE PUSH1 0x24 DUP2 ADD DUP12 SWAP1 MSTORE PUSH1 0x44 ADD PUSH1 0x20 PUSH1 0x40 MLOAD DUP1 DUP4 SUB DUP2 PUSH1 0x0 DUP8 GAS CALL ISZERO DUP1 ISZERO PUSH2 0xD5B JUMPI RETURNDATASIZE PUSH1 0x0 DUP1 RETURNDATACOPY RETURNDATASIZE PUSH1 0x0 REVERT JUMPDEST POP POP POP POP PUSH1 0x40 MLOAD RETURNDATASIZE PUSH1 0x1F NOT PUSH1 0x1F DUP3 ADD AND DUP3 ADD DUP1 PUSH1 0x40 MSTORE POP DUP2 ADD SWAP1 PUSH2 0xD7F SWAP2 SWAP1 PUSH2 0x14C0 JUMP JUMPDEST SWAP1 POP DUP1 ISZERO PUSH2 0xD99 JUMPI DUP7 PUSH2 0xD91 DUP2 PUSH2 0x146E JUMP JUMPDEST SWAP8 POP POP PUSH2 0xE2A JUMP JUMPDEST DUP10 DUP10 DUP4 DUP2 DUP2 LT PUSH2 0xDAB JUMPI PUSH2 0xDAB PUSH2 0x1429 JUMP JUMPDEST SWAP1 POP PUSH1 0x20 MUL ADD PUSH1 0x20 DUP2 ADD SWAP1 PUSH2 0xDC0 SWAP2 SWAP1 PUSH2 0x13CC JUMP JUMPDEST PUSH1 0x1 PUSH1 0x1 PUSH1 0xA0 SHL SUB AND PUSH32 0x32BD04FBA17E3A4E042DE2CA40E007E3F7478948CB07937B3E2059D4BE9486E0 DUP10 PUSH1 0x40 MLOAD PUSH2 0xE21 SWAP2 DUP2 MSTORE PUSH1 0x40 PUSH1 0x20 DUP3 ADD DUP2 SWAP1 MSTORE PUSH1 0xF SWAP1 DUP3 ADD MSTORE PUSH15 0x151C985B9CD9995C8819985A5B1959 PUSH1 0x8A SHL PUSH1 0x60 DUP3 ADD MSTORE PUSH1 0x80 ADD SWAP1 JUMP JUMPDEST PUSH1 0x40 MLOAD DUP1 SWAP2 SUB SWAP1 LOG2 JUMPDEST POP DUP1 PUSH2 0xE35 DUP2 PUSH2 0x146E JUMP JUMPDEST SWAP2 POP POP PUSH2 0xC5B JUMP JUMPDEST POP PUSH1 0x4 DUP1 SLOAD SWAP1 PUSH1 0x0 PUSH2 0xE4E DUP4 PUSH2 0x146E JUMP JUMPDEST SWAP2 SWAP1 POP SSTORE POP DUP5 PUSH1 0x5 PUSH1 0x0 DUP3 DUP3 SLOAD PUSH2 0xE65 SWAP2 SWAP1 PUSH2 0x1455 JUMP JUMPDEST SWAP1 SWAP2 SSTORE POP POP PUSH1 0x40 DUP1 MLOAD DUP7 DUP2 MSTORE PUSH1 0x20 DUP2 ADD DUP6 SWAP1 MSTORE TIMESTAMP DUP2 DUP4 ADD MSTORE SWAP1 MLOAD CALLER SWAP2 PUSH1 0x1 PUSH1 0x1 PUSH1 0xA0 SHL SUB DUP13 AND SWAP2 PUSH32 0xE9BD9106489D3C6E2EE07C57A400B137918C252FF582D349FFFAEF2D9354F53A SWAP2 DUP2 SWAP1 SUB PUSH1 0x60 ADD SWAP1 LOG3 POP POP POP POP PUSH2 0xEC3 PUSH1 0x1 DUP1 SSTORE JUMP JUMPDEST SWAP5 SWAP4 POP POP POP POP JUMP JUMPDEST PUSH2 0xED3 PUSH2 0x119E JUMP JUMPDEST PUSH1 0x0 DUP2 GT DUP1 ISZERO PUSH2 0xEE5 JUMPI POP PUSH2 0x1F4 DUP2 GT ISZERO JUMPDEST PUSH2 0xF20 JUMPI PUSH1 0x40 MLOAD PUSH3 0x461BCD PUSH1 0xE5 SHL DUP2 MSTORE PUSH1 0x20 PUSH1 0x4 DUP3 ADD MSTORE PUSH1 0xC PUSH1 0x24 DUP3 ADD MSTORE PUSH12 0x496E76616C69642073697A65 PUSH1 0xA0 SHL PUSH1 0x44 DUP3 ADD MSTORE PUSH1 0x64 ADD PUSH2 0x2C5 JUMP JUMPDEST PUSH1 0x3 SSTORE JUMP JUMPDEST PUSH2 0xF2D PUSH2 0x119E JUMP JUMPDEST PUSH2 0x1F4 DUP2 PUSH2 0xFFFF AND GT ISZERO PUSH2 0xF72 JUMPI PUSH1 0x40 MLOAD PUSH3 0x461BCD PUSH1 0xE5 SHL DUP2 MSTORE PUSH1 0x20 PUSH1 0x4 DUP3 ADD MSTORE PUSH1 0xC PUSH1 0x24 DUP3 ADD MSTORE PUSH12 0x8CCACA40E8DEDE40D0D2CED PUSH1 0xA3 SHL PUSH1 0x44 DUP3 ADD MSTORE PUSH1 0x64 ADD PUSH2 0x2C5 JUMP JUMPDEST PUSH1 0x2 DUP1 SLOAD PUSH2 0xFFFF NOT AND PUSH2 0xFFFF SWAP3 SWAP1 SWAP3 AND SWAP2 SWAP1 SWAP2 OR SWAP1 SSTORE JUMP JUMPDEST PUSH2 0xF92 PUSH2 0x119E JUMP JUMPDEST PUSH2 0xF9C PUSH1 0x0 PUSH2 0x11CB JUMP JUMPDEST JUMP JUMPDEST PUSH2 0xFA6 PUSH2 0x119E JUMP JUMPDEST DUP2 PUSH1 0x1 PUSH1 0x1 PUSH1 0xA0 SHL SUB AND PUSH4 0xA9059CBB PUSH2 0xFC7 PUSH1 0x0 SLOAD PUSH1 0x1 PUSH1 0x1 PUSH1 0xA0 SHL SUB AND SWAP1 JUMP JUMPDEST PUSH1 0x40 MLOAD PUSH1 0x1 PUSH1 0x1 PUSH1 0xE0 SHL SUB NOT PUSH1 0xE0 DUP5 SWAP1 SHL AND DUP2 MSTORE PUSH1 0x1 PUSH1 0x1 PUSH1 0xA0 SHL SUB SWAP1 SWAP2 AND PUSH1 0x4 DUP3 ADD MSTORE PUSH1 0x24 DUP2 ADD DUP5 SWAP1 MSTORE PUSH1 0x44 ADD PUSH1 0x20 PUSH1 0x40 MLOAD DUP1 DUP4 SUB DUP2 PUSH1 0x0 DUP8 GAS CALL ISZERO DUP1 ISZERO PUSH2 0x1014 JUMPI RETURNDATASIZE PUSH1 0x0 DUP1 RETURNDATACOPY RETURNDATASIZE PUSH1 0x0 REVERT JUMPDEST POP POP POP POP PUSH1 0x40 MLOAD RETURNDATASIZE PUSH1 0x1F NOT PUSH1 0x1F DUP3 ADD AND DUP3 ADD DUP1 PUSH1 0x40 MSTORE POP DUP2 ADD SWAP1 PUSH2 0x1038 SWAP2 SWAP1 PUSH2 0x14C0 JUMP JUMPDEST POP POP POP JUMP JUMPDEST PUSH2 0x1045 PUSH2 0x119E JUMP JUMPDEST PUSH1 0x1 PUSH1 0x1 PUSH1 0xA0 SHL SUB DUP2 AND PUSH2 0x108F JUMPI PUSH1 0x40 MLOAD PUSH3 0x461BCD PUSH1 0xE5 SHL DUP2 MSTORE PUSH1 0x20 PUSH1 0x4 DUP3 ADD MSTORE PUSH1 0x11 PUSH1 0x24 DUP3 ADD MSTORE PUSH17 0x24B73B30B634B21031B7B63632B1BA37B9 PUSH1 0x79 SHL PUSH1 0x44 DUP3 ADD MSTORE PUSH1 0x64 ADD PUSH2 0x2C5 JUMP JUMPDEST PUSH1 0x2 DUP1 SLOAD PUSH1 0x1 PUSH1 0x1 PUSH1 0xA0 SHL SUB SWAP1 SWAP3 AND PUSH3 0x10000 MUL PUSH3 0x10000 PUSH1 0x1 PUSH1 0xB0 SHL SUB NOT SWAP1 SWAP3 AND SWAP2 SWAP1 SWAP2 OR SWAP1 SSTORE JUMP JUMPDEST PUSH1 0x0 DUP1 PUSH1 0x0 DUP1 JUMPDEST DUP5 DUP2 LT ISZERO PUSH2 0x1100 JUMPI DUP6 DUP6 DUP3 DUP2 DUP2 LT PUSH2 0x10DA JUMPI PUSH2 0x10DA PUSH2 0x1429 JUMP JUMPDEST SWAP1 POP PUSH1 0x20 MUL ADD CALLDATALOAD DUP3 PUSH2 0x10EC SWAP2 SWAP1 PUSH2 0x1455 JUMP JUMPDEST SWAP2 POP DUP1 PUSH2 0x10F8 DUP2 PUSH2 0x146E JUMP JUMPDEST SWAP2 POP POP PUSH2 0x10C0 JUMP JUMPDEST POP PUSH1 0x2 SLOAD PUSH2 0x2710 SWAP1 PUSH2 0x1116 SWAP1 PUSH2 0xFFFF AND DUP4 PUSH2 0x1487 JUMP JUMPDEST PUSH2 0x1120 SWAP2 SWAP1 PUSH2 0x149E JUMP JUMPDEST SWAP2 POP PUSH2 0x112C DUP3 DUP3 PUSH2 0x1455 JUMP JUMPDEST SWAP3 POP POP SWAP3 POP SWAP3 SWAP1 POP JUMP JUMPDEST PUSH2 0x113E PUSH2 0x119E JUMP JUMPDEST PUSH1 0x1 PUSH1 0x1 PUSH1 0xA0 SHL SUB DUP2 AND PUSH2 0x1168 JUMPI PUSH1 0x40 MLOAD PUSH4 0x1E4FBDF7 PUSH1 0xE0 SHL DUP2 MSTORE PUSH1 0x0 PUSH1 0x4 DUP3 ADD MSTORE PUSH1 0x24 ADD PUSH2 0x2C5 JUMP JUMPDEST PUSH2 0x1171 DUP2 PUSH2 0x11CB JUMP JUMPDEST POP JUMP JUMPDEST PUSH1 0x2 PUSH1 0x1 SLOAD SUB PUSH2 0x1197 JUMPI PUSH1 0x40 MLOAD PUSH4 0x3EE5AEB5 PUSH1 0xE0 SHL DUP2 MSTORE PUSH1 0x4 ADD PUSH1 0x40 MLOAD DUP1 SWAP2 SUB SWAP1 REVERT JUMPDEST PUSH1 0x2 PUSH1 0x1 SSTORE JUMP JUMPDEST PUSH1 0x0 SLOAD PUSH1 0x1 PUSH1 0x1 PUSH1 0xA0 SHL SUB AND CALLER EQ PUSH2 0xF9C JUMPI PUSH1 0x40 MLOAD PUSH4 0x118CDAA7 PUSH1 0xE0 SHL DUP2 MSTORE CALLER PUSH1 0x4 DUP3 ADD MSTORE PUSH1 0x24 ADD PUSH2 0x2C5 JUMP JUMPDEST PUSH1 0x0 DUP1 SLOAD PUSH1 0x1 PUSH1 0x1 PUSH1 0xA0 SHL SUB DUP4 DUP2 AND PUSH1 0x1 PUSH1 0x1 PUSH1 0xA0 SHL SUB NOT DUP4 AND DUP2 OR DUP5 SSTORE PUSH1 0x40 MLOAD SWAP2 SWAP1 SWAP3 AND SWAP3 DUP4 SWAP2 PUSH32 0x8BE0079C531659141344CD1FD0A4F28419497F9722A3DAAFE3B4186F6B6457E0 SWAP2 SWAP1 LOG3 POP POP JUMP JUMPDEST DUP1 CALLDATALOAD PUSH1 0x1 PUSH1 0x1 PUSH1 0xA0 SHL SUB DUP2 AND DUP2 EQ PUSH2 0x1232 JUMPI PUSH1 0x0 DUP1 REVERT JUMPDEST SWAP2 SWAP1 POP JUMP JUMPDEST PUSH1 0x0 DUP1 DUP4 PUSH1 0x1F DUP5 ADD SLT PUSH2 0x1249 JUMPI PUSH1 0x0 DUP1 REVERT JUMPDEST POP DUP2 CALLDATALOAD PUSH8 0xFFFFFFFFFFFFFFFF DUP2 GT ISZERO PUSH2 0x1261 JUMPI PUSH1 0x0 DUP1 REVERT JUMPDEST PUSH1 0x20 DUP4 ADD SWAP2 POP DUP4 PUSH1 0x20 DUP3 PUSH1 0x5 SHL DUP6 ADD ADD GT ISZERO PUSH2 0x127C JUMPI PUSH1 0x0 DUP1 REVERT JUMPDEST SWAP3 POP SWAP3 SWAP1 POP JUMP JUMPDEST PUSH1 0x0 DUP1 PUSH1 0x0 DUP1 PUSH1 0x0 PUSH1 0x60 DUP7 DUP9 SUB SLT ISZERO PUSH2 0x129B JUMPI PUSH1 0x0 DUP1 REVERT JUMPDEST PUSH2 0x12A4 DUP7 PUSH2 0x121B JUMP JUMPDEST SWAP5 POP PUSH1 0x20 DUP7 ADD CALLDATALOAD PUSH8 0xFFFFFFFFFFFFFFFF DUP1 DUP3 GT ISZERO PUSH2 0x12C1 JUMPI PUSH1 0x0 DUP1 REVERT JUMPDEST PUSH2 0x12CD DUP10 DUP4 DUP11 ADD PUSH2 0x1237 JUMP JUMPDEST SWAP1 SWAP7 POP SWAP5 POP PUSH1 0x40 DUP9 ADD CALLDATALOAD SWAP2 POP DUP1 DUP3 GT ISZERO PUSH2 0x12E6 JUMPI PUSH1 0x0 DUP1 REVERT JUMPDEST POP PUSH2 0x12F3 DUP9 DUP3 DUP10 ADD PUSH2 0x1237 JUMP JUMPDEST SWAP7 SWAP10 SWAP6 SWAP9 POP SWAP4 SWAP7 POP SWAP3 SWAP5 SWAP4 SWAP3 POP POP POP JUMP JUMPDEST PUSH1 0x0 DUP1 PUSH1 0x0 DUP1 PUSH1 0x60 DUP6 DUP8 SUB SLT ISZERO PUSH2 0x131A JUMPI PUSH1 0x0 DUP1 REVERT JUMPDEST PUSH2 0x1323 DUP6 PUSH2 0x121B JUMP JUMPDEST SWAP4 POP PUSH1 0x20 DUP6 ADD CALLDATALOAD PUSH8 0xFFFFFFFFFFFFFFFF DUP2 GT ISZERO PUSH2 0x133F JUMPI PUSH1 0x0 DUP1 REVERT JUMPDEST PUSH2 0x134B DUP8 DUP3 DUP9 ADD PUSH2 0x1237 JUMP JUMPDEST SWAP6 SWAP9 SWAP1 SWAP8 POP SWAP5 SWAP6 PUSH1 0x40 ADD CALLDATALOAD SWAP5 SWAP4 POP POP POP POP JUMP JUMPDEST PUSH1 0x0 PUSH1 0x20 DUP3 DUP5 SUB SLT ISZERO PUSH2 0x1370 JUMPI PUSH1 0x0 DUP1 REVERT JUMPDEST POP CALLDATALOAD SWAP2 SWAP1 POP JUMP JUMPDEST PUSH1 0x0 PUSH1 0x20 DUP3 DUP5 SUB SLT ISZERO PUSH2 0x1389 JUMPI PUSH1 0x0 DUP1 REVERT JUMPDEST DUP2 CALLDATALOAD PUSH2 0xFFFF DUP2 AND DUP2 EQ PUSH2 0x139B JUMPI PUSH1 0x0 DUP1 REVERT JUMPDEST SWAP4 SWAP3 POP POP POP JUMP JUMPDEST PUSH1 0x0 DUP1 PUSH1 0x40 DUP4 DUP6 SUB SLT ISZERO PUSH2 0x13B5 JUMPI PUSH1 0x0 DUP1 REVERT JUMPDEST PUSH2 0x13BE DUP4 PUSH2 0x121B JUMP JUMPDEST SWAP5 PUSH1 0x20 SWAP4 SWAP1 SWAP4 ADD CALLDATALOAD SWAP4 POP POP POP JUMP JUMPDEST PUSH1 0x0 PUSH1 0x20 DUP3 DUP5 SUB SLT ISZERO PUSH2 0x13DE JUMPI PUSH1 0x0 DUP1 REVERT JUMPDEST PUSH2 0x139B DUP3 PUSH2 0x121B JUMP JUMPDEST PUSH1 0x0 DUP1 PUSH1 0x20 DUP4 DUP6 SUB SLT ISZERO PUSH2 0x13FA JUMPI PUSH1 0x0 DUP1 REVERT JUMPDEST DUP3 CALLDATALOAD PUSH8 0xFFFFFFFFFFFFFFFF DUP2 GT ISZERO PUSH2 0x1411 JUMPI PUSH1 0x0 DUP1 REVERT JUMPDEST PUSH2 0x141D DUP6 DUP3 DUP7 ADD PUSH2 0x1237 JUMP JUMPDEST SWAP1 SWAP7 SWAP1 SWAP6 POP SWAP4 POP POP POP POP JUMP JUMPDEST PUSH4 0x4E487B71 PUSH1 0xE0 SHL PUSH1 0x0 MSTORE PUSH1 0x32 PUSH1 0x4 MSTORE PUSH1 0x24 PUSH1 0x0 REVERT JUMPDEST PUSH4 0x4E487B71 PUSH1 0xE0 SHL PUSH1 0x0 MSTORE PUSH1 0x11 PUSH1 0x4 MSTORE PUSH1 0x24 PUSH1 0x0 REVERT JUMPDEST DUP1 DUP3 ADD DUP1 DUP3 GT ISZERO PUSH2 0x1468 JUMPI PUSH2 0x1468 PUSH2 0x143F JUMP JUMPDEST SWAP3 SWAP2 POP POP JUMP JUMPDEST PUSH1 0x0 PUSH1 0x1 DUP3 ADD PUSH2 0x1480 JUMPI PUSH2 0x1480 PUSH2 0x143F JUMP JUMPDEST POP PUSH1 0x1 ADD SWAP1 JUMP JUMPDEST DUP1 DUP3 MUL DUP2 ISZERO DUP3 DUP3 DIV DUP5 EQ OR PUSH2 0x1468 JUMPI PUSH2 0x1468 PUSH2 0x143F JUMP JUMPDEST PUSH1 0x0 DUP3 PUSH2 0x14BB JUMPI PUSH4 0x4E487B71 PUSH1 0xE0 SHL PUSH1 0x0 MSTORE PUSH1 0x12 PUSH1 0x4 MSTORE PUSH1 0x24 PUSH1 0x0 REVERT JUMPDEST POP DIV SWAP1 JUMP JUMPDEST PUSH1 0x0 PUSH1 0x20 DUP3 DUP5 SUB SLT ISZERO PUSH2 0x14D2 JUMPI PUSH1 0x0 DUP1 REVERT JUMPDEST DUP2 MLOAD DUP1 ISZERO ISZERO DUP2 EQ PUSH2 0x139B JUMPI PUSH1 0x0 DUP1 REVERT INVALID LOG2 PUSH5 0x6970667358 0x22 SLT KECCAK256 0xC 0xC SUB 0xB7 LOG4 SWAP14 0xD1 SHR 0xE 0xE0 0xA7 0xE0 BLOCKHASH 0xC2 PUSH31 0xA243B38BA73842593CAD83A2E62615CB3C64736F6C63430008140033000000 "},"methodIdentifiers":{"batchTransfer(address,address[],uint256[])":"1239ec8c","batchTransferEqual(address,address[],uint256)":"2588be29","calculateTotalRequired(uint256[])":"b3254c60","emergencyWithdraw(address,uint256)":"95ccea67","feeCollector()":"c415b95c","getStats()":"c59d4847","maxBatchSize()":"2913daa0","owner()":"8da5cb5b","platformFeeBps()":"22dcd13e","renounceOwnership()":"715018a6","setFeeCollector(address)":"a42dce80","setMaxBatchSize(uint256)":"2b26a6bf","setPlatformFee(uint16)":"5cbc742c","totalBatchesProcessed()":"faa2e25a","totalRecipientsServed()":"f465edcb","transferOwnership(address)":"f2fde38b"}}}}}