{
  "_format": "hh-sol-artifact-1",
  "contractName": "ConfidentialTreasury",
  "sourceName": "contracts/fhe/ConfidentialTreasury.sol",
  "abi": [
    {
      "inputs": [
        {
          "internalType": "address",
          "name": "_usdc",
          "type": "address"
        },
        {
          "internalType": "address",
          "name": "admin",
          "type": "address"
        },
        {
          "internalType": "address",
          "name": "relayer",
          "type": "address"
        },
        {
          "internalType": "address",
          "name": "guardian",
          "type": "address"
        },
        {
          "internalType": "uint256",
          "name": "_dailyReleaseCap",
          "type": "uint256"
        },
        {
          "internalType": "uint256",
          "name": "_emergencyDelay",
          "type": "uint256"
        },
        {
          "internalType": "address",
          "name": "coprocessor",
          "type": "address"
        },
        {
          "internalType": "address",
          "name": "acl",
          "type": "address"
        }
      ],
      "stateMutability": "nonpayable",
      "type": "constructor"
    },
    {
      "inputs": [],
      "name": "AccessControlBadConfirmation",
      "type": "error"
    },
    {
      "inputs": [
        {
          "internalType": "address",
          "name": "account",
          "type": "address"
        },
        {
          "internalType": "bytes32",
          "name": "neededRole",
          "type": "bytes32"
        }
      ],
      "name": "AccessControlUnauthorizedAccount",
      "type": "error"
    },
    {
      "inputs": [
        {
          "internalType": "bytes32",
          "name": "burnTxHash",
          "type": "bytes32"
        }
      ],
      "name": "BurnTxAlreadyProcessed",
      "type": "error"
    },
    {
      "inputs": [
        {
          "internalType": "uint256",
          "name": "requested",
          "type": "uint256"
        },
        {
          "internalType": "uint256",
          "name": "remaining",
          "type": "uint256"
        }
      ],
      "name": "DailyReleaseCapExceeded",
      "type": "error"
    },
    {
      "inputs": [
        {
          "internalType": "bytes32",
          "name": "requestHash",
          "type": "bytes32"
        }
      ],
      "name": "EmergencyAlreadyRequested",
      "type": "error"
    },
    {
      "inputs": [
        {
          "internalType": "bytes32",
          "name": "requestHash",
          "type": "bytes32"
        },
        {
          "internalType": "uint256",
          "name": "unlockTime",
          "type": "uint256"
        }
      ],
      "name": "EmergencyNotReady",
      "type": "error"
    },
    {
      "inputs": [
        {
          "internalType": "bytes32",
          "name": "requestHash",
          "type": "bytes32"
        }
      ],
      "name": "EmergencyRequestNotFound",
      "type": "error"
    },
    {
      "inputs": [],
      "name": "EnforcedPause",
      "type": "error"
    },
    {
      "inputs": [],
      "name": "ExpectedPause",
      "type": "error"
    },
    {
      "inputs": [
        {
          "internalType": "uint256",
          "name": "requested",
          "type": "uint256"
        },
        {
          "internalType": "uint256",
          "name": "available",
          "type": "uint256"
        }
      ],
      "name": "InsufficientVaultBalance",
      "type": "error"
    },
    {
      "inputs": [],
      "name": "InvalidAmount",
      "type": "error"
    },
    {
      "inputs": [],
      "name": "InvalidRecipient",
      "type": "error"
    },
    {
      "inputs": [],
      "name": "ReentrancyGuardReentrantCall",
      "type": "error"
    },
    {
      "inputs": [
        {
          "internalType": "address",
          "name": "token",
          "type": "address"
        }
      ],
      "name": "SafeERC20FailedOperation",
      "type": "error"
    },
    {
      "anonymous": false,
      "inputs": [
        {
          "indexed": true,
          "internalType": "address",
          "name": "recipient",
          "type": "address"
        },
        {
          "indexed": true,
          "internalType": "bytes32",
          "name": "burnTxHash",
          "type": "bytes32"
        },
        {
          "indexed": true,
          "internalType": "address",
          "name": "relayer",
          "type": "address"
        },
        {
          "indexed": false,
          "internalType": "uint256",
          "name": "timestamp",
          "type": "uint256"
        }
      ],
      "name": "ConfidentialRelease",
      "type": "event"
    },
    {
      "anonymous": false,
      "inputs": [
        {
          "indexed": false,
          "internalType": "uint256",
          "name": "oldCap",
          "type": "uint256"
        },
        {
          "indexed": false,
          "internalType": "uint256",
          "name": "newCap",
          "type": "uint256"
        }
      ],
      "name": "DailyReleaseCapUpdated",
      "type": "event"
    },
    {
      "anonymous": false,
      "inputs": [
        {
          "indexed": true,
          "internalType": "address",
          "name": "depositor",
          "type": "address"
        },
        {
          "indexed": false,
          "internalType": "uint256",
          "name": "amount",
          "type": "uint256"
        },
        {
          "indexed": true,
          "internalType": "address",
          "name": "hashKeyRecipient",
          "type": "address"
        },
        {
          "indexed": false,
          "internalType": "uint256",
          "name": "timestamp",
          "type": "uint256"
        }
      ],
      "name": "DepositForMint",
      "type": "event"
    },
    {
      "anonymous": false,
      "inputs": [
        {
          "indexed": false,
          "internalType": "uint256",
          "name": "oldDelay",
          "type": "uint256"
        },
        {
          "indexed": false,
          "internalType": "uint256",
          "name": "newDelay",
          "type": "uint256"
        }
      ],
      "name": "EmergencyDelayUpdated",
      "type": "event"
    },
    {
      "anonymous": false,
      "inputs": [
        {
          "indexed": false,
          "internalType": "bytes32",
          "name": "requestHash",
          "type": "bytes32"
        }
      ],
      "name": "EmergencyWithdrawCanceled",
      "type": "event"
    },
    {
      "anonymous": false,
      "inputs": [
        {
          "indexed": true,
          "internalType": "address",
          "name": "executor",
          "type": "address"
        },
        {
          "indexed": true,
          "internalType": "address",
          "name": "to",
          "type": "address"
        },
        {
          "indexed": false,
          "internalType": "bytes32",
          "name": "requestHash",
          "type": "bytes32"
        }
      ],
      "name": "EmergencyWithdrawExecuted",
      "type": "event"
    },
    {
      "anonymous": false,
      "inputs": [
        {
          "indexed": true,
          "internalType": "address",
          "name": "requester",
          "type": "address"
        },
        {
          "indexed": false,
          "internalType": "bytes32",
          "name": "requestHash",
          "type": "bytes32"
        },
        {
          "indexed": false,
          "internalType": "uint256",
          "name": "unlockTime",
          "type": "uint256"
        }
      ],
      "name": "EmergencyWithdrawRequested",
      "type": "event"
    },
    {
      "anonymous": false,
      "inputs": [
        {
          "indexed": false,
          "internalType": "address",
          "name": "account",
          "type": "address"
        }
      ],
      "name": "Paused",
      "type": "event"
    },
    {
      "anonymous": false,
      "inputs": [
        {
          "indexed": false,
          "internalType": "uint256",
          "name": "day",
          "type": "uint256"
        },
        {
          "indexed": false,
          "internalType": "uint256",
          "name": "previousDayTotal",
          "type": "uint256"
        }
      ],
      "name": "ReleaseCapReset",
      "type": "event"
    },
    {
      "anonymous": false,
      "inputs": [
        {
          "indexed": true,
          "internalType": "bytes32",
          "name": "role",
          "type": "bytes32"
        },
        {
          "indexed": true,
          "internalType": "bytes32",
          "name": "previousAdminRole",
          "type": "bytes32"
        },
        {
          "indexed": true,
          "internalType": "bytes32",
          "name": "newAdminRole",
          "type": "bytes32"
        }
      ],
      "name": "RoleAdminChanged",
      "type": "event"
    },
    {
      "anonymous": false,
      "inputs": [
        {
          "indexed": true,
          "internalType": "bytes32",
          "name": "role",
          "type": "bytes32"
        },
        {
          "indexed": true,
          "internalType": "address",
          "name": "account",
          "type": "address"
        },
        {
          "indexed": true,
          "internalType": "address",
          "name": "sender",
          "type": "address"
        }
      ],
      "name": "RoleGranted",
      "type": "event"
    },
    {
      "anonymous": false,
      "inputs": [
        {
          "indexed": true,
          "internalType": "bytes32",
          "name": "role",
          "type": "bytes32"
        },
        {
          "indexed": true,
          "internalType": "address",
          "name": "account",
          "type": "address"
        },
        {
          "indexed": true,
          "internalType": "address",
          "name": "sender",
          "type": "address"
        }
      ],
      "name": "RoleRevoked",
      "type": "event"
    },
    {
      "anonymous": false,
      "inputs": [
        {
          "indexed": false,
          "internalType": "address",
          "name": "account",
          "type": "address"
        }
      ],
      "name": "Unpaused",
      "type": "event"
    },
    {
      "inputs": [],
      "name": "DEFAULT_ADMIN_ROLE",
      "outputs": [
        {
          "internalType": "bytes32",
          "name": "",
          "type": "bytes32"
        }
      ],
      "stateMutability": "view",
      "type": "function"
    },
    {
      "inputs": [],
      "name": "GUARDIAN_ROLE",
      "outputs": [
        {
          "internalType": "bytes32",
          "name": "",
          "type": "bytes32"
        }
      ],
      "stateMutability": "view",
      "type": "function"
    },
    {
      "inputs": [],
      "name": "RELAYER_ROLE",
      "outputs": [
        {
          "internalType": "bytes32",
          "name": "",
          "type": "bytes32"
        }
      ],
      "stateMutability": "view",
      "type": "function"
    },
    {
      "inputs": [
        {
          "internalType": "bytes32",
          "name": "requestHash",
          "type": "bytes32"
        }
      ],
      "name": "cancelEmergencyWithdraw",
      "outputs": [],
      "stateMutability": "nonpayable",
      "type": "function"
    },
    {
      "inputs": [],
      "name": "currentDayReleased",
      "outputs": [
        {
          "internalType": "uint256",
          "name": "",
          "type": "uint256"
        }
      ],
      "stateMutability": "view",
      "type": "function"
    },
    {
      "inputs": [],
      "name": "dailyReleaseCap",
      "outputs": [
        {
          "internalType": "uint256",
          "name": "",
          "type": "uint256"
        }
      ],
      "stateMutability": "view",
      "type": "function"
    },
    {
      "inputs": [
        {
          "internalType": "uint256",
          "name": "amount",
          "type": "uint256"
        },
        {
          "internalType": "address",
          "name": "hashKeyRecipient",
          "type": "address"
        }
      ],
      "name": "depositToHashKey",
      "outputs": [],
      "stateMutability": "nonpayable",
      "type": "function"
    },
    {
      "inputs": [],
      "name": "emergencyWithdrawalDelay",
      "outputs": [
        {
          "internalType": "uint256",
          "name": "",
          "type": "uint256"
        }
      ],
      "stateMutability": "view",
      "type": "function"
    },
    {
      "inputs": [
        {
          "internalType": "address",
          "name": "account",
          "type": "address"
        }
      ],
      "name": "encryptedDepositsOf",
      "outputs": [
        {
          "internalType": "euint64",
          "name": "",
          "type": "bytes32"
        }
      ],
      "stateMutability": "view",
      "type": "function"
    },
    {
      "inputs": [
        {
          "internalType": "address",
          "name": "account",
          "type": "address"
        }
      ],
      "name": "encryptedReleasesOf",
      "outputs": [
        {
          "internalType": "euint64",
          "name": "",
          "type": "bytes32"
        }
      ],
      "stateMutability": "view",
      "type": "function"
    },
    {
      "inputs": [
        {
          "internalType": "bytes32",
          "name": "requestHash",
          "type": "bytes32"
        },
        {
          "internalType": "uint256",
          "name": "plaintextAmount",
          "type": "uint256"
        }
      ],
      "name": "executeEmergencyWithdraw",
      "outputs": [],
      "stateMutability": "nonpayable",
      "type": "function"
    },
    {
      "inputs": [
        {
          "internalType": "bytes32",
          "name": "role",
          "type": "bytes32"
        }
      ],
      "name": "getRoleAdmin",
      "outputs": [
        {
          "internalType": "bytes32",
          "name": "",
          "type": "bytes32"
        }
      ],
      "stateMutability": "view",
      "type": "function"
    },
    {
      "inputs": [
        {
          "internalType": "bytes32",
          "name": "role",
          "type": "bytes32"
        },
        {
          "internalType": "address",
          "name": "account",
          "type": "address"
        }
      ],
      "name": "grantRole",
      "outputs": [],
      "stateMutability": "nonpayable",
      "type": "function"
    },
    {
      "inputs": [
        {
          "internalType": "bytes32",
          "name": "role",
          "type": "bytes32"
        },
        {
          "internalType": "address",
          "name": "account",
          "type": "address"
        }
      ],
      "name": "hasRole",
      "outputs": [
        {
          "internalType": "bool",
          "name": "",
          "type": "bool"
        }
      ],
      "stateMutability": "view",
      "type": "function"
    },
    {
      "inputs": [
        {
          "internalType": "bytes32",
          "name": "burnTxHash",
          "type": "bytes32"
        }
      ],
      "name": "isBurnProcessed",
      "outputs": [
        {
          "internalType": "bool",
          "name": "",
          "type": "bool"
        }
      ],
      "stateMutability": "view",
      "type": "function"
    },
    {
      "inputs": [],
      "name": "lastReleaseResetDay",
      "outputs": [
        {
          "internalType": "uint256",
          "name": "",
          "type": "uint256"
        }
      ],
      "stateMutability": "view",
      "type": "function"
    },
    {
      "inputs": [],
      "name": "netDeposited",
      "outputs": [
        {
          "internalType": "uint256",
          "name": "",
          "type": "uint256"
        }
      ],
      "stateMutability": "view",
      "type": "function"
    },
    {
      "inputs": [],
      "name": "pause",
      "outputs": [],
      "stateMutability": "nonpayable",
      "type": "function"
    },
    {
      "inputs": [],
      "name": "paused",
      "outputs": [
        {
          "internalType": "bool",
          "name": "",
          "type": "bool"
        }
      ],
      "stateMutability": "view",
      "type": "function"
    },
    {
      "inputs": [
        {
          "internalType": "bytes32",
          "name": "",
          "type": "bytes32"
        }
      ],
      "name": "processedBurnTxs",
      "outputs": [
        {
          "internalType": "bool",
          "name": "",
          "type": "bool"
        }
      ],
      "stateMutability": "view",
      "type": "function"
    },
    {
      "inputs": [
        {
          "internalType": "address",
          "name": "recipient",
          "type": "address"
        },
        {
          "internalType": "uint256",
          "name": "amount",
          "type": "uint256"
        },
        {
          "internalType": "bytes32",
          "name": "burnTxHash",
          "type": "bytes32"
        }
      ],
      "name": "releaseFromBurn",
      "outputs": [],
      "stateMutability": "nonpayable",
      "type": "function"
    },
    {
      "inputs": [],
      "name": "remainingDailyRelease",
      "outputs": [
        {
          "internalType": "uint256",
          "name": "",
          "type": "uint256"
        }
      ],
      "stateMutability": "view",
      "type": "function"
    },
    {
      "inputs": [
        {
          "internalType": "bytes32",
          "name": "role",
          "type": "bytes32"
        },
        {
          "internalType": "address",
          "name": "callerConfirmation",
          "type": "address"
        }
      ],
      "name": "renounceRole",
      "outputs": [],
      "stateMutability": "nonpayable",
      "type": "function"
    },
    {
      "inputs": [
        {
          "internalType": "address",
          "name": "to",
          "type": "address"
        },
        {
          "internalType": "uint256",
          "name": "amount",
          "type": "uint256"
        }
      ],
      "name": "requestEmergencyWithdraw",
      "outputs": [],
      "stateMutability": "nonpayable",
      "type": "function"
    },
    {
      "inputs": [
        {
          "internalType": "address",
          "name": "to",
          "type": "address"
        },
        {
          "internalType": "externalEuint64",
          "name": "encryptedAmount",
          "type": "bytes32"
        },
        {
          "internalType": "bytes",
          "name": "inputProof",
          "type": "bytes"
        }
      ],
      "name": "requestEmergencyWithdraw",
      "outputs": [],
      "stateMutability": "nonpayable",
      "type": "function"
    },
    {
      "inputs": [
        {
          "internalType": "bytes32",
          "name": "role",
          "type": "bytes32"
        },
        {
          "internalType": "address",
          "name": "account",
          "type": "address"
        }
      ],
      "name": "revokeRole",
      "outputs": [],
      "stateMutability": "nonpayable",
      "type": "function"
    },
    {
      "inputs": [
        {
          "internalType": "uint256",
          "name": "newCap",
          "type": "uint256"
        }
      ],
      "name": "setDailyReleaseCap",
      "outputs": [],
      "stateMutability": "nonpayable",
      "type": "function"
    },
    {
      "inputs": [
        {
          "internalType": "uint256",
          "name": "newDelay",
          "type": "uint256"
        }
      ],
      "name": "setEmergencyDelay",
      "outputs": [],
      "stateMutability": "nonpayable",
      "type": "function"
    },
    {
      "inputs": [
        {
          "internalType": "bytes4",
          "name": "interfaceId",
          "type": "bytes4"
        }
      ],
      "name": "supportsInterface",
      "outputs": [
        {
          "internalType": "bool",
          "name": "",
          "type": "bool"
        }
      ],
      "stateMutability": "view",
      "type": "function"
    },
    {
      "inputs": [],
      "name": "totalDeposited",
      "outputs": [
        {
          "internalType": "uint256",
          "name": "",
          "type": "uint256"
        }
      ],
      "stateMutability": "view",
      "type": "function"
    },
    {
      "inputs": [],
      "name": "totalReleased",
      "outputs": [
        {
          "internalType": "uint256",
          "name": "",
          "type": "uint256"
        }
      ],
      "stateMutability": "view",
      "type": "function"
    },
    {
      "inputs": [],
      "name": "unpause",
      "outputs": [],
      "stateMutability": "nonpayable",
      "type": "function"
    },
    {
      "inputs": [],
      "name": "usdc",
      "outputs": [
        {
          "internalType": "contract IERC20",
          "name": "",
          "type": "address"
        }
      ],
      "stateMutability": "view",
      "type": "function"
    },
    {
      "inputs": [],
      "name": "vaultBalance",
      "outputs": [
        {
          "internalType": "uint256",
          "name": "",
          "type": "uint256"
        }
      ],
      "stateMutability": "view",
      "type": "function"
    }
  ],
  "bytecode": "0x60a06040523480156200001157600080fd5b5060405162001f6d38038062001f6d8339810160408190526200003491620001fe565b60016002557f2213e27a69620589bdc2328df8f4c3a2839d393438318617d33d9d300e84323b8290557f82f254e4a7a8f94602f3099951664c39f0003504358f237efb99e7c5d4f3b7238190556001600160a01b0388166080526200009b6000886200011c565b50620000c87fe2b7fb3b832174769106daebcfd6d1970523240dda11281102db9363b83b0dc4876200011c565b50620000f57f55435dd261a4b9b3364963f7738a7a662ad9c84396d64be3365284bb7f0a5041866200011c565b506008849055600b8390556200010a620001cb565b600a5550620002b79650505050505050565b6000828152602081815260408083206001600160a01b038516845290915281205460ff16620001c1576000838152602081815260408083206001600160a01b03861684529091529020805460ff19166001179055620001783390565b6001600160a01b0316826001600160a01b0316847f2f8788117e7eff1d82e926ec794901d17c78024a50270940304540a733656f0d60405160405180910390a4506001620001c5565b5060005b92915050565b6000620001dc620151804262000294565b905090565b80516001600160a01b0381168114620001f957600080fd5b919050565b600080600080600080600080610100898b0312156200021c57600080fd5b6200022789620001e1565b97506200023760208a01620001e1565b96506200024760408a01620001e1565b95506200025760608a01620001e1565b94506080890151935060a089015192506200027560c08a01620001e1565b91506200028560e08a01620001e1565b90509295985092959890939650565b600082620002b257634e487b7160e01b600052601260045260246000fd5b500490565b608051611c70620002fd600039600081816102eb0152818161051d015281816108160152818161094801528181610a3c01528181610bdd0152610da20152611c706000f3fe608060405234801561001057600080fd5b50600436106102065760003560e01c806371d74df51161011a578063a217fddf116100ad578063d547741f1161007c578063d547741f14610473578063e33b7de314610486578063f4cc09471461048f578063fbe1a43f146104b2578063ff50abdc146104c557600080fd5b8063a217fddf14610447578063b4f740311461044f578063c286061014610458578063c61b56971461046057600080fd5b80637c7f4ce5116100e95780637c7f4ce5146103f25780638456cb591461040557806391d148541461040d578063926d7d7f1461042057600080fd5b806371d74df514610384578063755f5f44146103ad57806375cbbb06146103d657806377bc4718146103df57600080fd5b806336568abe1161019d57806344496e8f1161016c57806344496e8f1461032d57806348ddc5fe14610340578063533f044d146103535780635c975abb14610366578063601d6c9a1461037157600080fd5b806336568abe146102cb5780633bfb2532146102de5780633e413bee146102e65780633f4ba83a1461032557600080fd5b8063248a9ca3116101d9578063248a9ca31461027557806324ea54f4146102985780632d8fb8d7146102ad5780632f2ff15d146102b657600080fd5b806301ffc9a71461020b5780630bf6cc0814610233578063198b1f78146102495780632165f8de14610252575b600080fd5b61021e6102193660046119a1565b6104ce565b60405190151581526020015b60405180910390f35b61023b610505565b60405190815260200161022a565b61023b60095481565b61021e6102603660046119cb565b60009081526007602052604090205460ff1690565b61023b6102833660046119cb565b60009081526020819052604090206001015490565b61023b600080516020611c1b83398151915281565b61023b600a5481565b6102c96102c4366004611a00565b610595565b005b6102c96102d9366004611a00565b6105c0565b61023b6105f8565b61030d7f000000000000000000000000000000000000000000000000000000000000000081565b6040516001600160a01b03909116815260200161022a565b6102c9610651565b6102c961033b3660046119cb565b610667565b6102c961034e3660046119cb565b6106b9565b6102c9610361366004611a00565b610702565b60015460ff1661021e565b6102c961037f366004611a2c565b610892565b61023b610392366004611a4e565b6001600160a01b031660009081526003602052604090205490565b61023b6103bb366004611a4e565b6001600160a01b031660009081526004602052604090205490565b61023b60085481565b6102c96103ed366004611a69565b610ab0565b6102c9610400366004611a9c565b610e23565b6102c9610fd8565b61021e61041b366004611a00565b610ff8565b61023b7fe2b7fb3b832174769106daebcfd6d1970523240dda11281102db9363b83b0dc481565b61023b600081565b61023b600b5481565b61023b611021565b6102c961046e366004611ac6565b611033565b6102c9610481366004611a00565b6111d5565b61023b60065481565b61021e61049d3660046119cb565b60076020526000908152604090205460ff1681565b6102c96104c03660046119cb565b6111fa565b61023b60055481565b60006001600160e01b03198216637965db0b60e01b14806104ff57506301ffc9a760e01b6001600160e01b03198316145b92915050565b6040516370a0823160e01b81523060048201526000907f00000000000000000000000000000000000000000000000000000000000000006001600160a01b0316906370a0823190602401602060405180830381865afa15801561056c573d6000803e3d6000fd5b505050506040513d601f19601f820116820180604052508101906105909190611b4d565b905090565b6000828152602081905260409020600101546105b0816112af565b6105ba83836112b9565b50505050565b6001600160a01b03811633146105e95760405163334bd91960e11b815260040160405180910390fd5b6105f3828261134b565b505050565b600060085460000361060b575060001990565b60006106156113b6565b9050600a54811461062857505060085490565b6008546009541061063b57600091505090565b60095460085461064b9190611b7c565b91505090565b600061065c816112af565b6106646113c5565b50565b6000610672816112af565b600880549083905560408051828152602081018590527f363d38ab783194cbf0326b38b49928c9d8956bd5d933e938d96587b231f9609e91015b60405180910390a1505050565b60006106c4816112af565b600b80549083905560408051828152602081018590527fb2741c14983a8e4e8cc2c5cfd90ef2f2ce72166c7df3f2e5754940d7e2f05c0f91016106ac565b61070a611417565b61071261143d565b816000036107335760405163162908e360e11b815260040160405180910390fd5b6001600160a01b03811661075a57604051634e46966960e11b815260040160405180910390fd5b816005600082825461076c9190611b8f565b909155506000905061077d83611465565b33600090815260036020526040902054909150156107c457336000908152600360205260409020546107af908261151c565b336000908152600360205260409020556107d7565b3360009081526003602052604090208190555b336000908152600360205260409020546107f0906115da565b3360008181526003602052604090205461080991611661565b61083e6001600160a01b037f0000000000000000000000000000000000000000000000000000000000000000163330866116f1565b604080518481524260208201526001600160a01b0384169133917f5e9700131f38c3544ffe3de1d8ad6558692f4a8c14ae59adb66975aca27401f8910160405180910390a35061088e6001600255565b5050565b600080516020611c1b8339815191526108aa816112af565b6108b261143d565b6000838152600c60205260409020600381015460ff166108ed5760405163d6d86ab760e01b8152600481018590526024015b60405180910390fd5b806002015442101561092257600281015460405163d1c65abf60e01b81526108e4918691600401918252602082015260400190565b80546040516370a0823160e01b81523060048201526001600160a01b03918216916000917f0000000000000000000000000000000000000000000000000000000000000000909116906370a0823190602401602060405180830381865afa158015610991573d6000803e3d6000fd5b505050506040513d601f19601f820116820180604052508101906109b59190611b4d565b9050848110156109e25760405163bce5067160e01b815260048101869052602481018290526044016108e4565b6000868152600c6020526040812080546001600160a01b03191681556001810182905560028101829055600301805460ff1916905560068054879290610a29908490611b8f565b90915550610a6390506001600160a01b037f0000000000000000000000000000000000000000000000000000000000000000168387611758565b6040518681526001600160a01b0383169033907f8bb3b7fc1b6577025b87566531efc5fdcae22154fdf1f69e274e17e0cacefc0b9060200160405180910390a35050506105f36001600255565b7fe2b7fb3b832174769106daebcfd6d1970523240dda11281102db9363b83b0dc4610ada816112af565b610ae2611417565b610aea61143d565b82600003610b0b5760405163162908e360e11b815260040160405180910390fd5b6001600160a01b038416610b3257604051634e46966960e11b815260040160405180910390fd5b60008281526007602052604090205460ff1615610b6557604051633a6e8a0f60e21b8152600481018390526024016108e4565b610b6d611789565b6000600854118015610b8d575060085483600954610b8b9190611b8f565b115b15610bc55782600954600854610ba39190611b7c565b60405163223ac84b60e21b8152600481019290925260248201526044016108e4565b6040516370a0823160e01b81523060048201526000907f00000000000000000000000000000000000000000000000000000000000000006001600160a01b0316906370a0823190602401602060405180830381865afa158015610c2c573d6000803e3d6000fd5b505050506040513d601f19601f82011682018060405250810190610c509190611b4d565b905083811015610c7d5760405163bce5067160e01b815260048101859052602481018290526044016108e4565b6000838152600760205260408120805460ff1916600117905560098054869290610ca8908490611b8f565b925050819055508360066000828254610cc19190611b8f565b9091555060009050610cd285611465565b6001600160a01b03871660009081526004602052604090205490915015610d34576001600160a01b038616600090815260046020526040902054610d16908261151c565b6001600160a01b038716600090815260046020526040902055610d50565b6001600160a01b03861660009081526004602052604090208190555b6001600160a01b038616600090815260046020526040902054610d72906115da565b6001600160a01b038616600090815260046020526040902054610d959087611661565b610dc96001600160a01b037f0000000000000000000000000000000000000000000000000000000000000000168787611758565b336001600160a01b031684876001600160a01b03167fed98106e352c4d485dfa1ce99e0d2e69b799f21cb35c85e77a7599888b33f7ce42604051610e0f91815260200190565b60405180910390a450506105ba6001600255565b600080516020611c1b833981519152610e3b816112af565b6001600160a01b038316610e6257604051634e46966960e11b815260040160405180910390fd5b81600003610e835760405163162908e360e11b815260040160405180910390fd5b6000610e8e83611465565b604080516001600160a01b0387166020820152429181019190915233606082015290915060009060800160408051601f1981840301815291815281516020928301206000818152600c90935291206003015490915060ff1615610f075760405163e5515eed60e01b8152600481018290526024016108e4565b6000600b5442610f179190611b8f565b604080516080810182526001600160a01b038981168252602080830188815283850186815260016060860181815260008b8152600c90955296909320945185546001600160a01b0319169416939093178455519083015551600282015590516003909101805460ff19169115159190911790559050610f95836115da565b604080518381526020810183905233917f1809996466e9b7250e83b9e64418b8c0e3c3b8c6cf7a258c0b6bfdd36aa1999f910160405180910390a2505050505050565b600080516020611c1b833981519152610ff0816112af565b6106646117e5565b6000918252602082815260408084206001600160a01b0393909316845291905290205460ff1690565b60006006546005546105909190611b7c565b600080516020611c1b83398151915261104b816112af565b6001600160a01b03851661107257604051634e46966960e11b815260040160405180910390fd5b600061107f858585611820565b604080516001600160a01b0389166020820152429181019190915233606082015290915060009060800160408051601f1981840301815291815281516020928301206000818152600c90935291206003015490915060ff16156110f85760405163e5515eed60e01b8152600481018290526024016108e4565b6000600b54426111089190611b8f565b604080516080810182526001600160a01b038b81168252602080830188815283850186815260016060860181815260008b8152600c90955296909320945185546001600160a01b0319169416939093178455519083015551600282015590516003909101805460ff19169115159190911790559050611186836115da565b6111908333611661565b604080518381526020810183905233917f1809996466e9b7250e83b9e64418b8c0e3c3b8c6cf7a258c0b6bfdd36aa1999f910160405180910390a25050505050505050565b6000828152602081905260409020600101546111f0816112af565b6105ba838361134b565b6000611205816112af565b6000828152600c602052604090206003015460ff1661123a5760405163d6d86ab760e01b8152600481018390526024016108e4565b6000828152600c602052604080822080546001600160a01b03191681556001810183905560028101929092556003909101805460ff19169055517fbaf2782704023771168e0702a4ae295bcbfb779c78e3a3f61970ba9a508f6f98906112a39084815260200190565b60405180910390a15050565b61066481336118d4565b60006112c58383610ff8565b611343576000838152602081815260408083206001600160a01b03861684529091529020805460ff191660011790556112fb3390565b6001600160a01b0316826001600160a01b0316847f2f8788117e7eff1d82e926ec794901d17c78024a50270940304540a733656f0d60405160405180910390a45060016104ff565b5060006104ff565b60006113578383610ff8565b15611343576000838152602081815260408083206001600160a01b0386168085529252808320805460ff1916905551339286917ff6391f5c32d9c69d2a47ea670b442974b53935d1edc7fd64eb21e047a839171b9190a45060016104ff565b60006105906201518042611ba2565b6113cd61190d565b6001805460ff191690557f5db9ee0a495bf2e6ff9c91a7834c1ba4fdd244a5e8aa4e537bd38aeae4b073aa335b6040516001600160a01b03909116815260200160405180910390a1565b60015460ff161561143b5760405163d93c066560e01b815260040160405180910390fd5b565b600280540361145f57604051633ee5aeb560e01b815260040160405180910390fd5b60028055565b60008061147e600080516020611bfb8339815191525490565b90506001600160a01b03811661149d57505067ffffffffffffffff1690565b60405163ca5cc85360e01b815267ffffffffffffffff841660048201526000906001600160a01b0383169063ca5cc853906024016020604051808303816000875af11580156114f0573d6000803e3d6000fd5b505050506040513d601f19601f820116820180604052508101906115149190611b4d565b949350505050565b600080611535600080516020611bfb8339815191525490565b90506001600160a01b03811661155c5783836115518183611b8f565b93506104ff92505050565b6040516368ef2c9560e11b815260048101859052602481018490526000906001600160a01b0383169063d1de592a906044016020604051808303816000875af11580156115ad573d6000803e3d6000fd5b505050506040513d601f19601f820116820180604052508101906115d19190611b4d565b95945050505050565b60006115f2600080516020611bfb8339815191525490565b90506001600160a01b0381161561088e57604051631816e78d60e31b8152600481018390526001600160a01b0382169063c0b73c6890602401600060405180830381600087803b15801561164557600080fd5b505af1158015611659573d6000803e3d6000fd5b505050505050565b6000611679600080516020611bfb8339815191525490565b90506001600160a01b038116156105f357604051635ca4b5b160e11b8152600481018490526001600160a01b03838116602483015282169063b9496b6290604401600060405180830381600087803b1580156116d457600080fd5b505af11580156116e8573d6000803e3d6000fd5b50505050505050565b6040516001600160a01b0384811660248301528381166044830152606482018390526105ba9186918216906323b872dd906084015b604051602081830303815290604052915060e01b6020820180516001600160e01b038381831617835250505050611930565b6040516001600160a01b038381166024830152604482018390526105f391859182169063a9059cbb90606401611726565b60006117936113b6565b9050600a548114610664576009546040805183815260208101929092527fe638076bbca2b2c411278920e16eae04c5336607869e572b0f850c042327748e910160405180910390a16000600955600a55565b6117ed611417565b6001805460ff1916811790557f62e78cea01bee320cd4e420270b5ea74000d11b0c9f74754ebdbfc544b05a258336113fa565b600080611839600080516020611bfb8339815191525490565b90506001600160a01b03811661185257849150506118cd565b6040516369be0ef960e01b81526000906001600160a01b038316906369be0ef99061188590899089908990600401611bc4565b6020604051808303816000875af11580156118a4573d6000803e3d6000fd5b505050506040513d601f19601f820116820180604052508101906118c89190611b4d565b925050505b9392505050565b6118de8282610ff8565b61088e5760405163e2517d3f60e01b81526001600160a01b0382166004820152602481018390526044016108e4565b60015460ff1661143b57604051638dfc202b60e01b815260040160405180910390fd5b600080602060008451602086016000885af180611953576040513d6000823e3d81fd5b50506000513d9150811561196b578060011415611978565b6001600160a01b0384163b155b156105ba57604051635274afe760e01b81526001600160a01b03851660048201526024016108e4565b6000602082840312156119b357600080fd5b81356001600160e01b0319811681146118cd57600080fd5b6000602082840312156119dd57600080fd5b5035919050565b80356001600160a01b03811681146119fb57600080fd5b919050565b60008060408385031215611a1357600080fd5b82359150611a23602084016119e4565b90509250929050565b60008060408385031215611a3f57600080fd5b50508035926020909101359150565b600060208284031215611a6057600080fd5b6118cd826119e4565b600080600060608486031215611a7e57600080fd5b611a87846119e4565b95602085013595506040909401359392505050565b60008060408385031215611aaf57600080fd5b611ab8836119e4565b946020939093013593505050565b60008060008060608587031215611adc57600080fd5b611ae5856119e4565b935060208501359250604085013567ffffffffffffffff80821115611b0957600080fd5b818701915087601f830112611b1d57600080fd5b813581811115611b2c57600080fd5b886020828501011115611b3e57600080fd5b95989497505060200194505050565b600060208284031215611b5f57600080fd5b5051919050565b634e487b7160e01b600052601160045260246000fd5b818103818111156104ff576104ff611b66565b808201808211156104ff576104ff611b66565b600082611bbf57634e487b7160e01b600052601260045260246000fd5b500490565b83815260406020820152816040820152818360608301376000818301606090810191909152601f909201601f191601019291505056fe2213e27a69620589bdc2328df8f4c3a2839d393438318617d33d9d300e84323b55435dd261a4b9b3364963f7738a7a662ad9c84396d64be3365284bb7f0a5041a26469706673582212203eb475d08ad29d6f3f13b62f41b9d8c5698f648382656f382bfa9739f5a5517564736f6c63430008140033",
  "linkReferences": {},
  "deployedLinkReferences": {}
}